:020000040000FA
:100000000C946B000C94DF140C94B8140C9406152B
:100010000C9406150C9406150C9493000C94930004
:100020000C9493000C9493000C9493000C94930004
:100030000C9493000C9493000C9493000C949300F4
:100040000C946E140C9493000C943C140C941614A1
:100050000C9493000C9493000C9493000C949300D4
:100060000C947E150C9493007C3C3E5E2B3D3F2F00
:100070005B5D3B2C2A225C0000000000240027006E
:100080002A0000000008000201000003040700002D
:1000900000000000000000000000230026002900EE
:1000A00000000000250028002B00040404040404C0
:1000B0000404020202020202030303030303010217
:1000C00004081020408001020408102001020408E6
:1000D0001020AE16E31B11241FBECFEFD8E0DEBF09
:1000E000CDBF26E0A4E8B2E001C01D92A03FB20758
:1000F000E1F712E0A0E0B1E0E4ECFDE302C005901E
:100100000D92A438B107D9F710E0CAE6D0E004C0D8
:100110002197FE010E94C11CC936D107C9F70E9470
:10012000D3170C94D51E0C94000081E080939105A8
:10013000089508950895AF92BF92CF92DF92EF9203
:10014000FF920F931F93CF93DF936C017B018B0181
:10015000040F151FEB015E01AE18BF08C017D107D1
:1001600059F06991D601ED91FC910190F081E02D5B
:10017000C6010995892B79F7C501DF91CF911F91B0
:100180000F91FF90EF90DF90CF90BF90AF900895C8
:10019000FC01538D448D252F30E0842F90E0821B8D
:1001A000930B541710F0CF96089501970895FC0112
:1001B000918D828D981761F0A28DAE0FBF2FB11D6A
:1001C0005D968C91928D9F5F9F73928F90E00895C2
:1001D0008FEF9FEF0895FC01918D828D981731F07C
:1001E000828DE80FF11D858D90E008958FEF9FEFD0
:1001F0000895FC01918D228D892F90E0805C9F4FA6
:10020000821B91098F739927089580EA95E00E94D7
:10021000F90021E0892B09F420E0822F089580E085
:1002200090E0892B29F00E94050181110C940000B7
:100230000895FC01A48DA80FB92FB11DA35ABF4F7B
:100240002C91848D90E001968F739927848FA689D5
:10025000B7892C93A089B1898C91837080648C9329
:10026000938D848D981306C00288F389E02D8081D8
:100270008F7D80830895EF92FF920F931F93CF930A
:10028000DF93EC0181E0888F9B8D8C8D98131AC0D1
:10029000E889F989808185FF15C09FB7F894EE89B8
:1002A000FF896083E889F989808183708064808315
:1002B0009FBF81E090E0DF91CF911F910F91FF9060
:1002C000EF900895F62E0B8D10E00F5F1F4F0F7308
:1002D0001127E02E8C8D8E110CC00FB607FCFACFC3
:1002E000E889F989808185FFF5CFCE010E94190147
:1002F000F1CFEB8DEC0FFD2FF11DE35AFF4FF08294
:100300009FB7F8940B8FEA89FB8980818062CFCFF9
:10031000CF93DF93EC01888D8823B9F0AA89BB893C
:10032000E889F9898C9185FD03C0808186FD0DC027
:100330000FB607FCF7CF8C9185FFF2CF808185FF48
:10034000EDCFCE010E941901E9CFDF91CF91089541
:10035000833081F028F4813099F08230A9F008953B
:100360008730A9F08830C9F08430B1F480918000E2
:100370008F7D03C0809180008F77809380000895E7
:1003800084B58F7784BD089584B58F7DFBCF809130
:10039000B0008F778093B00008958091B0008F7D7A
:1003A000F9CFCF93DF93282F30E0F901EE57FF4FBD
:1003B0008491F901E254FF4FD491F901E655FF4FC2
:1003C000C491CC23A1F081110E94A801EC2FF0E090
:1003D000EE0FFF1FEA56FF4FA591B491EC91ED236C
:1003E00081E090E009F480E0DF91CF91089580E012
:1003F00090E0FACFCF92DF92EF92FF920F931F938C
:10040000CF93C0E007E010E083E7E82EF12CCC2486
:10041000C394D12C80919405909195050E94D101AF
:10042000892BC1F3C7010197F1F780919405909151
:1004300095050E94D1019601002E01C0220F0A9459
:10044000EAF7892B71F42095C2230150110910F7A6
:100450008C2FCF911F910F91FF90EF90DF90CF9055
:100460000895C22B80919405909195050E94D10129
:10047000892BC1F7EACF1F93CF93DF93282F30E06A
:10048000F901EE57FF4F8491F901E254FF4FD491E7
:10049000F901E655FF4FC491CC23A9F0162F811125
:1004A0000E94A801EC2FF0E0EE0FFF1FE056FF4F77
:1004B000A591B4918FB7F894EC91111108C0D09523
:1004C000DE23DC938FBFDF91CF911F910895DE2B48
:1004D000F8CFCF93DF9390E0FC01E254FF4F2491DB
:1004E00086559F4FFC0184918823C9F090E0880FC6
:1004F000991FFC01E858FF4FA591B491FC01E0560B
:10050000FF4FC591D49161110DC09FB7F8948C91A4
:10051000209582238C938881282328839FBFDF9195
:10052000CF910895623051F49FB7F8943C91822F97
:10053000809583238C93E8812E2BEFCF8FB7F8948F
:10054000EC912E2B2C938FBFEACF3FB7F89480917C
:100550007D0590917E05A0917F05B091800526B51F
:10056000A89B05C02F3F19F00196A11DB11D3FBFEB
:10057000BA2FA92F982F8827BC01CD01620F711DBA
:10058000811D911D42E0660F771F881F991F4A95B4
:10059000D1F708958F929F92AF92BF92CF92DF9240
:1005A000EF92FF924B015C010E94A5026B017C015E
:1005B0000E94A5026C197D098E099F09683E73404F
:1005C00081059105A8F321E0821A9108A108B108DC
:1005D00088EEC80E83E0D81EE11CF11C8114910442
:1005E000A104B10429F7FF90EF90DF90CF90BF9066
:1005F000AF909F908F90089584E090E09093950540
:1006000080939405809194059091950561E00E94F6
:100610006902809194059091950560E00E943B02EB
:1006200062E170E080E090E00E94CA02809194054F
:100630009091950561E00E943B028BE490E0019768
:10064000F1F7809194059091950562E00E9469020E
:10065000109296058BE990E00197F1F7809194054F
:10066000909195050E94D101892B99F48BE391E03B
:100670000197F1F780919405909195050E94D10121
:10068000019719F481E08093960583EC90E001973F
:10069000F1F780919605813069F50E94FA01809307
:1006A00099050E94FA0180939A050E94FA018093AD
:1006B00097050E94FA01809398050E94FA018093A1
:1006C0009B05909199056091970520919A05290FB6
:1006D0003327331FA901460F511D20919805240F80
:1006E000352F311D33278217130621F460939205AD
:1006F0009093930508950895209183053091840582
:100700002817390771F49091810580918205981717
:1007100041F0E0918105F0E0E45CFA4F808190E0E7
:1007200008958FEF9FEF08950895EF92FF920F9332
:100730001F93CF93DF93DC015C96ED90FC905D9767
:10074000E114F10479F481E090E013969C938E9388
:10075000129790E080E0DF91CF911F910F91FF9071
:10076000EF9008955196ED91FC91529750968C918F
:100770005097982F90950FB75E962C915E97122FF9
:10078000127021FD6095F8942081112319F1282B16
:100790002083E7012197F1F728E0462F50E03081D0
:1007A00060FF1AC0382B3083E7012197F1F7BA01B7
:1007B00075956795215089F7112381F080818923F0
:1007C00080830FBF5C968D919C910197F1F781E03A
:1007D00090E0C1CF2923DCCF3923E5CF9081892B4D
:1007E000EFCF20918305309184052817390771F4E4
:1007F000809182052091810590E0805C9F4F821B53
:10080000910960E470E00E94771C089590E080E018
:100810000895209183053091840528173907B9F48C
:100820009091810580918205981789F0E09181056A
:10083000F0E0E45CFA4F80812091810530E02F5F89
:100840003F4F2F7333272093810590E008958FEF5A
:100850009FEF08952091E802211109C021E0209323
:10086000E80230913D0620913E063CBD2DBD60E082
:10087000FC0184810C943B0261E0FC0184810E94B4
:100880003B028091E80281111092E80208958EBD2A
:1008900000000DB407FEFDCF8EB508958FEF0C94C8
:1008A00047040F931F93CF93DF938C012FB7F894D6
:1008B00080919C0590919D05A0919E05B0919F050A
:1008C0002FBFEC010E944E048F3FB1F02FB7F89478
:1008D00080919C0590919D05A0919E05B0919F05EA
:1008E0002FBF8C1B9D0B8017910760F380E0DF9179
:1008F000CF911F910F91089581E0F9CFCF92DF92B0
:10090000EF92FF920F931F93CF93DF93EC01162F7B
:1009100069017A018E81882389F08F8198859C01F5
:100920002F5F3F4F38872F838230924018F40E9408
:100930004E04F3CFCE010E943C041E82CE010E94E1
:100940002A048CE291E00E945104812F80640E946D
:10095000470408E110E0D701C601002E04C0B69597
:10096000A795979587950A94D2F70E944704085057
:100970001109083F8FEF180771F78FEF0E944704A6
:1009800010E00E944E048A8787FF04C01F3F11F0C9
:100990001F5FF7CFDF91CF911F910F91FF90EF90E5
:1009A000DF90CF900895AF92BF92CF92DF92EF92F7
:1009B000FF920F931F93CF93DF93EC016901C8015E
:1009C000820F931F8130924050F58E81882379F0F9
:1009D00088819981AA81BB8184179507A607B707EB
:1009E00031F48F819885C816D90608F054C0488321
:1009F00059836A837B838B85833039F089E0440F88
:100A0000551F661F771F8A95D1F79A01AB0161E1E7
:100A1000CE010E947E04882389F083E08D83CE017D
:100A20000E943C0480E0DF91CF911F910F91FF90D5
:100A3000EF90DF90CF90BF90AF9008952FB7F894CC
:100A400080919C0590919D05A0919E05B0919F0578
:100A50002FBF5C010E944E048A878F3FB1F42FB7ED
:100A6000F89480919C0590919D05A0919E05B09170
:100A70009F052FBF8A199B098D32914058F38FE053
:100A80008D83CE010E943C04CACF8E3F89F4188624
:100A90001F8281E08E838F8198858C159D0550F48F
:100AA0000E944E048F819885019698878F83F3CF9B
:100AB0008DE0E6CF6701E00EF11E0E944E04F601C4
:100AC00081936F01EE15FF05C1F78F819885080F9F
:100AD000191F18870F838985882319F00115124083
:100AE000A0F08E81882389F08F8198859C012F5FEB
:100AF0003F4F38872F838230924018F40E944E0473
:100B0000F3CFCE010E943C041E8281E08CCFCF92B5
:100B1000DF92EF92FF920F93CF93DF93EC01690185
:100B200082E1411551056105710599F08B8583308E
:100B300039F089E0440F551F661F771F8A95D1F75A
:100B40009A01AB0168E1CE010E947E04882319F06E
:100B500084E08D832DC08EEF0E94470476018EEFD6
:100B6000D81AF70181917F010E944704EC14FD041B
:100B7000C1F78FEF0E9447048FEF0E9447040E9445
:100B80004E048A878F71853071F4011116C0CE0131
:100B90000E943C0481E0DF91CF910F91FF90EF9094
:100BA000DF90CF90089581E18D83CE010E943C04B7
:100BB000CE010E943C0480E0EECF88E592E00E94E6
:100BC0005104811102C085E1C4CF20E030E0A901C9
:100BD0006DE0CE010E947E04882311F084E1B9CF3C
:100BE0000E944E048111FACFD2CF0F934091EA02B6
:100BF0005091EB026091EC027091ED0241155105AC
:100C00006105710589F0082F2EEE32E090E080E05A
:100C10000E948705882349F01092EA021092EB02A5
:100C20001092EC021092ED0281E00F9108950F9363
:100C3000CF93C82F8091E902811105C0C1E08C2FAC
:100C4000CF910F9108954091000150910101609161
:100C50000201709103010C2F2EEE32E090E080E053
:100C60000E948705811102C0C0E0E9CFCC2331F397
:100C700081E00E94F5058823B9F31092E902DFCFE5
:100C80008F929F92AF92BF92EF92FF920F931F931A
:100C9000CF934B015C01C42F809100019091010121
:100CA000A0910201B091030188159905AA05BB0521
:100CB00041F181E00E94170681110BC080E0CF91C5
:100CC0001F910F91FF90EF90BF90AF909F908F90EA
:100CD00008958EEEE82E82E0F82E00E012E030E07B
:100CE00020E0B501A40190E080E00E94D3048823B5
:100CF00029F38092000190920101A0920201B0922A
:100D000003014091E9024C2B4093E90281E0D7CFE7
:100D10004F925F926F927F928F929F92AF92BF920B
:100D2000CF92DF92EF92FF920F931F93CF93DF93B7
:100D3000EC01423051056105710590F480E0DF91CE
:100D4000CF911F910F91FF90EF90DF90CF90BF90C8
:100D5000AF909F908F907F906F905F904F9008958D
:100D600089859A85AB85BC850196A11DB11D841727
:100D70009507A607B70710F3CB88DC88ED88FE88B7
:100D80008F89803109F042C0BB27A72F962F852F6E
:100D9000480159012A013B01C80ED91EEA1EFB1E5B
:100DA0008091000190910101A0910201B091030195
:100DB000C816D906EA06FB0699F58F898031C1F578
:100DC000B301A201552766277727440F551F4251CB
:100DD0005D4FFA01918280828091E9028160809367
:100DE000E9028A89823080F08D819E81AF81B88549
:100DF0008C0D9D1DAE1DBF1D8093EA029093EB02EA
:100E0000A093EC02B093ED0281E099CFDB01CA011F
:100E1000E7E0B695A79597958795EA95D1F7B8CF6E
:100E200040E0C701B6010E9440068111C6CF86CFBF
:100E3000B301A2014F77552766277727440F551F27
:100E4000440F551F42515D4FFA0180829182A28268
:100E5000B382C2CF8F929F92AF92BF92CF92DF9216
:100E6000EF92FF920F931F93CF93DF93FC01818545
:100E70009285A385B4850196A11DB11D84179507A0
:100E8000A607B70770F480E0DF91CF911F910F9113
:100E9000FF90EF90DF90CF90BF90AF909F908F909A
:100EA000089583889488A588B6888789803189F5D4
:100EB000BB27A72F962F852FE9016A017B018F01A0
:100EC000BC01CD01680D791D8A1D9B1D809000011C
:100ED00090900101A0900201B09003018616970640
:100EE000A806B90601F5F8018789803111F5DD24DE
:100EF000EE24FF24F601EE0FFF1FE251FD4F80812B
:100F00009181B0E0A0E088839983AA83BB8381E0CC
:100F1000BBCFDB01CA01C7E0B695A795979587952A
:100F2000CA95D1F7C9CF40E00E9440068111DBCFBE
:100F3000AACFE894C7F8DD24EE24FF24F601EE0FD3
:100F4000FF1FEE0FFF1FE251FD4F80819181A281B3
:100F5000B381BF70D8CF4F925F926F927F92AF9262
:100F6000BF92CF92DF92EF92FF920F931F93CF9396
:100F7000DF9300D000D0CDB7DEB78C0149835A8310
:100F80006B837C835901C12CD12C7601412C82E0EA
:100F9000582E612C712C49815A816B817C819E0174
:100FA0002F5F3F4FC8010E942A07882339F1F801BB
:100FB0008585A301920104C0220F331F441F551FD2
:100FC0008A95D2F7DA01C901C80ED91EEA1EFB1EA6
:100FD00049815A816B817C818789803111F188EF49
:100FE0009FEFAFEFBFE0481759076A077B0798F2FA
:100FF000F501C082D182E282F38281E00F900F90EE
:101000000F900F90DF91CF911F910F91FF90EF9074
:10101000DF90CF90BF90AF907F906F905F904F9098
:10102000089588EF9FEFA0E0B0E0DDCF8F929F9210
:10103000AF92BF92CF92DF92EF92FF920F931F93E6
:10104000CF93DF93EC018D8181110EC080E0DF91A1
:10105000CF911F910F91FF90EF90DF90CF90BF90B5
:10106000AF909F908F9008950B891C892D893E89A0
:10107000041715072607370748F34A015B0182303A
:1010800031F48A869B86AC86BD8681E0E0CF8114F0
:101090009104A104B10449F41E821F8218861986A6
:1010A0001A861B861C861D86F0CF0A851B852C851B
:1010B0003D85EB8DFC8D858590E00996B901A801F1
:1010C0004150510961097109082E04C07695679550
:1010D000579547950A94D2F775016401E1E0CE1A5D
:1010E000D108E108F10804C0F694E794D794C794B6
:1010F0008A95D2F7C416D506E606F70620F0012B2E
:10110000022B032B11F58F89988DA98DBA8D8E83B3
:101110009F83A887B9878E010A5F1F4FC114D1042E
:10112000E104F10409F4ADCF4E815F8168857985D2
:1011300098018B8D9C8D0E942A0791E0C91AD108D5
:10114000E108F1088111EACF81CFC41AD50AE60A75
:10115000F70AE1CF3F924F925F926F927F928F9208
:101160009F92AF92BF92CF92DF92EF92FF920F9336
:101170001F93CF93DF93CDB7DEB72C970FB6F894BC
:10118000DEBF0FBECDBF5C01DC015B968D909C90F5
:101190005C9716964D905D906D907C9019974114D8
:1011A00051046104710409F468C0BFEF4B1A5B0A73
:1011B0006B0A7B0A312CF40181859285A385B48565
:1011C0009C01AD012F5F3F4F4F4F5F4F29873A87FB
:1011D0004B875C87730162011D821E821F82188605
:1011E000F40181859285A385B4852D813E814F814F
:1011F0005885281739074A075B0708F056C08985C4
:101200009A85AB85BC858C159D05AE05BF0550F450
:1012100082E0C82ED12CE12CF12C92E0492E512CE9
:10122000612C712C9E012F5F3F4FB701A601C401B5
:101230000E942A078823C9F189819A81AB81BC81E8
:10124000892B8A2B8B2B09F1260137019FEF491A35
:10125000590A690A790A2D813E814F8158852F5F8D
:101260003F4F4F4F5F4F2D833E834F8358873FEF54
:10127000C31AD30AE30AF30AB3CFF40140805180C2
:10128000628073803324339496CFC414D504E6046B
:10129000F70409F70FEF1FEF2FEF3FE0B701A601AB
:1012A000C4010E948806811119C080E02C960FB6F7
:1012B000F894DEBF0FBECDBFDF91CF911F910F918C
:1012C000FF90EF90DF90CF90BF90AF909F908F9066
:1012D0007F906F905F904F903F900895D501169644
:1012E0004D915D916D917C91199741155105610565
:1012F000710539F097018601C4010E948806882390
:10130000A1F2D5011696CD92DD92ED92FC9219973D
:10131000332051F0D701C6010196A11DB11DF40182
:1013200080839183A283B383F5018789908DA18DFA
:10133000B28D892B8A2B8B2B39F48481C78AD08E6E
:10134000E18EF28E80688483F501848180628483DB
:1013500081E0ACCF1F93CF93DF93FC012581222343
:10136000D1F1162FEC01848187FF2AC0668577852D
:101370008089918941E00E944006882361F1EA89D1
:1013800080E2E89FF0011124E251FD4F309719F1FE
:101390008D81823040F48B899C89AD89BE89848F90
:1013A000958FA68FB78F8F89988D938F828F8F8916
:1013B000988DA98DBA8DB58BA48B8C818F778C83FA
:1013C000111103C08C818F7E8C83812FDF91CF918F
:1013D0001F910C94170680E0DF91CF911F91089523
:1013E0001F93CF93DF93EC018D81813031F090E03A
:1013F00080E0DF91CF911F9108958C8181FFF7CF1D
:1014000082FD18C090E080E00E942A040E944E04F1
:10141000182F90E080E00E943C041F3F41F78C8130
:1014200085FF1BC060E0CE010E94AA098C818F7DE0
:101430008C83DDCF4B895C896D897E898A859B850C
:10144000AC85BD8584179507A607B707D9F2CE01ED
:101450000E9416088111D6CFCACF4091EA0250915E
:10146000EB026091EC027091ED02452B462B472B6D
:1014700021F080E00E94F505BACF80618C832A8537
:101480003B85317080E092E0821B930BB2CFCF930B
:10149000DF93EC0161E00E94AA09882311F01D820C
:1014A00081E0DF91CF9108952F923F924F925F920A
:1014B0006F927F928F929F92AF92BF92CF92DF9264
:1014C000EF92FF920F931F93CF93DF9300D000D042
:1014D0001F92CDB7DEB77C015B01342E5D83DC014A
:1014E00015968C911597813009F0CCC014962C90EC
:1014F00021FEC8C022FCB2C0C32CDD8022947FE054
:1015000027222094B22DB1702B2ED7011A964D911F
:101510005D916D917C911D97C114D10409F426C190
:101520005B968D919C915C97FC0174807A948A0102
:101530009B0169E036952795179507956A95D1F730
:1015400070228A011170711020C001151105E9F493
:1015500016964D915D916D917C91199741155105AC
:101560006105710509F097C057968D919D910D9079
:10157000BC91A02D0097A105B10509F0AEC0C7012F
:101580000E94AA08882309F47DC080E092E0801BB5
:10159000910B46018C159D0508F44C01D7015B9613
:1015A0004D915C915C9716968D919D910D90BC919B
:1015B000A02D0297A109B109FA01258504C0880F61
:1015C000991FAA1FBB1F2A95D2F7468557856089A8
:1015D0007189840F951FA61FB71F9C01AD01270DB0
:1015E000311D411D511D29013A01811432E093063C
:1015F00009F079C08091000190910101A091020150
:10160000B091030184159505A605B70559F48FEF30
:101610009FEFDC018093000190930101A0930201F0
:10162000B0930301022D9501B301A20190E080E087
:101630000E948705882331F19EEFB91AC818D9088E
:10164000F70182859385A485B585880D991DA11D17
:10165000B11D82879387A487B58757CFF701438948
:1016600054896589768982859385A485B5854817CF
:1016700059076A077B0709F43FCFC7010E94160884
:1016800081113ACF81E090E0D70113969C938E931D
:10169000129780E007C09E012F5F3F4F0E942A07EC
:1016A000811102C090E079C089819A81AB81BC81AF
:1016B000F701238D348DF901278948EF5FEF60E052
:1016C00070E0203121F048EF5FEF6FEF7FE084178B
:1016D0009507A607B70708F052CFF70186839783CF
:1016E000A087B18752CF0115110599F5D7011A9638
:1016F0004D915D916D917C911D9753968D919D912A
:101700000D90BC91A02D481759076A077B0708F177
:1017100081E00E941706882309F4B4CF40920001AB
:101720005092010160920201709203018091E902DE
:1017300081608093E902C80182519D4FD5019C01CF
:10174000280D391DFC012E173F0759F04D9141938B
:10175000FACF41E0C301B2010E9440068111EBCFF4
:1017600091CF281B390BA20EB31E68CFF7018389D6
:101770009489A589B68984179507A607B70738F411
:101780008481438B548B658B768B80688483F701CF
:10179000848183FD1AC0832D9D810F900F900F903F
:1017A0000F900F90DF91CF911F910F91FF90EF90CD
:1017B000DF90CF90BF90AF909F908F907F906F9071
:1017C0005F904F903F902F90089561E0C7010E9475
:1017D000AA09882309F456CFDECFCF93DF931F9257
:1017E000CDB7DEB7698341E050E0BE016F5F7F4F48
:1017F0000E94540A0F90DF91CF910895FC01DB0104
:1018000012968D919C911397938382838CE291E041
:101810009183808314968C911497848315968C9170
:101820001597858316964D915D916D917C911997D1
:1018300046835783608771871A964D915D916D91AC
:101840007C911D9742875387648775871E964D91BB
:101850005D916D917C91519746875787608B718B15
:1018600052968C915297828B53964D915D916D91CA
:101870007C915697438B548B658B768B57964D9105
:101880005D916D917C915A97478B508F618F728FCC
:101890005B968D919C91948F838F08950895FC01A0
:1018A000818D928D009719F061E00C94AA0908953A
:1018B000DC015996ED91FC913097B9F083899489B8
:1018C000A589B6894285538564857585841B950BEA
:1018D000A60BB70B811520E89207A105B10538F0DA
:1018E0008FEF9FE7A0E0B0E0089590E080E00895DA
:1018F000DC0159968D919C91009739F0DC01ED91B6
:10190000FC910480F581E02D099490E080E0089539
:10191000CF93DF93EC01E98DFA8D309749F481E0A4
:1019200090E09B838A8390E080E0DF91CF910895DF
:1019300013821282898D9A8D0E94540AE98DFA8D44
:1019400022813381232B59F7F0CFCF93DF931F925E
:10195000CDB7DEB76983DC01ED91FC910280F381A4
:10196000E02D41E050E0BE016F5F7F4F09950F9081
:10197000DF91CF9108952F923F924F925F926F9295
:101980007F928F929F92AF92BF92CF92DF92EF920F
:10199000FF920F931F93CF93DF9300D01F92CDB789
:1019A000DEB7FC018581811118C08FEF9FEF0F908A
:1019B0000F900F90DF91CF911F910F91FF90EF90BB
:1019C000DF90CF90BF90AF909F908F907F906F905F
:1019D0005F904F903F902F900895848180FFE5CFD6
:1019E000438954896589768982859385A485B585DF
:1019F000312C212C481759076A077B0719F022243C
:101A00002394312C6F012101CE0101963C01DF01AD
:101A10001696BB83AA834114510409F4C3C0F6018E
:101A200042855385648575854A01F1E09F22D60180
:101A30005B968D919C915C978A019B01E9E03695BC
:101A4000279517950795EA95D1F71596EC91E23011
:101A5000E9F5FC01628D738D848D958D600F711F8A
:101A6000821F931FA12C22E0B22EA818B9084A1495
:101A70005B0408F45201F601248126FD04C0A11480
:101A8000F2E0BF0671F40091000110910101209174
:101A9000020130910301061717072807390709F0DB
:101AA0005EC040E00E944006882309F47ECFC40156
:101AB00082519D4FD3019C012A0D3B1DFC012E1725
:101AC0003F0709F46AC041914D93F9CFDC011496A8
:101AD000BC90BA94B0228114910479F4B1100DC075
:101AE000452B462B472B69F5F6018789908DA18DF3
:101AF000B28D86839783A087B187D6015B96ED91DF
:101B0000FC915C9716966D917D918D919C911997A2
:101B10006250710981099109258504C0660F771FFC
:101B2000881F991F2A95D2F7068517852089318944
:101B3000600F711F821F931F6B0D711D811D911D01
:101B400091CFD60116964D915D916D917C9119972B
:101B50002A813B810E942A078111CFCF26CF7301B2
:101B600085019401AB01BC0190E080E00E94D304A8
:101B7000882309F41ACF6A0C7B1CF60182859385B1
:101B8000A485B5858A0D9B1DA11DB11D82879387F4
:101B9000A487B5874A185B083ECF281B390B620E15
:101BA000731EEBCF2A94232809F0FFCE898190E0A1
:101BB000FECEFC01818D928D009711F00C94BB0C30
:101BC0008FEF9FEF08950F931F93CF93DF93EC0157
:101BD000898D9A8D10E000E0009799F00E94BB0C6F
:101BE0008C010F3F100769F0898D9A8DFC014285A9
:101BF00053856485758541505109610971090E94B9
:101C00001608C801DF91CF911F910F91089520917F
:101C1000C502260F3327331F21323105ECF4209102
:101C20001405FC0190E080E0243069F082E0089522
:101C3000A091C5022191AC014B555D4FA40FB52F6A
:101C4000B11D2C930196861798F38091C502680FF9
:101C50006093C50280E0089581E008951092140514
:101C600081E0809313051092EE0461E082E10E940E
:101C70003B0261E083E10E943B02E9EBF0E08081FE
:101C80008E7F808380818D7F808388E48093B800FD
:101C900085E48093BC000895CF93DF9391E0909307
:101CA000A4028823B9F0C091B800D091BA00809105
:101CB000BC008A7B8093BC0060E082E10E943B0212
:101CC00060E083E10E943B020E942E0ED093BA0096
:101CD000C093B800DF91CF910895E0918C05809179
:101CE0008B05E81730F4F0E0EC57FD4F808190E071
:101CF00008958FEF9FEF089590918C0580918B054B
:101D00002FEF3FEF981748F4E92FF0E0EC57FD4F25
:101D1000208130E09F5F90938C05C90108958091E8
:101D20008B0590918C05891B990B0895CF92DF92BA
:101D3000EF92FF920F931F93CF93DF937C01CB0120
:101D40008A0120911A05222389F0EB016B01C40E50
:101D5000D51ECC15DD0569F06991D701ED91FC9197
:101D60000190F081E02DC7010995F3CF642F0E9407
:101D7000070EC801DF91CF911F910F91FF90EF9057
:101D8000DF90CF900895CF93DF931F92CDB7DEB74A
:101D9000698320911A052223F9F0209189052032C8
:101DA00058F021E030E0FC013383228390E080E0B2
:101DB0000F90DF91CF91089580918A05E82FF0E090
:101DC000E55EFA4F998190838F5F80938A058093B7
:101DD000890581E090E0ECCF61E0CE0101960E94A0
:101DE000070EF7CFCF92DF92EF92FF920F931F93E0
:101DF000CF93DF93FC01C48121E020931A05C093A7
:101E00003B0510928A05109289058385682B88E826
:101E100096E00E94C30ED0918905D13208F092C09D
:101E20000E94A5026B017C0180911405811165C09F
:101E300082E08093140581E0809313058FEF8093F7
:101E4000120510921105D0931005ABE1B5E0E0EF5B
:101E5000F4E080E0D81385C01092EF048091EF0485
:101E6000CC0FC82BC093EF048091EE04813009F0B1
:101E70007CC01092EE040E94A5026B017C0180914F
:101E8000EF048093BB008091160590911705A091F7
:101E90001805B0911905892B8A2B8B2B99F00E947C
:101EA000A502009116051091170520911805309193
:101EB00019056C197D098E099F0906171707280750
:101EC0003907E0F18091BC0083FDD9CF85EC809388
:101ED000BC000E94A5026B017C0180911405823038
:101EE00009F445C0809112058F3F61F18091120580
:101EF000803241F18091120525C0809116059091A4
:101F00001705A0911805B0911905892B8A2B8B2BE9
:101F100009F48ACF0E94A5020091160510911705B9
:101F200020911805309119056C197D098E099F09BA
:101F3000061717072807390708F076CF809115058F
:101F40000E944C0E10928A051092890510921A0573
:101F5000DF91CF911F910F91FF90EF90DF90CF9085
:101F600008959D9191938F5F75CF85EEB0CF80914D
:101F7000160590911705A0911805B0911905892BA8
:101F80008A2B8B2B09F4A9CF0E94A502009116057C
:101F90001091170520911805309119056C197D09CC
:101FA0008E099F09061717072807390708F095CFEC
:101FB000C5CF90E080E008950F931F93CF938C01DD
:101FC000C62F0E94F20E6C2F6460C8010E94F20EB0
:101FD0006C2F6B7FC8010E94F20E83EC90E001979A
:101FE000F1F7CF911F910F9108950F931F93CF9306
:101FF000DF938C01D62FC42F607F642B0E94DC0FEF
:1020000080E1D89FB00111246C2BC801DF91CF91E2
:102010001F910F910C94DC0FCF93DF93CDB7DEB7F8
:1020200028970FB6F894DEBF0FBECDBF98E0EEE064
:10203000F1E0DE01119601900D929A95E1F79091F1
:10204000CE06961708F46FEF262F30E0220F331FCD
:1020500041E050E04C0F5D1F240F351FF9016081F6
:10206000680F606840E085EC96E028960FB6F8941B
:10207000DEBF0FBECDBFDF91CF910C94F50F40E0D6
:1020800061E085EC96E00E94F50F8BE39FE10197FC
:10209000F1F7089541E00E94F50F81E090E0089586
:1020A000CF92DF92EF92FF921F93CF93DF93EC01D9
:1020B00080E2689FF0011124E251FD4F93859171F8
:1020C00061F0842F827449F080E0DF91CF911F91FD
:1020D000FF90EF90DF90CF900895142F6A8B80913E
:1020E000000190910101A0910201B09103018E873E
:1020F0009F87A88BB98BC488D588F12CE12C7601F9
:10210000DD24CC24CF8AD88EE98EFA8E828D938DF1
:10211000B0E0A0E0AC01BD014C295D296E297F290A
:102120004F8B588F698F7A8F83858871B1F4848D36
:10213000958DA68DB78D8B8B9C8BAD8BBE8B81E0E7
:102140008D831F701C831E821F82188619861A8633
:102150001B861C861D8681E0B8CF803109F0B4CF84
:102160009E012D5E3F4F8B8D9C8D0E94AB07882377
:1021700009F4AACF84E0E4CFFB0101900020E9F745
:102180003197AF01461B570BDC01ED91FC910280AA
:10219000F381E02D09948F929F92AF92BF92EF92BC
:1021A000FF920F931F93CF93DF93CDB7DEB7A19725
:1021B0000FB6F894DEBF0FBECDBF7C01FA01CB0194
:1021C00019A2223008F42AE08E010F5D1F4F822EE3
:1021D000912CB12CA12CBF01A50194010E948B1C54
:1021E000F901CA016A300CF5605DD8016E938D016A
:1021F000232B242B252B79F790E080E0109721F0FA
:10220000BD01C7010E94BC10A1960FB6F894DEBFB5
:102210000FBECDBFDF91CF911F910F91FF90EF9037
:10222000BF90AF909F908F900895695CDECFCF9262
:10223000DF92EF92FF920F931F93CF93DF93EC0106
:102240006A017B01E881F9810190F081E02D6DE266
:1022500009958C0144275527BA014C195D096E096F
:102260007F092AE0CE010E94CB10800F911FDF91E1
:10227000CF911F910F91FF90EF90DF90CF90089535
:10228000CF93DF93AC01990F660B770B77FF10C0EC
:1022900080EA95E00E941711EC0166E771E080EAA0
:1022A00095E00E94BC108C0F9D1FDF91CF91089587
:1022B0002AE080EA95E00E94CB10EECFAB01770FC9
:1022C000660B770B77FD0C9417112AE00C94CB105A
:1022D0000F931F93CF93DF93EC010E94BC108C01EE
:1022E00066E771E0CE010E94BC10800F911FDF9164
:1022F000CF911F910F9108950C94BC10FC01808127
:102300009181009711F00C94631D0895EF92FF9254
:102310000F931F93CF93DF93EC017B018A01888198
:102320009981009729F02A813B812417350788F489
:10233000B8016F5F7F4F0E94EC1D009791F0998369
:1023400088831B830A832C813D81232B11F4FC019C
:1023500010821D830C83B701888199810E94BF1E62
:102360000CC088819981009711F00E94631D198229
:1023700018821D821C821B821A82CE01DF91CF91AE
:102380001F910F91FF90EF900895EF92FF920F939E
:102390001F93CF93DF93CDB7DEB762970FB6F89454
:1023A000DEBF0FBECDBF8C01CB01F80111821082C0
:1023B00013821282158214824AE09E012F5F3F4FE2
:1023C0007901B9010E940B1CF70101900020E9F787
:1023D0003197AF014E195F09B701C8010E948611FC
:1023E00062960FB6F894DEBF0FBECDBFDF91CF91DE
:1023F0001F910F91FF90EF9008953F924F925F923F
:102400006F927F928F929F92AF92BF92CF92DF9204
:10241000EF92FF920F931F93CF93DF93CDB7DEB769
:102420002B970FB6F894DEBF0FBECDBF7C01FE0127
:102430003196CE010C966F0130E23193E817F9071F
:10244000E1F7DA0130E087E09D91B92E992309F494
:102450003CC09E32F1F48A30C9F480E02B960FB66E
:10246000F894DEBF0FBECDBFDF91CF911F910F91CA
:10247000FF90EF90DF90CF90BF90AF909F908F90A4
:102480007F906F905F904F903F90089538E08AE082
:10249000DBCFE8E6F0E04491442321F03196941339
:1024A000FACFDBCF8317C8F24FED490F4E35A8F6B0
:1024B0004FE9490F4A3118F440EEB42EB90EF60137
:1024C000E30FF11DB0823F5FBFCF8981803229F2D7
:1024D000322E8B01DB015B968D919C915C97F7010D
:1024E000948F838F16961D921D921D921C921997A0
:1024F000FB011286138614861586F8018285938562
:10250000A485B5854389548965897689841795079B
:10251000A607B70708F04DC025E0B695A795979593
:1025200087952A95D1F7F82FFF70AF2ED801159611
:102530008C91823008F491CFC8010E94BB0C97FDAA
:102540008CCFF80182859385A485B5854F96A11D12
:10255000B11D82879387A487B587F0E2AF9EB00153
:10256000112462517D4F6115710509F476CFDB01AD
:102570008C91882341F0853E09F062C0BB2029F090
:10258000BB24B394BACFB1100EC0F701A28A8091D8
:10259000000190910101A0910201B0910301868791
:1025A0009787A08BB18BDB018C918111E9CFBB2484
:1025B000B394832D8271823109F04FCFBB2009F48F
:1025C0004DC0F701668577858089918941E00E9439
:1025D0004006882309F441CFD70152968C91B0E28E
:1025E0008B9FC001112482519D4F009709F435CF74
:1025F000FC013A9626E1DF011D922A95E9F72BE0CE
:10260000F601DC0101900D922A95E1F721E238E212
:10261000FC01318B208B40E058E057874687338B95
:10262000228B318F208F578B468B81E00E941706BB
:10263000882309F412CF432DD70152966C910AC01A
:102640004BE050E0C6010E94A91E892B09F055CF2E
:10265000432D6A2DC7010E94501000CFF8018581DB
:10266000823009F4FACEC8010E94AA08882309F42E
:10267000F4CED8015B96ED91FC915C9716968D9007
:102680009D90AD90BC901997B2E08B1A9108A1086B
:10269000B108858504C0880C991CAA1CBB1C8A95AE
:1026A000D2F786859785A089B189880E991EAA1EC2
:1026B000BB1E848124013501480E511C611C711C14
:1026C00084149504A604B70409F1E1E04E1A5108F8
:1026D0006108710881E00E941706882309F4BDCEC5
:1026E000EEEEF2E011928EEE94E08E179F07D1F796
:1026F0004092000150920101609202017092030128
:102700008091E90281608093E902DACFD8015B967B
:10271000ED91FC91258580E092E0A0E0B0E004C05E
:10272000880F991FAA1FBB1F2A95D2F7F80143896A
:10273000548965897689840F951FA61FB71F838BDF
:10274000948BA58BB68BD70152961C928EEE92E09D
:102750004FCFEF92FF920F931F93CF93DF93EC0134
:102760007B018A011B821A8288EE93E0A0E0B0E030
:102770008C839D83AE83BF8388E691E099838883B1
:102780008DE190E00E94C71C9A8F898F009779F0A5
:102790002DE1F701DC0101900D922A95E1F74CE063
:1027A00050E0B801CE010C960E94C61E188EDF9133
:1027B000CF911F910F91FF90EF90089585ED809339
:1027C000BC008091160590911705A0911805B09155
:1027D00019050796A11DB11D23E0B695A7959795FC
:1027E00087952A95D1F72091BC0024FD03C0109253
:1027F000140508954091160550911705609118052C
:1028000070911905452B462B472B69F30097A105BD
:10281000B10541F025E32A95F1F700000197A109E0
:10282000B109E1CF809115050C944C0E1F920F92C7
:102830000FB60F9211242F933F934F935F936F9393
:102840007F938F939F93AF93BF93EF93FF9380EA10
:1028500095E00E941901FF91EF91BF91AF919F9177
:102860008F917F916F915F914F913F912F910F9039
:102870000FBE0F901F9018951F920F920FB60F92D8
:1028800011242F938F939F93EF93FF93E091B005C3
:10289000F091B1058081E091B605F091B70582FD18
:1028A0001BC090818091B9058F5F8F732091BA050D
:1028B000821741F0E091B905F0E0E056FA4F958FAC
:1028C0008093B905FF91EF919F918F912F910F9078
:1028D0000FBE0F901F9018958081F4CF1F920F921A
:1028E0000FB60F9211242F933F938F939F93AF9323
:1028F000BF9380919C0590919D05A0919E05B091FC
:102900009F0530917C0523E0230F2D3758F5019664
:10291000A11DB11D20937C0580939C0590939D057E
:10292000A0939E05B0939F0580917D0590917E05B3
:10293000A0917F05B09180050196A11DB11D8093E6
:102940007D0590937E05A0937F05B0938005BF9190
:10295000AF919F918F913F912F910F900FBE0F904C
:102960001F90189526E8230F0296A11DB11DD2CF06
:102970001F920F920FB60F9211242F933F934F93F4
:102980005F936F937F938F939F93AF93BF93EF93D7
:10299000FF93E0910601F09107010995FF91EF91F6
:1029A000BF91AF919F918F917F916F915F914F9167
:1029B0003F912F910F900FBE0F901F9018951F926F
:1029C0000F920FB60F9211242F933F934F935F9363
:1029D0006F937F938F939F93AF93BF93EF93FF93E7
:1029E000E0910401F09105010995FF91EF91BF91EC
:1029F000AF919F918F917F916F915F914F913F9197
:102A00002F910F900FBE0F901F9018951F920F924D
:102A10000FB60F9211242F933F934F935F936F93B1
:102A20007F938F939F93AF93BF93EF93FF93E09127
:102A30008305F0918405309749F0A685B785858593
:102A4000968D91FF14C09C918923A1F4FF91EF9181
:102A5000BF91AF919F918F917F916F915F914F91B6
:102A60003F912F910F900FBE0F901F9018959C9142
:102A7000892361F7A389B4899C91858980958923ED
:102A80008C93868997890197F1F7608D718DA68562
:102A9000B785558538E020E0CB010197F1F7822F0B
:102AA00090E095958795282F4C91452309F0206853
:102AB000315091F7868D81FD20958091820590E0BF
:102AC00001968F73992730918105381799F0A0915D
:102AD0008205B0E0A45CBA4F2C9380938205828D6E
:102AE000938D0197F1F7A389B4898C919589892BEE
:102AF0008C93ACCF868D8160868FF1CF1F920F9221
:102B00000FB60F9211242F933F934F935F936F93C0
:102B10007F938F939F93AF93BF93EF93FF93809196
:102B2000B900887F803609F44AC0F0F5883209F48C
:102B3000A7C018F5803109F49BC0B8F4882309F4C4
:102B4000F9C0883009F494C0FF91EF91BF91AF9123
:102B50009F918F917F916F915F914F913F912F91B5
:102B60000F900FBE0F901F901895883109F488C000
:102B7000803251F78093120514C0803409F49DC04F
:102B800040F48033B9F38833F9F68093120585EC6D
:102B9000B0C0803509F485C0883509F496C0883402
:102BA00099F60E94DE13D0CF883909F48CC038F52D
:102BB000883729F050F4883611F0803729F683E001
:102BC000809314051092E70257C0883809F47BC03F
:102BD000803919F0803809F0B7CF8091E702803250
:102BE00008F071C0E091E70281E08E0F8093E70268
:102BF0008091BB00F0E0E953FD4F80833DC0803BF6
:102C000039F0E0F4803A09F479C0883A09F09CCFB1
:102C100084E0809314051092C6021092C502E091E0
:102C20008705F091880509958091C50281110FC033
:102C300081E08093C5021092A50209C0803C09F48E
:102C4000A6CF883C09F4A3CF883B09F07DCFE09163
:102C5000C60281E08E0F8093C602F0E0EB55FD4F77
:102C600080818093BB009091C6028091C50229C0EB
:102C70008091EF048093BB0085EC8093BC0064CF0F
:102C80009091110580911005981758F5E091110564
:102C900081E08E0F80931105F0E0E051FB4F8081C1
:102CA000E9CFE091110581E08E0F809311058091AD
:102CB000BB00F0E0E051FB4F8083909111058091C3
:102CC00010059817C8F285E8D8CFE091110581E08A
:102CD0008E0F809311058091BB00F0E0E051FB4F17
:102CE00080838091130581115CCF81E08093EE0495
:102CF00084EA8093BC001092140526CF85EC809363
:102D0000BC00109214058091E702803230F4E0910B
:102D1000E702F0E0E953FD4F10826091E70270E0B6
:102D2000E0918505F091860587EC92E00995109277
:102D3000E7020ACF1092120534CFFC0111821082F3
:102D40001382128215821482FB0101900020E9F7A0
:102D50003197AF01461B570B0C9486111092A305B7
:102D60001092A20588EE93E0A0E0B0E08093A40565
:102D70009093A505A093A605B093A7052AE131E09D
:102D80003093A1052093A00525EC30E03093AD05EC
:102D90002093AC0524EC30E03093AF052093AE05D2
:102DA00020EC30E03093B1052093B00521EC30E009
:102DB0003093B3052093B20522EC30E03093B50593
:102DC0002093B40526EC30E03093B7052093B60588
:102DD0001092B9051092BA051092BB051092BC056D
:102DE00020E520933D0610923E0610924406109274
:102DF00045061092480610924A0642E050E060E014
:102E000070E040934B0650934C0660934D067093D0
:102E10004E061092620610926C0610926B062CE21F
:102E200031E030936A062093690610926E06109284
:102E30008B0610928A0680938C0690938D06A09341
:102E40008E06B0938F0628E331E0309389062093F5
:102E500088061092D4061092D3068093D5069093DC
:102E6000D606A093D706B093D80628E631E0309373
:102E7000D2062093D1061092EB061092EA06109229
:102E8000DD061092C8061092C7062CE531E030939B
:102E9000C6062093C50620E22093C90620E12093B0
:102EA000CD0622E02093CE061092CF0628E0209394
:102EB000D0061092A9061092A8068093AA069093B5
:102EC000AB06A093AC06B093AD068AE491E0909374
:102ED000A7068093A6061092BD061092BC0610921B
:102EE000BF061092BE061092C1061092C006109244
:102EF000C3061092C2066091C4066E7F6D7F609318
:102F0000C4066695617081E068278FE00E943B02ED
:102F100061E08FE00E946902EDECF0E0E491E09363
:102F2000B606E9EBF0E0E491F0E0EE0FFF1FE056AB
:102F3000FF4F859194919093B8068093B70660E017
:102F40008EE00E9469028091C40681FD04C061E0A8
:102F50008EE00E943B028EE08093B206ECECF0E043
:102F6000E491E093B306E8EBF0E0E491F0E0EE0FDB
:102F7000FF1FEA56FF4F859194919093B506809379
:102F8000B4066FE572E080EA96E00E949D1669E75C
:102F900071E08AE996E00E949D1668E871E084E994
:102FA00096E00C949D16CF93DF93CDB7DEB7CE5746
:102FB000D1090FB6F894DEBF0FBECDBF789484B5AB
:102FC000826084BD84B5816084BD85B5826085BD25
:102FD00085B5816085BD80916E00816080936E00B3
:102FE00010928100809181008260809381008091A5
:102FF0008100816080938100809180008160809356
:1030000080008091B10084608093B1008091B00015
:1030100081608093B00080917A00846080937A0010
:1030200080917A00826080937A0080917A0081603A
:1030300080937A0080917A00806880937A00109261
:10304000C100E091B005F091B10582E08083E0918C
:10305000AC05F091AD051082E091AE05F091AF05A1
:103060008FEC80831092B805E091B405F091B5051E
:1030700086E08083E091B205F091B30580818061A4
:103080008083E091B205F091B305808188608083F0
:10309000E091B205F091B305808180688083E09172
:1030A000B205F091B30580818F7D80831092C106B7
:1030B0001092C0061092BF061092BE061092BD0676
:1030C0001092BC068DE991E09093C3068093C206EE
:1030D0009091B206963108F047C02DEB30E0309366
:1030E000BD062093BC062BE931E03093BF06209348
:1030F000BE062CE231E03093C1062093C006209139
:10310000680084E0983048F031E09E3008F430E008
:1031100081E001C0880F3A95EAF7822B809368001E
:103120002DE630E0983050F02BE630E09E3030F065
:103130002CE630E0963110F030E020E03093BA0613
:103140002093B906292F30E0983008F018C281E0AA
:1031500001C0880F9A95EAF78093BB068091C2065A
:103160009091C3060197F1F78091C0069091C10636
:10317000892B49F1E0918305F091840586E0E63AD8
:10318000F80709F1309739F0A389B4899C918589B2
:10319000809589238C938091C4068E7F8093C4068A
:1031A000109282051092810586EA96E0909384053C
:1031B00080938305E091B906F091BA0680819091E1
:1031C000BB06892B808310928C0510928B05109280
:1031D0008A05109289050E942E0E89E990E090934D
:1031E0008805809387058AE990E09093860580930F
:1031F00085051092CA068091CE06823018F098E0BC
:103200009093CA069091CF06992339F0813029F422
:103210008091CA0684608093CA0662E370E080E011
:1032200090E00E94CA026091D00685EC96E00E9470
:10323000F20E68EE73E080E090E00E94CA0260E364
:1032400085EC96E00E94DC0F0BE416E4C8010197C0
:10325000F1F760E385EC96E00E94DC0FC80101976E
:10326000F1F760E385EC96E00E94DC0F83E592E0E5
:103270000197F1F760E285EC96E00E94DC0F609127
:10328000CA06606240E085EC96E00E94F50F84E09B
:103290008093CB0640E06CE085EC96E00E94F50F51
:1032A0000E943F1082E08093CC0640E066E085EC0F
:1032B00096E00E94F50F40E062E085EC96E00E9407
:1032C000F50F8BE39FE10197F1F788E08093D0063B
:1032D00060E085EC96E00E94F20E60E083E00E94E0
:1032E0000C1066E971E085EC96E00E947C1161E0CB
:1032F00085E00E940C1060EA71E085EC96E00E9487
:103300007C110E94FC0285E990E090930501809376
:103310000401809169008C7F816080936900E89A44
:1033200060E083E00E94690258EE452E53E0552E7E
:10333000612C712C6BE4E62E66E0F62E0CE211E0B7
:1033400038E6A32E31E0B32E40E0C42E40E0D42E68
:1033500080919105882309F47DC01092910567EA58
:1033600071E080EA95E00E9468110E943F1060E0E1
:1033700084E00E940C1067EA71E085EC96E00E9400
:103380007C1160EB71E086EA96E00E9468116AEBBE
:1033900071E086EA96E00E94681164E670E080E0E1
:1033A00090E00E94CA0264EC71E086EA96E00E9416
:1033B000681164E670E080E090E00E94CA026DED62
:1033C00071E086EA96E00E94681164E670E080E0B1
:1033D00090E00E94CA026BEE71E086EA96E00E94DD
:1033E00068116BE072E086EA96E00E947C1161E170
:1033F00072E086EA96E00E947C1163E172E086EA60
:1034000096E00E947C116AE186EA96E00E949503AC
:1034100066E771E086EA96E00E94BC106CE271E01B
:1034200080E090E00E94CA0261E084E00E940C10FB
:1034300069E172E085EC96E00E947C1169E172E03E
:1034400080EA95E00E9468116CE271E080E090E013
:103450000E94CA020E943F100E94FC0280919205C5
:1034600090E09093900580938F050E94401160E05A
:1034700084E00E940C1062E272E085EC96E00E940B
:103480007C1160918F057091900585EC96E00E940B
:103490005E1183E00E94D10190938E0580938D058B
:1034A0000E94401160E08AE00E940C1065E272E028
:1034B00085EC96E00E947C1160918D0570918E05DF
:1034C00085EC96E00E945E1180918D0590918E05AD
:1034D00061E0892B09F060C083E00E940C106BE270
:1034E00072E085EC96E00E947C1162E370E080E07F
:1034F00090E00E94CA0260918F0570919005CE0104
:103500008D589F4F0E94C51160918D0570918E0559
:10351000CE0187589F4F0E94C5111C821B821A83BF
:1035200009831E82809162068031E1F582E08E83FC
:10353000188E198E1A8E1B8E8091630690916406E8
:10354000B0E0A0E025E0880F991FAA1FBB1F2A95B5
:10355000D1F78C8B9D8BAE8BBF8BFD8EEC8E81E07B
:103560008D831F82188619861A861B861C861D86E7
:103570001E861F86188A198A1A8A1B8A2CC09E30BA
:1035800040F42850310981E001C0880F2A95EAF7FC
:10359000E3CD2E503109F7CF81E00E940C1068E294
:1035A00072E09FCF8032B9F483E08E83409165064C
:1035B000509166066091670670916806488F598F32
:1035C0006A8F7B8F9E012C5E3F4F8BE496E00E94BA
:1035D000AB078111C2CFBE016F5F7F4FCE01CB968B
:1035E0000E94FE0B19A218A21F8F0E8F1BA22196FC
:1035F0008FAD21978111B9C06C961FAE1EAE6C972E
:10360000A0964CAE5DAE6EAE7FAEA0976A96BFAE92
:10361000AEAE6A97E3961FAE1EAEE397A5961FAEB9
:10362000A5976C968EAD9FAD6C979093D4068093C2
:10363000D306A0968CAD9DADAEADBFADA0978093E7
:10364000D5069093D606A093D706B093D806A49635
:103650008CAD9DADAEADBFADA4978093D9069093D0
:10366000DA06A093DB06B093DC06A8E5B0E0AC0F69
:10367000BD1F1C96EDEDF6E08D91819386E0EA3E4C
:10368000F807D1F7E396EEADFFADE397F093EB06C5
:10369000E093EA06309709F493C08581882309F402
:1036A0008FC061E472E080EA95E00E947C1166E7D9
:1036B00071E081ED96E00E94BC1068E572E081ED5A
:1036C00096E00E947C11EF964EAD5FADEF97EB96C2
:1036D0006EAD7FADEB9781ED96E00E94880C6EE5B4
:1036E00072E081ED96E00E947C1160E672E081ED6F
:1036F00096E00E947C11E9964EAD5FADE997E596A4
:103700006EAD7FADE59781ED96E00E94880C8091CB
:10371000EA069091EB06009761F00E94470A8091BB
:10372000EA069091EB060E94631D1092EB06109240
:10373000EA066DE772E080EA95E00E946811CE012A
:1037400087589F4F0E947E11CE018D589F4F0E9437
:103750007E11C114D10409F4FBCD0E940501882318
:1037600009F4ECCD0E940000E9CD27E148E352E0E6
:10377000BE01655C7F4FCE014E960E94FD118823ED
:1037800009F43ACFCE01CB960E94470A49A95AA91B
:103790006BA97CA9CE014E960E941608BE01625EFE
:1037A0007F4FCE0101960E94FE0B48E352E0BE011E
:1037B0006F5F7F4FCE01885A9F4F0E94A91331CF70
:1037C00067E672E0B8CF84E996E00E947E118AE94C
:1037D00096E00E947E1180EA96E00E947E118AE4C3
:1037E00091E09093A7068093A6068091830590911F
:1037F0008405865A964071F4E091B906F091BA06B4
:1038000090818091BB0680958923808310928405E6
:10381000109283050895BB274A3031F4992322F48E
:10382000BDE2909581959F4F0C94171CBB27FB011F
:103830005527AA27880F991FAA1FA41710F0A41BA9
:1038400083955051B9F7A05DAA3308F0A95DA19303
:10385000009779F7B111B1931192CB010C94301C00
:10386000DC01FC01672F71917723E1F7329704C0E7
:103870007C916D9370836291AE17BF07C8F3089572
:103880002F923F924F925F926F927F928F929F9270
:10389000AF92BF92CF92DF92EF92FF920F931F935E
:1038A000CF93DF93CDB7DEB7CA1BDB0B0FB6F8940F
:1038B000DEBF0FBECDBF09942A88398848885F844F
:1038C0006E847D848C849B84AA84B984C884DF80C0
:1038D000EE80FD800C811B81AA81B981CE0FD11DA4
:1038E0000FB6F894DEBF0FBECDBFED01089597FB74
:1038F000072E16F4009407D077FD09D00E94AD1C66
:1039000007FC05D03EF4909581959F4F08957095E2
:1039100061957F4F0895A1E21A2EAA1BBB1BFD01E2
:103920000DC0AA1FBB1FEE1FFF1FA217B307E4079E
:10393000F50720F0A21BB30BE40BF50B661F771FF6
:10394000881F991F1A9469F76095709580959095D6
:103950009B01AC01BD01CF010895AA1BBB1B51E126
:1039600007C0AA1FBB1FA617B70710F0A61BB70BEF
:10397000881F991F5A95A9F780959095BC01CD0194
:103980000895EE0FFF1F0590F491E02D09940F9319
:103990001F93CF93DF938230910510F482E090E083
:1039A000E091EE06F091EF0630E020E0B0E0A0E01C
:1039B000309799F42115310509F44AC0281B390BB9
:1039C00024303105D8F58A819B816115710589F113
:1039D000FB0193838283FE0111C0408151810281EA
:1039E000138148175907E0F04817590799F41097C1
:1039F00061F012960C93129713961C933296CF0196
:103A0000DF91CF911F910F9108950093EE061093CF
:103A1000EF06F4CF2115310551F04217530738F066
:103A2000A901DB019A01BD01DF01F801C1CFEF015E
:103A3000F9CF9093EF068093EE06CDCFFE01E20F13
:103A4000F31F819391932250310939832883D7CF73
:103A50002091EC063091ED06232B41F420910A01D0
:103A600030910B013093ED062093EC062091080174
:103A7000309109012115310541F42DB73EB7409130
:103A80000C0150910D01241B350BE091EC06F091D7
:103A9000ED06E217F307A0F42E1B3F0B281739079A
:103AA00078F0AC014E5F5F4F2417350748F04E0F9A
:103AB0005F1F5093ED064093EC06819391939FCF47
:103AC000F0E0E0E09CCFCF93DF930097E9F0FC01BA
:103AD000329713821282A091EE06B091EF06ED01AB
:103AE00030E020E01097A1F420813181820F931FF4
:103AF0002091EC063091ED062817390709F061C0D6
:103B0000F093ED06E093EC06DF91CF910895EA0182
:103B1000CE17DF07E8F54A815B819E01411551050B
:103B2000B1F7E901FB83EA8349915991C40FD51F8D
:103B3000EC17FD0761F4808191810296840F951F37
:103B4000E90199838883828193819B838A83F0E052
:103B5000E0E012968D919C9113970097B9F52D9105
:103B60003C911197CD010296820F931F2091EC0694
:103B70003091ED062817390739F6309751F5109234
:103B8000EF061092EE06B093ED06A093EC06BCCFC4
:103B9000D383C28340815181840F951FC817D907F1
:103BA00061F44E5F5F4F88819981480F591F51839F
:103BB00040838A819B81938382832115310509F09B
:103BC000B0CFF093EF06E093EE069ECFFD01DC014F
:103BD000C0CF13821282D7CFB0E0A0E0E2EFFDE1C8
:103BE0000C94421C8C01009751F4CB010E94C71C1D
:103BF0008C01C801CDB7DEB7E0E10C945E1CFC017E
:103C0000E60FF71F9C0122503109E217F30708F471
:103C10009DC0D901CD91DC911197C617D70798F0B7
:103C2000C530D10530F3CE0104978617970708F306
:103C3000C61BD70B2297C193D1936D937C93CF0171
:103C40000E94631DD6CF5B01AC1ABD0A4C018C0EDD
:103C50009D1EA091EE06B091EF06512C412CF12C47
:103C6000E12C109731F58091EC069091ED068815C6
:103C7000990509F05CC04616570608F058C08091B7
:103C8000080190910901009741F48DB79EB74091CA
:103C90000C0150910D01841B950BE817F90708F0F2
:103CA00055C0F093ED06E093EC06F9017183608353
:103CB000A0CF8D919C91119712966C9012971396AC
:103CC0007C901397A815B90559F56C0142E0C40E14
:103CD000D11CCA14DB0420F1AC014A195B09DA01DA
:103CE0001296159780F06282738251834083D901C6
:103CF0006D937C93E114F10471F0D7011396FC935A
:103D0000EE93129776CF22968C0F9D1FF901918327
:103D10008083F301EFCFF093EF06E093EE0669CFD7
:103D20004816590608F42C017D01D3019ACFCB0126
:103D30000E94C71C7C01009749F0AE01B8010E94A7
:103D4000B61EC8010E94631D870153CF10E000E03A
:103D500050CFFB01DC0104C08D910190801921F44A
:103D600041505040C8F7881B990B0895FB01DC01B6
:103D700002C001900D9241505040D8F70895FB01C8
:103D8000DC0101900D920020E1F70895FB01DC01B8
:103D90004150504048F001900D920020C9F701C0F9
:103DA0001D9241505040E0F7089510E0CAE6D0E07F
:103DB00004C0FE010E94C11C2196CB36D107C9F771
:103DC000F894FFCFFFFFFFFF7B037B030000F006AB
:103DD00080000000400014005400000000003B017F
:103DE0009B00C8008801F900D700EB00000000002C
:103DF000ED0B9B00F0094E0C00000000C30E960E68
:103E0000D90F94038F0E7C0E6D0E000000009503F9
:103E10009B00D90F9403F10309047C030000000008
:103E20004A109B00D90F4E0C00000000A50C880C16
:103E3000780C4F0C580CD90DE30D0D0A004E6F2075
:103E400052616E6765202020202020004E6F205296
:103E5000616E6765202020202000424C41434B20AA
:103E6000424F580053595354454D00414343494430
:103E7000454E540047534D20535441525400415431
:103E80002B434D47463D310041542B434D47533D55
:103E9000222B393138313839393838333437220D1B
:103EA00000204143434944454E542E2E2E2E006897
:103EB000747470733A2F2F7777772E676F6F676CF4
:103EC000652E636F6D2F6D6170732F3F713D0031F3
:103ED000342E3032002C0031362E30330047534D13
:103EE0002053454E4400543A00473A004E6F204755
:103EF00061732064657465637465640064617461F2
:103F00002E7478740057726974696E6720746F201C
:103F1000646174612E7478742E2E2E004761733A9A
:103F20002000090074656D703A2000577269746949
:103F30006E6720746F20646174612E7478742E2E05
:083F40002E646F6E652E000077
:107E0000112484B714BE81FFF0D085E080938100F7
:107E100082E08093C00088E18093C10086E0809377
:107E2000C20080E18093C4008EE0C9D0259A86E02C
:107E300020E33CEF91E0309385002093840096BBD3
:107E4000B09BFECF1D9AA8958150A9F7CC24DD24C4
:107E500088248394B5E0AB2EA1E19A2EF3E0BF2EE7
:107E6000A2D0813461F49FD0082FAFD0023811F036
:107E7000013811F484E001C083E08DD089C08234E0
:107E800011F484E103C0853419F485E0A6D080C0E4
:107E9000853579F488D0E82EFF2485D0082F10E0AE
:107EA000102F00270E291F29000F111F8ED06801E7
:107EB0006FC0863521F484E090D080E0DECF843638
:107EC00009F040C070D06FD0082F6DD080E0C81688
:107ED00080E7D80618F4F601B7BEE895C0E0D1E017
:107EE00062D089930C17E1F7F0E0CF16F0E7DF06D8
:107EF00018F0F601B7BEE89568D007B600FCFDCFD4
:107F0000A601A0E0B1E02C9130E011968C91119780
:107F100090E0982F8827822B932B1296FA010C0160
:107F200087BEE89511244E5F5F4FF1E0A038BF0790
:107F300051F7F601A7BEE89507B600FCFDCF97BE46
:107F4000E89526C08437B1F42ED02DD0F82E2BD052
:107F50003CD0F601EF2C8F010F5F1F4F84911BD097
:107F6000EA94F801C1F70894C11CD11CFA94CF0C13
:107F7000D11C0EC0853739F428D08EE10CD085E9AC
:107F80000AD08FE07ACF813511F488E018D01DD067
:107F900080E101D065CF982F8091C00085FFFCCF94
:107FA0009093C60008958091C00087FFFCCF809118
:107FB000C00084FD01C0A8958091C6000895E0E648
:107FC000F0E098E1908380830895EDDF803219F02E
:107FD00088E0F5DFFFCF84E1DECF1F93182FE3DFCA
:107FE0001150E9F7F2DF1F91089580E0E8DFEE27F6
:047FF000FF270994CA
:027FFE00040479
:00000001FF
