:100000000C94DF000C9407010C9407010C94070179
:100010000C9407010C9407010C9407010C94070140
:100020000C9407010C9407010C9407010C94070130
:100030000C9407010C9407010C9407010C94070120
:100040000C94060C0C9407010C94D40B0C94AE0B7E
:100050000C9407010C9407010C9407010C94070100
:100060000C9407010C94070100407A10F35A00A089
:10007000724E18090010A5D4E80000E87648170071
:1000800000E40B54020000CA9A3B000000E1F505B1
:10009000000080969800000040420F000000A086FB
:1000A00001000000102700000000E803000000002D
:1000B0006400000000000A000000000001000000D1
:1000C00000002C76D888DC674F0823DFC1DFAE59EB
:1000D000E1B1B796E5E3E453C63AE651997696E87E
:1000E000E6C28426EB898C9B62ED407C6FFCEFBC02
:1000F0009C9F40F2BAA56FA5F490055A2AF75C932D
:100100006B6CF9676DC11BFCE0E40D47FEF520E662
:10011000B500D0ED902E0300943577050080841E45
:10012000080000204E0A000000C80C333333330FA0
:10013000986E12831141EF8D2114893BE65516CF3D
:10014000FEE6DB18D1844B381BF77C1D901DA4BB49
:10015000E424203284725E228100C9F124ECA1E5FE
:100160003D2700000000240027002A0000000000B6
:10017000250028002B000000000023002600290095
:10018000040404040404040402020202020203033D
:100190000303030301020408102040800102040845
:1001A00010200102040810200000000800020100D5
:1001B000000304070000000000000000500C1124A0
:1001C0001FBECFEFD8E0DEBFCDBF23E0A6E8B2E090
:1001D00001C01D92AD3BB207E1F712E0A0E0B1E033
:1001E000ECEBFFE202C005900D92A638B107D9F7FB
:1001F00010E0CFEDD0E004C02197FE010E94E4158D
:10020000CE3DD107C9F70E94AA0C0C94DC170C94C0
:100210000000AF92BF92CF92DF92EF92FF920F93C6
:100220001F93CF93DF936C017B018B01040F151F8C
:10023000EB015E01AE18BF08C017D10759F06991F4
:10024000D601ED91FC910190F081E02DC601099558
:10025000892B79F7C501DF91CF911F910F91FF9005
:10026000EF90DF90CF90BF90AF900895FC01538D39
:10027000448D252F30E0842F90E0821B930B541780
:1002800010F0CF96089501970895FC01918D828D0D
:10029000981761F0A28DAE0FBF2FB11D5D968C91A6
:1002A000928D9F5F9F73928F90E008958FEF9FEFE5
:1002B0000895FC01918D828D981731F0828DE80FA1
:1002C000F11D858D90E008958FEF9FEF0895FC015B
:1002D000918D228D892F90E0805C9F4F821B910928
:1002E0008F73992708958DEF92E00E94670121E0B6
:1002F000892B09F420E0822F0895FC01A48DA80F1A
:10030000B92FB11DA35ABF4F2C91848D90E0019657
:100310008F739927848FA689B7892C93A089B18977
:100320008C91837080648C93938D848D981306C018
:100330000288F389E02D80818F7D80830895EF927C
:10034000FF920F931F93CF93DF93EC0181E0888F8F
:100350009B8D8C8D98131AC0E889F989808185FF5F
:1003600015C09FB7F894EE89FF896083E889F98901
:1003700080818370806480839FBF81E090E0DF9103
:10038000CF911F910F91FF90EF900895F62E0B8D56
:1003900010E00F5F1F4F0F731127E02E8C8D8E1111
:1003A0000CC00FB607FCFACFE889F989808185FF78
:1003B000F5CFCE010E947D01F1CFEB8DEC0FFD2F2B
:1003C000F11DE35AFF4FF0829FB7F8940B8FEA8933
:1003D000FB8980818062CFCFCF93DF93EC01888D42
:1003E0008823B9F0AA89BB89E889F9898C9185FDB0
:1003F00003C0808186FD0DC00FB607FCF7CF8C913E
:1004000085FFF2CF808185FFEDCFCE010E947D0177
:10041000E9CFDF91CF910895833081F028F48130C6
:1004200099F08230A9F008958730A9F08830C9F09A
:100430008430B1F4809180008F7D03C08091800072
:100440008F7780938000089584B58F7784BD089559
:1004500084B58F7DFBCF8091B0008F778093B00003
:1004600008958091B0008F7DF9CFCF93DF93282F2F
:1004700030E0F901E855FE4F8491F901EC56FE4F4A
:10048000D491F901E058FE4FC491CC23A1F0811121
:100490000E940C02EC2FF0E0EE0FFF1FEA58FE4F17
:1004A000A591B491EC91ED2381E090E009F480E016
:1004B000DF91CF91089580E090E0FACFCF92DF9264
:1004C000EF92FF920F931F93CF93C0E007E010E0ED
:1004D00083E7E82EF12CCC24C394D12C8091F50233
:1004E0009091F6020E943502892BC1F3C701019752
:1004F000F1F78091F5029091F6020E943502960183
:10050000002E01C0220F0A94EAF7892B71F420957E
:10051000C2230150110910F78C2FCF911F910F9119
:10052000FF90EF90DF90CF900895C22B8091F5025D
:100530009091F6020E943502892BC1F7EACF1F93F2
:10054000CF93DF93282F30E0F901E855FE4F8491D7
:10055000F901EC56FE4FD491F901E058FE4FC491D9
:10056000CC23A9F0162F81110E940C02EC2FF0E091
:10057000EE0FFF1FE459FE4FA591B4918FB7F89489
:10058000EC91111108C0D095DE23DC938FBFDF9171
:10059000CF911F910895DE2BF8CFCF93DF9390E09A
:1005A000FC01EC56FE4F249180589E4FFC01849133
:1005B0008823C9F090E0880F991FFC01EE59FE4F87
:1005C000A591B491FC01E459FE4FC591D4916111FC
:1005D0000DC09FB7F8948C91209582238C938881CD
:1005E000282328839FBFDF91CF910895623051F473
:1005F0009FB7F8943C91822F809583238C93E88158
:100600002E2BEFCF8FB7F894EC912E2B2C938FBF1E
:10061000EACF8E3008F08E508770806480937C0023
:1006200080917A00806480937A0080917A0086FDC0
:10063000FCCF809178009091790008953FB7F894AD
:1006400080918C0290918D02A0918E02B0918F02C8
:1006500026B5A89B05C02F3F19F00196A11DB11D1D
:100660003FBFBA2FA92F982F8827BC01CD01620F59
:10067000711D811D911D42E0660F771F881F991F14
:100680004A95D1F708958F929F92AF92BF92CF92E1
:10069000DF92EF92FF924B015C010E941E036B01FF
:1006A0007C010E941E036C197D098E099F09683E1A
:1006B000734081059105A8F321E0821A9108A108F1
:1006C000B10888EEC80E83E0D81EE11CF11C81142D
:1006D0009104A104B10429F7FF90EF90DF90CF902F
:1006E000BF90AF909F908F900895089590E080E024
:1006F00008950F931F93CF93DF938C01D0E0C0E058
:10070000D80114968D919C911597C817D90790F42C
:10071000ED91FC91309759F410928602E6E8F2E0F0
:1007200060818DEF92E00E949F012196E9CFEC0F4E
:10073000FD1FF6CF68EB7BE080E090E0DF91CF918A
:100740001F910F910C944303CF93DF93EC0160E072
:100750008E810E949F0261E08E810E949F0260E074
:100760008E810E949F028BE891E00197F1F7DF9163
:10077000CF910895CF92DF92EF92FF920F931F9344
:10078000CF93DF936C017C0187E0E80EF11CD0E091
:10079000C0E0062F10E0B8010C2E02C075956795D9
:1007A0000A94E2F76170F70181917F010E949F0234
:1007B0002196C430D10579F7C601DF91CF911F9101
:1007C0000F91FF90EF90DF90CF900C94A403CF9205
:1007D000DF92EF92FF920F931F93CF93DF93EC0181
:1007E000F62E642F8C810E949F028D818F3F19F01D
:1007F00060E00E949F020F2D10E08F8584FF25C0CE
:100800006E0187E0C80ED11CF12CE12CB8010E2C32
:1008100002C0759567950A94E2F76170F6018191BF
:100820006F010E949F02FFEFEF1AFF0A88E0E816AF
:10083000F10461F7CE01DF91CF911F910F91FF90ED
:10084000EF90DF90CF900C94A403B80184E07595ED
:1008500067958A95E1F7CE010E94BA036F2DCE010C
:10086000DF91CF911F910F91FF90EF90DF90CF908C
:100870000C94BA0340E0682F8AE993E00C94E703F4
:1008800081E00E943A048BE39FE10197F1F708951C
:10089000CF93DF93823029F49091A90398609093CD
:1008A000A9038093AD031092AE0380E48093AF035D
:1008B00080E18093B00380E58093B10361E0809193
:1008C0009E030E94CD0280919F038F3F19F061E04B
:1008D0000E94CD0261E08091A0030E94CD02CAE98E
:1008E000D3E09E012A5933408091A90384FD0BC0B7
:1008F00084E090E021962817390744F461E08E8166
:100900000E94CD02EECF88E090E0F4CF8BE39DE033
:100910000197F1F760E080919E030E949F0260E0E2
:100920008091A0030E949F0280919F038F3F19F046
:1009300060E00E949F028091A90384FD34C063E0BF
:100940008AE993E00E94BA03CBE4D6E4CE01019792
:10095000F1F763E08AE993E00E94BA032197F1F787
:1009600063E08AE993E00E94BA0383E592E001978D
:10097000F1F762E08AE993E00E94BA038091A9034B
:1009800080620E943A0484E08093AA038CE00E9473
:100990003A040E94400482E08093AB0386E0DF913A
:1009A000CF910C943A0480620E943A048BE496E45E
:1009B0000197F1F78091A90380620E943A0483E5D0
:1009C00092E00197F1F78091A90380620E943A04B6
:1009D000D5CF9091AD03691710F06FEF690FE62F37
:1009E000F0E0E656FC4F9489890F80680C943A0435
:1009F00041E00E94E70381E090E00895FB0101904F
:100A00000020E9F73197AF01461B570BDC01ED9150
:100A1000FC910280F381E02D09948F929F92AF9216
:100A2000BF92EF92FF920F931F93CF93DF93CDB7B7
:100A3000DEB7A1970FB6F894DEBF0FBECDBF7C0125
:100A4000FA01CB0119A2223008F42AE08E010F5DD1
:100A50001F4F822E912CB12CA12CBF01A501940116
:100A60000E949415F901CA016A300CF5605DD80145
:100A70006E938D01232B242B252B79F790E080E0BA
:100A8000109721F0BD01C7010E94FE04A1960FB688
:100A9000F894DEBF0FBECDBFDF91CF911F910F91B4
:100AA000FF90EF90BF90AF909F908F900895695CFA
:100AB000DECFCF92DF92EF92FF926C01990FEE089A
:100AC000FF08F7FE18C041E06DE28AE993E00E945A
:100AD000E70344275527BA014C195D096E097F09C0
:100AE0002AE08AE993E00E940D050196FF90EF90BD
:100AF000DF90CF9008952AE0B701A6018AE993E03C
:100B0000FF90EF90DF90CF900C940D05CF93DF9383
:100B1000BC018DEF92E00E94FE04EC0164E271E002
:100B20008DEF92E00E94FE048C0F9D1FDF91CF910C
:100B300008952F923F924F925F926F927F928F9281
:100B40009F92AF92BF92CF92DF92EF92FF921F934C
:100B5000CF93DF93EC016A017B01722EAB0196010A
:100B6000CB01B6010E94661567E271E0811126C0D3
:100B700046015701E894B7F82FEF3FEF4FE75FE7E3
:100B8000C501B4010E94661581110CC02FEF3FEF23
:100B90004FE75FE7C501B4010E94A3126BE271E069
:100BA000181664F02FEF3FEF4FE75FE4C701B6017F
:100BB0000E941B151816B4F46FE271E0CE01DF91AC
:100BC000CF911F91FF90EF90DF90CF90BF90AF90AB
:100BD0009F908F907F906F905F904F903F902F905D
:100BE0000C94FE042FEF3FEF4FE75FECC701B60117
:100BF0000E94A31287FDE0CF20E030E0A901C701E9
:100C0000B6010E94A312312C212C87FF0DC0E88170
:100C1000F9810190F081E02D6DE2CE0109951C0172
:100C2000F7FAF094F7F8F09410E060E070E080E0FC
:100C30009FE3711641F020E030E040E251E40E9471
:100C40007A141F5FF6CFA70196010E940E142B01A4
:100C50003C010E94EC144B015C012AE0BC01A401A0
:100C6000CE010E940D057C01E20CF31C1123E1F181
:100C7000C501B4010E94A8129B01AC01C301B201DD
:100C80000E940D144B015C01E881F9810190F08113
:100C9000E02D6EE2CE010995E80EF91E115020F10B
:100CA00020E030E040E251E4C501B4010E940913A4
:100CB0002B013C010E94EC144B01B12CA12C2AE029
:100CC000B501A401CE010E940D05E80EF91EC50173
:100CD000B4010E94A8129B01AC01C301B2010E94A1
:100CE0000D144B015C01DACFC701DF91CF911F9149
:100CF000FF90EF90DF90CF90BF90AF909F908F903C
:100D00007F906F905F904F903F902F9008950C943C
:100D1000FE04CF93DF93D4E38DEF92E00E9467014E
:100D2000181619063CF58DEF92E00E944501C82F78
:100D30008333A1F05CF4813311F0823369F763E30C
:100D400071E08DEF92E00E94870605C0853319F0AF
:100D500054F0863309F7C093EE02DECF80E491E0D1
:100D60000E948605F8CF8BE491E00E948605D0931F
:100D7000EE02D2CFDF91CF9108950E9473018111CD
:100D80000C94890608950F931F93CF93DF93EC0182
:100D900088819981009759F02A813B81261737076E
:100DA00030F081E0DF91CF911F910F9108958B0179
:100DB0006F5F7F4F0E940F17009759F099838883C8
:100DC0001B830A832C813D81232B59F7FC01108260
:100DD000E8CF80E0E7CFEF92FF920F931F93CF937E
:100DE000DF936115710541F480E0DF91CF911F9190
:100DF0000F91FF90EF90089541155105B1F07B01DF
:100E0000EC010C811D81040F151FB8010E94C3065F
:100E1000882351F3288139818C819D81B701820F0C
:100E2000931F0E94D5171D830C8381E0DECFCF93E3
:100E3000DF93EC0188819981009711F00E9486165A
:100E4000198218821D821C821B821A82DF91CF9127
:100E50000895EF92FF920F931F93CF93DF93EC01CE
:100E60007B018A01BA010E94C30681110BC0CE0129
:100E70000E941707CE01DF91CF911F910F91FF9034
:100E8000EF9008951D830C83B701888199810E949A
:100E9000D517F0CFEF92FF920F931F93CF93DF936D
:100EA000CDB7DEB7A1970FB6F894DEBF0FBECDBFAA
:100EB0007C01CB01BA01F7011182108213821282E8
:100EC000158214828E010F5F1F4F22E044E00E94C2
:100ED0004E100097C9F0FC0101900020E9F731970E
:100EE000AF01481B590BBC01C7010E942907A196FD
:100EF0000FB6F894DEBF0FBECDBFDF91CF911F912B
:100F00000F91FF90EF900895C7010E941707EFCF50
:100F1000FC01118210821382128215821482FB015D
:100F200001900020E9F73197AF01461B570B0C9455
:100F30002907FC0180819181009711F00C9486169D
:100F400008952F923F924F925F926F927F928F926D
:100F50009F92AF92BF92CF92DF92EF92FF920F9348
:100F60001F93CF93DF93CDB7DEB72A970FB6F894D0
:100F7000DEBF0FBECDBF8EE480937C0062E070E0E8
:100F800080E090E00E94430380917A008064809327
:100F90007A0080917A0086FDFCCF809178002091C4
:100FA000790030E0322F2227032E000C440B550B22
:100FB000282B60E070E381E190E00E94B6152D835C
:100FC0003E834F8358878FB7F894C0908802D090A3
:100FD0008902E0908A02F0908B028FBF8091A40278
:100FE0000E9409039093E9028093E802BC01990FE3
:100FF000880B990B0E94AA124B015C012DEC3CEC72
:101000004CE054E40E94A31287FF0AC026E636E6AD
:1010100046EE53E4C501B4010E941B151816A4F056
:101020002FB7F8948091880290918902A0918A024A
:10103000B0918B022FBF8C199D09AE09BF09893E63
:101040009340A105B10550F28FB7F8942091880222
:101050003091890240918A0250918B0229833A8310
:101060004B835C838FBF1A86198610E000E02FB790
:10107000F8948091880290918902A0918A02B0919F
:101080008B022FBF29813A814B815C81821B930B9C
:10109000A40BB50B883E9340A105B10508F046C1ED
:1010A00049855A854F5F5F4F5A8749878091BC02B7
:1010B0009091BD02A091BE02B091BF028093B80290
:1010C0009093B902A093BA02B093BB028091A4029C
:1010D0000E9409039093B5028093B4028091A60206
:1010E0000E9409037C019093B7028093B60240905E
:1010F000C4025090C5026090C6027090C702209052
:10110000B4023090B502B101032C000C880B990B8E
:101110000E94AA124B015C01A30192010E940D14CE
:1011200020E030E040E85AE30E940913A301920155
:101130000E940E149B01AC012093C4023093C5029F
:101140004093C6025093C702C501B4010E940D141A
:101150004B015C018092BC029092BD02A092BE0243
:10116000B092BF024090C8025090C9026090CA027B
:101170007090CB02B701FF0C880B990B0E94AA124A
:101180006B017C01A30192010E940D1420E030E06C
:1011900040E85AE30E940913A30192010E940E1431
:1011A0009B01AC012093C8023093C9024093CA024C
:1011B0005093CB02C701B6010E940D146B017C0154
:1011C000C092C002D092C102E092C202F092C30269
:1011D000A5019401C501B4010E9409139B01AC0152
:1011E0002093D0023093D1024093D2025093D30285
:1011F0006091D4027091D5028091D6029091D7026D
:101200000E940E146093D4027093D5028093D6028C
:101210009093D702A7019601C701B6010E94091356
:101220009B01AC012093D8023093D9024093DA029B
:101230005093DB026091DC027091DD028091DE024E
:101240009091DF020E940E146093DC027093DD0225
:101250008093DE029093DF024090B8025090B90272
:101260006090BA027090BB02A3019201C501B40163
:101270000E940D142091B0023091B1024091B2024F
:101280005091B3020E940913A30192010E940E140F
:101290009B01AC012093CC023093CD024093CE024F
:1012A0005093CF02C701B6010E9409139B01AC0104
:1012B0002093E0023093E1024093E2025093E30274
:1012C0006091E4027091E5028091E6029091E7025C
:1012D0000E940E146093E4027093E5028093E6028C
:1012E0009093E7028091EB028093EA028091E802FA
:1012F0009091E902821593051CF01092EB0203C055
:1013000031E03093EB028091EB0249855A85413000
:10131000510511F48093EA029091EA02981711F0B6
:101320000F5F1F4F0931110509F0A1CEAD81BE81BC
:10133000BD01BB0F880B990B0E94AA1220E030E080
:101340004AE754E40E947A1420E030E040E85AE38F
:101350000E9409132B013C012091A8023091A9029F
:101360004091AA025091AB020E94091369837A83CB
:101370008B839C8329853A85B90190E080E00E94A7
:10138000A8124B015C01AC019B016091D4027091E9
:10139000D5028091D6029091D7020E947A140E94C1
:1013A00026159B01AC0169817A818B819C810E9409
:1013B00009136B017C01C0929C02D0929D02E092C5
:1013C0009E02F0929F022091AC023091AD024091BA
:1013D000AE025091AF02C301B2010E9409132B016A
:1013E0003C01A50194016091DC027091DD028091C5
:1013F000DE029091DF020E947A140E9426159B0162
:10140000AC01C301B2010E9409136D837E838F83F7
:1014100098876093A0027093A1028093A202909398
:10142000A302A301920169817A818B819C810E9430
:1014300009132091E4023091E5024091E6025091B7
:10144000E7020E940913A50194010E947A144B013E
:101450005C018092900290929102A0929202B092CE
:1014600093022D813E814F815885C701B6010E94AC
:1014700009139B01AC012093940230939502409391
:10148000960250939702C501B4010E947A146093AA
:1014900098027093990280939A0290939B02109203
:1014A000D4021092D5021092D6021092D702109256
:1014B000DC021092DD021092DE021092DF02109226
:1014C000E4021092E5021092E6021092E70220E098
:1014D00030E048EC52E4C701B6010E941B1587FDBD
:1014E0003CC067E571E08DEF92E00E94870622E044
:1014F000B701A6018DEF92E00E94990564E271E0C8
:101500008DEF92E00E94FE0460E08CE00E94E9040E
:1015100062E671E08AE993E00E94870622E0B70163
:10152000A6018AE993E02A960FB6F894DEBF0FBEB3
:10153000CDBFDF91CF911F910F91FF90EF90DF9082
:10154000CF90BF90AF909F908F907F906F905F9063
:101550004F903F902F900C94990585E691E02A9644
:101560000FB6F894DEBF0FBECDBFDF91CF911F91B4
:101570000F91FF90EF90DF90CF90BF90AF909F9032
:101580008F907F906F905F904F903F902F900C9432
:1015900086054F925F926F927F928F929F92AF9249
:1015A000BF92CF92DF92EF92FF920F931F93CF9350
:1015B000DF93CDB7DEB7A0970FB6F894DEBF0FBEAE
:1015C000CDBF0E941E032B013C01C12CD12C760102
:1015D000812C912C54010E941E03641975098609FF
:1015E000970960327E4481059105C0F48091B8036B
:1015F0000E9409032091B2033091B303DC01A21BC6
:10160000B30B9D010E94D515860E971EA81EB91E0C
:101610008FEFC81AD80AE80AF80ADDCFC501B4016D
:10162000A70196010E949415CA01B9010E94A8124F
:101630000E94261520E030EC4FE754E40E947A1413
:1016400020E030E040EA50E40E9409132091B40306
:101650003091B5034091B6035091B7030E947A14BC
:101660006B017C01C092EF02D092F002E092F10295
:10167000F092F2026FE671E0CE0145960E94880773
:101680001C8E1B8E1E8E1D8E18A21F8E6D897E894C
:101690006115710531F0498D5A8DCE014B960E942E
:1016A00029078E010F5F1F4F22E044E0C701B601FA
:1016B0000E944E10FC0101900020E9F73197AF0124
:1016C000481B590BBC01CE014B960E94EB068111C1
:1016D00004C0CE014B960E94170742E050E064E739
:1016E00071E0CE014B960E94EB06811104C0CE0141
:1016F0004B960E9417074F8D58A16B8D7C8D8DEFF7
:1017000092E00E94090164E271E08DEF92E00E9494
:10171000FE04CE014B960E949907CE0145960E9489
:10172000990768EE73E080E090E00E944303A09682
:101730000FB6F894DEBF0FBECDBFDF91CF911F91E2
:101740000F91FF90EF90DF90CF90BF90AF909F9060
:101750008F907F906F905F904F9008951F920F929F
:101760000FB60F9211242F933F934F935F936F9374
:101770007F938F939F93AF93BF93EF93FF938DEFDF
:1017800092E00E947D01FF91EF91BF91AF919F91F7
:101790008F917F916F915F914F913F912F910F901A
:1017A0000FBE0F901F9018951F920F920FB60F92B9
:1017B00011242F938F939F93EF93FF93E0910D0349
:1017C000F0910E038081E0911303F091140382FDE8
:1017D0001BC09081809116038F5F8F732091170338
:1017E000821741F0E0911603F0E0E350FD4F958F32
:1017F00080931603FF91EF919F918F912F910F90FE
:101800000FBE0F901F9018958081F4CF1F920F92FA
:101810000FB60F9211242F933F938F939F93AF9303
:10182000BF938091880290918902A0918A02B09121
:101830008B023091870223E0230F2D3758F5019654
:10184000A11DB11D20938702809388029093890285
:10185000A0938A02B0938B0280918C0290918D02AA
:10186000A0918E02B0918F020196A11DB11D8093AF
:101870008C0290938D02A0938E02B0938F02BF9141
:10188000AF919F918F913F912F910F900FBE0F902D
:101890001F90189526E8230F0296A11DB11DD2CFE7
:1018A000EDEFF2E01382128288EE93E0A0E0B0E068
:1018B00084839583A683B7838AE091E091838083B4
:1018C00085EC90E09587848784EC90E09787868705
:1018D00080EC90E0918B808B81EC90E0938B828BFD
:1018E00082EC90E0958B848B86EC90E0978B868BD6
:1018F000118E128E138E148EE2EBF3E080E092E0F4
:10190000918380838FE086838DEC9CECACECBDE30F
:1019100082839383A483B583EAE9F3E0138212827E
:101920008CE191E0918380838DE084838FEF8583C8
:101930008CE086838BE087838AE0808789E08187DB
:1019400088E082871386148615861686178681E0BE
:101950000C944804CF93DF93CDB7DEB72C970FB626
:10196000F894DEBF0FBECDBF789484B5826084BD8D
:1019700084B5816084BD85B5826085BD85B5816093
:1019800085BD80916E00816080936E001092810011
:1019900080918100826080938100809181008160CC
:1019A000809381008091800081608093800080918D
:1019B000B10084608093B1008091B0008160809319
:1019C000B00080917A00846080937A0080917A00E0
:1019D000826080937A0080917A00816080937A009F
:1019E00080917A00806880937A001092C100E09123
:1019F0000D03F0910E0382E08083E0910903F091E2
:101A00000A031082E0910B03F0910C038FEC8083AA
:101A100010921503E0911103F091120386E0808388
:101A2000E0910F03F0911003808180618083E09149
:101A30000F03F0911003808188608083E0910F0391
:101A4000F0911003808180688083E0910F03F09112
:101A5000100380818F7D808382E00E94480481E0B2
:101A600090E09093A5028093A40280E090E0A8E229
:101A7000B3E48093A8029093A902A093AA02B09322
:101A8000AB028AE999E9A9EDBFE38093B002909394
:101A9000B102A093B202B093B30280E090E0A0E064
:101AA000B4E48093C4029093C502A093C602B0939D
:101AB000C70260E082E00E949F0260E084E00E9432
:101AC0009F0260E085E00E949F0260E083E10E9447
:101AD000CD0267E771E08AE993E00E94870661E042
:101AE00082E00E94CD0261E084E00E94CD0261E0CC
:101AF00085E00E94CD0282E891E00E9486055AE0CE
:101B0000E52EF12C10E000E08091B8030E9409035B
:101B1000080F191F81E0E81AF108B1F7C8016AE05F
:101B200070E00E9480157093B3036093B20380ED60
:101B300091E00E94860568EC70E080E090E00E94F1
:101B4000430383E0682E712C9BE4E92EF12C2BE9F2
:101B5000C22ED12C3BE3A32EBB24B39443EC842EA2
:101B6000912C7092F6026092F5028091F5029091AC
:101B7000F60261E00E94CD028091F5029091F6029A
:101B800060E00E949F0262E170E080E090E00E94CD
:101B900043038091F5029091F60261E00E949F025A
:101BA000C7010197F1F78091F5029091F60262E08A
:101BB0000E94CD021092F702C6010197F1F78091C1
:101BC000F5029091F6020E943502892B89F4C50135
:101BD0000197F1F78091F5029091F6020E9435028B
:101BE000019719F481E08093F702C4010197F1F79E
:101BF0008091F702813069F50E945E028093FA02BB
:101C00000E945E028093FB020E945E028093F802B3
:101C10000E945E028093F9020E945E028093FC02A1
:101C20009091FA026091F8022091FB02290F33276C
:101C3000331FA901460F511D2091F902240F352FA2
:101C4000311D33278217130621F46093F30290931A
:101C5000F40283E10E9435028C010E94400460E09E
:101C600080E00E94E90466ED71E08AE993E00E9459
:101C7000870660E082E00E94E9044091F30250E0B0
:101C800070E060E02AE08AE993E00E940D0560E0E0
:101C900085E00E94E90469ED71E08AE993E00E9421
:101CA000870660E087E00E94E904C8010E945905A8
:101CB00061E080E00E94E9046CED71E08AE993E064
:101CC0000E94870661E086E00E94E90469ED71E008
:101CD0008AE993E00E9487068091F302823208F439
:101CE00071C061E084E00E949F0261E082E00E9496
:101CF000E90461E272E08AE993E00E948706012B21
:101D000009F06BC061E082E00E949F0261E088E020
:101D10000E94E90461E272E08AE993E00E9487068A
:101D20000E94A1070E94C90A61E08BE00E94E904B9
:101D30004091EF025091F0026091F1027091F20235
:101D4000CE0101960E944A076FED71E0CE01079621
:101D50000E9488074D815E8169817A81CE01079654
:101D60000E94EB06811104C0CE0107960E9417075E
:101D70004B855C856F8178858AE993E00E94090133
:101D8000CE0107960E949907CE0101960E949907FD
:101D90008091EE02833309F40CC174F5813309F4A8
:101DA00059C0823309F4D2C064E670E080E090E06C
:101DB0000E9443030E947301882309F4D2CE0E943B
:101DC0008906CFCE60E084E00E949F0261E082E05D
:101DD0000E94E90465E372E08ECF60E082E00E9439
:101DE0009F0261E088E00E94E90465E372E08AE90D
:101DF00093E00E948706CCCF853309F428C10CF408
:101E0000FFC0863389F665E672E08DEF92E00E94AE
:101E1000870660E085E00E949F020E94400460E027
:101E200080E00E94E90465E672E08AE993E00E949E
:101E3000870662E772E0CE0101960E948807CE0114
:101E400001960E947903CE0101960E94990761E8EC
:101E500072E06FC062EE71E08DEF92E00E94870643
:101E600061E082E00E949F020E94400460E080E006
:101E70000E94E9046BEE71E08AE993E00E94870614
:101E80000091EC021091ED020F5F1F4F1093ED02D5
:101E90000093EC0261E080E00E94E904C8010E9426
:101EA00059050E94A1070E94C90A61E08BE00E94C7
:101EB000E9044091EF025091F0026091F1027091BB
:101EC000F202CE0101960E944A076FED71E0CE0149
:101ED00007960E9488074D815E8169817A81CE01D3
:101EE00007960E94EB06811104C0CE0107960E945E
:101EF00017074B855C856F8178858AE993E00E949E
:101F00000901CE0107960E949907CE0101960E9411
:101F1000990764EF71E0CE0101960E948807CE0117
:101F200001960E947903CE0101960E9499076FEFF6
:101F300071E0CE0101960E948807CE0101960E94B1
:101F40007903CE0101960E9499072ECF63E072E0DB
:101F50008DEF92E00E94870660E082E00E949F027F
:101F60000E94400460E080E00E94E90463E072E0C7
:101F70008AE993E00E9487061092ED021092EC022B
:101F800061E080E00E94E90490E080E00E94590551
:101F90006DE072E0CE0101960E948807CE010196A5
:101FA0000E947903CE0101960E94990769E172E0CF
:101FB000C0CF6DE172E08DEF92E00E94870661E094
:101FC00084E00E949F020E94400460E080E00E9442
:101FD000E9046DE172E08AE993E00E94870664E219
:101FE00072E0CE0101960E948807CE0101960E9400
:101FF0007903CE0101960E9499076DE272E099CFB4
:1020000061E372E08DEF92E00E94870660E084E079
:102010000E949F020E94400460E080E00E94E90468
:1020200061E372E08AE993E00E94870669E372E067
:10203000CE0101960E948807CE0101960E94790385
:10204000CE0101960E94990763E472E072CF67E4C3
:1020500072E08DEF92E00E94870661E085E00E94C9
:102060009F020E94400460E080E00E94E90467E46F
:1020700072E08AE993E00E94870663E572E0CE0190
:1020800001960E948807CE0101960E947903CE0135
:1020900001960E94990761E672E04BCFEF920F9391
:1020A0001F93CF93DF93E80134E047FD34E1042E22
:1020B000000C550B57FF03C0519541955109E32E74
:1020C000022F242FAE010E946C10CE01DF91CF9120
:1020D0001F910F91EF900895A9E0B0E0E2E7F0E1E1
:1020E0000C94CD136A01F22EB02E102FFBE3AF2E0D
:1020F000A01608F41BE31F5F012F27E0AE014F5F1E
:102100005F4F0E94CB11BC018981982F997091304B
:1021100009F43FC09BE2E1FC04C09E2D9170E0FCFD
:102120003AC05E2D5071E82FE87083FF46C084E00E
:10213000911101C083E0EF2DE81B8F1508F0E0E05E
:10214000D6018E2F20E2552351F1992329F0D60193
:102150009C93C60101966C0196012D5F3F4FE2FEF4
:1021600024C08EE4D6018C9391E411969C93119730
:1021700012968C93D9018E2F90E281111BC0E20F31
:10218000F32FF11D10828EEF9FEF2996ECE00C9457
:10219000E9139DE2C6CF90E2C4CF2D938150811107
:1021A000FCCFCE0ED11CE0E0D0CF8EE6D6018C93D2
:1021B00091E6DBCF9D938150E0CF482F447082FFA2
:1021C0003DC084E0911101C083E08F1510F4EF2D24
:1021D000E81BD6018E2F20E2552309F1992329F01F
:1021E000D6019C93C60101966C0196012D5F3F4F6D
:1021F000E2FE1BC089E4D6018C938EE411968C9389
:10220000119786E412968C93D9018E2F90E2882341
:1022100009F4B5CF9D938150FACF2D938150811150
:10222000FCCFCE0ED11CE0E0D9CF89E6D6018C934D
:102230008EE611968C93119786E6E4CF9B0177FF8B
:1022400002C030E020E0A1E0B0E0911102C0B0E0B7
:10225000A0E0F9013196AE0FBF1F8B2C912CBB2053
:1022600009F461C05401EFEFAE1ABE0AAA0DBB1DFE
:10227000FA161B0619F014F04F2D4A1B511188C095
:10228000E3FC59C07601A42FB0E2A1114FC0C40EE7
:10229000D11C992309F45BC040E0D6011196F601E8
:1022A00090836D01552309F448C0012F060F9A81D0
:1022B000582F507184FF03C0913309F40150101658
:1022C0000CF047C0093008F008E0EEE2FE2E5B019A
:1022D000A01AB10885019194819491082F3F32078B
:1022E00029F4D601FC92F60131966F01621773074B
:1022F00094F1021713077CF5DB01A21BB30BAA2490
:10230000A394B12CAC0EBD1EAA0DBB1D11968C91D1
:1023100021503109D601119628153905F4F0F6013E
:1023200080836D01DBCFB12CA12CA0CFF701B1933D
:102330007F01A150AACF9111B0CFD601942F50E3C5
:1023400002C05D9391509111FCCFC40ED11C40E0AE
:10235000ACCF01E0BACF80E3DBCF6217730731F473
:10236000963388F4953311F4552369F0F601808390
:10237000FD01842F90E2811108C0A40FB11D1C92B1
:1023800090E080E002CF81E3F1CF91938150F3CFD1
:10239000911183CF8ACF283008F027E03327DA0164
:1023A000990F311D87FD916000966105710539F423
:1023B00032602E5F3D9330E32A95E1F708959F3F09
:1023C00030F080387105610509F03C5F3C5F3D935A
:1023D000913008F08068911DDF93CF931F930F9386
:1023E000FF92EF92192F987F9695E92F96959695E3
:1023F000E90FFF27EE53FF4F99273327EE24FF24E1
:10240000A701E70105900894079428F4360FE71E0A
:10241000F81E491F511D660F771F881F991F0694CC
:10242000A1F70590079428F4E70EF81E491F561FE0
:10243000C11D770F881F991F661F0694A1F705908D
:10244000079428F4F80E491F561FC71FD11D880F87
:10245000991F661F771F0694A1F70590079420F433
:10246000490F561FC71FD81F990F661F771F881F58
:102470000694A9F784911095177041F0D695C795E9
:1024800057954795F794E7941A95C1F7E8E6F0E079
:1024900068941590159135916591959105907FE21D
:1024A0007395E118F10A430B560BC90BD009C0F71D
:1024B000E10CF11E431F561FC91FD01D7EF470335F
:1024C00011F48A95E6CFE894015030F0080F0AF431
:1024D0000027021708F4202F2395022F7A3328F0C3
:1024E00079E37D932A95E9F710C07D932A9589F6C3
:1024F000069497956795379517951794E118F10A03
:10250000430B560BC90BD00998F023957E91739518
:102510007A3308F070E37C932013B8F77E917061F2
:102520007D9330F0839571E37D9370E32A95E1F715
:102530001124EF90FF900F911F91CF91DF91992778
:1025400087FD909508950E94E51208F481E00895B2
:10255000E89409C097FB3EF490958095709561953D
:102560007F4F8F4F9F4F9923A9F0F92F96E9BB27F3
:102570009395F695879577956795B795F111F8CF6F
:10258000FAF4BB0F11F460FF1BC06F5F7F4F8F4FDA
:102590009F4F16C0882311F096E911C0772321F0D0
:1025A0009EE8872F762F05C0662371F096E8862F68
:1025B00070E060E02AF09A95660F771F881FDAF7BF
:1025C000880F9695879597F90895990F0008550FEC
:1025D000AA0BE0E8FEEF16161706E807F907C0F0A9
:1025E00012161306E407F50798F0621B730B840BB1
:1025F000950B39F40A2661F0232B242B252B21F48B
:1026000008950A2609F4A140A6958FEF811D811D2A
:1026100008950E941C130C948D130E947F1338F0B0
:102620000E94861320F0952311F00C9476130C94DD
:102630007C1311240C94C1130E949E1370F3959F78
:10264000C1F3950F50E0551F629FF001729FBB27A9
:10265000F00DB11D639FAA27F00DB11DAA1F649F45
:102660006627B00DA11D661F829F2227B00DA11DF8
:10267000621F739FB00DA11D621F839FA00D611D7E
:10268000221F749F3327A00D611D231F849F600D9F
:10269000211D822F762F6A2F11249F5750409AF0C8
:1026A000F1F088234AF0EE0FFF1FBB1F661F771F54
:1026B000881F91505040A9F79E3F510580F00C941F
:1026C00076130C94C1135F3FE4F3983ED4F38695E0
:1026D00077956795B795F795E7959F5FC1F7FE2BBF
:1026E000880F911D9695879597F9089597F99F679B
:1026F00080E870E060E008959FEF80EC089500248A
:102700000A941616170618060906089500240A9456
:1027100012161306140605060895092E0394000CDC
:1027200011F4882352F0BB0F40F4BF2B11F460FF6B
:1027300004C06F5F7F4F8F4F9F4F089557FD905894
:10274000440F551F59F05F3F71F04795880F97FB75
:10275000991F61F09F3F79F087950895121613062F
:102760001406551FF2CF4695F1DF08C0161617065E
:102770001806991FF1CF8695710561050894089593
:10278000E894BB2766277727CB0197F908952F9206
:102790003F924F925F926F927F928F929F92AF92F1
:1027A000BF92CF92DF92EF92FF920F931F93CF933E
:1027B000DF93CDB7DEB7CA1BDB0B0FB6F894DEBFD5
:1027C0000FBECDBF09942A88398848885F846E84FB
:1027D0007D848C849B84AA84B984C884DF80EE8045
:1027E000FD800C811B81AA81B981CE0FD11D0FB64E
:1027F000F894DEBF0FBECDBFED010895A29FB001DA
:10280000B39FC001A39F700D811D1124911DB29F24
:10281000700D811D1124911D08955058BB27AA27C2
:102820000E9425140C948D130E947F1338F00E948F
:10283000861320F039F49F3F19F426F40C947C138E
:102840000EF4E095E7FB0C947613E92F0E949E139B
:1028500058F3BA17620773078407950720F079F4D5
:10286000A6F50C94C0130EF4E0950B2EBA2FA02DF4
:102870000B01B90190010C01CA01A0011124FF272D
:10288000591B99F0593F50F4503E68F11A16F04028
:10289000A22F232F342F4427585FF3CF4695379527
:1028A0002795A795F0405395C9F77EF41F16BA0BEC
:1028B000620B730B840BBAF09150A1F0FF0FBB1F9A
:1028C000661F771F881FC2F70EC0BA0F621F731FE3
:1028D000841F48F4879577956795B795F7959E3F40
:1028E00008F0B0CF9395880F08F09927EE0F9795D1
:1028F000879508950E948E140C948D130E94861360
:1029000058F00E947F1340F029F45F3F29F00C94A7
:10291000761351110C94C1130C947C130E949E13D6
:1029200068F39923B1F3552391F3951B550BBB27FE
:10293000AA2762177307840738F09F5F5F4F220F43
:10294000331F441FAA1FA9F335D00E2E3AF0E0E83A
:1029500032D091505040E695001CCAF72BD0FE2F84
:1029600029D0660F771F881FBB1F26173707480718
:10297000AB07B0E809F0BB0B802DBF01FF279358D0
:102980005F4F3AF09E3F510578F00C9476130C940B
:10299000C1135F3FE4F3983ED4F38695779567952E
:1029A000B795F7959F5FC9F7880F911D9695879505
:1029B00097F90895E1E0660F771F881FBB1F621724
:1029C00073078407BA0720F0621B730B840BBA0BE2
:1029D000EE1F88F7E09508950E94A61388F09F5790
:1029E00098F0B92F9927B751B0F0E1F0660F771F33
:1029F000881F991F1AF0BA95C9F714C0B13091F029
:102A00000E94C013B1E008950C94C013672F782F73
:102A10008827B85F39F0B93FCCF3869577956795ED
:102A2000B395D9F73EF490958095709561957F4F59
:102A30008F4F9F4F08950E94E51208F48FEF08957D
:102A400019F416F40C947C130C946B150E94A613C5
:102A5000B8F39923C9F3B6F39F57550B87FF0E942C
:102A600079150024A0E640EA900180585695979584
:102A700028F4805C660F771F881F20F02617370721
:102A8000480730F4621B730B840B202931294A2B31
:102A9000A69517940794202531254A2758F7660FE5
:102AA000771F881F20F026173707480730F4620B7E
:102AB000730B840B200D311D411DA09581F7B901C9
:102AC000842F9158880F9695879508950E94E51256
:102AD000880B990B08959F3F31F0915020F4879512
:102AE00077956795B795880F911D9695879597F976
:102AF000089591505040660F771F881FD2F70895B0
:102B0000AA1BBB1B51E107C0AA1FBB1FA617B70713
:102B100010F0A61BB70B881F991F5A95A9F780952F
:102B20009095BC01CD010895A1E21A2EAA1BBB1BF2
:102B3000FD010DC0AA1FBB1FEE1FFF1FA217B30789
:102B4000E407F50720F0A21BB30BE40BF50B661F9F
:102B5000771F881F991F1A9469F760957095809563
:102B600090959B01AC01BD01CF010895052E97FB07
:102B70001EF400940E94CD1557FD07D00E949415B5
:102B800007FC03D04EF40C94CD155095409530952C
:102B900021953F4F4F4F5F4F0895909580957095C9
:102BA00061957F4F8F4F9F4F08950E94FE133323EF
:102BB00012F48A1B9B0B0C94DF150E94FE13B7FFC7
:102BC0000895821B930B0895EE0FFF1F0590F4915B
:102BD000E02D09940F931F93CF93DF9382309105DB
:102BE00010F482E090E0E091BB03F091BC0330E090
:102BF00020E0B0E0A0E0309799F42115310509F408
:102C00004AC0281B390B24303105D8F58A819B81B5
:102C10006115710589F1FB0193838283FE0111C067
:102C2000408151810281138148175907E0F048170C
:102C3000590799F4109761F012960C931297139616
:102C40001C933296CF01DF91CF911F910F91089580
:102C50000093BB031093BC03F4CF2115310551F051
:102C60004217530738F0A901DB019A01BD01DF01CA
:102C7000F801C1CFEF01F9CF9093BC038093BB0360
:102C8000CDCFFE01E20FF31F8193919322503109C2
:102C900039832883D7CF2091B9033091BA03232BEE
:102CA00041F420910201309103013093BA03209343
:102CB000B90320910001309101012115310541F442
:102CC0002DB73EB74091040150910501241B350BEF
:102CD000E091B903F091BA03E217F307A0F42E1BB9
:102CE0003F0B2817390778F0AC014E5F5F4F241770
:102CF000350748F04E0F5F1F5093BA034093B90356
:102D0000819391939FCFF0E0E0E09CCFCF93DF934E
:102D10000097E9F0FC01329713821282A091BB0365
:102D2000B091BC03ED0130E020E01097A1F42081C8
:102D30003181820F931F2091B9033091BA03281774
:102D4000390709F061C0F093BA03E093B903DF914A
:102D5000CF910895EA01CE17DF07E8F54A815B813C
:102D60009E0141155105B1F7E901FB83EA834991C1
:102D70005991C40FD51FEC17FD0761F48081918133
:102D80000296840F951FE90199838883828193813C
:102D90009B838A83F0E0E0E012968D919C911397DB
:102DA0000097B9F52D913C911197CD010296820FB4
:102DB000931F2091B9033091BA032817390739F6C8
:102DC000309751F51092BC031092BB03B093BA0335
:102DD000A093B903BCCFD383C28340815181840FB8
:102DE000951FC817D90761F44E5F5F4F888199819D
:102DF000480F591F518340838A819B81938382832B
:102E00002115310509F0B0CFF093BC03E093BB036B
:102E10009ECFFD01DC01C0CF13821282D7CFB0E07C
:102E2000A0E0E5E1F7E10C94C9138C01009751F49F
:102E3000CB010E94EA158C01C801CDB7DEB7E0E1F5
:102E40000C94E513FC01E60FF71F9C012250310999
:102E5000E217F30708F49DC0D901CD91DC911197D9
:102E6000C617D70798F0C530D10530F3CE010497C7
:102E70008617970708F3C61BD70B2297C193D193E8
:102E80006D937C93CF010E948616D6CF5B01AC1A5E
:102E9000BD0A4C018C0E9D1EA091BB03B091BC03DA
:102EA000512C412CF12CE12C109731F58091B90374
:102EB0009091BA038815990509F05CC0461657062B
:102EC00008F058C08091000190910101009741F4F1
:102ED0008DB79EB74091040150910501841B950B5D
:102EE000E817F90708F055C0F093BA03E093B90367
:102EF000F90171836083A0CF8D919C9111971296F7
:102F00006C90129713967C901397A815B90559F5F4
:102F10006C0142E0C40ED11CCA14DB0420F1AC01E8
:102F20004A195B09DA011296159780F06282738262
:102F300051834083D9016D937C93E114F10471F0C6
:102F4000D7011396FC93EE93129776CF22968C0FAF
:102F50009D1FF90191838083F301EFCFF093BC03B0
:102F6000E093BB0369CF4816590608F42C017D0194
:102F7000D3019ACFCB010E94EA157C01009749F05A
:102F8000AE01B8010E94CC17C8010E9486168701C5
:102F900053CF10E000E050CFFB01DC0102C00190F4
:102FA0000D9241505040D8F70895FB01DC0101908B
:0C2FB0000D920020E1F70895F894FFCF87
:102FBC000000BD038000000000009F0109013601E4
:102FCC00EC0167014501590100000000F8040901FA
:102FDC00760375030D0A006E616E00696E66006FF4
:102FEC007666004C49474854204F4E20494F5400B8
:102FFC0046414E204F4E20494F540046414E204FE3
:10300C00464620494F5400566F6C74616765203AF0
:10301C002000563A00506F776572204F46460049A3
:10302C00203D2000204100534D41525420484F4D2B
:10303C00450043616C6962726174696E672E2E2E55
:10304C0020456E737572652074686174206E6F20F4
:10305C0063757272656E7420666C6F77732074681A
:10306C00726F756768207468652073656E736F7214
:10307C002061742074686973206D6F6D656E7400C7
:10308C00446F6E652100543A004C3A00463A0049B0
:10309C003A004C49474854204F4E006C696768749D
:1030AC00204F4E002A4C49474854204F4E23004095
:1030BC003123004C49474854204F4646002A4C497E
:1030CC00474854204F464623004030230046414E8B
:1030DC00204F4E002A46414E204F4E2300243223CF
:1030EC000046414E204F4646002A46414E204F4650
:1030FC0046230024302300504C554720424F582083
:10310C004F4E002A504C554720424F58204F4E23CB
:10311C00005E332300504C554720424F58204F46F9
:10312C0046002A504C554720424F58204F464623C4
:06313C00005E30230000DC
:00000001FF
