:100000000C944E010C947F010C947F010C947F01A1
:100010000C947F010C947F010C947F010C947F0160
:100020000C947F010C947F010C947F010C947F0150
:100030000C947F010C947F010C947F010C947F0140
:100040000C947F010C947F010C947F010C947F0130
:100050000C947F010C947F010C947F010C947D091A
:100060000C947F010C9453090C9429090C947F0182
:100070000C947F010C947F010C947F010C947F0100
:100080000C947F010C947F010C947F010C947F01F0
:100090000C94FF080C94D5080C947F010C94C709AC
:1000A0000C947F010C947F010C947F010C947F01D0
:1000B0000C947F010C947F010C947F010C947F01C0
:1000C0000C947F010C947F010C947F010C94AB087D
:1000D0000C9481080C947F010C9457080C942D0803
:1000E0000C947F010C946C030C9477020C943203F3
:1000F0000C94AA010C94F0010C94BB040C94C9025A
:100100000C9436030C94CB040C9454040C946303A9
:100110000C946D030C94A8010C9428060C94A9016E
:100120000C94E5040C942C030C9413020C943A03E5
:100130000C9441030C9412050C94FF010C9447039A
:100140000C94D90D0C94BC040C9451030C946D06C2
:100150000C9455030C9467030C945F030C944B03AD
:100160000C94DE040C9459030C943E030C9421026D
:100170000C9471030C94EB0A00002100240027006A
:100180002A002D00300033000101000004010701A6
:100190000A0100002200250028002B002E0031005B
:1001A000340002010000050108010B0100002000DD
:1001B0002300260029002C002F003200000100003F
:1001C00003010601090105050505070508080808DA
:1001D000020202020A0A08080404040401010101DF
:1001E00001010101030303030303030304070707DA
:1001F0000C0C0C0C0C0C0C0C02020202060606067F
:10020000060606060B0B0B0B0B0B0B0B010210204B
:10021000200808102040102040800201020108043C
:1002200002010102040810204080804020100804D0
:100230000201800402018040201008040201080429
:10024000020101020408102040800102040810206D
:10025000408000000A0B02090C0D0E080703040180
:10026000000000000000000000000000000000008E
:10027000000000000000000000000000000012115B
:10028000100000000000000000000000000000005E
:100290000000000000000000EB0AD90D11241FBE71
:1002A000CFEFD1E2DEBFCDBF00E00CBF26E0A0E083
:1002B000B3E001C01D92A736B207E1F713E0A0E05A
:1002C000B2E0EEE6F0E200E00BBF02C007900D9254
:1002D000A030B107D9F711E0CDE4D1E000E006C0CD
:1002E00021970109802FFE010E94070ECC34D1070F
:1002F00080E00807A9F70E94B60B0C9425100C9417
:100300000000FC01A089B18982E08C93A485B585A9
:100310001C92A685B7858FEC8C93108EA489B58925
:1003200086E08C93A289B3898C9180618C93A28999
:10033000B3898C9188608C93A289B3898C918068F1
:100340008C930288F389E02D80818F7D80830895CE
:1003500008950895AF92BF92CF92DF92EF92FF92ED
:100360000F931F93CF93DF936C017B018B01040FDD
:10037000151FEB015E01AE18BF08C017D10759F079
:100380006991D601ED91FC910190F081E02DC601BB
:100390001995892B79F7C501DF91CF911F910F91A5
:1003A000FF90EF90DF90CF90BF90AF900895FC0149
:1003B000A089B1898C91A689B78982FD0FC09C91D3
:1003C000818D8F5F8F73228D821749F0A18DAE0FC3
:1003D000BF2FB11D5D969C93818F08958C910895D8
:1003E000FC01538D448D252F30E0842F90E0821B3B
:1003F000930B541710F0CF96089501970895FC01C0
:10040000918D828D981761F0A28DAE0FBF2FB11D17
:100410005D968C91928D9F5F9F73928F90E008956F
:100420008FEF9FEF0895FC01918D828D981731F029
:10043000828DE80FF11D858D90E008958FEF9FEF7D
:100440000895FC01918D228D892F90E0805C9F4F53
:10045000821B91098F739927089585EC93E00E9480
:10046000210221E0892B09F420E0822F089582E601
:1004700094E00E94210221E0892B09F420E0822FE0
:1004800008958FEF94E00E94210221E0892B09F466
:1004900020E0822F08958CE995E00E94210221E05E
:1004A000892B09F420E0822F0895FC01A48DA80F68
:1004B000B92FB11DA35ABF4F2C91848D90E00196A6
:1004C0008F739927848FA689B7892C93A089B189C6
:1004D0008C91837080648C93938D848D981306C067
:1004E0000288F389E02D80818F7D80830895EF92CB
:1004F000FF920F931F93CF93DF93EC0181E0888FDE
:100500009B8D8C8D98131AC0E889F989808185FFAD
:1005100015C09FB7F894EE89FF896083E889F9894F
:1005200080818370806480839FBF81E090E0DF9151
:10053000CF911F910F91FF90EF900895F62E0B8DA4
:1005400010E00F5F1F4F0F731127E02E8C8D8E115F
:100550000CC00FB607FCFACFE889F989808185FFC6
:10056000F5CFCE010E945502F1CFEB8DEC0FFD2FA0
:10057000F11DE35AFF4FF0829FB7F8940B8FEA8981
:10058000FB8980818062CFCF682F8CE995E00C9445
:100590007702CF93DF93EC01888D8823B9F0AA8985
:1005A000BB89E889F9898C9185FD03C0808186FD2E
:1005B0000DC00FB607FCF7CF8C9185FFF2CF80817D
:1005C00085FFEDCFCE010E945502E9CFDF91CF919B
:1005D000089580E090E0892B29F00E944B02811160
:1005E0000E94000080E090E0892B29F00E944102E7
:1005F00081110E94000080E090E0892B29F00E9488
:10060000370281110E94000080E090E0892B29F0E0
:100610000E942D0281110C940000089581508231B6
:1006200008F05AC0E82FF0E08827E65EFC4F8F4FB5
:100630000C94070E3A033E032C03320336036C037B
:10064000410347034B035103550359035F036303FE
:100650006C0367036D037103809180008F77809333
:1006600080000895809180008F7DF9CF8091800077
:10067000877FF5CF84B58F7784BD089584B58F7D4E
:10068000FBCF8091B0008F778093B0000895809168
:10069000B0008F7DF9CF809190008F77809390008C
:1006A0000895809190008F7DF9CF80919000877F91
:1006B000F5CF8091A0008F778093A000089580915E
:1006C000A0008F7DF9CF8091A000877FF5CF80912A
:1006D00020018F77809320010895809120018F7DE4
:1006E000F9CF80912001877FF5CFCF93DF93282F1B
:1006F00030E0F901EE5AFD4F8491F901E45FFD4FBE
:10070000D491F901EA53FE4FC491CC23A1F0811199
:100710000E940E03EC2FF0E0EE0FFF1FE455FE4F9A
:10072000A591B491EC91ED2381E090E009F480E093
:10073000DF91CF91089580E090E0FACF1F93CF939F
:10074000DF93282F30E0F901EE5AFD4F8491F90133
:10075000E45FFD4FD491F901EA53FE4FC491CC23DD
:10076000A9F0162F81110E940E03EC2FF0E0EE0F7E
:10077000FF1FEE56FE4FA591B4918FB7F894EC9100
:10078000111108C0D095DE23DC938FBFDF91CF918C
:100790001F910895DE2BF8CFCF93DF9390E0FC01FB
:1007A000E45FFD4F24918A539E4FFC01849188237E
:1007B000D1F090E0880F991FFC01E858FE4FA591F9
:1007C000B491FC01EE56FE4FC591D491623071F4A4
:1007D0009FB7F8943C91822F809583238C93E88176
:1007E0002E2B28839FBFDF91CF9108958FB7F89468
:1007F000EC912E2B2C938FBFF6CF3FB7F8948091BE
:10080000B7039091B803A091B903B091BA0326B58C
:10081000A89B05C02F3F19F00196A11DB11D3FBF38
:10082000BA2FA92F982F8827BC01CD01620F711D07
:10083000811D911D42E0660F771F881F991F4A9501
:10084000D1F708958F929F92AF92BF92CF92DF928D
:10085000EF92FF924B015C010E94FD036B017C0152
:100860000E94FD036C197D098E099F09683E734043
:1008700081059105A8F321E0821A9108A108B10829
:1008800088EEC80E83E0D81EE11CF11C811491048F
:10089000A104B10429F7FF90EF90DF90CF90BF90B3
:1008A000AF909F908F900895089520914103260F57
:1008B0003327331F21323105ECF420918A03FC01E8
:1008C00090E080E0243069F082E00895A091410337
:1008D0002191AC014F5D5C4FA40FB52FB11D2C933E
:1008E0000196861798F380914103680F6093410346
:1008F00080E0089581E0089510928A0381E080935A
:1009000089031092640361E084E10E949E0361E028
:1009100085E10E949E03E9EBF0E080818E7F808379
:1009200080818D7F808388E48093B80085E4809304
:10093000BC000895CF93DF9391E090932003882328
:10094000B9F0C091B800D091BA008091BC008A7B08
:100950008093BC0060E084E10E949E0360E085E13A
:100960000E949E030E947C04D093BA00C093B800FA
:10097000DF91CF9108950895E091C2038091C10362
:10098000E81730F4F0E0E050FD4F808190E00895EA
:100990008FEF9FEF08959091C2038091C1032FEFD5
:1009A0003FEF981748F4E92FF0E0E050FD4F208129
:1009B00030E09F5F9093C203C90108958091C10305
:1009C0009091C203891B990B0895CF92DF92EF9209
:1009D000FF920F931F93CF93DF937C01CB018A018A
:1009E00020919003222389F0EB016B01C40ED51EE8
:1009F000CC15DD0569F06991D701ED91FC9101906D
:100A0000F081E02DC7011995F3CF642F0E945504A2
:100A1000C801DF91CF911F910F91FF90EF90DF9070
:100A2000CF900895CF93DF931F92CDB7DEB7698340
:100A3000209190032223F9F02091BF03203258F037
:100A400021E030E0FC013383228390E080E00F90CE
:100A5000DF91CF9108958091C003E82FF0E0EF5629
:100A6000FC4F998190838F5F8093C0038093BF0375
:100A700081E090E0ECCF61E0CE0101960E94550448
:100A8000F7CFCF92DF92EF92FF920F931F93CF9306
:100A9000DF93FC01C48121E020939003C093B10354
:100AA0001092C0031092BF038385682B89E396E000
:100AB0000E941205D091BF03D13208F092C00E946B
:100AC000FD036B017C0180918A03811165C082E086
:100AD00080938A0381E0809389038FEF809388035A
:100AE00010928703D0938603A1E9B3E0E6E6F3E032
:100AF00080E0D81385C01092650380916503CC0F08
:100B0000C82BC093650380916403813009F07CC0D9
:100B1000109264030E94FD036B017C0180916503C8
:100B20008093BB0080918C0390918D03A0918E03E4
:100B3000B0918F03892B8A2B8B2B99F00E94FD0398
:100B400000918C0310918D0320918E0330918F03BF
:100B50006C197D098E099F090617170728073907A1
:100B6000E0F18091BC0083FDD9CF85EC8093BC007F
:100B70000E94FD036B017C0180918A03823009F49D
:100B800045C0809188038F3F61F180918803803256
:100B900041F18091880325C080918C0390918D0351
:100BA000A0918E03B0918F03892B8A2B8B2B09F494
:100BB0008ACF0E94FD0300918C0310918D03209138
:100BC0008E0330918F036C197D098E099F090617DA
:100BD00017072807390708F076CF80918B030E940A
:100BE0009A041092C0031092BF0310929003DF91F9
:100BF000CF911F910F91FF90EF90DF90CF900895CC
:100C00009D9191938F5F75CF85EEB0CF80918C03CE
:100C100090918D03A0918E03B0918F03892B8A2B25
:100C20008B2B09F4A9CF0E94FD0300918C03109136
:100C30008D0320918E0330918F036C197D098E09ED
:100C40009F09061717072807390708F095CFC5CF62
:100C500090E080E008950F931F93CF938C01C62FEF
:100C60000E9441056C2F6460C8010E9441056C2FF1
:100C70006B7FC8010E94410583EC90E00197F1F77A
:100C8000CF911F910F9108950F931F93CF93DF93EF
:100C90008C01D62FC42F607F642B0E942B0680E12D
:100CA000D89FB00111246C2BC801DF91CF911F9107
:100CB0000F910C942B0640E061E087E596E00E94DE
:100CC00044068BE39FE10197F1F70895682F606870
:100CD00040E087E596E00C94440641E00E9444061B
:100CE00081E090E008950F931F93CF93DF93EC0181
:100CF00088819981009759F02A813B81261737070F
:100D000030F081E0DF91CF911F910F9108958B0119
:100D10006F5F7F4F0E94340F009759F0998388834B
:100D20001B830A832C813D81232B59F7FC01108200
:100D3000E8CF80E0E7CFCF93DF93EC018881998102
:100D4000009711F00E94AB0E198218821D821C823E
:100D50001B821A82DF91CF910895FC0180819181DD
:100D6000009711F00C94AB0E0895FB010190002048
:100D7000E9F73197AF01461B570BDC01ED91FC9170
:100D80000280F381E02D1994CF93DF93FC0144811D
:100D900055816081718185EC93E00E94AA01EC018C
:100DA00066E372E085EC93E00E94B5068C0F9D1F10
:100DB000DF91CF9108950C94B506EF92FF920F93B7
:100DC0001F93CF93DF93EC017B01198218821B8262
:100DD0001A821D821C82FB0101900020E9F73197E5
:100DE0008F01061B170BB8010E947306811109C001
:100DF000CE01DF91CF911F910F91FF90EF900C9456
:100E00009B061D830C83B70188819981DF91CF9167
:100E10001F910F91FF90EF900C941E10CF92DF92D4
:100E2000EF92FF920F931F93CF93DF93CDB7DEB76F
:100E30002C970FB6F894DEBF0FBECDBF6C017B01BF
:100E400069E372E085EC93E00E94B50666E372E028
:100E500085EC93E00E94B50668EE73E080E090E0D8
:100E60000E9422046CE372E085EC93E00E94B506D8
:100E700066E372E085EC93E00E94B50668EE73E0ED
:100E800080E090E00E94220418861F821A8619864C
:100E90001C861B86F601008111810115110569F080
:100EA000C480D580B601CE0107960E9473068111D9
:100EB00082C0CE0107960E949B0666E472E0CE01D6
:100EC00001960E94DD06CF80D884C114D10409F4B4
:100ED0007AC00B851C8501151105B9F08D819E81A5
:100EE000080F191FB801CE0101960E9473068823CE
:100EF00009F469C029813A818D819E81B601820FF2
:100F0000931F0E941E101E830D830D811E810E5F94
:100F10001F4FB801CE0101960E947306811158C07F
:100F2000CE0101960E949B06CE0101960E94C40646
:100F3000CE0101960E94AD06CE0107960E94AD0635
:100F400068EE73E080E090E00E942204C7010E94F6
:100F5000C40666E572E085EC93E00E94DB0663E779
:100F600072E085EC93E00E94DB066EE772E085ECB0
:100F700093E00E94DB0660E872E085EC93E00E945B
:100F8000DB0668EE73E080E090E00E9422046AE1F4
:100F900085EC93E00E9477022C960FB6F894DEBFA2
:100FA0000FBECDBFDF91CF911F910F91FF90EF90BA
:100FB000DF90CF900895DC86CB86B8018F8198852D
:100FC0000E941E107ACFCE0101960E949B069DCFF3
:100FD00029813A818D819E8163E572E0820F931FA2
:100FE0000E941E101E830D839FCF85ED8093BC0051
:100FF00080918C0390918D03A0918E03B0918F030B
:101000000796A11DB11D23E0B695A79597958795E5
:101010002A95D1F72091BC0024FD03C010928A03C9
:10102000089540918C0350918D0360918E037091CF
:101030008F03452B462B472B69F30097A105B1057C
:1010400041F025E32A95F1F700000197A109B109C4
:10105000E1CF80918B030C949A041F920F920FB6EC
:101060000F9211240BB60F922F933F934F935F93E0
:101070006F937F938F939F93AF93BF93EF93FF9360
:1010800085EC93E00E945502FF91EF91BF91AF91E3
:101090009F918F917F916F915F914F913F912F9190
:1010A0000F900BBE0F900FBE0F901F9018951F92C0
:1010B0000F920FB60F9211240BB60F922F933F93FE
:1010C0004F935F936F937F938F939F93AF93BF9350
:1010D000EF93FF9385EC93E00E94D701FF91EF918E
:1010E000BF91AF919F918F917F916F915F914F9140
:1010F0003F912F910F900BBE0F900FBE0F901F903E
:1011000018951F920F920FB60F9211240BB60F92E3
:101110002F933F934F935F936F937F938F939F93FF
:10112000AF93BF93EF93FF9382E694E00E94550242
:10113000FF91EF91BF91AF919F918F917F916F91AF
:101140005F914F913F912F910F900BBE0F900FBE6B
:101150000F901F9018951F920F920FB60F921124A7
:101160000BB60F922F933F934F935F936F937F93A1
:101170008F939F93AF93BF93EF93FF9382E694E097
:101180000E94D701FF91EF91BF91AF919F918F91F5
:101190007F916F915F914F913F912F910F900BBE77
:1011A0000F900FBE0F901F9018951F920F920FB6C1
:1011B0000F9211240BB60F922F933F934F935F938F
:1011C0006F937F938F939F93AF93BF93EF93FF930F
:1011D0008FEF94E00E945502FF91EF91BF91AF9184
:1011E0009F918F917F916F915F914F913F912F913F
:1011F0000F900BBE0F900FBE0F901F9018951F926F
:101200000F920FB60F9211240BB60F922F933F93AC
:101210004F935F936F937F938F939F93AF93BF93FE
:10122000EF93FF938FEF94E00E94D701FF91EF912E
:10123000BF91AF919F918F917F916F915F914F91EE
:101240003F912F910F900BBE0F900FBE0F901F90EC
:1012500018951F920F920FB60F9211240BB60F9292
:101260002F933F934F935F936F937F938F939F93AE
:10127000AF93BF93EF93FF938CE995E00E945502E3
:10128000FF91EF91BF91AF919F918F917F916F915E
:101290005F914F913F912F910F900BBE0F900FBE1A
:1012A0000F901F9018951F920F920FB60F92112456
:1012B0000BB60F922F933F934F935F936F937F9350
:1012C0008F939F93AF93BF93EF93FF938CE995E038
:1012D0000E94D701FF91EF91BF91AF919F918F91A4
:1012E0007F916F915F914F913F912F910F900BBE26
:1012F0000F900FBE0F901F9018951F920F920FB670
:101300000F9211242F933F938F939F93AF93BF938B
:101310008091B3039091B403A091B503B091B6034B
:101320003091B20323E0230F2D3758F50196A11D0C
:10133000B11D2093B2038093B3039093B403A093A1
:10134000B503B093B6038091B7039091B803A09111
:10135000B903B091BA030196A11DB11D8093B703E3
:101360009093B803A093B903B093BA03BF91AF9120
:101370009F918F913F912F910F900FBE0F901F90D3
:10138000189526E8230F0296A11DB11DD2CF1F92FA
:101390000F920FB60F9211240BB60F922F933F931B
:1013A0004F935F936F937F938F939F93AF93BF936D
:1013B000EF93FF938091B900887F803609F44DC088
:1013C00008F040C0883209F4A9C028F5803109F43A
:1013D0009DC0C8F4882309F4FBC0883009F496C086
:1013E000FF91EF91BF91AF919F918F917F916F91FD
:1013F0005F914F913F912F910F900BBE0F900FBEB9
:101400000F901F901895883109F488C0803241F7F9
:101410008093880314C0803409F49DC040F4803365
:10142000B9F38833E9F68093880385ECB0C0803542
:1014300009F485C0883509F496C0883489F60E947D
:10144000F507CECF883909F48CC038F5883729F0F4
:1014500050F4883611F0803719F683E080938A03C0
:101460001092630357C0883809F47BC0803919F0A3
:10147000803809F0B5CF80916303803208F071C0E5
:10148000E091630381E08E0F809363038091BB0042
:10149000F0E0ED5BFC4F80833DC0803B39F0E0F431
:1014A000803A09F479C0883A09F09ACF84E08093B1
:1014B0008A031092420310924103E091BD03F09120
:1014C000BE0319958091410381110FC081E0809383
:1014D00041031092210309C0803C09F4A6CF883C47
:1014E00009F4A3CF883B09F07BCFE091420381E070
:1014F0008E0F80934203F0E0EF5DFC4F808180937C
:10150000BB00909142038091410329C08091650303
:101510008093BB0085EC8093BC0062CF90918703E1
:1015200080918603981758F5E091870381E08E0F2C
:1015300080938703F0E0EA59FC4F8081E9CFE09186
:10154000870381E08E0F809387038091BB00F0E0DA
:10155000EA59FC4F80839091870380918603981706
:10156000C8F285E8D8CFE091870381E08E0F8093A1
:1015700087038091BB00F0E0EA59FC4F80838091A3
:10158000890381115CCF81E08093640384EA8093B6
:10159000BC0010928A0324CF85EC8093BC0010928B
:1015A0008A0380916303803230F4E0916303F0E0BA
:1015B000ED5BFC4F10826091630370E0E091BB0330
:1015C000F091BC0383E493E019951092630308CF74
:1015D0001092880334CFE5ECF3E01382128288EE98
:1015E00093E0A0E0B0E084839583A683B7832AE0EC
:1015F00032E03183208345E351E05587448744E35B
:1016000051E05787468740E351E0518B408B41E3DF
:1016100051E0538B428B42E351E0558B448B46E3C0
:1016200051E0578B468B118E128E138E148EE2E68C
:10163000F4E01382128284839583A683B783318377
:10164000208345ED50E05587448744ED50E05787AF
:10165000468740ED50E0518B408B41ED50E0538B7D
:10166000428B42ED50E0558B448B46ED50E0578B5A
:10167000468B118E128E138E148EEFEFF4E01382D0
:10168000128284839583A683B783318320834DECB4
:1016900050E0558744874CEC50E05787468748EC2C
:1016A00050E0518B408B49EC50E0538B428B4AEC1D
:1016B00050E0558B448B4EEC50E0578B468B118E8F
:1016C000128E138E148EECE9F5E01382128284835D
:1016D0009583A683B7833183208325EC30E035875B
:1016E000248724EC30E03787268720EC30E0318BEC
:1016F000208B21EC30E0338B228B22EC30E0358BD9
:10170000248B26EC30E0378B268B118E128E138EB5
:10171000148EE9E3F6E01382128284839583A68314
:10172000B7838CE192E091838083E7E5F6E0138252
:1017300012828EE292E09183808380E2848380E152
:10174000818782E08287138668E372E081E596E014
:101750000E94DD066BE872E08BE496E00E94DD06F5
:101760006AE972E085E496E00C94DD06CF93DF939E
:10177000CDB7DEB7A7970FB6F894DEBF0FBECDBFCB
:10178000789484B5826084BD84B5816084BD85B55C
:10179000826085BD85B5816085BD80916E00816068
:1017A00080936E001092810080918100826080930E
:1017B0008100809181008160809381008091800010
:1017C0008160809380008091B10084608093B1003B
:1017D0008091B00081608093B00080919100826020
:1017E000809391008091910081608093910080911D
:1017F00090008160809390008091A100826080932E
:10180000A1008091A10081608093A1008091A0003F
:1018100081608093A00080912101826080932101EA
:10182000809121018160809321018091200181605C
:101830008093200180917A00846080937A00809167
:101840007A00826080937A0080917A008160809330
:101850007A0080917A00806880937A001092C100AB
:101860008CE995E00E9481018FEF94E00E94810154
:1018700082E694E00E94810185EC93E00E94810160
:101880001092C2031092C1031092C0031092BF03C2
:101890000E947C0488EA91E09093BE038093BD038C
:1018A00089EA91E09093BC038093BB0310925C069D
:1018B00080916106823018F098E090935C068093E6
:1018C0005F0662E370E080E090E00E942204609195
:1018D000620687E596E00E94410568EE73E080E0CD
:1018E00090E00E94220460E387E596E00E942B06C8
:1018F0000BE416E4C8010197F1F760E387E596E091
:101900000E942B06C8010197F1F760E387E596E096
:101910000E942B0683E592E00197F1F760E287E5EC
:1019200096E00E942B0660915C06606240E087E5CD
:1019300096E00E94440684E080935D0640E06CE0FF
:1019400087E596E00E9444060E945B0682E0809351
:101950005E0640E066E087E596E00E94440640E0CF
:1019600062E087E596E00E9444068BE39FE10197E1
:10197000F1F788E08093620660E087E596E00E94D8
:10198000410562E083E00E94CC0362E084E00E94B3
:10199000CC0362E086E00E94CC0361E08DE00E940F
:1019A000CC030E945B0682E00E94660668EA72E051
:1019B00087E596E00E94DB066AE070E080E090E058
:1019C0000E9422049AE0C92ED12CE12CF12C84E053
:1019D0000E947503892B09F047C086E00E947503B9
:1019E000892B81F581E40E94C4020E945B0682E09B
:1019F0000E94660665EB72E087E596E00E94DB06D2
:101A000061E08DE00E949E0365EB72E0CE0182965C
:101A10000E94DD066FEB72E0CE0101960E94DD06AA
:101A2000BE016E5D7F4FCE0101960E940E07CE0172
:101A300001960E94AD06CE0182960E94AD060E94DC
:101A4000E902C5CF6AEC72E08CE995E00E94DB0602
:101A50000E945B0683E00E9466066CEC72E087E5FC
:101A600096E00E94DB06EBCF88E7A82EB12C10E0B1
:101A700000E083E00E947503892B11F40F5F1F4F74
:101A80006EE070E080E090E00E94220481E0A81AFD
:101A9000B10879F71093C4030093C3039801110FA1
:101AA000440B550B19A28E010F5D1F4FCA01B901DE
:101AB000A70196010E94E50D605DF80162938F0118
:101AC000211531054105510589F7309729F0BF01EE
:101AD0008CE995E00E94B50666E372E08CE995E03A
:101AE0000E94B5068091C3039091C403813591058E
:101AF00064F183E40E94C4020E945B0682E00E94BB
:101B0000660665EB72E087E596E00E94DB0661E021
:101B10008DE00E949E0365EB72E0CE0101960E946B
:101B2000DD066FEB72E0CE0182960E94DD06BE01FB
:101B30006F5F7F4FCE0182960E940E07CE01829684
:101B40000E94AD06CE01019678CF9C012952310941
:101B50002732310558F484E40E94C4020E945B06D7
:101B600080E00E94660661ED72E079CF9C01215011
:101B700031092732310558F485E40E94C4020E94DD
:101B80005B0680E00E94660663EE72E068CF892BF8
:101B900009F055CF0E945B0682E00E94660662EF64
:101BA00072E087E596E00E94DB0686E40E94C402AC
:101BB00046CF85E496E00E94AD068BE496E00E9455
:101BC000AD0681E596E00C94AD06A1E21A2EAA1BA3
:101BD000BB1BFD010DC0AA1FBB1FEE1FFF1FA217DD
:101BE000B307E407F50720F0A21BB30BE40BF50BDA
:101BF000661F771F881F991F1A9469F76095709563
:101C0000809590959B01AC01BD01CF010895EE0F29
:101C1000FF1F881F8BBF0790F691E02D19940F933B
:101C20001F93CF93DF938230910510F482E090E010
:101C3000E0916506F091660630E020E0B0E0A0E0BB
:101C4000309799F42115310509F44AC0281B390B46
:101C500024303105D8F58A819B816115710589F1A0
:101C6000FB0193838283FE0111C040815181028177
:101C7000138148175907E0F04817590799F410974E
:101C800061F012960C93129713961C933296CF0123
:101C9000DF91CF911F910F910895009365061093E6
:101CA0006606F4CF2115310551F04217530738F07D
:101CB000A901DB019A01BD01DF01F801C1CFEF01EC
:101CC000F9CF9093660680936506CDCFFE01E20FB3
:101CD000F31F819391932250310939832883D7CF01
:101CE0002091630630916406232B41F42091020277
:101CF0003091030230936406209363062091000222
:101D0000309101022115310541F42DB73EB74091C4
:101D1000040250910502241B350BE0916306F091FB
:101D20006406E217F307A0F42E1B3F0B28173907B0
:101D300078F0AC014E5F5F4F2417350748F04E0F27
:101D40005F1F5093640640936306819391939FCFE6
:101D5000F0E0E0E09CCFCF93DF930097E9F0FC0147
:101D6000329713821282A0916506B0916606ED014A
:101D700030E020E01097A1F420813181820F931F81
:101D800020916306309164062817390709F061C075
:101D9000F0936406E0936306DF91CF910895EA0122
:101DA000CE17DF07E8F54A815B819E014115510599
:101DB000B1F7E901FB83EA8349915991C40FD51F1B
:101DC000EC17FD0761F4808191810296840F951FC5
:101DD000E90199838883828193819B838A83F0E0E0
:101DE000E0E012968D919C9113970097B9F52D9193
:101DF0003C911197CD010296820F931F20916306AB
:101E0000309164062817390739F6309751F510924A
:101E1000660610926506B0936406A0936306BCCF75
:101E2000D383C28340815181840F951FC817D9077E
:101E300061F44E5F5F4F88819981480F591F51832C
:101E400040838A819B81938382832115310509F028
:101E5000B0CFF0936606E09365069ECFFD01DC01EE
:101E6000C0CF13821282D7CF4F925F926F927F9230
:101E70008F929F92AF92BF92CF92DF92EF92FF929A
:101E80000F931F93CF93DF938C01009799F4CB01AD
:101E9000DF91CF911F910F91FF90EF90DF90CF9046
:101EA000BF90AF909F908F907F906F905F904F907A
:101EB0000C940F0EFC01E60FF71F9C012250310914
:101EC000E217F30708F4AEC0D901CD91DC91119768
:101ED000C617D70720F1C530D10578F0CE01049799
:101EE0008617970750F0C61BD70B2297C193D19343
:101EF0006D937C93CF010E94AB0EC801DF91CF910F
:101F00001F910F91FF90EF90DF90CF90BF90AF9017
:101F10009F908F907F906F905F904F9008955B019E
:101F2000AC1ABD0A4C018C0E9D1EA0916506B091A5
:101F30006606512C412CF12CE12C109731F5809143
:101F40006306909164068815990509F05CC04616F1
:101F5000570608F058C08091000290910102009746
:101F600041F48DB79EB74091040250910502841B45
:101F7000950BE817F90708F055C0F0936406E09355
:101F80006306F90171836083B8CF8D919C9111979D
:101F900012966C90129713967C901397A815B9051A
:101FA00059F56C0142E0C40ED11CCA14DB0420F1C7
:101FB000AC014A195B09DA011296159780F062822A
:101FC000738251834083D9016D937C93E114F104B2
:101FD00071F0D7011396FC93EE9312978ECF229651
:101FE0008C0F9D1FF90191838083F301EFCFF09354
:101FF0006606E093650681CF4816590608F42C0161
:102000007D01D3019ACFCB010E940F0E7C01009776
:1020100049F0AE01B8010E941510C8010E94AB0E34
:1020200087016BCF10E000E068CFFB01DC0102C04C
:1020300001900D9241505040D8F70895FB01DC010A
:1020400001900D920020E1F7089511E0CDE4D1E078
:1020500000E006C0802FFE010E94070E2196011DA0
:0E206000CE34D10780E00807A9F7F894FFCF2F
:10206E00000067068000000000007702AA01F00160
:10207E00C9022102FF011302000000001205E5044F
:10208E002806BB04DE04CB04BC04000000006D0671
:10209E00AA01280654040D0A0041540041542B4352
:1020AE004D47463D310041542B434D47533D222B66
:1020BE00393100220D0068747470733A2F2F7777C0
:1020CE00772E676F6F676C652E636F6D2F6D617006
:1020DE00732F0031332E30343631303036002C0031
:1020EE0038302E32323039363634004E6F2052614F
:1020FE006E6765202020202020004E6F2052616EDA
:10210E006765202020202000574F4D454E2053411B
:10211E004645545900454D455247454E43590038A2
:10212E0031383939383833343700420046696E65F4
:10213E000048656172742052617465204E6F726D35
:10214E00616C0048656172742052617465204C6F39
:10215E007700504C4143452046494E4745520000BA
:00000001FF
