:020000040000FA
:100000000C944E010C947F010C947F010C947F01A1
:100010000C947F010C947F010C947F010C947F0160
:100020000C947F010C947F010C947F010C947F0150
:100030000C947F010C947F010C947F010C947F0140
:100040000C947F010C947F010C947F010C947F0130
:100050000C947F010C947F010C947F010C947D091A
:100060000C947F010C9453090C9429090C947F0182
:100070000C947F010C947F010C947F010C947F0100
:100080000C947F010C947F010C947F010C947F01F0
:100090000C94FF080C94D5080C947F010C94C709AC
:1000A0000C947F010C947F010C947F010C947F01D0
:1000B0000C947F010C947F010C947F010C947F01C0
:1000C0000C947F010C947F010C947F010C94AB087D
:1000D0000C9481080C947F010C9457080C942D0803
:1000E0000C947F010C946C030C9477020C943203F3
:1000F0000C94AA010C94F0010C94BB040C94C9025A
:100100000C9436030C94CB040C9454040C946303A9
:100110000C946D030C94A8010C9428060C94A9016E
:100120000C94E5040C942C030C9413020C943A03E5
:100130000C9441030C9412050C94FF010C9447039A
:100140000C94D90D0C94BC040C9451030C946D06C2
:100150000C9455030C9467030C945F030C944B03AD
:100160000C94DE040C9459030C943E030C9421026D
:100170000C9471030C94EB0A00002100240027006A
:100180002A002D00300033000101000004010701A6
:100190000A0100002200250028002B002E0031005B
:1001A000340002010000050108010B0100002000DD
:1001B0002300260029002C002F003200000100003F
:1001C00003010601090105050505070508080808DA
:1001D000020202020A0A08080404040401010101DF
:1001E00001010101030303030303030304070707DA
:1001F0000C0C0C0C0C0C0C0C02020202060606067F
:10020000060606060B0B0B0B0B0B0B0B010210204B
:10021000200808102040102040800201020108043C
:1002200002010102040810204080804020100804D0
:100230000201800402018040201008040201080429
:10024000020101020408102040800102040810206D
:10025000408000000A0B02090C0D0E080703040180
:10026000000000000000000000000000000000008E
:10027000000000000000000000000000000012115B
:10028000100000000000000000000000000000005E
:100290000000000000000000EB0AD90D11241FBE71
:1002A000CFEFD1E2DEBFCDBF00E00CBF26E0A0E083
:1002B000B3E001C01D92A736B207E1F713E0A0E05A
:1002C000B2E0EEE6F0E200E00BBF02C007900D9254
:1002D000A030B107D9F711E0CDE4D1E000E006C0CD
:1002E00021970109802FFE010E94070ECC34D1070F
:1002F00080E00807A9F70E94B60B0C9425100C9417
:100300000000FC01A089B18982E08C93A485B585A9
:100310001C92A685B7858FEC8C93108EA489B58925
:1003200086E08C93A289B3898C9180618C93A28999
:10033000B3898C9188608C93A289B3898C918068F1
:100340008C930288F389E02D80818F7D80830895CE
:1003500008950895AF92BF92CF92DF92EF92FF92ED
:100360000F931F93CF93DF936C017B018B01040FDD
:10037000151FEB015E01AE18BF08C017D10759F079
:100380006991D601ED91FC910190F081E02DC601BB
:100390001995892B79F7C501DF91CF911F910F91A5
:1003A000FF90EF90DF90CF90BF90AF900895FC0149
:1003B000A089B1898C91A689B78982FD0FC09C91D3
:1003C000818D8F5F8F73228D821749F0A18DAE0FC3
:1003D000BF2FB11D5D969C93818F08958C910895D8
:1003E000FC01538D448D252F30E0842F90E0821B3B
:1003F000930B541710F0CF96089501970895FC01C0
:10040000918D828D981761F0A28DAE0FBF2FB11D17
:100410005D968C91928D9F5F9F73928F90E008956F
:100420008FEF9FEF0895FC01918D828D981731F029
:10043000828DE80FF11D858D90E008958FEF9FEF7D
:100440000895FC01918D228D892F90E0805C9F4F53
:10045000821B91098F739927089585EC93E00E9480
:10046000210221E0892B09F420E0822F089582E601
:1004700094E00E94210221E0892B09F420E0822FE0
:1004800008958FEF94E00E94210221E0892B09F466
:1004900020E0822F08958CE995E00E94210221E05E
:1004A000892B09F420E0822F0895FC01A48DA80F68
:1004B000B92FB11DA35ABF4F2C91848D90E00196A6
:1004C0008F739927848FA689B7892C93A089B189C6
:1004D0008C91837080648C93938D848D981306C067
:1004E0000288F389E02D80818F7D80830895EF92CB
:1004F000FF920F931F93CF93DF93EC0181E0888FDE
:100500009B8D8C8D98131AC0E889F989808185FFAD
:1005100015C09FB7F894EE89FF896083E889F9894F
:1005200080818370806480839FBF81E090E0DF9151
:10053000CF911F910F91FF90EF900895F62E0B8DA4
:1005400010E00F5F1F4F0F731127E02E8C8D8E115F
:100550000CC00FB607FCFACFE889F989808185FFC6
:10056000F5CFCE010E945502F1CFEB8DEC0FFD2FA0
:10057000F11DE35AFF4FF0829FB7F8940B8FEA8981
:10058000FB8980818062CFCF682F8CE995E00C9445
:100590007702CF93DF93EC01888D8823B9F0AA8985
:1005A000BB89E889F9898C9185FD03C0808186FD2E
:1005B0000DC00FB607FCF7CF8C9185FFF2CF80817D
:1005C00085FFEDCFCE010E945502E9CFDF91CF919B
:1005D000089580E090E0892B29F00E944B02811160
:1005E0000E94000080E090E0892B29F00E944102E7
:1005F00081110E94000080E090E0892B29F00E9488
:10060000370281110E94000080E090E0892B29F0E0
:100610000E942D0281110C940000089581508231B6
:1006200008F05AC0E82FF0E08827E65EFC4F8F4FB5
:100630000C94070E3A033E032C03320336036C037B
:10064000410347034B035103550359035F036303FE
:100650006C0367036D037103809180008F77809333
:1006600080000895809180008F7DF9CF8091800077
:10067000877FF5CF84B58F7784BD089584B58F7D4E
:10068000FBCF8091B0008F778093B0000895809168
:10069000B0008F7DF9CF809190008F77809390008C
:1006A0000895809190008F7DF9CF80919000877F91
:1006B000F5CF8091A0008F778093A000089580915E
:1006C000A0008F7DF9CF8091A000877FF5CF80912A
:1006D00020018F77809320010895809120018F7DE4
:1006E000F9CF80912001877FF5CFCF93DF93282F1B
:1006F00030E0F901EE5AFD4F8491F901E45FFD4FBE
:10070000D491F901EA53FE4FC491CC23A1F0811199
:100710000E940E03EC2FF0E0EE0FFF1FE455FE4F9A
:10072000A591B491EC91ED2381E090E009F480E093
:10073000DF91CF91089580E090E0FACF1F93CF939F
:10074000DF93282F30E0F901EE5AFD4F8491F90133
:10075000E45FFD4FD491F901EA53FE4FC491CC23DD
:10076000A9F0162F81110E940E03EC2FF0E0EE0F7E
:10077000FF1FEE56FE4FA591B4918FB7F894EC9100
:10078000111108C0D095DE23DC938FBFDF91CF918C
:100790001F910895DE2BF8CFCF93DF9390E0FC01FB
:1007A000E45FFD4F24918A539E4FFC01849188237E
:1007B000D1F090E0880F991FFC01E858FE4FA591F9
:1007C000B491FC01EE56FE4FC591D491623071F4A4
:1007D0009FB7F8943C91822F809583238C93E88176
:1007E0002E2B28839FBFDF91CF9108958FB7F89468
:1007F000EC912E2B2C938FBFF6CF3FB7F8948091BE
:10080000B7039091B803A091B903B091BA0326B58C
:10081000A89B05C02F3F19F00196A11DB11D3FBF38
:10082000BA2FA92F982F8827BC01CD01620F711D07
:10083000811D911D42E0660F771F881F991F4A9501
:10084000D1F708958F929F92AF92BF92CF92DF928D
:10085000EF92FF924B015C010E94FD036B017C0152
:100860000E94FD036C197D098E099F09683E734043
:1008700081059105A8F321E0821A9108A108B10829
:1008800088EEC80E83E0D81EE11CF11C811491048F
:10089000A104B10429F7FF90EF90DF90CF90BF90B3
:1008A000AF909F908F900895089520914103260F57
:1008B0003327331F21323105ECF420918A03FC01E8
:1008C00090E080E0243069F082E00895A091410337
:1008D0002191AC014F5D5C4FA40FB52FB11D2C933E
:1008E0000196861798F380914103680F6093410346
:1008F00080E0089581E0089510928A0381E080935A
:1009000089031092640361E084E10E949E0361E028
:1009100085E10E949E03E9EBF0E080818E7F808379
:1009200080818D7F808388E48093B80085E4809304
:10093000BC000895CF93DF9391E090932003882328
:10094000B9F0C091B800D091BA008091BC008A7B08
:100950008093BC0060E084E10E949E0360E085E13A
:100960000E949E030E947C04D093BA00C093B800FA
:10097000DF91CF9108950895E091C2038091C10362
:10098000E81730F4F0E0E050FD4F808190E00895EA
:100990008FEF9FEF08959091C2038091C1032FEFD5
:1009A0003FEF981748F4E92FF0E0E050FD4F208129
:1009B00030E09F5F9093C203C90108958091C10305
:1009C0009091C203891B990B0895CF92DF92EF9209
:1009D000FF920F931F93CF93DF937C01CB018A018A
:1009E00020919003222389F0EB016B01C40ED51EE8
:1009F000CC15DD0569F06991D701ED91FC9101906D
:100A0000F081E02DC7011995F3CF642F0E945504A2
:100A1000C801DF91CF911F910F91FF90EF90DF9070
:100A2000CF900895CF93DF931F92CDB7DEB7698340
:100A3000209190032223F9F02091BF03203258F037
:100A400021E030E0FC013383228390E080E00F90CE
:100A5000DF91CF9108958091C003E82FF0E0EF5629
:100A6000FC4F998190838F5F8093C0038093BF0375
:100A700081E090E0ECCF61E0CE0101960E94550448
:100A8000F7CFCF92DF92EF92FF920F931F93CF9306
:100A9000DF93FC01C48121E020939003C093B10354
:100AA0001092C0031092BF038385682B89E396E000
:100AB0000E941205D091BF03D13208F092C00E946B
:100AC000FD036B017C0180918A03811165C082E086
:100AD00080938A0381E0809389038FEF809388035A
:100AE00010928703D0938603A1E9B3E0E6E6F3E032
:100AF00080E0D81385C01092650380916503CC0F08
:100B0000C82BC093650380916403813009F07CC0D9
:100B1000109264030E94FD036B017C0180916503C8
:100B20008093BB0080918C0390918D03A0918E03E4
:100B3000B0918F03892B8A2B8B2B99F00E94FD0398
:100B400000918C0310918D0320918E0330918F03BF
:100B50006C197D098E099F090617170728073907A1
:100B6000E0F18091BC0083FDD9CF85EC8093BC007F
:100B70000E94FD036B017C0180918A03823009F49D
:100B800045C0809188038F3F61F180918803803256
:100B900041F18091880325C080918C0390918D0351
:100BA000A0918E03B0918F03892B8A2B8B2B09F494
:100BB0008ACF0E94FD0300918C0310918D03209138
:100BC0008E0330918F036C197D098E099F090617DA
:100BD00017072807390708F076CF80918B030E940A
:100BE0009A041092C0031092BF0310929003DF91F9
:100BF000CF911F910F91FF90EF90DF90CF900895CC
:100C00009D9191938F5F75CF85EEB0CF80918C03CE
:100C100090918D03A0918E03B0918F03892B8A2B25
:100C20008B2B09F4A9CF0E94FD0300918C03109136
:100C30008D0320918E0330918F036C197D098E09ED
:100C40009F09061717072807390708F095CFC5CF62
:100C500090E080E008950F931F93CF938C01C62FEF
:100C60000E9441056C2F6460C8010E9441056C2FF1
:100C70006B7FC8010E94410583EC90E00197F1F77A
:100C8000CF911F910F9108950F931F93CF93DF93EF
:100C90008C01D62FC42F607F642B0E942B0680E12D
:100CA000D89FB00111246C2BC801DF91CF911F9107
:100CB0000F910C942B0640E061E087E596E00E94DE
:100CC00044068BE39FE10197F1F70895682F606870
:100CD00040E087E596E00C94440641E00E9444061B
:100CE00081E090E008950F931F93CF93DF93EC0181
:100CF00088819981009759F02A813B81261737070F
:100D000030F081E0DF91CF911F910F9108958B0119
:100D10006F5F7F4F0E94340F009759F0998388834B
:100D20001B830A832C813D81232B59F7FC01108200
:100D3000E8CF80E0E7CFCF93DF93EC018881998102
:100D4000009711F00E94AB0E198218821D821C823E
:100D50001B821A82DF91CF910895FC0180819181DD
:100D6000009711F00C94AB0E0895FB010190002048
:100D7000E9F73197AF01461B570BDC01ED91FC9170
:100D80000280F381E02D1994CF93DF93FC0144811D
:100D900055816081718185EC93E00E94AA01EC018C
:100DA00066E372E085EC93E00E94B5068C0F9D1F10
:100DB000DF91CF9108950C94B506EF92FF920F93B7
:100DC0001F93CF93DF93EC017B01198218821B8262
:100DD0001A821D821C82FB0101900020E9F73197E5
:100DE0008F01061B170BB8010E947306811109C001
:100DF000CE01DF91CF911F910F91FF90EF900C9456
:100E00009B061D830C83B70188819981DF91CF9167
:100E10001F910F91FF90EF900C941E10CF92DF92D4
:100E2000EF92FF920F931F93CF93DF93CDB7DEB76F
:100E30002C970FB6F894DEBF0FBECDBF6C017B01BF
:100E400069E372E085EC93E00E94B50666E372E028
:100E500085EC93E00E94B50668EE73E080E090E0D8
:100E60000E9422046CE372E085EC93E00E94B506D8
:100E700066E372E085EC93E00E94B50668EE73E0ED
:100E800080E090E00E94220418861F821A8619864C
:100E90001C861B86F601008111810115110569F080
:100EA000C480D580B601CE0107960E9473068111D9
:100EB00082C0CE0107960E949B0666E472E0CE01D6
:100EC00001960E94DD06CF80D884C114D10409F4B4
:100ED0007AC00B851C8501151105B9F08D819E81A5
:100EE000080F191FB801CE0101960E9473068823CE
:100EF00009F469C029813A818D819E81B601820FF2
:100F0000931F0E941E101E830D830D811E810E5F94
:100F10001F4FB801CE0101960E947306811158C07F
:100F2000CE0101960E949B06CE0101960E94C40646
:100F3000CE0101960E94AD06CE0107960E94AD0635
:100F400068EE73E080E090E00E942204C7010E94F6
:100F5000C40666E572E085EC93E00E94DB0663E779
:100F600072E085EC93E00E94DB066EE772E085ECB0
:100F700093E00E94DB0660E872E085EC93E00E945B
:100F8000DB0668EE73E080E090E00E9422046AE1F4
:100F900085EC93E00E9477022C960FB6F894DEBFA2
:100FA0000FBECDBFDF91CF911F910F91FF90EF90BA
:100FB000DF90CF900895DC86CB86B8018F8198852D
:100FC0000E941E107ACFCE0101960E949B069DCFF3
:100FD00029813A818D819E8163E572E0820F931FA2
:100FE0000E941E101E830D839FCF85ED8093BC0051
:100FF00080918C0390918D03A0918E03B0918F030B
:101000000796A11DB11D23E0B695A79597958795E5
:101010002A95D1F72091BC0024FD03C010928A03C9
:10102000089540918C0350918D0360918E037091CF
:101030008F03452B462B472B69F30097A105B1057C
:1010400041F025E32A95F1F700000197A109B109C4
:10105000E1CF80918B030C949A041F920F920FB6EC
:101060000F9211240BB60F922F933F934F935F93E0
:101070006F937F938F939F93AF93BF93EF93FF9360
:1010800085EC93E00E945502FF91EF91BF91AF91E3
:101090009F918F917F916F915F914F913F912F9190
:1010A0000F900BBE0F900FBE0F901F9018951F92C0
:1010B0000F920FB60F9211240BB60F922F933F93FE
:1010C0004F935F936F937F938F939F93AF93BF9350
:1010D000EF93FF9385EC93E00E94D701FF91EF918E
:1010E000BF91AF919F918F917F916F915F914F9140
:1010F0003F912F910F900BBE0F900FBE0F901F903E
:1011000018951F920F920FB60F9211240BB60F92E3
:101110002F933F934F935F936F937F938F939F93FF
:10112000AF93BF93EF93FF9382E694E00E94550242
:10113000FF91EF91BF91AF919F918F917F916F91AF
:101140005F914F913F912F910F900BBE0F900FBE6B
:101150000F901F9018951F920F920FB60F921124A7
:101160000BB60F922F933F934F935F936F937F93A1
:101170008F939F93AF93BF93EF93FF9382E694E097
:101180000E94D701FF91EF91BF91AF919F918F91F5
:101190007F916F915F914F913F912F910F900BBE77
:1011A0000F900FBE0F901F9018951F920F920FB6C1
:1011B0000F9211240BB60F922F933F934F935F938F
:1011C0006F937F938F939F93AF93BF93EF93FF930F
:1011D0008FEF94E00E945502FF91EF91BF91AF9184
:1011E0009F918F917F916F915F914F913F912F913F
:1011F0000F900BBE0F900FBE0F901F9018951F926F
:101200000F920FB60F9211240BB60F922F933F93AC
:101210004F935F936F937F938F939F93AF93BF93FE
:10122000EF93FF938FEF94E00E94D701FF91EF912E
:10123000BF91AF919F918F917F916F915F914F91EE
:101240003F912F910F900BBE0F900FBE0F901F90EC
:1012500018951F920F920FB60F9211240BB60F9292
:101260002F933F934F935F936F937F938F939F93AE
:10127000AF93BF93EF93FF938CE995E00E945502E3
:10128000FF91EF91BF91AF919F918F917F916F915E
:101290005F914F913F912F910F900BBE0F900FBE1A
:1012A0000F901F9018951F920F920FB60F92112456
:1012B0000BB60F922F933F934F935F936F937F9350
:1012C0008F939F93AF93BF93EF93FF938CE995E038
:1012D0000E94D701FF91EF91BF91AF919F918F91A4
:1012E0007F916F915F914F913F912F910F900BBE26
:1012F0000F900FBE0F901F9018951F920F920FB670
:101300000F9211242F933F938F939F93AF93BF938B
:101310008091B3039091B403A091B503B091B6034B
:101320003091B20323E0230F2D3758F50196A11D0C
:10133000B11D2093B2038093B3039093B403A093A1
:10134000B503B093B6038091B7039091B803A09111
:10135000B903B091BA030196A11DB11D8093B703E3
:101360009093B803A093B903B093BA03BF91AF9120
:101370009F918F913F912F910F900FBE0F901F90D3
:10138000189526E8230F0296A11DB11DD2CF1F92FA
:101390000F920FB60F9211240BB60F922F933F931B
:1013A0004F935F936F937F938F939F93AF93BF936D
:1013B000EF93FF938091B900887F803609F44DC088
:1013C00008F040C0883209F4A9C028F5803109F43A
:1013D0009DC0C8F4882309F4FBC0883009F496C086
:1013E000FF91EF91BF91AF919F918F917F916F91FD
:1013F0005F914F913F912F910F900BBE0F900FBEB9
:101400000F901F901895883109F488C0803241F7F9
:101410008093880314C0803409F49DC040F4803365
:10142000B9F38833E9F68093880385ECB0C0803542
:1014300009F485C0883509F496C0883489F60E947D
:10144000F507CECF883909F48CC038F5883729F0F4
:1014500050F4883611F0803719F683E080938A03C0
:101460001092630357C0883809F47BC0803919F0A3
:10147000803809F0B5CF80916303803208F071C0E5
:10148000E091630381E08E0F809363038091BB0042
:10149000F0E0ED5BFC4F80833DC0803B39F0E0F431
:1014A000803A09F479C0883A09F09ACF84E08093B1
:1014B0008A031092420310924103E091BD03F09120
:1014C000BE0319958091410381110FC081E0809383
:1014D00041031092210309C0803C09F4A6CF883C47
:1014E00009F4A3CF883B09F07BCFE091420381E070
:1014F0008E0F80934203F0E0EF5DFC4F808180937C
:10150000BB00909142038091410329C08091650303
:101510008093BB0085EC8093BC0062CF90918703E1
:1015200080918603981758F5E091870381E08E0F2C
:1015300080938703F0E0EA59FC4F8081E9CFE09186
:10154000870381E08E0F809387038091BB00F0E0DA
:10155000EA59FC4F80839091870380918603981706
:10156000C8F285E8D8CFE091870381E08E0F8093A1
:1015700087038091BB00F0E0EA59FC4F80838091A3
:10158000890381115CCF81E08093640384EA8093B6
:10159000BC0010928A0324CF85EC8093BC0010928B
:1015A0008A0380916303803230F4E0916303F0E0BA
:1015B000ED5BFC4F10826091630370E0E091BB0330
:1015C000F091BC0383E493E019951092630308CF74
:1015D0001092880334CFE5ECF3E01382128288EE98
:1015E00093E0A0E0B0E084839583A683B7832AE0EC
:1015F00032E03183208345E351E05587448744E35B
:1016000051E05787468740E351E0518B408B41E3DF
:1016100051E0538B428B42E351E0558B448B46E3C0
:1016200051E0578B468B118E128E138E148EE2E68C
:10163000F4E01382128284839583A683B783318377
:10164000208345ED50E05587448744ED50E05787AF
:10165000468740ED50E0518B408B41ED50E0538B7D
:10166000428B42ED50E0558B448B46ED50E0578B5A
:10167000468B118E128E138E148EEFEFF4E01382D0
:10168000128284839583A683B783318320834DECB4
:1016900050E0558744874CEC50E05787468748EC2C
:1016A00050E0518B408B49EC50E0538B428B4AEC1D
:1016B00050E0558B448B4EEC50E0578B468B118E8F
:1016C000128E138E148EECE9F5E01382128284835D
:1016D0009583A683B7833183208325EC30E035875B
:1016E000248724EC30E03787268720EC30E0318BEC
:1016F000208B21EC30E0338B228B22EC30E0358BD9
:10170000248B26EC30E0378B268B118E128E138EB5
:10171000148EE9E3F6E01382128284839583A68314
:10172000B7838CE192E091838083E7E5F6E0138252
:1017300012828EE292E09183808380E2848380E152
:10174000818782E08287138668E372E081E596E014
:101750000E94DD066BE872E08BE496E00E94DD06F5
:101760006AE972E085E496E00C94DD06CF93DF939E
:10177000CDB7DEB7A7970FB6F894DEBF0FBECDBFCB
:10178000789484B5826084BD84B5816084BD85B55C
:10179000826085BD85B5816085BD80916E00816068
:1017A00080936E001092810080918100826080930E
:1017B0008100809181008160809381008091800010
:1017C0008160809380008091B10084608093B1003B
:1017D0008091B00081608093B00080919100826020
:1017E000809391008091910081608093910080911D
:1017F00090008160809390008091A100826080932E
:10180000A1008091A10081608093A1008091A0003F
:1018100081608093A00080912101826080932101EA
:10182000809121018160809321018091200181605C
:101830008093200180917A00846080937A00809167
:101840007A00826080937A0080917A008160809330
:101850007A0080917A00806880937A001092C100AB
:101860008CE995E00E9481018FEF94E00E94810154
:1018700082E694E00E94810185EC93E00E94810160
:101880001092C2031092C1031092C0031092BF03C2
:101890000E947C0488EA91E09093BE038093BD038C
:1018A00089EA91E09093BC038093BB0310925C069D
:1018B00080916106823018F098E090935C068093E6
:1018C0005F0662E370E080E090E00E942204609195
:1018D000620687E596E00E94410568EE73E080E0CD
:1018E00090E00E94220460E387E596E00E942B06C8
:1018F0000BE416E4C8010197F1F760E387E596E091
:101900000E942B06C8010197F1F760E387E596E096
:101910000E942B0683E592E00197F1F760E287E5EC
:1019200096E00E942B0660915C06606240E087E5CD
:1019300096E00E94440684E080935D0640E06CE0FF
:1019400087E596E00E9444060E945B0682E0809351
:101950005E0640E066E087E596E00E94440640E0CF
:1019600062E087E596E00E9444068BE39FE10197E1
:10197000F1F788E08093620660E087E596E00E94D8
:10198000410562E083E00E94CC0362E084E00E94B3
:10199000CC0362E086E00E94CC0361E08DE00E940F
:1019A000CC030E945B0682E00E94660668EA72E051
:1019B00087E596E00E94DB066AE070E080E090E058
:1019C0000E9422049AE0C92ED12CE12CF12C84E053
:1019D0000E947503892B09F047C086E00E947503B9
:1019E000892B81F581E40E94C4020E945B0682E09B
:1019F0000E94660665EB72E087E596E00E94DB06D2
:101A000061E08DE00E949E0365EB72E0CE0182965C
:101A10000E94DD066FEB72E0CE0101960E94DD06AA
:101A2000BE016E5D7F4FCE0101960E940E07CE0172
:101A300001960E94AD06CE0182960E94AD060E94DC
:101A4000E902C5CF6AEC72E08CE995E00E94DB0602
:101A50000E945B0683E00E9466066CEC72E087E5FC
:101A600096E00E94DB06EBCF88E7A82EB12C10E0B1
:101A700000E083E00E947503892B11F40F5F1F4F74
:101A80006EE070E080E090E00E94220481E0A81AFD
:101A9000B10879F71093C4030093C3039801110FA1
:101AA000440B550B19A28E010F5D1F4FCA01B901DE
:101AB000A70196010E94E50D605DF80162938F0118
:101AC000211531054105510589F7309729F0BF01EE
:101AD0008CE995E00E94B50666E372E08CE995E03A
:101AE0000E94B5068091C3039091C403813591058E
:101AF00064F183E40E94C4020E945B0682E00E94BB
:101B0000660665EB72E087E596E00E94DB0661E021
:101B10008DE00E949E0365EB72E0CE0101960E946B
:101B2000DD066FEB72E0CE0182960E94DD06BE01FB
:101B30006F5F7F4FCE0182960E940E07CE01829684
:101B40000E94AD06CE01019678CF9C012952310941
:101B50002732310558F484E40E94C4020E945B06D7
:101B600080E00E94660661ED72E079CF9C01215011
:101B700031092732310558F485E40E94C4020E94DD
:101B80005B0680E00E94660663EE72E068CF892BF8
:101B900009F055CF0E945B0682E00E94660662EF64
:101BA00072E087E596E00E94DB0686E40E94C402AC
:101BB00046CF85E496E00E94AD068BE496E00E9455
:101BC000AD0681E596E00C94AD06A1E21A2EAA1BA3
:101BD000BB1BFD010DC0AA1FBB1FEE1FFF1FA217DD
:101BE000B307E407F50720F0A21BB30BE40BF50BDA
:101BF000661F771F881F991F1A9469F76095709563
:101C0000809590959B01AC01BD01CF010895EE0F29
:101C1000FF1F881F8BBF0790F691E02D19940F933B
:101C20001F93CF93DF938230910510F482E090E010
:101C3000E0916506F091660630E020E0B0E0A0E0BB
:101C4000309799F42115310509F44AC0281B390B46
:101C500024303105D8F58A819B816115710589F1A0
:101C6000FB0193838283FE0111C040815181028177
:101C7000138148175907E0F04817590799F410974E
:101C800061F012960C93129713961C933296CF0123
:101C9000DF91CF911F910F910895009365061093E6
:101CA0006606F4CF2115310551F04217530738F07D
:101CB000A901DB019A01BD01DF01F801C1CFEF01EC
:101CC000F9CF9093660680936506CDCFFE01E20FB3
:101CD000F31F819391932250310939832883D7CF01
:101CE0002091630630916406232B41F42091020277
:101CF0003091030230936406209363062091000222
:101D0000309101022115310541F42DB73EB74091C4
:101D1000040250910502241B350BE0916306F091FB
:101D20006406E217F307A0F42E1B3F0B28173907B0
:101D300078F0AC014E5F5F4F2417350748F04E0F27
:101D40005F1F5093640640936306819391939FCFE6
:101D5000F0E0E0E09CCFCF93DF930097E9F0FC0147
:101D6000329713821282A0916506B0916606ED014A
:101D700030E020E01097A1F420813181820F931F81
:101D800020916306309164062817390709F061C075
:101D9000F0936406E0936306DF91CF910895EA0122
:101DA000CE17DF07E8F54A815B819E014115510599
:101DB000B1F7E901FB83EA8349915991C40FD51F1B
:101DC000EC17FD0761F4808191810296840F951FC5
:101DD000E90199838883828193819B838A83F0E0E0
:101DE000E0E012968D919C9113970097B9F52D9193
:101DF0003C911197CD010296820F931F20916306AB
:101E0000309164062817390739F6309751F510924A
:101E1000660610926506B0936406A0936306BCCF75
:101E2000D383C28340815181840F951FC817D9077E
:101E300061F44E5F5F4F88819981480F591F51832C
:101E400040838A819B81938382832115310509F028
:101E5000B0CFF0936606E09365069ECFFD01DC01EE
:101E6000C0CF13821282D7CF4F925F926F927F9230
:101E70008F929F92AF92BF92CF92DF92EF92FF929A
:101E80000F931F93CF93DF938C01009799F4CB01AD
:101E9000DF91CF911F910F91FF90EF90DF90CF9046
:101EA000BF90AF909F908F907F906F905F904F907A
:101EB0000C940F0EFC01E60FF71F9C012250310914
:101EC000E217F30708F4AEC0D901CD91DC91119768
:101ED000C617D70720F1C530D10578F0CE01049799
:101EE0008617970750F0C61BD70B2297C193D19343
:101EF0006D937C93CF010E94AB0EC801DF91CF910F
:101F00001F910F91FF90EF90DF90CF90BF90AF9017
:101F10009F908F907F906F905F904F9008955B019E
:101F2000AC1ABD0A4C018C0E9D1EA0916506B091A5
:101F30006606512C412CF12CE12C109731F5809143
:101F40006306909164068815990509F05CC04616F1
:101F5000570608F058C08091000290910102009746
:101F600041F48DB79EB74091040250910502841B45
:101F7000950BE817F90708F055C0F0936406E09355
:101F80006306F90171836083B8CF8D919C9111979D
:101F900012966C90129713967C901397A815B9051A
:101FA00059F56C0142E0C40ED11CCA14DB0420F1C7
:101FB000AC014A195B09DA011296159780F062822A
:101FC000738251834083D9016D937C93E114F104B2
:101FD00071F0D7011396FC93EE9312978ECF229651
:101FE0008C0F9D1FF90191838083F301EFCFF09354
:101FF0006606E093650681CF4816590608F42C0161
:102000007D01D3019ACFCB010E940F0E7C01009776
:1020100049F0AE01B8010E941510C8010E94AB0E34
:1020200087016BCF10E000E068CFFB01DC0102C04C
:1020300001900D9241505040D8F70895FB01DC010A
:1020400001900D920020E1F7089511E0CDE4D1E078
:1020500000E006C0802FFE010E94070E2196011DA0
:10206000CE34D10780E00807A9F7F894FFCF00002D
:1020700067068000000000007702AA01F001C90293
:102080002102FF011302000000001205E5042806EA
:10209000BB04DE04CB04BC04000000006D06AA01F2
:1020A000280654040D0A0041540041542B434D4767
:1020B000463D310041542B434D47533D222B39318E
:1020C00000220D0068747470733A2F2F7777772E83
:1020D000676F6F676C652E636F6D2F6D6170732F07
:1020E0000031332E30343631303036002C00383069
:1020F0002E32323039363634004E6F2052616E67E0
:1021000065202020202020004E6F2052616E6765E0
:10211000202020202000574F4D454E20534146455A
:10212000545900454D455247454E435900383138C2
:102130003939383833343700420046696E65004813
:10214000656172742052617465204E6F726D616CAE
:102150000048656172742052617465204C6F77008D
:0E216000504C4143452046494E474552000031
:10E000000D9489F10D94B2F10D94B2F10D94B2F129
:10E010000D94B2F10D94B2F10D94B2F10D94B2F1F0
:10E020000D94B2F10D94B2F10D94B2F10D94B2F1E0
:10E030000D94B2F10D94B2F10D94B2F10D94B2F1D0
:10E040000D94B2F10D94B2F10D94B2F10D94B2F1C0
:10E050000D94B2F10D94B2F10D94B2F10D94B2F1B0
:10E060000D94B2F10D94B2F10D94B2F10D94B2F1A0
:10E070000D94B2F10D94B2F10D94B2F10D94B2F190
:10E080000D94B2F10D94B2F10D94B2F10D94B2F180
:10E090000D94B2F10D94B2F10D94B2F10D94B2F170
:10E0A0000D94B2F10D94B2F10D94B2F10D94B2F160
:10E0B0000D94B2F10D94B2F10D94B2F10D94B2F150
:10E0C0000D94B2F10D94B2F10D94B2F10D94B2F140
:10E0D0000D94B2F10D94B2F10D94B2F10D94B2F130
:10E0E0000D94B2F141546D656761323536300041AF
:10E0F000726475696E6F206578706C6F72657220DE
:10E1000073746B3530305632206279204D4C530099
:10E11000426F6F746C6F616465723E004875683F52
:10E1200000436F6D70696C6564206F6E203D200048
:10E130004350552054797065202020203D20005FF9
:10E140005F4156525F415243485F5F3D2000415658
:10E1500052204C696243205665723D20004743437C
:10E160002056657273696F6E203D20004350552024
:10E1700049442020202020203D20004C6F7720663D
:10E18000757365202020203D20004869676820665F
:10E190007573652020203D200045787420667573D6
:10E1A00065202020203D20004C6F636B2066757336
:10E1B000652020203D20004D617220203720323024
:10E1C000313300312E362E3800342E332E350056A2
:10E1D00023202020414444522020206F7020636F70
:10E1E00064652020202020696E73747275637469E1
:10E1F0006F6E2061646472202020496E74657272B3
:10E20000757074006E6F20766563746F7200726A49
:10E210006D702020006A6D70200057686174207056
:10E220006F72743A00506F7274206E6F7420737541
:10E2300070706F72746564004D7573742062652030
:10E2400061206C6574746572002000577269747483
:10E25000696E672045450052656164696E672045B7
:10E26000450045452065727220636E743D00504F35
:10E27000525400303D5A65726F2061646472003FF1
:10E280003D43505520737461747300403D454550C3
:10E29000524F4D207465737400423D426C696E6B41
:10E2A000204C454400453D44756D70204545505215
:10E2B0004F4D00463D44756D7020464C415348001B
:10E2C000483D48656C70004C3D4C69737420492F83
:10E2D0004F20506F72747300513D51756974005234
:10E2E0003D44756D702052414D00563D73686F7707
:10E2F00020696E7465727275707420566563746FF0
:10E30000727300593D506F727420626C696E6B00BD
:10E310002A0011241FBECFEFD1E2DEBFCDBF01E046
:10E320000CBF12E0A0E0B2E0EEE1FDEF03E00BBFB6
:10E3300002C007900D92A030B107D9F712E0A0E01B
:10E34000B2E001C01D92AE30B107E1F70F9460F367
:10E350000D948DFE01E20EBF0FEF0DBF11241FBE05
:10E360000D9460F30D9400F020E030E040ED57E0B4
:10E3700005C0FA013197F1F72F5F3F4F2817390792
:10E38000C0F308959C01260F311DC901A0E0B0E043
:10E390002F5F3F4FABBFFC018791882361F08093D3
:10E3A000C6008091C00086FFFCCF8091C0008064D1
:10E3B0008093C000EACF08958DE08093C6008091DD
:10E3C000C00086FFFCCF8091C00080648093C000B5
:10E3D0008AE08093C6008091C00086FFFCCF8091C8
:10E3E000C00080648093C00008950F94C2F10F9420
:10E3F000DCF10895FC019081992359F09093C600B7
:10E400008091C00086FFFCCF8091C0008064809323
:10E41000C0003196992379F70895282F982F929567
:10E420009F70892F805D8A3308F0895F8093C600D2
:10E430008091C00086FFFCCF8091C00080648093F3
:10E44000C000822F8F70982F905D9A3308F0995FEB
:10E450009093C6008091C00086FFFCCF8091C000E1
:10E4600080648093C00008959C01FB01853691056E
:10E470001CF46330710594F0C90164E670E00F94F8
:10E480002EFE605D7F4F6093C6008091C00086FFC6
:10E49000FCCF8091C00080648093C0002B30310598
:10E4A00014F43297B4F0C90164E670E00F942EFEC4
:10E4B0006AE070E00F942EFE605D7F4F6093C600AF
:10E4C0008091C00086FFFCCF8091C0008064809363
:10E4D000C000C9016AE070E00F942EFEC0968093E0
:10E4E000C6008091C00086FFFCCF8091C000806490
:10E4F0008093C00008951F93182F8EE692EE60E07F
:10E500000F94C2F11093C6008091C00086FFFCCF2B
:10E510008091C00080648093C0000F94DCF11F9153
:10E5200008952F923F924F925F926F927F928F92B7
:10E530009F92AF92BF92CF92DF92EF92FF920F9392
:10E540001F93DF93CF93CDB7DEB762970FB6F894E2
:10E55000DEBF0FBECDBF382E622ECA01DB015C01CB
:10E560006D01772420E2222E2E010894411C511CBB
:10E570008BC081E0A81680E0B80681E0C80680E084
:10E58000D80628F0C601AA27BB270F940DF2BB2797
:10E59000AD2D9C2D8B2D0F940DF28A2D0F940DF225
:10E5A0002092C6008091C00086FFFCCF8091C00001
:10E5B00080648093C0009DE29093C6008091C0006B
:10E5C00086FFFCCF8091C00080648093C0002092C1
:10E5D000C6008091C00086FFFCCF8091C00080649F
:10E5E0008093C00019828601750188249924A1E0D6
:10E5F0003A1651F03A1620F0B2E03B1661F409C029
:10E600000BBFF701779007C0C7010F9477FE782EF4
:10E6100002C0F7017080872D0F940DF22092C60082
:10E620008091C00086FFFCCF8091C0008064809301
:10E63000C000872D8052F401EF70F0708F3520F408
:10E64000E40DF51D708204C0E40DF51D8EE280839B
:10E650000894E11CF11C011D111D0894811C911CE2
:10E6600090E18916910409F0C2CF80E190E0A0E02A
:10E67000B0E0A80EB91ECA1EDB1E198AC2010F9493
:10E68000FAF10F94DCF16A94662009F072CF629679
:10E690000FB6F894DEBF0FBECDBFCF91DF911F91B3
:10E6A0000F91FF90EF90DF90CF90BF90AF909F9031
:10E6B0008F907F906F905F904F903F902F90089534
:10E6C0002F923F924F925F926F927F928F929F9282
:10E6D000AF92BF92CF92DF92EF92FF920F931F9370
:10E6E000DF93CF93CDB7DEB7CD53D1400FB6F894BB
:10E6F000DEBF0FBECDBF01E20EBF0FEF0DBF94B75F
:10E70000F894A89514BE80916000886180936000A1
:10E7100010926000789493FF05C0E0910002F091A0
:10E7200001021995279A2F9A8091C00082608093E8
:10E73000C00080E18093C40088E18093C1000000A4
:10E74000EE24FF24870144E0A42EB12CCC24DD2448
:10E7500024C0C5010197F1F70894E11CF11C011DCB
:10E76000111D21E2E2162EE4F20620E0020720E06D
:10E77000120718F031E0C32ED12CC801B70127ECE5
:10E780003BE140E050E00F9441FE611571058105C9
:10E79000910519F485B1805885B98091C00087FD35
:10E7A00003C0C114D104A9F2A6014F5F5F4FC25E3E
:10E7B000DE4F59834883CE51D140C25EDE4F8881FF
:10E7C0009981CE51D140019711F00D9410FEC05D9A
:10E7D000DE4F19821882C053D14060E0C15DDE4F28
:10E7E0001882CF52D14088249924C35DDE4F19820C
:10E7F0001882CD52D140C05EDE4F188219821A8233
:10E800001B82C052D140CE5CDE4F188219821A8220
:10E810001B82C253D140EE24FF2487010BBFF701B6
:10E8200007911691C45CDE4F19830883CC53D14005
:10E830000D940BFEC25EDE4F28813981CE51D1404E
:10E840002130310509F52091C600C25EDE4F1982E4
:10E850001882CE51D14022C02F5F3F4F4F4F5F4FA4
:10E86000213082E138078AE7480780E0580780F0C6
:10E87000C45CDE4FE881F981CC53D140EF5FFF4F9C
:10E8800019F0EE27FF27099420E030E040E050E047
:10E890008091C00087FFE0CF2091C600C35DDE4FAE
:10E8A00048815981CD52D1404F5F5F4FC35DDE4FEC
:10E8B00059834883CD52D140213209F063C64A3092
:10E8C000510508F05FC60894811C911C53E0851621
:10E8D000910409F059C600E010E018C081E280936D
:10E8E000C6008091C00086FFFCCF8091C00080648C
:10E8F0008093C0002F5F3F4F2931310579F70F9486
:10E90000DCF10F5F1F4F0530110519F020E030E0FA
:10E91000E5CF10920A0210920B0210920C02109294
:10E920000D02109206021092070210920802109235
:10E930000902109202021092030210920402109235
:10E9400005028FEE90EE60E00F94F5F180E191EE1C
:10E9500060E00F94C2F18091C00087FFFCCF9091DE
:10E96000C600903608F09F759032B8F09093C600BC
:10E970008091C00086FFFCCF8091C00080648093AE
:10E98000C000A0E2A093C6008091C00086FFFCCF2B
:10E990008091C00080648093C000983409F4D7C18E
:10E9A0009934B8F4923409F459C1933458F490333B
:10E9B00019F1903308F4E3C59F33A1F1903409F0C5
:10E9C000DEC5BDC0953409F470C1963409F0D7C5D1
:10E9D00098C1923509F42BC2933538F49C3409F46C
:10E9E000F5C1913509F0CBC518C2963509F445C279
:10E9F000993509F0C4C567C483E792EE62E00F94CD
:10EA0000F5F110920602109207021092080210927D
:10EA1000090210920A0210920B0210920C0210923C
:10EA20000D0213C18FE792EE62E00F94F5F18FEEC5
:10EA300090EE60E00F94F5F181E291EE60E00F94CA
:10EA4000C2F187EB91EE60E00F94F5F180E391EE77
:10EA500060E00F94C2F184EE90EE60E00F94F5F167
:10EA60008FE391EE60E00F94C2F186E090E061E008
:10EA700070E00F9434F20F94DCF18DE591EE60E0DC
:10EA80000F94C2F189EC91EE60E00F94F5F18EE401
:10EA900091EE60E00F94C2F183EC91EE60E00F9490
:10EAA000F5F18CE691EE60E00F94C2F18EE10F94E7
:10EAB0000DF288E90F940DF281E00F940DF20F949E
:10EAC000DCF18BE791EE60E00F94C2F119E0E0E039
:10EAD000F0E010935700E4918E2F0F940DF20F94F5
:10EAE000DCF18AE891EE60E00F94C2F1E3E0F0E03F
:10EAF00010935700E4918E2F0F940DF20F94DCF1D8
:10EB000089E991EE60E00F94C2F1E2E0F0E0109349
:10EB10005700E4918E2F0F940DF20F94DCF188EAE8
:10EB200091EE60E00F94C2F1E1E0F0E01093570045
:10EB30001491812F0F940DF20F94DCF107CF8BE825
:10EB400092EE62E00F94F5F18BE492EE60E00F94A8
:10EB5000F5F10F94DCF100E010E019C0C8016F2D51
:10EB60000F947FFEFF2031F489E492EE60E00F9471
:10EB7000C2F10BC0F092C6008091C00086FFFCCFAE
:10EB80008091C00080648093C0000F5F1F4FC80158
:10EB900081519F41A0E0B0E0ABBFFC01F790BAE229
:10EBA000FB1621F0E2E000301E07C1F60F94DCF105
:10EBB0000F94DCF187E592EE60E00F94F5F10F948D
:10EBC000DCF1CC24DD2400E010E01EC0C8010F946D
:10EBD00077FEF82E882331F489E492EE60E00F94FA
:10EBE000C2F10BC08093C6008091C00086FFFCCFAD
:10EBF0008091C00080648093C000FE1419F00894D6
:10EC0000C11CD11C0F5F1F4FC80181519F41A0E063
:10EC1000B0E0ABBFFC01E790FAE2EF1621F022E092
:10EC20000030120799F60F94DCF10F94DCF182E6C4
:10EC300092EE60E00F94C2F1C60161E070E00F94C3
:10EC400034F20F94DCF10F94DCF110920202109276
:10EC50000302109204021092050278CE89E992EE26
:10EC600062E00F94F5F1279A2F9A16C02F9880E052
:10EC700090E0E0EDF7E03197F1F7019684369105E9
:10EC8000C1F72F9A80E090E0E0EDF7E03197F1F7DF
:10EC9000019684369105C1F78091C00087FFE6CFC9
:10ECA0008091C00087FFFCCF64C485EA92EE62E0E9
:10ECB0000F94F5F140910202509103026091040219
:10ECC0007091050281E020E10F9491F2809102029F
:10ECD00090910302A0910402B091050280509F4FD1
:10ECE000AF4FBF4F8093020290930302A0930402A0
:10ECF000B093050280509041A040B04008F426CE69
:10ED0000A4CF83EB92EE62E00F94F5F140910602FE
:10ED100050910702609108027091090280E020E1A1
:10ED20000F9491F28091060290910702A09108023F
:10ED3000B091090280509F4FAF4FBF4F80930602A2
:10ED400090930702A0930802B0930902FFCD80ECD4
:10ED500092EE62E00F94F5F183E792EE60E00F949B
:10ED6000F5F18FE792EE60E00F94F5F18BE892EE0B
:10ED700060E00F94F5F189E992EE60E00F94F5F10F
:10ED800085EA92EE60E00F94F5F183EB92EE60E09D
:10ED90000F94F5F180EC92EE60E00F94F5F187ECC2
:10EDA00092EE60E00F94F5F188ED92EE60E00F9442
:10EDB000F5F18FED92EE60E00F94F5F18AEE92EEB0
:10EDC00060E00F94F5F183E093EEBDCD87EC92EE19
:10EDD00062E00F94F5F181E40F947BF282E40F94EA
:10EDE0007BF283E40F947BF284E40F947BF285E45E
:10EDF0000F947BF286E40F947BF287E40F947BF20E
:10EE000088E40F947BF28AE40F947BF28BE40F94F6
:10EE10007BF28CE40F947BF299CD88ED92EE62E068
:10EE20000F94F5F1772473948824992409C48FED05
:10EE300092EE62E00F94F5F140910A0250910B02BC
:10EE400060910C0270910D0282E020E10F9491F22A
:10EE500080910A0290910B02A0910C02B0910D02D8
:10EE600080509F4FAF4FBF4F80930A0290930B0289
:10EE7000A0930C02B0930D0269CD8AEE92EE62E08F
:10EE80000F94F5F184EE90EE60E00F94F5F18FECC5
:10EE900091EE60E00F94F5F1662477244301CC5D98
:10EEA000DE4F19821882C452D140D401C301B695F5
:10EEB000A79597958795CA5DDE4F88839983AA8326
:10EEC000BB83C652D140CC5DDE4FA881B981C4520C
:10EED000D1401196CC5DDE4FB983A883C452D14096
:10EEE000CD0162E070E00F9434F2B0E2B093C6005E
:10EEF0008091C00086FFFCCF8091C0008064809329
:10EF0000C000EDE2E093C6008091C00086FFFCCF18
:10EF10008091C00080648093C000F0E2F093C6004E
:10EF20008091C00086FFFCCF8091C00080648093F8
:10EF3000C000CA5DDE4FE880F9800A811B81C6529D
:10EF4000D140BB27A12F902F8F2D0F940DF2CA5DBA
:10EF5000DE4F8881C652D1400F940DF2B0E2FB2EF5
:10EF6000F092C6008091C00086FFFCCF8091C00067
:10EF700080648093C0000DE30093C6008091C000C0
:10EF800086FFFCCF8091C00080648093C00010E2B7
:10EF90001093C6008091C00086FFFCCF8091C00016
:10EFA00080648093C0008BBEF3012791C65DDE4F65
:10EFB0002883CA52D140A22EBB24CC24DD2408943D
:10EFC000611C711C811C911C8BBEF3018791282E42
:10EFD0003324442455240894611C711C811C911C09
:10EFE0008BBEF3013791C55DDE4F3883CB52D140E4
:10EFF0000894611C711C811C911C8BBEF30147910C
:10F00000C45DDE4F4883CC52D140ADEFEA2EAFEF66
:10F01000FA2EAFEF0A2FAFEF1A2F6E0C7F1C801E57
:10F02000911E142D032DF22CEE24EA0CFB1C0C1D5A
:10F030001D1D0F940DF220E22093C6008091C000A8
:10F0400086FFFCCF8091C00080648093C000C65DC5
:10F05000DE4F8881CA52D1400F940DF230E23093D6
:10F06000C6008091C00086FFFCCF8091C000806404
:10F070008093C000C45DDE4F8881CC52D1400F9494
:10F080000DF240E24093C6008091C00086FFFCCFA5
:10F090008091C00080648093C000C55DDE4F888190
:10F0A000CB52D1400F940DF250E25093C6008091A4
:10F0B000C00086FFFCCF8091C00080648093C000B8
:10F0C0008FEFE8168FEFF80680E0080780E018075A
:10F0D00031F484E092EE60E00F94C2F1DFC0D80119
:10F0E000C7018070907CA070B0708050904CA040A0
:10F0F000B040D1F52FEF3FE340E050E0E222F322B1
:10F1000004231523CA5DDE4FA880B980CA80DB8046
:10F11000C652D140AE0CBF1CC01ED11EAA0CBB1CD7
:10F12000CC1CDD1C8EE092EE60E00F94C2F1BB2798
:10F13000A12F902F8F2D0F940DF28E2D0F940DF285
:10F1400030E23093C6008091C00086FFFCCF8091F2
:10F15000C00080648093C0004EE34093C60080915D
:10F16000C00086FFFCCF87C08EE09EEFA0E0B0E03D
:10F17000E822F9220A231B239CE0E91694E9F90608
:10F1800090E0090790E0190709F088C0C45DDE4FE0
:10F19000A881CC52D140EA2EFF2400E010E0102FCD
:10F1A0000F2DFE2CEE24C55DDE4FB881CB52D14031
:10F1B000EB0EF11C011D111DD601C501817090706F
:10F1C000A070B070DC0199278827E80EF91E0A1F8D
:10F1D0001B1F20EF30E040E050E0A222B322C42207
:10F1E000D52241E1AA0CBB1CCC1CDD1C4A95D1F7F1
:10F1F000EA0CFB1C0C1D1D1D81E090E0A0E0B0E0BE
:10F20000282239224A225B2235E1220C331C441C7D
:10F21000551C3A95D1F7E20CF31C041D151D57013E
:10F220006801AA0CBB1CCC1CDD1C85E192EE60E0E1
:10F230000F94C2F1C801AA27BB270F940DF2BB2778
:10F24000A12F902F8F2D0F940DF28E2D0F940DF274
:10F2500090E29093C6008091C00086FFFCCF809121
:10F26000C00080648093C000AEE3A093C60080918C
:10F27000C00086FFFCCF8091C00080648093C000F6
:10F28000C601AA27BB270F940DF2BB27AD2D9C2DDD
:10F290008B2D0F940DF28A2D0F940DF20F94DCF14B
:10F2A000CC5DDE4FE881F981C452D140F99709F471
:10F2B0004DCBF4E0EF2EF12C012D112D6E0C7F1CA7
:10F2C000801E911EF2CD83E093EE62E00F94F5F183
:10F2D0008AE192EE60E00F94C2F18091C00087FF56
:10F2E000FCCF1091C6001F751093C6008091C0001E
:10F2F00086FFFCCF8091C00080648093C0000F9493
:10F30000DCF1812F81548A3108F036C1163409F4BA
:10F3100095C0173490F4133409F44EC0143430F40B
:10F320001134F1F0123409F01DC130C0143409F465
:10F3300059C0153409F016C16BC01A3409F4C4C0A1
:10F340001B3438F4173409F48FC0183409F00AC19B
:10F35000A1C01B3409F4D2C01C3409F003C1E8C0B9
:10F360008FEF81B90DC082B1809582B980E090E0C5
:10F37000E0EDF7E03197F1F70196883C9105C1F790
:10F380008091C00087FFEFCF12B8EFC08FEF84B934
:10F390000DC085B1809585B980E090E0E0EDF7E0A3
:10F3A0003197F1F70196883C9105C1F78091C00033
:10F3B00087FFEFCF15B8D9C08FEF87B90DC088B1DF
:10F3C000809588B980E090E0E0EDF7E03197F1F7C3
:10F3D0000196883C9105C1F78091C00087FFEFCF6F
:10F3E00018B8C3C08FEF8AB90DC08BB180958BB9A7
:10F3F00080E090E0E0EDF7E03197F1F70196883C8E
:10F400009105C1F78091C00087FFEFCF1BB8ADC059
:10F410008FEF8DB90DC08EB180958EB980E090E0F0
:10F42000E0EDF7E03197F1F70196883C9105C1F7DF
:10F430008091C00087FFEFCF1EB897C08FEF80BBD1
:10F440000DC081B3809581BB80E090E0E0EDF7E0F6
:10F450003197F1F70196883C9105C1F78091C00082
:10F4600087FFEFCF11BA81C08FEF83BB0DC084B38C
:10F47000809584BB80E090E0E0EDF7E03197F1F714
:10F480000196883C9105C1F78091C00087FFEFCFBE
:10F4900014BA6BC08FEF809301010FC080910201FD
:10F4A00080958093020180E090E0E0EDF7E03197F5
:10F4B000F1F70196883C9105C1F78091C00087FF64
:10F4C000EDCF1092020151C08FEF809304010FC065
:10F4D0008091050180958093050180E090E0E0ED4A
:10F4E000F7E03197F1F70196883C9105C1F78091DB
:10F4F000C00087FFEDCF1092050137C08FEF8093DA
:10F5000007010FC08091080180958093080180E079
:10F5100090E0E0EDF7E03197F1F70196883C910536
:10F52000C1F78091C00087FFEDCF109208011DC088
:10F530008FEF80930A010FC080910B01809580931B
:10F540000B0180E090E0E0EDF7E03197F1F70196F4
:10F55000883C9105C1F78091C00087FFEDCF1092E4
:10F560000B0103C085E292EEEEC98091C00087FFD7
:10F57000FCCF8091C600EAC988E392EEE4C98CE131
:10F5800091EEE1C988249924933011F1943028F444
:10F59000913089F09230B8F408C0953061F195301F
:10F5A000F0F0963009F048C043C02B3109F042C951
:10F5B00091E06BE13FC96227C15DDE4F2883CF52E6
:10F5C000D14092E037C9B22FA0E0622793E032C960
:10F5D000822F90E0A82BB92B622794E02BC92E3004
:10F5E00009F039C3622795E0C05DDE4F19821882A9
:10F5F000C053D1401FC9E1E0F0E0EC0FFD1FC05D3A
:10F60000DE4F08811981C053D140E00FF11F2083E4
:10F610000F5F1F4FC05DDE4F19830883C053D14079
:10F6200062270A171B0709F005C9D80196E002C92D
:10F63000261709F010C303C0973009F0FBC87724E0
:10F640009981933109F412C19431C8F4963009F4C8
:10F65000D8C0973050F4923009F406C1933009F4C1
:10F660006DC0913009F059C253C0913109F477C08F
:10F67000923108F0BBC0903109F04FC2F5C098310B
:10F6800009F487C0993150F4953109F4EFC09531F0
:10F6900008F4C6C1963109F040C2C2C19A3109F4DA
:10F6A0006CC09A3108F491C09B3109F45BC09D3164
:10F6B00009F033C29D81903359F48F81882311F46E
:10F6C0009EE11CC0813011F091E018C098E916C08D
:10F6D000892F807591F0903539F4E0E0F0E089E011
:10F6E0008093570094910AC0983539F4E3E0F0E034
:10F6F00089E080935700949101C090E01A821B82A8
:10F700008D818C831D829E831F8227E030E009C299
:10F710001A8288E08B8381E48C8386E58D8382E581
:10F720008E8389E48F8383E5888780E589878FE5E9
:10F730008A8782E38B872BE030E0F3C18A818139AD
:10F7400041F0823941F0803911F48FE005C080E04A
:10F7500003C082E001C08AE01A828B8344C0772410
:10F76000739482C08D81882311F48EE12CC0813086
:10F7700011F081E028C088E926C01A82E1E0F0E0BB
:10F7800089E08093570084918B831C8224E030E0D1
:10F79000C8C18B81803589F48C81883039F4E2E0EE
:10F7A000F0E089E08093570084910DC0E0E0F0E044
:10F7B00089E080935700849106C0E3E0F0E089E09F
:10F7C0008093570084911A82DFCF8D81836C99E0FA
:10F7D000E1E0F0E0082E90935700E89507B600FCB2
:10F7E000FDCF1A821B8223E030E09BC180EC8A832C
:10F7F000CE5CDE4F188219821A821B82C253D1401E
:10F800008EC18A8190E0A0E0B0E0582F44273327D2
:10F8100022278B8190E0A0E0B0E0DC0199278827C7
:10F82000282B392B4A2B5B2B8D8190E0A0E0B0E098
:10F83000282B392B4A2B5B2B8C8190E0A0E0B0E089
:10F84000BA2FA92F982F8827282B392B4A2B5B2BCF
:10F85000220F331F441F551FC05EDE4F288339839C
:10F860004A835B83C052D1401A8259C13A81C95C34
:10F87000DE4F3883C753D140CA5CDE4F1882C6536F
:10F88000D1408B81C82EDD24CA5CDE4F488159816E
:10F89000C653D140C42AD52A933109F082C0CE5C28
:10F8A000DE4F88819981AA81BB81C253D1408050AB
:10F8B000904CA340B04030F583E0CE5CDE4FE88052
:10F8C000F9800A811B81C253D140F70100935B008C
:10F8D00080935700E89507B600FCFDCFCE5CDE4F65
:10F8E000088119812A813B81C253D14000501F4FAA
:10F8F0002F4F3F4FCE5CDE4F088319832A833B8313
:10F90000C253D140C05EDE4F488159816A817B81FC
:10F91000C052D140DE011B9631E08C9111962C91A2
:10F9200011971296C75CDE4F2883C953D140C85C3B
:10F93000DE4F1882C853D14090E0C85CDE4FE881AA
:10F94000F981C853D1408E2B9F2B0C01FA01609393
:10F950005B0030935700E89511244E5F5F4F6F4F67
:10F960007F4F0EEFE02E0FEFF02ECE0CDF1CC114F8
:10F97000D10499F685E0C05EDE4F088119812A81A5
:10F980003B81C052D140F80120935B008093570027
:10F99000E89507B600FCFDCF81E180935700E8951C
:10F9A00035C0C05EDE4F88819981AA81BB81C0527B
:10F9B000D140B695A795979587957C018601ABE0D8
:10F9C000AA2EB12CAC0EBD1E0BC0D5016D915D01F0
:10F9D000C7010F947FFE0894E11CF11C01501040F8
:10F9E0000115110591F7A60160E070E0440F551F65
:10F9F000661F771FC05EDE4FE880F9800A811B8199
:10FA0000C052D1404E0D5F1D601F711F1A82C05E33
:10FA1000DE4F488359836A837B83C052D1407FC0C5
:10FA2000FA80C55CDE4FF882CB53D140C65CDE4F16
:10FA30001882CA53D1408B81C82EDD24C65CDE4FAC
:10FA400008811981CA53D140C02AD12A1A828981DA
:10FA5000BE016D5F7F4F843121F59601C05EDE4FA0
:10FA6000E880F9800A811B81C052D1400BBFF701A9
:10FA700087919691DB018C9311969C936E5F7F4FDB
:10FA8000D801C7010296A11DB11DC05EDE4F88835B
:10FA90009983AA83BB83C052D14022503040F1F6F3
:10FAA00036C0C05EDE4F288139814A815B81C052F9
:10FAB000D1400894C108D108760100E010E0089414
:10FAC000C11CD11C0894E11CF11C011D111DE20E8A
:10FAD000F31E041F151F21BDBB27A52F942F832FB5
:10FAE00082BD2F5F3F4F4F4F5F4FF89A80B5DB01CC
:10FAF0008D93BD012E153F054007510761F7C05E8C
:10FB0000DE4F288339834A835B83C052D1409601FC
:10FB10002D5F3F4FFB01108204C080EC8A8322E0FE
:10FB200030E08BE18093C6008091C00086FFFCCF5F
:10FB30008091C00080648093C000C15DDE4FF88179
:10FB4000CF52D140F093C6008091C00086FFFCCF19
:10FB50008091C00080648093C000432F3093C60022
:10FB60008091C00086FFFCCF8091C00080648093AC
:10FB7000C000922F2093C6008091C00086FFFCCF6A
:10FB80008091C00080648093C0008EE08093C600A6
:10FB90008091C00086FFFCCF8091C000806480937C
:10FBA000C00065E1C15DDE4FE880CF52D1406E25D7
:10FBB00069276427FE01319610C090819093C6009A
:10FBC0008091C00086FFFCCF31968091C000806498
:10FBD0008093C0006927215030402115310569F715
:10FBE0006093C6008091C00086FFFCCF8091C0006A
:10FBF00080648093C00085B1805885B9772081F4F6
:10FC0000C15DDE4F0881CF52D1400F5FC15DDE4F35
:10FC10000883CF52D14090E0A0E0B0E00D941AF4F8
:10FC200027982F9880E090E020ED37E0F901319798
:10FC3000F1F7019684369105C9F700008091C00064
:10FC40008D7F8093C00081E180935700E895EE2777
:10FC5000FF270994FFCF90E00D941AF497FB092E2B
:10FC600007260AD077FD04D02ED006D000201AF443
:10FC7000709561957F4F0895F6F7909581959F4F08
:10FC80000895A1E21A2EAA1BBB1BFD010DC0AA1FDD
:10FC9000BB1FEE1FFF1FA217B307E407F50720F0F5
:10FCA000A21BB30BE40BF50B661F771F881F991F70
:10FCB0001A9469F760957095809590959B01AC01B9
:10FCC000BD01CF010895AA1BBB1B51E107C0AA1FAC
:10FCD000BB1FA617B70710F0A61BB70B881F991FED
:10FCE0005A95A9F780959095BC01CD010895F99991
:10FCF000FECF92BD81BDF89A992780B50895262F31
:10FD0000F999FECF1FBA92BD81BD20BD0FB6F89400
:0EFD1000FA9AF99A0FBE01960895F894FFCF63
:00000001FF
