:100000000C9463000C948B000C948B000C94C7052B
:100010000C94C7050C94C7050C948B000C948B00B2
:100020000C948B000C948B000C948B000C948B0024
:100030000C948B000C948B000C948B000C948B0014
:100040000C947D050C948B000C944B050C942505A9
:100050000C948B000C948B000C948B000C948B00F4
:100060000C948B000C948B000000000024002700EF
:100070002A0000000008000201000003040700003D
:1000800000000000000000000000230026002900FE
:1000900000000000250028002B00040404040404D0
:1000A0000404020202020202030303030303010227
:1000B00004081020408001020408102001020408F6
:1000C00010203F06850811241FBECFEFD8E0DEBF09
:1000D000CDBF23E0A4EFB1E001C01D92AA31B20769
:1000E000E1F711E0A0E0B1E0EAE0F6E102C005903E
:1000F0000D92A43FB107D9F710E0C2E6D0E004C0EA
:100100002197FE010E940009C136D107C9F70E945C
:1001100020070C94F80A0C940000E2E4F2E0A089B5
:10012000B18982E08C93A485B5851C92A685B7859C
:100130008FEC8C93108EA489B58986E08C93A2896C
:10014000B3898C9180618C93A289B3898C918860EA
:100150008C93A289B3898C9180688C930288F389EF
:10016000E02D80818F7D80830895AF92BF92CF92E2
:10017000DF92EF92FF920F931F93CF93DF936C0167
:100180007B018B01040F151FEB015E01AE18BF0848
:10019000C017D10759F06991D601ED91FC910190FA
:1001A000F081E02DC6010995892B79F7C501DF9112
:1001B000CF911F910F91FF90EF90DF90CF90BF9064
:1001C000AF900895FC01538D448D252F30E0842F8E
:1001D00090E0821B930B541710F0CF96089501976F
:1001E0000895FC01918D828D981761F0A28DAE0F5C
:1001F000BF2FB11D5D968C91928D9F5F9F73928FE3
:1002000090E008958FEF9FEF0895FC01918D828D0E
:10021000981731F0828DE80FF11D858D90E00895DB
:100220008FEF9FEF0895FC01918D228D892F90E033
:10023000805C9F4F821B91098F739927089582E4F8
:1002400092E00E94130121E0892B09F420E0822F23
:10025000089580E090E0892B29F00E941F01811110
:100260000C9400000895FC01A48DA80FB92FB11DB6
:10027000A35ABF4F2C91848D90E001968F739927DC
:10028000848FA689B7892C93A089B1898C918370BA
:1002900080648C93938D848D981306C00288F389B3
:1002A000E02D80818F7D80830895EF92FF920F93E0
:1002B0001F93CF93DF93EC0181E0888F9B8D8C8D12
:1002C00098131AC0E889F989808185FF15C09FB706
:1002D000F894EE89FF896083E889F98980818370C9
:1002E000806480839FBF81E090E0DF91CF911F9178
:1002F0000F91FF90EF900895F62E0B8D10E00F5F99
:100300001F4F0F731127E02E8C8D8E110CC00FB66E
:1003100007FCFACFE889F989808185FFF5CFCE0106
:100320000E943301F1CFEB8DEC0FFD2FF11DE35A4D
:10033000FF4FF0829FB7F8940B8FEA89FB89808189
:100340008062CFCFCF93DF93EC01888D8823B9F003
:10035000AA89BB89E889F9898C9185FD03C08081D0
:1003600086FD0DC00FB607FCF7CF8C9185FFF2CF4D
:10037000808185FFEDCFCE010E943301E9CFDF916F
:10038000CF91089590E0FC01EE58FF4F2491FC01BD
:10039000E255FF4F3491FC01E656FF4FE491EE2306
:1003A000C9F0222339F0233001F1A8F4213019F1EA
:1003B000223029F1F0E0EE0FFF1FE057FF4FA5912B
:1003C000B4918FB7F894EC91611126C030953E231B
:1003D0003C938FBF08952730A9F02830C9F024300E
:1003E00049F7809180008F7D03C0809180008F77D6
:1003F00080938000DFCF84B58F7784BDDBCF84B559
:100400008F7DFBCF8091B0008F778093B000D2CFEB
:100410008091B0008F7DF9CF3E2BDACFCF93DF9361
:1004200090E0FC01E255FF4F249186569F4FFC015E
:1004300084918823D1F090E0880F991FFC01E8593E
:10044000FF4FA591B491FC01E057FF4FC591D491A6
:1004500061110EC09FB7F8948C91E22FE0958E2326
:100460008C932881E223E8839FBFDF91CF91089589
:100470008FB7F894EC91E22BEC938FBFF6CF3FB798
:10048000F89480913E0290913F02A0914002B09179
:10049000410226B5A89B05C02F3F19F00196A11D6A
:1004A000B11D3FBFBA2FA92F982F8827BC01CD01BE
:1004B000620F711D811D911D42E0660F771F881F1D
:1004C000991F4A95D1F7089520913702309138024B
:1004D0002817390771F490913602809135029817E8
:1004E00041F0E0913602F0E0EB50FE4F808190E069
:1004F00008958FEF9FEF08950895EF92FF920F9365
:100500001F93CF93DF93DC015C96ED90FC905D9799
:10051000E114F10479F481E090E013969C938E93BA
:10052000129790E080E0DF91CF911F910F91FF90A3
:10053000EF9008955196ED91FC91529750968C91C1
:100540005097982F90950FB75E962C915E97122F2B
:10055000127021FD6095F8942081112319F1282B48
:100560002083E7012197F1F728E0462F50E0308102
:1005700060FF1AC0382B3083E7012197F1F7BA01E9
:1005800075956795215089F7112381F08081892322
:1005900080830FBF5C968D919C910197F1F781E06C
:1005A00090E0C1CF2923DCCF3923E5CF9081892B7F
:1005B000EFCF20913702309138022817390771F4B4
:1005C000809135022091360290E0805C9F4F821B23
:1005D000910960E470E00E94D808089590E080E0FE
:1005E0000895209137023091380228173907B9F45D
:1005F0009091360280913502981789F0E091360289
:10060000F0E0EB50FE4F80812091360230E02F5F0A
:100610003F4F2F7333272093360290E008958FEFDA
:100620009FEF0895089590E080E008958F929F9243
:10063000AF92BF92CF92DF92EF92FF92CF93DF9370
:100640007C01D0E0C0E0D70114968D919C91159764
:10065000C817D90790F4ED91FC91309759F4109296
:10066000F401E4EFF1E0608182E492E00E94550140
:100670002196E9CFEC0FFD1FF6CF0E943F024B0100
:100680005C0188EBC82E8BE0D82EE12CF12C0E9467
:100690003F02681979098A099B09683E7340810500
:1006A0009105A8F3B1E0CB1AD108E108F108E8EE12
:1006B0008E0EE3E09E1EA11CB11CC114D104E10406
:1006C000F10429F7DF91CF91FF90EF90DF90CF9069
:1006D000BF90AF909F908F900895CF93DF93EC01E0
:1006E00060E08E810E94C20161E08E810E94C201A1
:1006F00060E08E810E94C2018BE891E00197F1F7E2
:10070000DF91CF910895CF92DF92EF92FF920F93F6
:100710001F93CF93DF936C017C0187E0E80EF11CFF
:10072000D0E0C0E0062F10E0B8010C2E02C0759595
:1007300067950A94E2F76170F70181917F010E9449
:10074000C2012196C430D10579F7C601DF91CF915E
:100750001F910F91FF90EF90DF90CF900C946D035D
:10076000CF92DF92EF92FF920F931F93CF93DF937D
:10077000EC01F62E642F8C810E94C2018D818F3F87
:1007800019F060E00E94C2010F2D10E08F8584FFF8
:1007900025C06E0187E0C80ED11CF12CE12CB801F8
:1007A0000E2C02C0759567950A94E2F76170F60108
:1007B00081916F010E94C201FFEFEF1AFF0A88E0EA
:1007C000E816F10461F7CE01DF91CF911F910F91EF
:1007D000FF90EF90DF90CF900C946D03B80184E010
:1007E000759567958A95E1F7CE010E9483036F2D79
:1007F000CE01DF91CF911F910F91FF90EF90DF908D
:10080000CF900C94830340E0682F8EEF92E00C941D
:10081000B00381E00E9403048BE39FE10197F1F7AD
:100820000895CF93DF93823029F490910D0398605F
:1008300090930D03809311031092120380E4809330
:10084000130380E18093140380E58093150361E036
:10085000809102030E940E02809103038F3F19F0E2
:1008600061E00E940E0261E0809104030E940E028A
:10087000CEEFD2E09E012E5F324080910D0384FDC9
:100880000BC084E090E021962817390744F461E01A
:100890008E810E940E02EECF88E090E0F4CF8BE3D1
:1008A0009DE00197F1F760E0809102030E94C20190
:1008B00060E0809104030E94C201809103038F3F96
:1008C00019F060E00E94C20180910D0384FD34C0E4
:1008D00063E08EEF92E00E948303CBE4D6E4CE0186
:1008E0000197F1F763E08EEF92E00E948303219776
:1008F000F1F763E08EEF92E00E94830383E592E0DC
:100900000197F1F762E08EEF92E00E9483038091FD
:100910000D0380620E94030484E080930E038CE048
:100920000E9403040E94090482E080930F0386E082
:10093000DF91CF910C94030480620E9403048BE446
:1009400096E40197F1F780910D0380620E94030401
:1009500083E592E00197F1F780910D0380620E9498
:100960000304D5CFE1E0809111038111E0E0E1952E
:10097000F0E0E250FD4F848980680C94030441E06C
:100980000E94B00381E090E00895FC018081918194
:10099000009711F00C94A2090895FB01019000202A
:1009A000E9F73197AF01461B570BDC01ED91FC9144
:1009B0000280F381E02D0994EF92FF920F931F9331
:1009C000CF93DF93EC017B01198218821B821A827C
:1009D0001D821C82FB0101900020E9F731978F01F5
:1009E000061B170BB8016F5F7F4F90E080E00E94FD
:1009F0002B0A0097B9F0998388831B830A832C8183
:100A00003D81232B11F4FC0110821D830C83B7015F
:100A100088819981DF91CF911F910F91FF90EF9085
:100A20000C94F10A88819981009711F00E94A20923
:100A3000198218821D821C821B821A82DF91CF913B
:100A40001F910F91FF90EF9008951F920F920FB694
:100A50000F9211242F933F934F935F936F937F9344
:100A60008F939F93AF93BF93EF93FF9382E492E0B2
:100A70000E943301FF91EF91BF91AF919F918F91B0
:100A80007F916F915F914F913F912F910F900FBE8A
:100A90000F901F9018951F920F920FB60F9211246E
:100AA0002F938F939F93EF93FF93E0915202F091D6
:100AB00053028081E0915802F091590282FD1BC0DF
:100AC000908180915B028F5F8F7320915C0282170F
:100AD00041F0E0915B02F0E0EE5BFD4F958F80937B
:100AE0005B02FF91EF919F918F912F910F900FBE1D
:100AF0000F901F9018958081F4CF1F920F920FB620
:100B00000F9211242F933F938F939F93AF93BF9393
:100B100080913A0290913B02A0913C02B0913D023B
:100B20003091390223E0230F2D3758F50196A11D8E
:100B3000B11D2093390280933A0290933B02A09317
:100B40003C02B0933D0280913E0290913F02A09101
:100B50004002B09141020196A11DB11D80933E0259
:100B600090933F02A0934002B0934102BF91AF9196
:100B70009F918F913F912F910F900FBE0F901F90DB
:100B8000189526E8230F0296A11DB11DD2CF1F9202
:100B90000F920FB60F9211242F933F934F935F93B1
:100BA0006F937F938F939F93AF93BF93EF93FF9335
:100BB000E0913702F0913802309749F0A685B78569
:100BC0008585968D91FF14C09C918923A1F4FF9196
:100BD000EF91BF91AF919F918F917F916F915F91B5
:100BE0004F913F912F910F900FBE0F901F9018952E
:100BF0009C91892361F7A389B4899C91858980950B
:100C000089238C93868997890197F1F7608D718D7F
:100C1000A685B785558538E020E0CB010197F1F72F
:100C2000822F90E095958795282F4C91452309F0C8
:100C30002068315091F7868D81FD20958091350295
:100C400090E001968F73992730913602381799F00A
:100C5000A0913502B0E0AB50BE4F2C93809335028B
:100C6000828D938D0197F1F7A389B4898C91958931
:100C7000892B8C93ACCF868D8160868FF1CFCF92FC
:100C8000DF92EF92FF92109245021092440298EE8A
:100C9000C92E93E0D92EE12CF12CC0924602D092BD
:100CA0004702E0924802F09249028AE091E0909374
:100CB00043028093420285EC90E090934F02809330
:100CC0004E0284EC90E0909351028093500280ECAD
:100CD00090E0909353028093520281EC90E09093C5
:100CE00055028093540282EC90E0909357028093D7
:100CF000560286EC90E0909359028093580210922D
:100D00005B0210925C0210925D0210925E021092E1
:100D10000103109200038EE291E09093FF02809312
:100D2000FE028DE0809302038FEF809303038CE03B
:100D3000809304038BE0809305038AE0809306038D
:100D400089E08093070388E08093080310920903E9
:100D500010920A0310920B0310920C0310920D03D1
:100D600081E00E9411041092E2021092E102C0920E
:100D7000E302D092E402E092E502F092E6028CE116
:100D800091E09093E0028093DF021092F6021092BD
:100D9000F5021092F8021092F7021092FA021092E5
:100DA000F9021092FC021092FB026091FD026E7F2C
:100DB0006D7F6093FD026695617081E0682782E136
:100DC0000E94C20161E082E10E940E02E0ECF0E0CC
:100DD000E491E093EF02ECEAF0E0E491F0E0EE0F52
:100DE000FF1FE057FF4F859194919093F1028093FC
:100DF000F00260E081E10E940E028091FD0281FD1F
:100E000004C061E081E10E94C20181E18093EB02B4
:100E1000EFEBF0E0E491E093EC02EBEAF0E0E49138
:100E2000F0E0EE0FFF1FEA57FF4F859194919093EA
:100E3000EE028093ED02FF90EF90DF90CF90089547
:100E4000CF93DF9300D000D000D0CDB7DEB7789439
:100E500084B5826084BD84B5816084BD85B58260BF
:100E600085BD85B5816085BD80916E008160809370
:100E70006E001092810080918100826080938100D9
:100E800080918100816080938100809180008160E9
:100E9000809380008091B10084608093B100809144
:100EA000B00081608093B00080917A00846080936C
:100EB0007A0080917A00826080937A0080917A0033
:100EC000816080937A0080917A00806880937A00B4
:100ED0001092C1000E948D000E948D0061E082E0AE
:100EE0000E940E0261E084E00E940E0261E085E053
:100EF0000E940E0261E082E00E94C20161E084E093
:100F00000E94C20161E085E00E94C20182E00E946D
:100F100011040E9409040E94B20466E371E08EEF9E
:100F200092E00E94CD0400E010E082E492E00E9492
:100F30001301181619060CF0DCC082E492E00E943E
:100F4000F1008134E1F1E4F4803309F45BC08133D2
:100F500061F76BE771E082E492E00E94CD0460E00B
:100F600084E00E94C2010E9409040E94B2046BE75F
:100F700071E08EEF92E00E94CD0462E871E035C02E
:100F8000853409F461C0863409F48EC0823469F670
:100F900063E671E082E492E00E94CD0461E082E0C9
:100FA0000E94C2010E9409040E94B20463E671E03B
:100FB0008EEF92E00E94CD046DE671E016C064E40D
:100FC00071E082E492E00E94CD0460E082E00E9441
:100FD000C2010E9409040E94B2046DE471E08EEF28
:100FE00092E00E94CD0466E571E0CE0101960E9478
:100FF000DC04CE0101960E941603CE0101960E94E8
:10100000C50493CF6DE871E082E492E00E94CD04C4
:1010100061E084E00E94C2010E9409040E94B204BF
:101020006DE871E08EEF92E00E94CD0465E971E019
:10103000CE0101960E94DC04CE0101960E941603A7
:10104000CE0101960E94C50461EA71E082E492E05B
:101050000E94CD0460E085E00E94C2010E94090464
:101060000E94B20461EA71E08EEF92E00E94CD042A
:101070006DEA71E0CE0101960E94DC04CE0101967A
:101080000E941603CE0101960E94C50468EB71E030
:10109000CE0101960E94DC04CE0101960E94160347
:1010A000CE0101960E94C50468EC71E082E492E0F2
:1010B0000E94CD0461E085E00E94C2010E94090403
:1010C0000E94B20465ED71E08EEF92E00E94CD04C3
:1010D0006DEA71E0CE0101960E94DC04CE0101961A
:1010E0000E941603CE0101960E94C50463EE71E0D2
:1010F0007CCF0115110509F418CF0E941F01882328
:1011000009F413CF0E94000010CF8CE191E090937E
:10111000E0028093DF0280913702909138028F5D68
:10112000924071F4E091F202F091F302908180918B
:10113000F40280958923808310923802109237023E
:1011400008952F923F924F925F926F927F928F926B
:101150009F92AF92BF92CF92DF92EF92FF920F9346
:101160001F93CF93DF93CDB7DEB7CA1BDB0B0FB650
:10117000F894DEBF0FBECDBF09942A88398848880D
:101180005F846E847D848C849B84AA84B984C884A3
:10119000DF80EE80FD800C811B81AA81B981CE0F9A
:1011A000D11D0FB6F894DEBF0FBECDBFED0108957F
:1011B00097FB072E16F4009407D077FD09D00E9404
:1011C000EC0807FC05D03EF4909581959F4F08955B
:1011D000709561957F4F0895AA1BBB1B51E107C015
:1011E000AA1FBB1FA617B70710F0A61BB70B881FB7
:1011F000991F5A95A9F780959095BC01CD01089546
:10120000EE0FFF1F0590F491E02D09940F931F93AB
:10121000CF93DF938230910510F482E090E0E0916B
:101220001803F091190330E020E0B0E0A0E030971F
:1012300099F42115310509F44AC0281B390B2430D3
:101240003105D8F58A819B816115710589F1FB0112
:1012500093838283FE0111C04081518102811381F9
:1012600048175907E0F04817590799F4109761F0AB
:1012700012960C93129713961C933296CF01DF911E
:10128000CF911F910F9108950093180310931903A4
:10129000F4CF2115310551F04217530738F0A90159
:1012A000DB019A01BD01DF01F801C1CFEF01F9CFE8
:1012B0009093190380931803CDCFFE01E20FF31F23
:1012C000819391932250310939832883D7CF20917C
:1012D000160330911703232B41F420910201309122
:1012E00003013093170320931603209100013091DE
:1012F00001012115310541F42DB73EB7409104019C
:1013000050910501241B350BE0911603F091170352
:10131000E217F307A0F42E1B3F0B2817390778F0CC
:10132000AC014E5F5F4F2417350748F04E0F5F1F2B
:101330005093170340931603819391939FCFF0E04E
:10134000E0E09CCFCF93DF930097E9F0FC01329768
:1013500013821282A0911803B0911903ED0130E0BD
:1013600020E01097A1F420813181820F931F2091FA
:101370001603309117032817390709F061C0F0935D
:101380001703E0931603DF91CF910895EA01CE177A
:10139000DF07E8F54A815B819E0141155105B1F7F0
:1013A000E901FB83EA8349915991C40FD51FEC17DA
:1013B000FD0761F4808191810296840F951FE901F8
:1013C00099838883828193819B838A83F0E0E0E024
:1013D00012968D919C9113970097B9F52D913C91A0
:1013E0001197CD010296820F931F20911603309121
:1013F00017032817390739F6309751F5109219035A
:1014000010921803B0931703A0931603BCCFD38395
:10141000C28340815181840F951FC817D90761F499
:101420004E5F5F4F88819981480F591F51834083D8
:101430008A819B81938382832115310509F0B0CF86
:10144000F0931903E09318039ECFFD01DC01C0CF98
:1014500013821282D7CFB0E0A0E0E1E3FAE00C946F
:10146000A3088C01009751F4CB010E9406098C015E
:10147000C801CDB7DEB7E0E10C94BF08FC01E60F70
:10148000F71F9C0122503109E217F30708F49DC0B1
:10149000D901CD91DC911197C617D70798F0C530C7
:1014A000D10530F3CE0104978617970708F3C61BC2
:1014B000D70B2297C193D1936D937C93CF010E9458
:1014C000A209D6CF5B01AC1ABD0A4C018C0E9D1E41
:1014D000A0911803B0911903512C412CF12CE12C4F
:1014E000109731F58091160390911703881599058F
:1014F00009F05CC04616570608F058C080910001FC
:1015000090910101009741F48DB79EB7409104017D
:1015100050910501841B950BE817F90708F055C099
:10152000F0931703E0931603F90171836083A0CF52
:101530008D919C91119712966C90129713967C90B6
:101540001397A815B90559F56C0142E0C40ED11CDA
:10155000CA14DB0420F1AC014A195B09DA011296C6
:10156000159780F06282738251834083D9016D9315
:101570007C93E114F10471F0D7011396FC93EE9380
:10158000129776CF22968C0F9D1FF901918380834D
:10159000F301EFCFF0931903E093180369CF4816D6
:1015A000590608F42C017D01D3019ACFCB010E948A
:1015B00006097C01009749F0AE01B8010E94E80AD3
:1015C000C8010E94A209870153CF10E000E050CF6C
:1015D000FB01DC0102C001900D9241505040D8F750
:1015E0000895FB01DC0101900D920020E1F70895C0
:1015F00010E0C2E6D0E004C0FE010E94000921967E
:0A160000C336D107C9F7F894FFCFF5
:10160A0000001A038000000000005501B500E20046
:10161A00A2011301F1000501000000007D02B500DE
:10162A0013037C02D902F102640200000000BF0425
:10163A00B50013031203434F4E54524F4C20524FDE
:10164A00424F54004C49474854204F4E006C69673A
:10165A006874204F4E002A4C49474854204F4E2068
:10166A000A23004C49474854204F464600404C49FB
:10167A00474854204F4646200A230046414E204FF1
:10168A004E002446414E204F4E200A230046414E2A
:10169A00204F4646005E46414E204F4646200A23CA
:1016AA0000504C554720424F58204F4E002A464181
:1016BA004E204F4E200A230026504C554720424FB9
:1016CA0058204F4E200A2300504C554720424F586D
:1016DA00204F464600504C554720424F584E204F07
:1016EA0046460025504C554720424F58204F464603
:0416FA00200A23009F
:00000001FF
