:020000040000FA
:100000000C9481000C94A9000C94A9000C94740A1F
:100010000C94740A0C94740A0C94A9000C94A90012
:100020000C94A9000C94A9000C94A9000C94A900AC
:100030000C94A9000C94A9000C94A9000C94A9009C
:100040000C942A0A0C94A9000C94F8090C94D20977
:100050000C94A9000C94A9000C94A9000C94A9007C
:100060000C94EC0A0C94A900084AD73B3BCE016ED5
:1000700084BCBFFDC12F3D6C74319ABD56833DDAFF
:100080003D00C77F11BED9E4BB4C3E916BAAAABE0E
:10009000000000803F0000000000240027002A002C
:1000A0000000000800020100000304070000000037
:1000B00000000000542D484947483A0054454D502F
:1000C0003A00000000002300260029000000000084
:1000D000250028002B000404040404040404020284
:1000E00002020202030303030303010204081020B7
:1000F00040800102040810200102040810200B0CAB
:10010000311211241FBECFEFD8E0DEBFCDBF12E009
:10011000A0E0B1E0E2E0F0E302C005900D92AC3463
:10012000B107D9F724E0ACE4B2E001C01D92A635D6
:10013000B207E1F710E0C0E8D0E004C02197FE016B
:100140000E94FC15CF37D107C9F70E94FE0C0C9412
:10015000F4170C94000008950895AF92BF92CF92C7
:10016000DF92EF92FF920F931F93CF93DF936C0177
:100170007B018B01040F151FEB015E01AE18BF0858
:10018000C017D10759F06991D601ED91FC9101900A
:10019000F081E02DC6010995892B79F7C501DF9122
:1001A000CF911F910F91FF90EF90DF90CF90BF9074
:1001B000AF900895FC01538D448D252F30E0842F9E
:1001C00090E0821B930B541710F0CF96089501977F
:1001D0000895FC01918D828D981761F0A28DAE0F6C
:1001E000BF2FB11D5D968C91928D9F5F9F73928FF3
:1001F00090E008958FEF9FEF0895FC01918D828D1F
:10020000981731F0828DE80FF11D858D90E00895EB
:100210008FEF9FEF0895FC01918D228D892F90E043
:10022000805C9F4F821B91098F739927089582E705
:1002300093E00E940B0121E0892B09F420E0822F3A
:10024000089580E090E0892B29F00E941701811128
:100250000C9400000895FC01A48DA80FB92FB11DC6
:10026000A35ABF4F2C91848D90E001968F739927EC
:10027000848FA689B7892C93A089B1898C918370CA
:1002800080648C93938D848D981306C00288F389C3
:10029000E02D80818F7D80830895EF92FF920F93F0
:1002A0001F93CF93DF93EC0181E0888F9B8D8C8D22
:1002B00098131AC0E889F989808185FF15C09FB716
:1002C000F894EE89FF896083E889F98980818370D9
:1002D000806480839FBF81E090E0DF91CF911F9188
:1002E0000F91FF90EF900895F62E0B8D10E00F5FA9
:1002F0001F4F0F731127E02E8C8D8E110CC00FB67F
:1003000007FCFACFE889F989808185FFF5CFCE0116
:100310000E942B01F1CFEB8DEC0FFD2FF11DE35A65
:10032000FF4FF0829FB7F8940B8FEA89FB89808199
:100330008062CFCF0F931F93CF93DF938C01D0E0D8
:10034000C0E0F801EC0FFD1F6491662341F082E7E5
:1003500093E00E944D01892B11F02196F2CFCE013E
:10036000DF91CF911F910F910895CF93DF93EC010F
:10037000888D8823B9F0AA89BB89E889F9898C918D
:1003800085FD03C0808186FD0DC00FB607FCF7CF49
:100390008C9185FFF2CF808185FFEDCFCE010E9449
:1003A0002B01E9CFDF91CF910895833081F028F4BC
:1003B000813099F08230A9F008958730A9F0883013
:1003C000C9F08430B1F4809180008F7D03C08091AA
:1003D00080008F7780938000089584B58F7784BDE7
:1003E000089584B58F7DFBCF8091B0008F77809387
:1003F000B00008958091B0008F7DF9CFCF93DF9347
:10040000282F30E0F901E056FF4F8491F901E651C1
:10041000FF4FD491F901EA52FF4FC491CC23A1F0D0
:1004200081110E94D501EC2FF0E0EE0FFF1FEE537B
:10043000FF4FA591B491EC91ED2381E090E009F498
:1004400080E0DF91CF91089580E090E0FACFCF92E5
:10045000DF92EF92FF920F931F93CF93C0E007E0DC
:1004600010E083E7E82EF12CCC24C394D12C8091AA
:100470001A0390911B030E94FE01892BC1F3C7014F
:100480000197F1F780911A0390911B030E94FE01DE
:100490009601002E01C0220F0A94EAF7892B71F40D
:1004A0002095C2230150110910F78C2FCF911F9175
:1004B0000F91FF90EF90DF90CF900895C22B809125
:1004C0001A0390911B030E94FE01892BC1F7EACF0A
:1004D0001F93CF93DF93282F30E0F901E056FF4FB1
:1004E0008491F901E651FF4FD491F901EA52FF4F8F
:1004F000C491CC23A9F0162F81110E94D501EC2FB5
:10050000F0E0EE0FFF1FE453FF4FA591B4918FB7BA
:10051000F894EC91111108C0D095DE23DC938FBFC5
:10052000DF91CF911F910895DE2BF8CFCF93DF930A
:1005300090E0FC01E651FF4F24918A529F4FFC014D
:1005400084918823C9F090E0880F991FFC01EA5636
:10055000FF4FA591B491FC01E453FF4FC591D49195
:1005600061110DC09FB7F8948C91209582238C93D4
:100570008881282328839FBFDF91CF91089562301F
:1005800051F49FB7F8943C91822F809583238C93EC
:10059000E8812E2BEFCF8FB7F894EC912E2B2C9374
:1005A0008FBFEACF3FB7F8948091DA029091DB02D7
:1005B000A091DC02B091DD0226B5A89B05C02F3FBB
:1005C00019F00196A11DB11D3FBFBA2FA92F982F79
:1005D0008827BC01CD01620F711D811D911D42E074
:1005E000660F771F881F991F4A95D1F708958F923C
:1005F0009F92AF92BF92CF92DF92EF92FF924B0108
:100600005C010E94D2026B017C010E94D2026C1933
:100610007D098E099F09683E734081059105A8F305
:1006200021E0821A9108A108B10888EEC80E83E083
:10063000D81EE11CF11C81149104A104B10429F716
:10064000FF90EF90DF90CF90BF90AF909F908F90F2
:1006500008952091D3023091D4022817390771F4FC
:100660009091D2028091D102981741F0E091D2028C
:10067000F0E0EF56FD4F808190E008958FEF9FEFFF
:1006800008950895EF92FF920F931F93CF93DF93F6
:10069000DC015C96ED90FC905D97E114F10479F437
:1006A00081E090E013969C938E93129790E080E007
:1006B000DF91CF911F910F91FF90EF900895519688
:1006C000ED91FC91529750968C915097982F909560
:1006D0000FB75E962C915E97122F127021FD6095D8
:1006E000F8942081112319F1282B2083E701219709
:1006F000F1F728E0462F50E0308160FF1AC0382B18
:100700003083E7012197F1F7BA017595679521507C
:1007100089F7112381F08081892380830FBF5C9644
:100720008D919C910197F1F781E090E0C1CF292351
:10073000DCCF3923E5CF9081892BEFCF2091D302F5
:100740003091D4022817390761F48091D1022091A9
:10075000D20290E0805C9F4F821B91098F73992792
:10076000089590E080E008952091D3023091D40262
:1007700028173907B9F49091D2028091D1029817C5
:1007800089F0E091D202F0E0EF56FD4F8081209198
:10079000D20230E02F5F3F4F2F7333272093D202D6
:1007A00090E008958FEF9FEF089520916E02260F3D
:1007B0003327331F21323105ECF420914803FC012B
:1007C00090E080E0243069F082E00895A0916E020C
:1007D0002191AC01425B5D4FA40FB52FB11D2C934D
:1007E0000196861798F380916E02680F60936E02EF
:1007F00080E0089581E008951092480381E080939D
:1008000047031092220361E082E10E94680261E0E6
:1008100083E10E946802E9EBF0E080818E7F8083B3
:1008200080818D7F808388E48093B80085E4809305
:10083000BC000895CF93DF9391E090934D028823FD
:10084000B9F0C091B800D091BA008091BC008A7B09
:100850008093BC0060E082E10E94680260E083E176
:100860000E9468020E94FC03D093BA00C093B800B3
:10087000DF91CF9108958F929F92AF92BF92CF92C6
:10088000DF92EF92FF920F931F93CF93DF93D0915C
:100890007103D13208F0D7C0182FC09170030E94A5
:1008A000D2026B017C018091480381116BC082E010
:1008B00080934803109347038FEF80934603109271
:1008C0004503D0934403A0E5B3E0E4E2F3E080E025
:1008D000D81391C01092230380912303CC0FC82B0F
:1008E000C093230380912203813009F088C01092C5
:1008F00022030E94D2026B017C018091230380932A
:10090000BB0080914A0390914B03A0914C03B0919E
:100910004D03892B8A2B8B2BA1F00E94D2020091D0
:100920004A0310914B0320914C0330914D036C19F5
:100930007D098E099F09061717072807390708F44C
:1009400042C08091BC0083FDD8CF85EC8093BC0071
:100950000E94D2026B017C0180914803823009F42D
:1009600050C0809146038F3F09F46FC080914603C9
:10097000803209F46CC080914603803309F469C069
:1009800084E026C080914A0390914B03A0914C03D0
:10099000B0914D03892B8A2B8B2B09F484CF0E94B5
:1009A000D20280904A0390904B03A0904C03B090E9
:1009B0004D036C197D098E099F0986169706A806B6
:1009C000B90608F070CF809149030E941A0485E0AF
:1009D00010924F031092710310924E03DF91CF914A
:1009E0001F910F91FF90EF90DF90CF90BF90AF904D
:1009F0009F908F9008959D9191938F5F69CF85EE21
:100A0000A5CF80914A0390914B03A0914C03B091E4
:100A10004D03892B8A2B8B2B09F49ECF0E94D20287
:100A200000914A0310914B0320914C0330914D03E8
:100A30006C197D098E099F090617170728073907C2
:100A400008F08ACFC0CF81E0C3CF80E0C1CF82E081
:100A5000BFCF83E0BDCFE091E3028091E202E817CF
:100A600030F4F0E0EC51FD4F808190E008958FEF7D
:100A70009FEF08959091E3028091E2022FEF3FEF04
:100A8000981748F4E92FF0E0EC51FD4F208130E059
:100A90009F5F9093E302C90108958091E2029091D3
:100AA000E302891B990B0895CF92DF92EF92FF9298
:100AB0000F931F93CF93DF937C01CB018A01209189
:100AC0004E03222389F0EB016B01C40ED51ECC1519
:100AD000DD0569F06991D701ED91FC910190F081FC
:100AE000E02DC7010995F3CF642F0E94D503C801FB
:100AF000DF91CF911F910F91FF90EF90DF90CF90FA
:100B00000895CF93DF931F92CDB7DEB7698320910D
:100B10004E032223F9F020917103203258F021E096
:100B200030E0FC013383228390E080E00F90DF917E
:100B3000CF91089580914F03E82FF0E0E05BFC4FE8
:100B4000998190838F5F80934F038093710381E03D
:100B500090E0ECCF61E0CE0101960E94D503F7CF83
:100B6000089590E080E008950F931F93CF93DF9353
:100B70008C01D0E0C0E0D80114968D919C9115971E
:100B8000C817D90790F4ED91FC91309759F4109261
:100B90004C02ECE4F2E060818BE194E00E944203BD
:100BA0002196E9CFEC0FFD1FF6CF68EB7BE080E0EC
:100BB00090E0DF91CF911F910F910C94F702CF93AA
:100BC000DF93EC0160E08E810E94680261E08E811B
:100BD0000E94680260E08E810E9468028BE891E0CA
:100BE0000197F1F7DF91CF910895CF92DF92EF92C5
:100BF000FF920F931F93CF93DF936C017C0187E0EB
:100C0000E80EF11CD0E0C0E0062F10E0B8010C2E79
:100C100002C0759567950A94E2F76170F7018191BA
:100C20007F010E9468022196C430D10579F7C60180
:100C3000DF91CF911F910F91FF90EF90DF90CF90B8
:100C40000C94DF05CF92DF92EF92FF920F931F93E8
:100C5000CF93DF93EC01F62E642F8C810E94680203
:100C60008D818F3F19F060E00E9468020F2D10E027
:100C70008F8584FF25C06E0187E0C80ED11CF12C42
:100C8000E12CB8010E2C02C0759567950A94E2F725
:100C90006170F60181916F010E946802FFEFEF1A07
:100CA000FF0A88E0E816F10461F7CE01DF91CF91E9
:100CB0001F910F91FF90EF90DF90CF900C94DF0584
:100CC000B80184E0759567958A95E1F7CE010E9499
:100CD000F5056F2DCE01DF91CF911F910F91FF9000
:100CE000EF90DF90CF900C94F50540E0682F8AE3F9
:100CF00094E00C94220681E00E9475068BE39FE14C
:100D00000197F1F70895CF93DF93823029F4909102
:100D1000490498609093490480934D0410924E04C6
:100D200080E480934F0480E18093500480E58093B9
:100D3000510461E080913E040E94960280913F043C
:100D40008F3F19F061E00E94960261E080914004BB
:100D50000E949602CAE3D4E09E012A533440809157
:100D6000490484FD0BC084E090E0219628173907E0
:100D700044F461E08E810E949602EECF88E090E01C
:100D8000F4CF8BE39DE00197F1F760E080913E04A2
:100D90000E94680260E0809140040E946802809195
:100DA0003F048F3F19F060E00E946802809149047F
:100DB00084FD34C063E08AE394E00E94F505CBE44F
:100DC000D6E4CE010197F1F763E08AE394E00E9454
:100DD000F5052197F1F763E08AE394E00E94F505B9
:100DE00083E592E00197F1F762E08AE394E00E94E4
:100DF000F5058091490480620E94750684E0809325
:100E00004A048CE00E9475060E947B0682E0809373
:100E10004B0486E0DF91CF910C94750680620E94AE
:100E200075068BE496E40197F1F78091490480629E
:100E30000E94750683E592E00197F1F780914904DD
:100E400080620E947506D5CF643008F063E090910F
:100E50004D04691710F06FEF690FE62FF0E0E65CC4
:100E6000FB4F9489890F80680C94750641E00E94BD
:100E7000220681E090E00895FB0101900020E9F74F
:100E80003197AF01461B570BDC01ED91FC910280BD
:100E9000F381E02D0994CF93DF93FC0144815581C8
:100EA0006081718182E793E00E94AD00EC0168E40B
:100EB00071E082E793E00E943C078C0F9D1FDF9159
:100EC000CF9108958F929F92AF92BF92EF92FF922F
:100ED0000F931F93CF93DF93CDB7DEB7A1970FB6D4
:100EE000F894DEBF0FBECDBF7C01FA01CB0119A281
:100EF000223008F42AE08E010F5D1F4F822E912CC4
:100F0000B12CA12CBF01A50194010E940714F90185
:100F1000CA016A300CF5605DD8016E938D01232BF8
:100F2000242B252B79F790E080E0109721F0BD016C
:100F3000C7010E943C07A1960FB6F894DEBF0FBE12
:100F4000CDBFDF91CF911F910F91FF90EF90BF9098
:100F5000AF909F908F900895695CDECFCF92DF9223
:100F6000EF92FF920F931F93CF93DF93EC016A01EF
:100F70007B01E881F9810190F081E02D6DE2099516
:100F80008C0144275527BA014C195D096E097F0968
:100F90002AE0CE010E946207800F911FDF91CF915E
:100FA0001F910F91FF90EF90DF90CF900895AB01CC
:100FB000770F660B770B77FD0C94AE072AE00C9445
:100FC0006207CF93DF93BC0182E793E00E943C0766
:100FD000EC0168E471E082E793E00E943C078C0F2B
:100FE0009D1FDF91CF910895CF93DF93AC01990FAF
:100FF000660B770B77FF10C082E793E00E94AE0785
:10100000EC0168E471E082E793E00E943C078C0FFA
:101010009D1FDF91CF9108952AE082E793E00E941F
:101020006207EECF0C943C070F931F93CF93DF938F
:10103000EC0188819981009759F02A813B8126171C
:10104000370730F081E0DF91CF911F910F91089524
:101050008B016F5F7F4F0E942717009759F099838C
:1010600088831B830A832C813D81232B59F7FC0144
:101070001082E8CF80E0E7CFEF92FF920F931F93AB
:10108000CF93DF936115710541F480E0DF91CF913B
:101090001F910F91FF90EF90089541155105B1F008
:1010A0007B01EC010C811D81040F151FB8010E940A
:1010B0001408882351F3288139818C819D81B701DF
:1010C000820F931F0E94ED171D830C8381E0DECFFA
:1010D000CF93DF93EC0188819981009711F00E94F2
:1010E0009E16198218821D821C821B821A82DF9131
:1010F000CF910895CF93DF93EC01FB010190002085
:10110000E9F73197AF01461B570B0E943C0881114C
:1011100003C0CE010E946808CE01DF91CF910895EF
:10112000CF93DF93EC01FB01448155816081718194
:101130000E943C08811103C0CE010E946808CE01C4
:10114000DF91CF910895EF92FF920F931F93CF936A
:10115000DF93EC017B018A01BA010E94140881111E
:101160000BC0CE010E946808CE01DF91CF911F9184
:101170000F91FF90EF9008951D830C83B701888134
:1011800099810E94ED17F0CFEF92FF920F931F937A
:10119000CF93DF93CDB7DEB762970FB6F894DEBF7B
:1011A0000FBECDBF8C01CB01F801118210821382DA
:1011B0001282158214824AE09E012F5F3F4F79010F
:1011C000B9010E944D12F70101900020E9F7319713
:1011D000AF014E195F09B701C8010E94A3086296CA
:1011E0000FB6F894DEBF0FBECDBFDF91CF911F9138
:1011F0000F91FF90EF900895FB01DC0111961C9276
:101200001E9213961C921E92129715961C921E9275
:1012100014978617970749F06081718161157105F0
:1012200021F0448155810C94A3080895FC0111829A
:1012300010821382128215821482FB010190002019
:10124000E9F73197AF01461B570B0C94A308FC013B
:1012500080819181009711F00C949E160895EF9271
:10126000FF920F931F93CF93DF93CDB7DEB72C97E9
:101270000FB6F894DEBF0FBECDBF7C018B018BE4AF
:1012800091E00E94E10768EE73E080E090E00E9448
:10129000F7028EE491E00E94E10768EE73E080E0DF
:1012A00090E00E94F702B701CE0107960E94FC0869
:1012B00068E571E0CE0101960E941609BE01695FE2
:1012C0007F4FCE0101960E94900865E671E00E9472
:1012D0007A080E944B07CE0101960E942709CE0191
:1012E00007960E94270968EE73E080E090E00E9474
:1012F000F702C8010E944B0768EE73E080E090E0BF
:101300000E94F7026AE182E793E00E944D0168EED5
:1013100073E080E090E00E94F7022C960FB6F894FC
:10132000DEBF0FBECDBFDF91CF911F910F91FF9018
:10133000EF90089585ED8093BC0080914A039091D1
:101340004B03A0914C03B0914D030796A11DB11D15
:1013500023E0B695A795979587952A95D1F7209183
:10136000BC0024FD03C010924803089540914A0335
:1013700050914B0360914C0370914D03452B462BCC
:10138000472B69F30097A105B10541F02AE22A95A0
:10139000F1F700C00197A109B109E1CF809149039C
:1013A0000C941A041F920F920FB60F9211242F93D0
:1013B0003F934F935F936F937F938F939F93AF93DD
:1013C000BF93EF93FF9382E793E00E942B01FF917D
:1013D000EF91BF91AF919F918F917F916F915F91AD
:1013E0004F913F912F910F900FBE0F901F90189526
:1013F0001F920F920FB60F9211242F938F939F93EA
:10140000EF93FF93E0918203F09183038081E09159
:101410008803F091890382FD1BC0908180918B032A
:101420008F5F8F7320918C03821741F0E0918B03C3
:10143000F0E0EE58FC4F958F80938B03FF91EF9176
:101440009F918F912F910F900FBE0F901F90189525
:101450008081F4CF1F920F920FB60F9211242F9319
:101460003F938F939F93AF93BF938091D6029091B8
:10147000D702A091D802B091D9023091D50223E0D1
:10148000230F2D3758F50196A11DB11D2093D502CC
:101490008093D6029093D702A093D802B093D9023A
:1014A0008091DA029091DB02A091DC02B091DD0222
:1014B0000196A11DB11D8093DA029093DB02A093E7
:1014C000DC02B093DD02BF91AF919F918F913F916C
:1014D0002F910F900FBE0F901F90189526E8230FA5
:1014E0000296A11DB11DD2CF1F920F920FB60F927F
:1014F00011242F933F934F935F936F937F938F9319
:101500009F93AF93BF93EF93FF93E091D302F0913A
:10151000D402309749F0A685B7858585968D91FFD1
:1015200014C09C918923A1F4FF91EF91BF91AF91D9
:101530009F918F917F916F915F914F913F912F91EB
:101540000F900FBE0F901F9018959C91892361F703
:10155000A389B4899C918589809589238C938689F8
:1015600097890197F1F7608D718DA685B7855585AF
:1015700038E020E0CB010197F1F7822F90E09595BC
:101580008795282F4C91452309F02068315091F719
:10159000868D81FD20958091D10290E001968F7318
:1015A00099273091D202381799F0A091D102B0E07A
:1015B000AF56BD4F2C938093D102828D938D0197AE
:1015C000F1F7A389B4898C919589892B8C93ACCF41
:1015D000868D8160868FF1CF1F920F920FB60F928A
:1015E00011242F933F934F935F936F937F938F9328
:1015F0009F93AF93BF93EF93FF938091B900887F40
:10160000803609F44AC0F0F5883209F4A7C018F50D
:10161000803109F49BC0B8F4882309F4F9C08830FC
:1016200009F494C0FF91EF91BF91AF919F918F9179
:101630007F916F915F914F913F912F910F900FBECE
:101640000F901F901895883109F488C0803251F7A7
:101650008093460314C0803409F49DC040F4803365
:10166000B9F38833F9F68093460385ECB0C0803532
:1016700009F485C0883509F496C0883499F60E942B
:101680009A09D0CF883909F48CC038F5883729F009
:1016900050F4883611F0803729F683E080934803B0
:1016A0001092900257C0883809F47BC0803919F035
:1016B000803809F0B7CF80919002803208F071C075
:1016C000E091900281E08E0F809390028091BB00A8
:1016D000F0E0E059FD4F80833DC0803B39F0E0F4FD
:1016E000803A09F479C0883A09F09CCF84E080936D
:1016F000480310926F0210926E02E091E002F091A6
:10170000E102099580916E0281110FC081E0809302
:101710006E0210924E0209C0803C09F4A6CF883CAC
:1017200009F4A3CF883B09F07DCFE0916F0281E0FF
:101730008E0F80936F02F0E0E25BFD4F808180931B
:10174000BB0090916F0280916E0229C080912303AB
:101750008093BB0085EC8093BC0064CF90914503DF
:1017600080914403981758F5E091450381E08E0F6E
:1017700080934503F0E0EC5DFC4F8081E9CFE09180
:10178000450381E08E0F809345038091BB00F0E01C
:10179000EC5DFC4F80839091450380914403981742
:1017A000C8F285E8D8CFE091450381E08E0F8093A1
:1017B00045038091BB00F0E0EC5DFC4F808380919D
:1017C000470381115CCF81E08093220384EA8093F8
:1017D000BC001092480326CF85EC8093BC00109289
:1017E000480380919002803230F4E0919002F0E062
:1017F000E059FD4F10826091900270E0E091DE02AE
:10180000F091DF0280E792E00995109290020ACFF2
:101810001092460334CFCF92DF92EF92FF92109254
:1018200075031092740398EEC92E93E0D92EE12C23
:10183000F12CC0927603D0927703E0927803F09275
:1018400079038AE091E0909373038093720385ECAF
:1018500090E090937F0380937E0384EC90E09093DC
:1018600081038093800380EC90E0909383038093C6
:10187000820381EC90E0909385038093840382EC53
:1018800090E0909387038093860386EC90E090939A
:1018900089038093880310928B0310928C0310921B
:1018A0008D0310928E031092120410921104C092B4
:1018B0001304D0921404E0921504F09216048CE103
:1018C00091E09093100480930F0410923D041092C5
:1018D0003C0480E491E090933B0480933A048DE0D3
:1018E00080933E048FEF80933F048CE0809340040C
:1018F0008BE0809341048AE08093420489E08093E6
:10190000430488E0809344041092450410924604F6
:1019100010924704109248041092490481E00E94FA
:10192000830610921E0410921D04C0921F04D092D0
:101930002004E0922104F09222048EE291E0909340
:101940001C0480931B0410923204109231041092F4
:10195000340410923304109236041092350410921D
:10196000380410923704609139046E7F6D7F609364
:1019700039046695617081E0682781E10E94680200
:1019800061E081E10E949602EBEFF0E0E491E093E8
:101990002B04E7EEF0E0E491F0E0EE0FFF1FE453DC
:1019A000FF4F8591949190932D0480932C0460E0D7
:1019B00080E10E9496028091390481FD04C061E0BB
:1019C00080E10E94680280E180932704EAEFF0E062
:1019D000E491E0932804E6EEF0E0E491F0E0EE0F0D
:1019E000FF1FEE53FF4F8591949190932A048093AB
:1019F0002904FF90EF90DF90CF900895CF93DF936D
:101A0000CDB7DEB766970FB6F894DEBF0FBECDBF79
:101A1000789484B5826084BD84B5816084BD85B5C9
:101A2000826085BD85B5816085BD80916E008160D5
:101A300080936E001092810080918100826080937B
:101A4000810080918100816080938100809180007D
:101A50008160809380008091B10084608093B100A8
:101A60008091B00081608093B00080917A008460A2
:101A700080937A0080917A00826080937A008091CE
:101A80007A00816080937A0080917A0080688093E8
:101A90007A001092C100E0918203F091830382E00A
:101AA0008083E0917E03F0917F031082E0918003B8
:101AB000F09181038FEC808310928A03E09186037A
:101AC000F091870386E08083E0918403F0918503A1
:101AD000808180618083E0918403F091850380811F
:101AE00088608083E0918403F09185038081806821
:101AF0008083E0918403F091850380818F7D8083D2
:101B000082E00E94830662E085E00E94960261E026
:101B100083E00E94960260E083E00E9468020E94D7
:101B20007B0660E083E00E94240768E671E08AE3B8
:101B300094E00E94120861E080E00E94240760E7C0
:101B400071E08AE394E00E9412080E947B061092E2
:101B5000E3021092E20210924F03109271030E946E
:101B6000FC038BEA90E09093E1028093E0028CEA20
:101B700090E09093DF028093DE0281E080934E0339
:101B800088E6809370036BE68FE094E00E94810505
:101B900060E08FE094E00E94810581E00E943B04B8
:101BA00089E8882E912CA12CB12C2EE030E03093C6
:101BB0001B0320931A0380911A0390911B0361E089
:101BC0000E94960280911A0390911B0360E00E948C
:101BD000680262E170E080E090E00E94F70280918C
:101BE0001A0390911B0361E00E9468028BE490E06D
:101BF0000197F1F780911A0390911B0362E00E9414
:101C0000960210921C038BE990E00197F1F7809106
:101C10001A0390911B030E94FE01892B99F48BE318
:101C200091E00197F1F780911A0390911B030E94B4
:101C3000FE01019719F481E080931C0383EC90E08E
:101C40000197F1F780911C03813069F50E9427020A
:101C500080931F030E942702809320030E94270283
:101C600080931D030E94270280931E030E94270277
:101C70008093210390911F0360911D032091200305
:101C8000290F3327331FA901460F511D20911E0331
:101C9000240F352F311D33278217130621F460934B
:101CA0001803909319036091180370E090E080E0AE
:101CB0000E94891226E636E646EE5FE30E94E812AD
:101CC00020E030E040E052E40E9439140E94851583
:101CD0006B017093170360931603643671050CF063
:101CE00044C18CEB90E00E949A01C6010E94F40767
:101CF0008FE791E00E94E10760E080E00E94240706
:101D00006FE871E08AE394E00E9412086091160384
:101D1000709117038AE394E00E94D70760E083E0A4
:101D20000E9468026091160370911703CE01079616
:101D30000E94C40864E971E0CE010D960E94160964
:101D4000BE01695F7F4FCE010D960E94900866E943
:101D500071E00E947A08BC01CE0101960E94FC0845
:101D6000CE0101960E94B405CE0101960E9427097A
:101D7000CE010D960E942709CE0107960E942709E1
:101D80008091140390911503873C91050CF015C1C7
:101D900008E710E0F12CE12C85E00E94FE01892B80
:101DA00019F48FEFE81AF80A6EE070E080E090E036
:101DB0000E94F7020150110979F7F0921503E092A1
:101DC000140369EB71E082E793E00E9412088091AE
:101DD0001403909115030E94F40785EC91E00E9492
:101DE000E10760E086E00E94240767ED71E08AE386
:101DF00094E00E94120860911403709115038AE325
:101E000094E00E94D70760E083E00E94680260913E
:101E1000140370911503CE0107960E94C4086BED60
:101E200071E0CE010D960E941609BE01695F7F4FD9
:101E3000CE010D960E94900866E971E00E947A0832
:101E4000BC01CE0101960E94FC08CE0101960E94C1
:101E5000B405CE0101960E942709CE010D960E947D
:101E60002709CE0107960E94270981E080934E033F
:101E700098E69093700310924F03109271036BE3F6
:101E80008FE094E00E94810580E00E943B040E9464
:101E9000D2026B017C01809148038111B0C081E0C6
:101EA00080934803809347032FEF209346031092BB
:101EB00045033BE030934403809323038091230345
:101EC000806D8093230380912203813009F0F7C154
:101ED000109222030E94D2026B017C0180912303A5
:101EE0008093BB0080914A0390914B03A0914C03D7
:101EF000B0914D03892B8A2B8B2BA1F00E94D2022B
:101F000000914A0310914B0320914C0330914D03F3
:101F10006C197D098E099F090617170728073907CD
:101F200008F48EC08091BC0083FDD8CF85EC8093EF
:101F3000BC000E94D2026B017C0180914803813079
:101F400009F4BFC1809145038C3008F0DCC1809159
:101F50004503A4E2B3E0E4EEF2E090E0981709F460
:101F600074C02D9121939F5FF9CF84EB90E00E9484
:101F70009A0168E471E082E793E00E943C0761E027
:101F800083E00E94680268E971E0CE0101960E9438
:101F900016096EEA71E0CE0107960E941609BE018D
:101FA0006F5F7F4FCE0107960E942F09CE010796E3
:101FB0000E942709CE010196E1CE8DED91E00E94AD
:101FC000E10761E083E00E94680261EF71E0CE0109
:101FD00001960E9416096EEA71E0CE0107960E94F2
:101FE0001609BE016F5F7F4FCE0107960E942F0931
:101FF000CE0107960E942709CE01019634CF809129
:102000004A0390914B03A0914C03B0914D03892B4F
:102010008A2B8B2B09F43FCF0E94D20200914A03F6
:1020200010914B0320914C0330914D036C197D09A5
:102030008E099F09061717072807390708F02BCFC5
:10204000809149030E941A0480E01092E302809379
:10205000E2028FE094E00E943A05182F8FE094E0AE
:102060000E943A051C8B1B8A2B893C89822B932B5F
:10207000BC01990F880B990B0E94891260930C0385
:1020800070930D0380930E0390930F038FE094E001
:102090000E943A05182F8FE094E00E943A051E8BAB
:1020A0001D8A2D893E89822B932B6C01990FEE0896
:1020B000FF08C701B6010E9489126093080370935C
:1020C000090380930A0390930B038FE094E00E942E
:1020D0003A05182F8FE094E00E943A05212C8229BE
:1020E000912B2C01990F66087708C301B2010E9459
:1020F0008912609304037093050380930603909301
:102100000703A30192012950314041095109A4EB71
:10211000B0E00E94C513A50194010E94A6132A55A0
:1021200031094109510966277727621B730B072E76
:10213000000C880B990B0E9489122B013C01A7010E
:1021400096012950314041095109A4EBB0E00E94A9
:10215000C513A50194010E94A6132A55310941090E
:10216000510966277727621B730B072E000C880B1B
:10217000990B0E948912A30192010E94B8142BEDC1
:102180003FE049E450E40E94391421EE3EE245E686
:1021900052E40E94E812609310037093110380933D
:1021A00012039093130361E072E082E793E00E94D0
:1021B0001208C0901003D0901103E0901203F09029
:1021C0001303A7019601C701B6010E94F3156BE046
:1021D00072E081111BC026013701E89477F82FEFD8
:1021E0003FEF4FE75FE7C301B2010E94F315811192
:1021F0008CC02FEF3FEF4FE75FE7C301B2010E94B2
:10220000821218160CF081C06FE072E082E793E052
:102210000E943C0768E471E082E793E00E943C077B
:10222000C0901003D0901103E0901203F0901303BC
:1022300020E030E040E252E4C701B6010E94E2151E
:1022400018160CF0E0C087E192E00E94E1076BE015
:1022500080E00E9424076CE172E08AE394E00E942F
:102260001208C0901003D0901103E0901203F09078
:10227000130320E030E044EB52E4C701B6010E94B2
:10228000E21518160CF0D6C083E392E00E94E10735
:1022900061E085E00E94240768E372E08AE394E04D
:1022A0000E94120880E090E0892B09F47ECC0E9405
:1022B0001701882309F479CC0E94000076CC85EEC2
:1022C00036CE80914A0390914B03A0914C03B0917C
:1022D0004D03892B8A2B8B2B09F42FCE0E94D2021F
:1022E00000914A0310914B0320914C0330914D0310
:1022F0006C197D098E099F090617170728073907EA
:1023000008F01BCE9DCE8CE024CE2FEF3FEF4FE7A1
:102310005FE4C701B6010E94E21518161CF463E1E0
:1023200072E074CF2FEF3FEF4FE75FECC701B601CC
:102330000E94821287FDF3CF20E030E0A901C7019F
:10234000B6010E94821287FF09C06DE282E793E026
:102350000E944D01F7FAF094F7F8F0942AE037ED77
:1023600043EA5BE3C701B6010E9439142B013C012B
:102370000E948C156B017C010E9487129B01AC01AD
:10238000C301B2010E9438142B013C012AE0B701BD
:10239000A60182E793E00E9462076EE282E793E083
:1023A0000E944D0120E030E040E251E4C301B2015F
:1023B0000E94E8122B013C010E948C156B01F12C4C
:1023C000E12C2AE0B701A60182E793E00E946207B0
:1023D000C701B6010E9487129B01AC01C301B20183
:1023E0000E94381420E030E040E251E40E94E812FC
:1023F0000E948C15AB0170E060E02AE082E793E078
:102400000E94620707CF20E030E040E252E4C701BB
:10241000B6010E94821287FF24CF81E292E00E94DF
:10242000E1070E947B0661E080E00E9424076DE2E4
:1024300072E013CF20E030E044EB52E4C701B60174
:102440000E94821287FF2ECF81E492E00E94E10772
:102450000E947B0660E08DE00E94240761E472E048
:102460001DCF8EE291E090931C0480931B04809119
:10247000D3029091D4028B51944071F4E0912E04D8
:10248000F0912F049081809130048095892380837E
:102490001092D4021092D3020895BB274A3031F42F
:1024A000992322F4BDE2909581959F4F0C94591287
:1024B000BB27FB015527AA27880F991FAA1FA4171E
:1024C00010F0A41B83955051B9F7A05DAA3308F012
:1024D000A95DA193009779F7B111B1931192CB0146
:1024E0000C947212DC01FC01672F71917723E1F7E4
:1024F000329704C07C916D9370836291AE17BF07D1
:10250000C8F308950E94C41208F481E00895E89485
:1025100009C097FB3EF490958095709561957F4F2B
:102520008F4F9F4F9923A9F0F92F96E9BB279395D9
:10253000F695879577956795B795F111F8CFFAF4E9
:10254000BB0F11F460FF1BC06F5F7F4F8F4F9F4F1A
:1025500016C0882311F096E911C0772321F09EE878
:10256000872F762F05C0662371F096E8862F70E0DE
:1025700060E02AF09A95660F771F881FDAF7880FB8
:102580009695879597F90895990F0008550FAA0B0E
:10259000E0E8FEEF16161706E807F907C0F0121676
:1025A0001306E407F50798F0621B730B840B950B79
:1025B00039F40A2661F0232B242B252B21F40895CE
:1025C0000A2609F4A140A6958FEF811D811D08956B
:1025D0000E94FB120C946C130E945E1338F00E9450
:1025E000651320F0952311F00C9455130C945B1394
:1025F00011240C94A0130E947D1370F3959FC1F3D6
:10260000950F50E0551F629FF001729FBB27F00DA0
:10261000B11D639FAA27F00DB11DAA1F649F6627F5
:10262000B00DA11D661F829F2227B00DA11D621F44
:10263000739FB00DA11D621F839FA00D611D221FFE
:10264000749F3327A00D611D231F849F600D211DE2
:10265000822F762F6A2F11249F5750409AF0F1F065
:1026600088234AF0EE0FFF1FBB1F661F771F881FCE
:1026700091505040A9F79E3F510580F00C9455139E
:102680000C94A0135F3FE4F3983ED4F386957795BE
:102690006795B795F795E7959F5FC1F7FE2B880F74
:1026A000911D9695879597F9089597F99F6780E80A
:1026B00070E060E008959FEF80EC089500240A9494
:1026C0001616170618060906089500240A9412160D
:1026D0001306140605060895092E0394000C11F440
:1026E000882352F0BB0F40F4BF2B11F460FF04C0ED
:1026F0006F5F7F4F8F4F9F4F089557FD9058440F46
:10270000551F59F05F3F71F04795880F97FB991F50
:1027100061F09F3F79F0879508951216130614060D
:10272000551FF2CF4695F1DF08C01616170618069A
:10273000991FF1CF86957105610508940895E89475
:10274000BB2766277727CB0197F90895052E97FBBE
:102750001EF400940E94BD1357FD07D00E94071479
:1027600007FC03D04EF40C94BD1350954095309562
:1027700021953F4F4F4F5F4F0895909580957095ED
:1027800061957F4F8F4F9F4F08950E942914A59FF9
:10279000900DB49F900DA49F800D911D112408955C
:1027A0002F923F924F925F926F927F928F929F9261
:1027B000AF92BF92CF92DF92EF92FF920F931F934F
:1027C000CF93DF93CDB7DEB7CA1BDB0B0FB6F89400
:1027D000DEBF0FBECDBF09942A88398848885F8440
:1027E0006E847D848C849B84AA84B984C884DF80B1
:1027F000EE80FD800C811B81AA81B981CE0FD11D95
:102800000FB6F894DEBF0FBECDBFED010895A1E273
:102810001A2EAA1BBB1BFD010DC0AA1FBB1FEE1F5A
:10282000FF1FA217B307E407F50720F0A21BB30BA5
:10283000E40BF50B661F771F881F991F1A9469F721
:1028400060957095809590959B01AC01BD01CF017D
:102850000895A29FB001B39FC001A39F700D811D79
:102860001124911DB29F700D811D1124911D089599
:102870005058BB27AA270E9450140C946C130E9436
:102880005E1338F00E94651320F039F49F3F19F46D
:1028900026F40C945B130EF4E095E7FB0C945513AF
:1028A000E92F0E947D1358F3BA1762077307840754
:1028B000950720F079F4A6F50C949F130EF4E0959B
:1028C0000B2EBA2FA02D0B01B90190010C01CA01EA
:1028D000A0011124FF27591B99F0593F50F4503E95
:1028E00068F11A16F040A22F232F342F4427585F87
:1028F000F3CF469537952795A795F0405395C9F79F
:102900007EF41F16BA0B620B730B840BBAF0915056
:10291000A1F0FF0FBB1F661F771F881FC2F70EC0F5
:10292000BA0F621F731F841F48F4879577956795C8
:10293000B795F7959E3F08F0B0CF9395880F08F0B4
:102940009927EE0F9795879508950E945E1360F082
:1029500080E891E009F49EEF0E94651328F040E8BA
:1029600051E071F45EEF0CC00C945B130C949F1358
:10297000E92FE0780E947D1340F3092E052AB1F378
:10298000261737074807590738F00E2E07F8E025B5
:1029900069F0E025E0640AC0EF6307F8009407FAE5
:1029A000DB01B9019D01DC01CA01AD01EF930E9479
:1029B0002A150E946C130E94E8145F91552339F088
:1029C0002BED3FE049E450FD49EC0C943914089597
:1029D000DF93DD27B92FBF7740E85FE316161706B0
:1029E00048075B0718F4D92F0E94E7159F938F9330
:1029F0007F936F930E94EF15E8E6F0E00E94BB150D
:102A00000E946C132F913F914F915F910E94FB1296
:102A1000DD2351F09058A2EA2AED3FE049EC5FE354
:102A2000D0785D270E945014DF910C946C130E94A3
:102A3000651358F00E945E1340F029F45F3F29F0BF
:102A40000C94551351110C94A0130C945B130E9419
:102A50007D1368F39923B1F3552391F3951B550B1F
:102A6000BB27AA2762177307840738F09F5F5F4F61
:102A7000220F331F441FAA1FA9F335D00E2E3AF0A0
:102A8000E0E832D091505040E695001CCAF72BD0B8
:102A9000FE2F29D0660F771F881FBB1F2617370709
:102AA0004807AB07B0E809F0BB0B802DBF01FF273B
:102AB00093585F4F3AF09E3F510578F00C945513B0
:102AC0000C94A0135F3FE4F3983ED4F3869577957A
:102AD0006795B795F7959F5FC9F7880F911D9695F4
:102AE000879597F90895E1E0660F771F881FBB1F50
:102AF000621773078407BA0720F0621B730B840BFD
:102B0000BA0BEE1F88F7E09508950E948C15689423
:102B1000B1110C94A01308950E94851388F09F575B
:102B200098F0B92F9927B751B0F0E1F0660F771FF1
:102B3000881F991F1AF0BA95C9F714C0B13091F0E7
:102B40000E949F13B1E008950C949F13672F782F74
:102B50008827B85F39F0B93FCCF3869577956795AC
:102B6000B395D9F73EF490958095709561957F4F18
:102B70008F4F9F4F0895DF93CF931F930F93FF9233
:102B8000EF92DF927B018C01689406C0DA2EEF0190
:102B90000E94FB12FE01E894A59125913591459183
:102BA0005591A6F3EF010E945014FE019701A80170
:102BB000DA9469F7DF90EF90FF900F911F91CF911A
:102BC000DF9108950E94C41208F48FEF08959B01CD
:102BD000AC0160E070E080E89FE30C94F8159B0185
:102BE000AC010C94E8120E94C412880B990B089552
:102BF0000E9427150C946C13EE0FFF1F0590F491A3
:102C0000E02D09940F931F93CF93DF9382309105AA
:102C100010F482E090E0E0915404F091550430E02B
:102C200020E0B0E0A0E0309799F42115310509F4D7
:102C30004AC0281B390B24303105D8F58A819B8185
:102C40006115710589F1FB0193838283FE0111C037
:102C5000408151810281138148175907E0F04817DC
:102C6000590799F4109761F012960C9312971396E6
:102C70001C933296CF01DF91CF911F910F91089550
:102C80000093540410935504F4CF2115310551F0ED
:102C90004217530738F0A901DB019A01BD01DF019A
:102CA000F801C1CFEF01F9CF9093550480935404FC
:102CB000CDCFFE01E20FF31F819391932250310992
:102CC00039832883D7CF2091520430915304232B8A
:102CD00041F4209102013091030130935304209379
:102CE000520420910001309101012115310541F478
:102CF0002DB73EB74091040150910501241B350BBF
:102D0000E0915204F0915304E217F307A0F42E1B54
:102D10003F0B2817390778F0AC014E5F5F4F24173F
:102D2000350748F04E0F5F1F5093530440935204F1
:102D3000819391939FCFF0E0E0E09CCFCF93DF931E
:102D40000097E9F0FC01329713821282A09154049B
:102D5000B0915504ED0130E020E01097A1F42081FE
:102D60003181820F931F2091520430915304281710
:102D7000390709F061C0F0935304E0935204DF91E6
:102D8000CF910895EA01CE17DF07E8F54A815B810C
:102D90009E0141155105B1F7E901FB83EA83499191
:102DA0005991C40FD51FEC17FD0761F48081918103
:102DB0000296840F951FE90199838883828193810C
:102DC0009B838A83F0E0E0E012968D919C911397AB
:102DD0000097B9F52D913C911197CD010296820F84
:102DE000931F20915204309153042817390739F664
:102DF000309751F51092550410925404B093530437
:102E0000A0935204BCCFD383C28340815181840FED
:102E1000951FC817D90761F44E5F5F4F888199816C
:102E2000480F591F518340838A819B8193838283FA
:102E30002115310509F0B0CFF0935504E093540407
:102E40009ECFFD01DC01C0CF13821282D7CFB0E04C
:102E5000A0E0EDE2F7E10C94D2138C01009751F45D
:102E6000CB010E9402168C01C801CDB7DEB7E0E1AC
:102E70000C94EE13FC01E60FF71F9C012250310960
:102E8000E217F30708F49DC0D901CD91DC911197A9
:102E9000C617D70798F0C530D10530F3CE01049797
:102EA0008617970708F3C61BD70B2297C193D193B8
:102EB0006D937C93CF010E949E16D6CF5B01AC1A16
:102EC000BD0A4C018C0E9D1EA0915404B091550476
:102ED000512C412CF12CE12C109731F580915204AA
:102EE000909153048815990509F05CC04616570661
:102EF00008F058C08091000190910101009741F4C1
:102F00008DB79EB74091040150910501841B950B2C
:102F1000E817F90708F055C0F0935304E093520402
:102F2000F90171836083A0CF8D919C9111971296C6
:102F30006C90129713967C901397A815B90559F5C4
:102F40006C0142E0C40ED11CCA14DB0420F1AC01B8
:102F50004A195B09DA011296159780F06282738232
:102F600051834083D9016D937C93E114F10471F096
:102F7000D7011396FC93EE93129776CF22968C0F7F
:102F80009D1FF90191838083F301EFCFF0935504E6
:102F9000E093540469CF4816590608F42C017D01CA
:102FA000D3019ACFCB010E9402167C01009749F011
:102FB000AE01B8010E94E417C8010E949E16870165
:102FC00053CF10E000E050CFFB01DC0102C00190C4
:102FD0000D9241505040D8F70895FB01DC0101905B
:102FE0000D920020E1F7089510E0C0E8D0E004C0A1
:102FF000FE010E94FC152196C138D107C9F7F8944B
:10300000FFCF000056048000000000004D01AD001D
:10301000DA00B5010B01E900FD00000000008105A8
:103020005405B10541034D053A052B05000000008C
:103030004203AD00B10541039E03B4032903000020
:1030400000003607AD00B105B0050D0A004154007F
:1030500041542B434D47463D310041542B434D478E
:10306000533D222B393100220D0050415449454E29
:103070005400535550504F52542053595354454DBA
:1030800000426F64792054656D204E6F726D616CE3
:103090000054454D3A002A002300424F4459205421
:1030A000454D5045524154555245204849474800E6
:1030B000383138393938383334370048454152547B
:1030C00020524154453A006865617274206265611E
:1030D00074206E6F726D616C0048523A0040004877
:1030E0006561727420626561742061626E6F726DD9
:1030F000616C0048454152542042454154204849A2
:103100004748004759524F2058203D20006E616EBD
:1031100000696E66006F7666004E45454420464F56
:103120004F44004E454544205741544552350057C1
:1031300041544552004E454544204D414449434980
:0E3140004E450054414B45204241544800008A
:107E0000112484B714BE81FFF0D085E080938100F7
:107E100082E08093C00088E18093C10086E0809377
:107E2000C20080E18093C4008EE0C9D0259A86E02C
:107E300020E33CEF91E0309385002093840096BBD3
:107E4000B09BFECF1D9AA8958150A9F7CC24DD24C4
:107E500088248394B5E0AB2EA1E19A2EF3E0BF2EE7
:107E6000A2D0813461F49FD0082FAFD0023811F036
:107E7000013811F484E001C083E08DD089C08234E0
:107E800011F484E103C0853419F485E0A6D080C0E4
:107E9000853579F488D0E82EFF2485D0082F10E0AE
:107EA000102F00270E291F29000F111F8ED06801E7
:107EB0006FC0863521F484E090D080E0DECF843638
:107EC00009F040C070D06FD0082F6DD080E0C81688
:107ED00080E7D80618F4F601B7BEE895C0E0D1E017
:107EE00062D089930C17E1F7F0E0CF16F0E7DF06D8
:107EF00018F0F601B7BEE89568D007B600FCFDCFD4
:107F0000A601A0E0B1E02C9130E011968C91119780
:107F100090E0982F8827822B932B1296FA010C0160
:107F200087BEE89511244E5F5F4FF1E0A038BF0790
:107F300051F7F601A7BEE89507B600FCFDCF97BE46
:107F4000E89526C08437B1F42ED02DD0F82E2BD052
:107F50003CD0F601EF2C8F010F5F1F4F84911BD097
:107F6000EA94F801C1F70894C11CD11CFA94CF0C13
:107F7000D11C0EC0853739F428D08EE10CD085E9AC
:107F80000AD08FE07ACF813511F488E018D01DD067
:107F900080E101D065CF982F8091C00085FFFCCF94
:107FA0009093C60008958091C00087FFFCCF809118
:107FB000C00084FD01C0A8958091C6000895E0E648
:107FC000F0E098E1908380830895EDDF803219F02E
:107FD00088E0F5DFFFCF84E1DECF1F93182FE3DFCA
:107FE0001150E9F7F2DF1F91089580E0E8DFEE27F6
:047FF000FF270994CA
:027FFE00040479
:00000001FF
