:020000040000FA
:100000000C9462000C948A000C948A000C948A0070
:100010000C948A000C948A000C948A000C948A0038
:100020000C948A000C948A000C948A000C948A0028
:100030000C948A000C948A000C948A000C948A0018
:100040000C9476070C948A000C9444070C941E07B9
:100050000C948A000C948A000C948A000C948A00F8
:100060000C94C0070C948A000000000024002700B4
:100070002A0000000000250028002B0000000000DE
:1000800023002600290004040404040404040202DA
:100090000202020203030303030301020408102007
:1000A0004080010204081020010204081020000012
:1000B0000008000201000003040700000000000027
:1000C0000000240911241FBECFEFD8E0DEBFCDBF52
:1000D00023E0A2E0B2E001C01D92AE3AB207E1F720
:1000E00012E0A0E0B1E0ECE4F4E202C005900D9271
:1000F000A230B107D9F710E0C2E6D0E004C02197E2
:10010000FE010E942C10C136D107C9F70E946C096C
:100110000C9424120C94000008950895AF92BF929D
:10012000CF92DF92EF92FF920F931F93CF93DF93C3
:100130006C017B018B01040F151FEB015E01AE18F2
:10014000BF08C017D10759F06991D601ED91FC9114
:100150000190F081E02DC6010995892B79F7C50141
:10016000DF91CF911F910F91FF90EF90DF90CF9093
:10017000BF90AF900895FC01538D448D252F30E042
:10018000842F90E0821B930B541710F0CF960895A4
:1001900001970895FC01918D828D981761F0A28DD1
:1001A000AE0FBF2FB11D5D968C91928D9F5F9F7397
:1001B000928F90E008958FEF9FEF0895FC01918D4D
:1001C000828D981731F0828DE80FF11D858D90E0BA
:1001D00008958FEF9FEF0895FC01918D228D892F57
:1001E00090E0805C9F4F821B91098F73992708953F
:1001F00085EF92E00E94EC0021E0892B09F420E0D9
:10020000822F089580E090E0892B29F00E94F80069
:1002100081110C9400000895FC01A48DA80FB92F42
:10022000B11DA35ABF4F2C91848D90E001968F731E
:100230009927848FA689B7892C93A089B1898C913D
:10024000837080648C93938D848D981306C002888C
:10025000F389E02D80818F7D80830895EF92FF9256
:100260000F931F93CF93DF93EC0181E0888F9B8DD9
:100270008C8D98131AC0E889F989808185FF15C093
:100280009FB7F894EE89FF896083E889F9898081B6
:100290008370806480839FBF81E090E0DF91CF9185
:1002A0001F910F91FF90EF900895F62E0B8D10E0A7
:1002B0000F5F1F4F0F731127E02E8C8D8E110CC016
:1002C0000FB607FCFACFE889F989808185FFF5CF61
:1002D000CE010E940C01F1CFEB8DEC0FFD2FF11D33
:1002E000E35AFF4FF0829FB7F8940B8FEA89FB899E
:1002F00080818062CFCFCF93DF93EC01888D8823FC
:10030000B9F0AA89BB89E889F9898C9185FD03C078
:10031000808186FD0DC00FB607FCF7CF8C9185FF5D
:10032000F2CF808185FFEDCFCE010E940C01E9CF95
:10033000DF91CF910895833081F028F4813099F0D6
:100340008230A9F008958730A9F08830C9F0843050
:10035000B1F4809180008F7D03C0809180008F7701
:1003600080938000089584B58F7784BD089584B507
:100370008F7DFBCF8091B0008F778093B000089580
:100380008091B0008F7DF9CFCF93DF93282F30E09D
:10039000F901E255FF4F8491F901E656FF4FD491E0
:1003A000F901EA57FF4FC491CC23A1F081110E94BB
:1003B0009B01EC2FF0E0EE0FFF1FE458FF4FA591DB
:1003C000B491EC91ED2381E090E009F480E0DF91BD
:1003D000CF91089580E090E0FACF1F93CF93DF9301
:1003E000282F30E0F901E255FF4F8491F901E656DC
:1003F000FF4FD491F901EA57FF4FC491CC23A9F0E4
:10040000162F81110E949B01EC2FF0E0EE0FFF1FD1
:10041000EE58FF4FA591B4918FB7F894EC9111115C
:1004200008C0D095DE23DC938FBFDF91CF911F9161
:100430000895DE2BF8CFCF93DF9390E0FC01E656D2
:10044000FF4F24918A579F4FFC0184918823C9F064
:1004500090E0880F991FFC01E859FF4FA591B491D6
:10046000FC01EE58FF4FC591D49161110DC09FB7AB
:10047000F8948C91209582238C938881282328835B
:100480009FBFDF91CF910895623051F49FB7F894E8
:100490003C91822F809583238C93E8812E2BEFCF84
:1004A0008FB7F894EC912E2B2C938FBFEACF3FB7E8
:1004B000F8948091B9029091BA02A091BB02B091D8
:1004C000BC0226B5A89B05C02F3F19F00196A11DBF
:1004D000B11D3FBFBA2FA92F982F8827BC01CD018E
:1004E000620F711D811D911D42E0660F771F881FED
:1004F000991F4A95D1F708958F929F92AF92BF921C
:10050000CF92DF92EF92FF924B015C010E94570263
:100510006B017C010E9457026C197D098E099F09AD
:10052000683E734081059105A8F321E0821A910885
:10053000A108B10888EEC80E83E0D81EE11CF11CAA
:1005400081149104A104B10429F7FF90EF90DF908A
:10055000CF90BF90AF909F908F9008950895209175
:100560004302260F3327331F21323105ECF420914B
:100570008C02FC0190E080E0243069F082E0089574
:10058000A09143022191AC014D5D5D4FA40FB52FA9
:10059000B11D2C930196861798F380914302680F42
:1005A0006093430280E0089581E0089510928C02E8
:1005B00081E080938B021092660261E082E10E94EA
:1005C000ED0161E083E10E94ED01E9EBF0E0808163
:1005D0008E7F808380818D7F808388E48093B800C4
:1005E00085E48093BC000895CF93DF9391E09093CE
:1005F00022028823B9F0C091B800D091BA0080914E
:10060000BC008A7B8093BC0060E082E10E94ED0127
:1006100060E083E10E94ED010E94D602D093BA000F
:10062000C093B800DF91CF9108950895E091C4027E
:100630008091C302E81730F4F0E0EE5FFD4F808157
:1006400090E008958FEF9FEF08959091C4028091FC
:10065000C3022FEF3FEF981748F4E92FF0E0EE5F69
:10066000FD4F208130E09F5F9093C402C90108953F
:100670008091C3029091C402891B990B0895CF9277
:10068000DF92EF92FF920F931F93CF93DF937C0142
:10069000CB018A0120919202222389F0EB016B01A8
:1006A000C40ED51ECC15DD0569F06991D701ED9119
:1006B000FC910190F081E02DC7010995F3CF642FE3
:1006C0000E94AF02C801DF91CF911F910F91FF905F
:1006D000EF90DF90CF900895CF93DF931F92CDB727
:1006E000DEB76983209192022223F9F02091C102A2
:1006F000203258F021E030E0FC013383228390E087
:1007000080E00F90DF91CF9108958091C202E82F91
:10071000F0E0ED56FD4F998190838F5F8093C20288
:100720008093C10281E090E0ECCF61E0CE010196C0
:100730000E94AF02F7CFCF92DF92EF92FF920F931A
:100740001F93CF93DF93FC01C48121E02093920299
:10075000C093B3021092C2021092C1028385682B2B
:1007600082E993E00E946C03D091C102D13208F07B
:1007700092C00E9457026B017C0180918C02811112
:1007800065C082E080938C0281E080938B028FEFC2
:1007900080938A0210928902D0938802A3E9B2E082
:1007A000E8E6F2E080E0D81385C0109267028091FD
:1007B0006702CC0FC82BC09367028091660281301C
:1007C00009F07CC0109266020E9457026B017C0106
:1007D000809167028093BB0080918E0290918F027E
:1007E000A0919002B0919102892B8A2B8B2B99F0CA
:1007F0000E94570200918E0210918F022091900268
:10080000309191026C197D098E099F09061717070F
:1008100028073907E0F18091BC0083FDD9CF85EC32
:100820008093BC000E9457026B017C0180918C0276
:10083000823009F445C080918A028F3F61F1809136
:100840008A02803241F180918A0225C080918E0215
:1008500090918F02A0919002B0919102892B8A2BE6
:100860008B2B09F48ACF0E94570200918E021091BF
:100870008F0220919002309191026C197D098E09AE
:100880009F09061717072807390708F076CF8091C8
:100890008D020E94F4021092C2021092C1021092C4
:1008A0009202DF91CF911F910F91FF90EF90DF9017
:1008B000CF9008959D9191938F5F75CF85EEB0CFC6
:1008C00080918E0290918F02A0919002B09191023E
:1008D000892B8A2B8B2B09F4A9CF0E9457020091F8
:1008E0008E0210918F0220919002309191026C192A
:1008F0007D098E099F09061717072807390708F091
:1009000095CFC5CF90E080E008950F931F93CF93CC
:100910008C01C62F0E949B036C2F6460C8010E944B
:100920009B036C2F6B7FC8010E949B0383EC90E0BC
:100930000197F1F7CF911F910F9108950F931F9396
:10094000CF93DF938C01D62FC42F607F642B0E943E
:10095000850480E1D89FB00111246C2BC801DF9180
:10096000CF911F910F910C948504CF93DF93CDB756
:10097000DEB728970FB6F894DEBF0FBECDBF98E064
:10098000E6E0F1E0DE01119601900D929A95E1F713
:100990009091A603981708F48FEF90E0880F991FA5
:1009A00021E030E02C0F3D1F820F931FFC0160817E
:1009B000606840E08EE993E028960FB6F894DEBFB9
:1009C0000FBECDBFDF91CF910C949E0440E061E05B
:1009D0008EE993E00E949E048BE39FE10197F1F77B
:1009E000089541E00E949E0481E090E00895FB019B
:1009F00001900020E9F73197AF01461B570BDC014E
:100A0000ED91FC910280F381E02D09948F929F92E9
:100A1000AF92BF920F931F93CF93DF93CDB7DEB703
:100A2000A1970FB6F894DEBF0FBECDBF19A242301A
:100A300008F44AE08E010F5D1F4F842E912CB12CDB
:100A4000A12CA50194010E940A10E62FB901CA0148
:100A5000EA3004F5E05DD801EE938D01232B242BC1
:100A6000252B79F790E080E0109729F0BD0185EF04
:100A700092E00E94F704A1960FB6F894DEBF0FBE75
:100A8000CDBFDF91CF911F910F91BF90AF909F90FD
:100A90008F900895E95CDFCFCF92DF92EF92FF92C3
:100AA000CF93DF936C01990FEE08FF08F7FE21C08A
:100AB0006DE285EF92E00E942E01EC016627772718
:100AC000CB016C197D098E099F094AE00E94060539
:100AD000C80FD91F6EE371E085EF92E00E94F70422
:100AE0008C0F9D1FDF91CF91FF90EF90DF90CF9003
:100AF00008954AE0C701B6010E940605EC01EACF5D
:100B0000CF93DF93BC0185EF92E00E94F704EC01E4
:100B10006EE371E085EF92E00E94F7048C0F9D1F59
:100B2000DF91CF910895CF93DF93FC0144815581EC
:100B30006081718185EF92E00E948E00EC016EE38E
:100B400071E085EF92E00E94F7048C0F9D1FDF910A
:100B5000CF9108950C94F704FC0180819181009756
:100B600011F00C94CE1008950F931F93CF93DF9341
:100B7000EC0188819981009759F02A813B812617E1
:100B8000370730F081E0DF91CF911F910F910895E9
:100B90008B016F5F7F4F0E945711009759F0998327
:100BA00088831B830A832C813D81232B59F7FC0109
:100BB0001082E8CF80E0E7CFEF92FF920F931F9370
:100BC000CF93DF93EC01FB01E080F180E114F104AD
:100BD00011F10481158101151105A9F08C819D8108
:100BE000080F191FB801CE010E94B405882399F09F
:100BF000288139818C819D81B701820F931F0E94CA
:100C00001D121D830C83CE01DF91CF911F910F9197
:100C1000FF90EF90089588819981009711F00E94CC
:100C2000CE10198218821D821C821B821A82EBCF81
:100C3000EF92FF920F931F93CF93DF93EC017B0111
:100C40008A01BA010E94B40528813981811114C03A
:100C50002115310519F0C9010E94CE1019821882A0
:100C60001D821C821B821A82CE01DF91CF911F91BF
:100C70000F91FF90EF9008951D830C83B701C90178
:100C80000E941D12F1CFEF92FF920F931F93CF930B
:100C9000DF93CDB7DEB762970FB6F894DEBF0FBE15
:100CA000CDBF8C01CB01F801118210821382128218
:100CB000158214824AE09E012F5F3F4F7901B901EE
:100CC0000E945B0DF70101900020E9F73197AF0119
:100CD0004E195F09B701C8010E94180662960FB647
:100CE000F894DEBF0FBECDBFDF91CF911F910F9162
:100CF000FF90EF900895FC011182108213821282FE
:100D000015821482FB0101900020E9F73197AF01B1
:100D1000461B570B0C9418060F931F93CF93DF932A
:100D2000EC0160E088810E94ED0183E090E0019792
:100D3000F1F761E088810E94ED0183E290E0019784
:100D4000F1F760E088810E94ED018A819B819927FB
:100D5000FC01E656FF4F6491FC01EA57FF4FE49116
:100D6000F0E0EE0FFF1FE458FF4F8591949100E4EF
:100D700012E42FE030E0462F0E94DF086115710574
:100D80008105910529F06F5F7F4F8F4F9F4F9F70B7
:100D90009B0177FF02C02F5F3F4FB90175956795A3
:100DA000072E000C880B990B0E94970D2DEC3CEC44
:100DB00048EE51E40E94580F0E94CA0F7D836C8355
:100DC000CB01DF91CF911F910F91089585ED809315
:100DD000BC0080918E0290918F02A0919002B09100
:100DE00091020796A11DB11D23E0B695A795979591
:100DF00087952A95D1F72091BC0024FD03C010925D
:100E00008C02089540918E0250918F026091900261
:100E100070919102452B462B472B69F30097A10552
:100E2000B10541F025E32A95F1F700000197A109EA
:100E3000B109E1CF80918D020C94F4021F920F92C0
:100E40000FB60F9211242F933F934F935F936F939D
:100E50007F938F939F93AF93BF93EF93FF9385EF10
:100E600092E00E940C01FF91EF91BF91AF919F9191
:100E70008F917F916F915F914F913F912F910F9043
:100E80000FBE0F901F9018951F920F920FB60F92E2
:100E900011242F938F939F93EF93FF93E09105037A
:100EA000F09106038081E0910B03F0910C0382FD29
:100EB0001BC0908180910E038F5F8F7320910F0371
:100EC000821741F0E0910E03F0E0EB50FD4F958F5B
:100ED00080930E03FF91EF919F918F912F910F902F
:100EE0000FBE0F901F9018958081F4CF1F920F9224
:100EF0000FB60F9211242F933F938F939F93AF932D
:100F0000BF938091B5029091B602A091B702B091C3
:100F1000B8023091B40223E0230F2D3758F5019623
:100F2000A11DB11D2093B4028093B5029093B60227
:100F3000A093B702B093B8028091B9029091BA021F
:100F4000A091BB02B091BC020196A11DB11D80937E
:100F5000B9029093BA02A093BB02B093BC02BF91B6
:100F6000AF919F918F913F912F910F900FBE0F9056
:100F70001F90189526E8230F0296A11DB11DD2CF10
:100F80001F920F920FB60F9211242F933F934F93FE
:100F90005F936F937F938F939F93AF93BF93EF93E1
:100FA000FF938091B900887F803609F44AC0F0F53C
:100FB000883209F4A7C018F5803109F49BC0B8F451
:100FC000882309F4F9C0883009F494C0FF91EF91A7
:100FD000BF91AF919F918F917F916F915F914F9151
:100FE0003F912F910F900FBE0F901F901895883151
:100FF00009F488C0803251F780938A0214C080348B
:1010000009F49DC040F48033B9F38833F9F6809336
:101010008A0285ECB0C0803509F485C0883509F4B2
:1010200096C0883499F60E94E606D0CF883909F434
:101030008CC038F5883729F050F4883611F08037A5
:1010400029F683E080938C021092650257C088389D
:1010500009F47BC0803919F0803809F0B7CF80914E
:101060006502803208F071C0E091650281E08E0F68
:10107000809365028091BB00F0E0EB5BFD4F8083C5
:101080003DC0803B39F0E0F4803A09F479C0883AF9
:1010900009F09CCF84E080938C021092440210925D
:1010A0004302E091BF02F091C00209958091430292
:1010B00081110FC081E0809343021092230209C086
:1010C000803C09F4A6CF883C09F4A3CF883B09F003
:1010D0007DCFE091440281E08E0F80934402F0E0E6
:1010E000ED5DFD4F80818093BB0090914402809123
:1010F000430229C0809167028093BB0085EC8093F6
:10110000BC0064CF9091890280918802981758F5AD
:10111000E091890281E08E0F80938902F0E0E85926
:10112000FD4F8081E9CFE091890281E08E0F8093AD
:1011300089028091BB00F0E0E859FD4F80839091D7
:101140008902809188029817C8F285E8D8CFE0918B
:10115000890281E08E0F809389028091BB00F0E0CC
:10116000E859FD4F808380918B0281115CCF81E033
:101170008093660284EA8093BC0010928C0226CF92
:1011800085EC8093BC0010928C02809165028032C5
:1011900030F4E0916502F0E0EB5BFD4F108260916E
:1011A000650270E0E091BD02F091BE0285E492E03C
:1011B0000995109265020ACF10928A0234CFCF921D
:1011C000DF92EF92FF920F931F93E82FF92F05C044
:1011D000015011092109310961F190819623941779
:1011E000B9F305C0015011092109310911F19081AC
:1011F00096239413F7CFC12CD12CE12CF12C0AC0EB
:101200008FEFC81AD80AE80AF80A0C151D052E0532
:101210003F0579F080818623841791F36C2D7D2D15
:101220008E2D9F2D1F910F91FF90EF90DF90CF900B
:10123000089560E070E080E090E01F910F91FF90D2
:10124000EF90DF90CF900895E5EFF2E013821282E5
:1012500088EE93E0A0E0B0E084839583A683B78313
:1012600022E131E03183208325EC30E0358724878B
:1012700024EC30E03787268720EC30E0318B208B60
:1012800021EC30E0338B228B22EC30E0358B248B49
:1012900026EC30E0378B268B118E128E138E148E37
:1012A000E2E9F3E01382128284839583A683B783F5
:1012B00084E291E091838083EEE9F3E0138212826D
:1012C00086E391E09183808380E2848380E181875B
:1012D00082E0828713860895CF93DF93CDB7DEB780
:1012E0002C970FB6F894DEBF0FBECDBF789484B5AF
:1012F000826084BD84B5816084BD85B5826085BD12
:1013000085B5816085BD80916E00816080936E009F
:101310001092810080918100826080938100809191
:101320008100816080938100809180008160809342
:1013300080008091B10084608093B1008091B00002
:1013400081608093B00080917A00846080937A00FD
:1013500080917A00826080937A0080917A00816027
:1013600080937A0080917A00806880937A0010924E
:10137000C100E0910503F091060382E08083E091D3
:101380000103F09102031082E0910303F091040342
:101390008FEC808310920D03E0910903F0910A0312
:1013A00086E08083E0910703F091080380818061EB
:1013B0008083E0910703F091080380818860808337
:1013C000E0910703F0910803808180688083E091B9
:1013D0000703F091080380818F7D808361E471E0D1
:1013E00085EF92E00E94AA051092C4021092C302F7
:1013F0001092C2021092C1020E94D6028CE890E0C4
:101400009093C0028093BF028DE890E09093BE025B
:101410008093BD021092A3038091A803823018F03C
:1014200098E09093A3038093A60362E370E080E0CA
:1014300090E00E947C026091A9038EE993E00E94F3
:101440009B0368EE73E080E090E00E947C0260E322
:101450008EE993E00E9485040BE416E4C80101972D
:10146000F1F760E38EE993E00E948504C8010197DB
:10147000F1F760E38EE993E00E94850483E592E052
:101480000197F1F760E28EE993E00E948504609194
:10149000A303606240E08EE993E00E949E0484E032
:1014A0008093A40340E06CE08EE993E00E949E04E8
:1014B0000E94E60482E08093A50340E066E08EE9A6
:1014C00093E00E949E0440E062E08EE993E00E9477
:1014D0009E048BE39FE10197F1F788E08093A903D5
:1014E00060E08EE993E00E949B030E94E60480E0A6
:1014F0000E94B50461E471E08EE993E00E94AA05C0
:1015000060E082E00E941B0260E083E00E941B0218
:1015100061E085E00E941B0261E086E00E941B0200
:1015200061E087E00E941B0261E088E00E941B02EC
:1015300062E08FE00E941B0261E084E00E941B02D7
:1015400060E085E00E94ED0160E086E00E94ED0130
:1015500060E087E00E94ED0160E088E00E94ED011C
:1015600060E084E00E94ED0180E190E09093DE0273
:101570008093DD0281E190E09093E0028093DF02AE
:1015800061E080E10E941B0260E08091DF020E9426
:101590001B0289E090E09093E4028093E3028AE0EA
:1015A00090E09093E6028093E50261E089E00E947A
:1015B0001B0260E08091E5020E941B028BE090E03C
:1015C0009093EA028093E9028CE090E09093EC0221
:1015D0008093EB0261E08BE00E941B0260E080914F
:1015E000EB020E941B0299ED292E92E0392E00E0B9
:1015F00010E08DE491E00E94800589ECE82E82E005
:10160000F82E80E480937C0080917A00806480933F
:101610007A0080917A0086FDFCCF909178008091CD
:101620007900892798278927F701819391937F0172
:101630006AE070E080E090E00E947C02FDEDEF1631
:10164000F2E0FF06F1F6E9ECF2E0DF018081918142
:1016500012962D913C9113972817390734F4318352
:10166000208313969C938E93129712968BED92E0A3
:101670008A179B0759F7329682E0EB3DF80729F766
:10168000EDECF2E060E070E0CB01C190D1900D2C68
:10169000000CEE08FF086C0D7D1D8E1D9F1D2E1683
:1016A0003F0699F76093C5027093C6028093C70204
:1016B0009093C8020E94950D20E030E040EA50E48B
:1016C0000E94F60D20E030E040E85AE30E94F60D5B
:1016D00020E030E040EC50E40E94580F20E030E081
:1016E00040E650E40E94F60D6B017C014B015C0169
:1016F00065E571E085EF92E00E94AA05A7019601D9
:10170000C701B6010E94051060E671E081111BC09F
:1017100026013701E89477F82FEF3FEF4FE75FE7B7
:10172000C301B2010E940510811147C12FEF3FEFA5
:101730004FE75FE7C301B2010E94900D18160CF04D
:101740003CC164E671E085EF92E00E94F70460E23C
:1017500073E080E090E00E947C028DED92E00E94B8
:101760008C069093F4028093F3020E944C0568EE7D
:1017700073E080E090E00E947C0283EE92E00E94A1
:101780008C069093F2028093F1020E944C0568EE61
:1017900073E080E090E00E947C0289EE92E00E947B
:1017A0008C069093F0028093EF020E944C0568EE45
:1017B00073E080E090E00E947C028FE00E94C40110
:1017C0006C0182E00E94C4015C0183E00E94C401BC
:1017D0007C01B501CE0101960E9443066CE671E0E2
:1017E000CE0107960E947B06BE016F5F7F4FCE0140
:1017F00007960E94DC050E949305CE0107960E9481
:10180000AC05CE0101960E94AC05B701CE01019650
:101810000E94430661E771E0CE0107960E947B06B5
:10182000BE016F5F7F4FCE0107960E94DC050E94CC
:101830009305CE0107960E94AC05CE0101960E9449
:10184000AC05B601CE0101960E94430668E771E03F
:10185000CE0107960E947B06BE016F5F7F4FCE01CF
:1018600007960E94DC050E949305CE0107960E9410
:10187000AC05CE0101960E94AC05C090F302D09059
:10188000F40260E085E00E94ED0160E086E00E94E5
:10189000ED0160E084E00E94ED0195E1C916D104FC
:1018A0000CF404C10E94E60480E00E94B5046FE7D6
:1018B00071E08EE993E00E94AA0581E00E94B504E0
:1018C0006DE871E08EE993E00E94AA0561E084E092
:1018D0000E94ED0188E991E00E9480058091F1026B
:1018E0009091F202069764F58091EF029091F002D8
:1018F000459734F10E94E60480E00E94B5046CEB49
:1019000071E08EE993E00E94AA0581E00E94B5048F
:101910006AEC71E08EE993E00E94AA0560ED71E047
:1019200085EF92E00E94AA0561E087E00E94ED0148
:1019300060E088E00E94ED0160E084E00E94ED013B
:101940008091F1029091F2024F9744F060E087E0BD
:101950000E94ED0160E088E00E94ED018091EF02BD
:101960009091F0020597ECF4EA94EF28D1F40E94EC
:10197000E60480E00E94B5046FED71E08EE993E02B
:101980000E94AA0581E00E94B5046BEE71E08EE929
:1019900093E00E94AA0566EF71E085EF92E00E9455
:1019A000AA050115110509F424CE0E94F800882328
:1019B00009F41FCE0E9400001CCE2FEF3FEF4FE72F
:1019C0005FE4C701B6010E94001018161CF468E617
:1019D00071E0B9CE2FEF3FEF4FE75FECC701B601E3
:1019E0000E94900D87FDF3CF20E030E0A901C701F0
:1019F000B6010E94900D87FF0BC06DE285EF92E06B
:101A00000E942E0146015701B7FAB094B7F8B0947E
:101A10002AE037ED43EA5BE3C501B4010E94EC0E16
:101A20004B015C010E94D10F6B017C010E94950D5E
:101A30009B01AC01C501B4010E94EB0E4B015C019E
:101A40004AE0C701B6010E9406056EE285EF92E00A
:101A50000E942E0120E030E040E251E4C501B401D3
:101A60000E94F60D4B015C010E94D10F6B01F12C1D
:101A7000E12C4AE0C701B6010E940605C701B60184
:101A80000E94950D9B01AC01C501B4010E94EB0EB3
:101A900020E030E040E251E40E94F60D0E94D10FB8
:101AA00090E080E04AE00E94060551CE60E084E0CC
:101AB0000E94ED0113CFBB274A3031F4992322F461
:101AC000BDE2909581959F4F0C94670DBB27FB015C
:101AD0005527AA27880F991FAA1FA41710F0A41B27
:101AE00083955051B9F7A05DAA3308F0A95DA19381
:101AF000009779F7B111B1931192CB010C94800D3D
:101B0000DC01FC01672F71917723E1F7329704C064
:101B10007C916D9370836291AE17BF07C8F30895EF
:101B20000E94D20D08F481E00895E89409C097FB63
:101B30003EF490958095709561957F4F8F4F9F4FA4
:101B40009923A9F0F92F96E9BB279395F6958795E8
:101B500077956795B795F111F8CFFAF4BB0F11F4AB
:101B600060FF1BC06F5F7F4F8F4F9F4F16C0882352
:101B700011F096E911C0772321F09EE8872F762F88
:101B800005C0662371F096E8862F70E060E02AF0C9
:101B90009A95660F771F881FDAF7880F96958795B5
:101BA00097F90895990F0008550FAA0BE0E8FEEF8A
:101BB00016161706E807F907C0F012161306E40711
:101BC000F50798F0621B730B840B950B39F40A260A
:101BD00061F0232B242B252B21F408950A2609F4E8
:101BE000A140A6958FEF811D811D08950E94090EC9
:101BF0000C947A0E0E946C0E38F00E94730E20F046
:101C0000952311F00C94630E0C94690E11240C941E
:101C1000AE0E0E948B0E70F3959FC1F3950F50E0AE
:101C2000551F629FF001729FBB27F00DB11D639F8E
:101C3000AA27F00DB11DAA1F649F6627B00DA11D34
:101C4000661F829F2227B00DA11D621F739FB00DDA
:101C5000A11D621F839FA00D611D221F749F33274A
:101C6000A00D611D231F849F600D211D822F762FE3
:101C70006A2F11249F5750409AF0F1F088234AF0C0
:101C8000EE0FFF1FBB1F661F771F881F915050402C
:101C9000A9F79E3F510580F00C94630E0C94AE0E94
:101CA0005F3FE4F3983ED4F3869577956795B795B3
:101CB000F795E7959F5FC1F7FE2B880F911D9695CD
:101CC000879597F9089597F99F6780E870E060E03D
:101CD00008959FEF80EC089500240A9416161706C5
:101CE00018060906089500240A941216130614060D
:101CF00005060895092E0394000C11F4882352F070
:101D0000BB0F40F4BF2B11F460FF04C06F5F7F4F27
:101D10008F4F9F4F089557FD9058440F551F59F00E
:101D20005F3F71F04795880F97FB991F61F09F3FC8
:101D300079F087950895121613061406551FF2CFF1
:101D40004695F1DF08C0161617061806991FF1CF41
:101D500086957105610508940895E894BB27662768
:101D60007727CB0197F908952F923F924F925F9278
:101D70006F927F928F929F92AF92BF92CF92DF929B
:101D8000EF92FF920F931F93CF93DF93CDB7DEB700
:101D9000CA1BDB0B0FB6F894DEBF0FBECDBF099494
:101DA0002A88398848885F846E847D848C849B84EB
:101DB000AA84B984C884DF80EE80FD800C811B81F9
:101DC000AA81B981CE0FD11D0FB6F894DEBF0FBE28
:101DD000CDBFED0108955058BB27AA270E94030FDD
:101DE0000C947A0E0E946C0E38F00E94730E20F054
:101DF00039F49F3F19F426F40C94690E0EF4E09523
:101E0000E7FB0C94630EE92F0E948B0E58F3BA1770
:101E1000620773078407950720F079F4A6F50C9400
:101E2000AD0E0EF4E0950B2EBA2FA02D0B01B901CB
:101E300090010C01CA01A0011124FF27591B99F040
:101E4000593F50F4503E68F11A16F040A22F232F4C
:101E5000342F4427585FF3CF469537952795A7959C
:101E6000F0405395C9F77EF41F16BA0B620B730B43
:101E7000840BBAF09150A1F0FF0FBB1F661F771FB4
:101E8000881FC2F70EC0BA0F621F731F841F48F469
:101E9000879577956795B795F7959E3F08F0B0CFF2
:101EA0009395880F08F09927EE0F979587950895D9
:101EB0000E946C0F0C947A0E0E94730E58F00E94D0
:101EC0006C0E40F029F45F3F29F00C94630E511121
:101ED0000C94AE0E0C94690E0E948B0E68F399233D
:101EE000B1F3552391F3951B550BBB27AA27621716
:101EF0007307840738F09F5F5F4F220F331F441F23
:101F0000AA1FA9F335D00E2E3AF0E0E832D0915056
:101F10005040E695001CCAF72BD0FE2F29D0660F43
:101F2000771F881FBB1F261737074807AB07B0E886
:101F300009F0BB0B802DBF01FF2793585F4F3AF08C
:101F40009E3F510578F00C94630E0C94AE0E5F3FEB
:101F5000E4F3983ED4F3869577956795B795F79512
:101F60009F5FC9F7880F911D9695879597F90895FA
:101F7000E1E0660F771F881FBB1F62177307840796
:101F8000BA0720F0621B730B840BBA0BEE1F88F7A5
:101F9000E09508950E94D10F6894B1110C94AE0E93
:101FA00008950E94930E88F09F5798F0B92F9927B3
:101FB000B751B0F0E1F0660F771F881F991F1AF034
:101FC000BA95C9F714C0B13091F00E94AD0EB1E0DE
:101FD00008950C94AD0E672F782F8827B85F39F0DD
:101FE000B93FCCF3869577956795B395D9F73EF4CD
:101FF00090958095709561957F4F8F4F9F4F089575
:102000000E94D20D08F48FEF08950E94D20D880B24
:10201000990B0895A1E21A2EAA1BBB1BFD010DC04E
:10202000AA1FBB1FEE1FFF1FA217B307E407F50788
:1020300020F0A21BB30BE40BF50B661F771F881F64
:10204000991F1A9469F760957095809590959B01FA
:10205000AC01BD01CF010895EE0FFF1F0590F49173
:10206000E02D09940F931F93CF93DF938230910556
:1020700010F482E090E0E091AC03F091AD0330E029
:1020800020E0B0E0A0E0309799F42115310509F483
:102090004AC0281B390B24303105D8F58A819B8131
:1020A0006115710589F1FB0193838283FE0111C0E3
:1020B000408151810281138148175907E0F0481788
:1020C000590799F4109761F012960C931297139692
:1020D0001C933296CF01DF91CF911F910F910895FC
:1020E0000093AC031093AD03F4CF2115310551F0EB
:1020F0004217530738F0A901DB019A01BD01DF0146
:10210000F801C1CFEF01F9CF9093AD038093AC03F9
:10211000CDCFFE01E20FF31F81939193225031093D
:1021200039832883D7CF2091AA033091AB03232B87
:1021300041F420910201309103013093AB032093CD
:10214000AA0320910001309101012115310541F4CC
:102150002DB73EB74091040150910501241B350B6A
:10216000E091AA03F091AB03E217F307A0F42E1B52
:102170003F0B2817390778F0AC014E5F5F4F2417EB
:10218000350748F04E0F5F1F5093AB034093AA03EF
:10219000819391939FCFF0E0E0E09CCFCF93DF93CA
:1021A0000097E9F0FC01329713821282A091AC03F0
:1021B000B091AD03ED0130E020E01097A1F4208153
:1021C0003181820F931F2091AA033091AB0328170E
:1021D000390709F061C0F093AB03E093AA03DF91E4
:1021E000CF910895EA01CE17DF07E8F54A815B81B8
:1021F0009E0141155105B1F7E901FB83EA8349913D
:102200005991C40FD51FEC17FD0761F480819181AE
:102210000296840F951FE9019983888382819381B7
:102220009B838A83F0E0E0E012968D919C91139756
:102230000097B9F52D913C911197CD010296820F2F
:10224000931F2091AA033091AB032817390739F661
:10225000309751F51092AD031092AC03B093AB03DD
:10226000A093AA03BCCFD383C28340815181840F42
:10227000951FC817D90761F44E5F5F4F8881998118
:10228000480F591F518340838A819B8193838283A6
:102290002115310509F0B0CFF093AD03E093AC0305
:1022A0009ECFFD01DC01C0CF13821282D7CFB0E0F8
:1022B000A0E0EDE5F1E10C94B60E8C01009751F42D
:1022C000CB010E9432108C01C801CDB7DEB7E0E12E
:1022D0000C94D20EFC01E60FF71F9C01225031092D
:1022E000E217F30708F49DC0D901CD91DC91119755
:1022F000C617D70798F0C530D10530F3CE01049743
:102300008617970708F3C61BD70B2297C193D19363
:102310006D937C93CF010E94CE10D6CF5B01AC1A97
:10232000BD0A4C018C0E9D1EA091AC03B091AD0373
:10233000512C412CF12CE12C109731F58091AA03FE
:102340009091AB038815990509F05CC046165706B5
:1023500008F058C08091000190910101009741F46C
:102360008DB79EB74091040150910501841B950BD8
:10237000E817F90708F055C0F093AB03E093AA0300
:10238000F90171836083A0CF8D919C911197129672
:102390006C90129713967C901397A815B90559F570
:1023A0006C0142E0C40ED11CCA14DB0420F1AC0164
:1023B0004A195B09DA011296159780F062827382DE
:1023C00051834083D9016D937C93E114F10471F042
:1023D000D7011396FC93EE93129776CF22968C0F2B
:1023E0009D1FF90191838083F301EFCFF093AD033B
:1023F000E093AC0369CF4816590608F42C017D011F
:10240000D3019ACFCB010E9432107C01009749F092
:10241000AE01B8010E941412C8010E94CE108701BB
:1024200053CF10E000E050CFFB01DC0102C001906F
:102430000D9241505040D8F70895FB01DC01019006
:102440000D920020E1F70895F894FFCF0000AE034D
:1024500080000000400014005400000000002E0125
:102460008E00BB007B01EC00CA00DE000000000013
:102470006C033F0382041503380325031603000091
:102480000000F1048E008204AE020D0A0057415490
:102490004552204C4556454C0057656C636F6D6541
:1024A00000506856616C7565203A20006E616E00C0
:1024B000696E66006F7666004D51343A004D5131B9
:1024C00033353A004E5455203A200054414E4B319A
:1024D000205155414C49545900202020204E4F5442
:1024E000204F4B00616C6B6C696E652F74616E6B75
:1024F0003120656D7074792F4D657468656E206448
:10250000657465637465640054414E4B32205155C7
:10251000414C495459002020204F4B0054616E6BB0
:1025200032206D6F746F72206F6E0054414E4B33CA
:1025300020434C4541520020202020205741544543
:0E2540005200434C4541522057415445520031
:107E0000112484B714BE81FFF0D085E080938100F7
:107E100082E08093C00088E18093C10086E0809377
:107E2000C20080E18093C4008EE0C9D0259A86E02C
:107E300020E33CEF91E0309385002093840096BBD3
:107E4000B09BFECF1D9AA8958150A9F7CC24DD24C4
:107E500088248394B5E0AB2EA1E19A2EF3E0BF2EE7
:107E6000A2D0813461F49FD0082FAFD0023811F036
:107E7000013811F484E001C083E08DD089C08234E0
:107E800011F484E103C0853419F485E0A6D080C0E4
:107E9000853579F488D0E82EFF2485D0082F10E0AE
:107EA000102F00270E291F29000F111F8ED06801E7
:107EB0006FC0863521F484E090D080E0DECF843638
:107EC00009F040C070D06FD0082F6DD080E0C81688
:107ED00080E7D80618F4F601B7BEE895C0E0D1E017
:107EE00062D089930C17E1F7F0E0CF16F0E7DF06D8
:107EF00018F0F601B7BEE89568D007B600FCFDCFD4
:107F0000A601A0E0B1E02C9130E011968C91119780
:107F100090E0982F8827822B932B1296FA010C0160
:107F200087BEE89511244E5F5F4FF1E0A038BF0790
:107F300051F7F601A7BEE89507B600FCFDCF97BE46
:107F4000E89526C08437B1F42ED02DD0F82E2BD052
:107F50003CD0F601EF2C8F010F5F1F4F84911BD097
:107F6000EA94F801C1F70894C11CD11CFA94CF0C13
:107F7000D11C0EC0853739F428D08EE10CD085E9AC
:107F80000AD08FE07ACF813511F488E018D01DD067
:107F900080E101D065CF982F8091C00085FFFCCF94
:107FA0009093C60008958091C00087FFFCCF809118
:107FB000C00084FD01C0A8958091C6000895E0E648
:107FC000F0E098E1908380830895EDDF803219F02E
:107FD00088E0F5DFFFCF84E1DECF1F93182FE3DFCA
:107FE0001150E9F7F2DF1F91089580E0E8DFEE27F6
:047FF000FF270994CA
:027FFE00040479
:00000001FF
