:020000040000FA
:100000000C945D000C9485000C9485000C94850084
:100010000C9485000C9485000C9485000C9485004C
:100020000C9485000C9485000C9485000C9485003C
:100030000C9485000C9485000C9485000C9485002C
:100040000C9436050C9485000C9404050C94DE0485
:100050000C9485000C9485000C9485000C9485000C
:100060000C9480050C94850000000008000201003B
:100070000003040700000000000000000000000072
:10008000250028002B0000000000240027002A0083
:10009000040404040404040402020202020203032E
:1000A0000303030301020408102040800102040836
:1000B00010200102040810209F0611241FBECFEF5C
:1000C000D8E0DEBFCDBF11E0A0E0B1E0E0E5F1E1B6
:1000D00002C005900D92A43AB107D9F723E0A4EA33
:1000E000B1E001C01D92AC31B207E1F710E0CDE5FF
:1000F000D0E004C02197FE010E94A008CC35D107B2
:10010000C9F70E94E7060C94A6080C940000089515
:100110000895AF92BF92CF92DF92EF92FF920F932A
:100120001F93CF93DF936C017B018B01040F151F8D
:10013000EB015E01AE18BF08C017D10759F06991F5
:10014000D601ED91FC910190F081E02DC601099559
:10015000892B79F7C501DF91CF911F910F91FF9006
:10016000EF90DF90CF90BF90AF900895FC01538D3A
:10017000448D252F30E0842F90E0821B930B541781
:1001800010F0CF96089501970895FC01918D828D0E
:10019000981761F0A28DAE0FBF2FB11D5D968C91A7
:1001A000928D9F5F9F73928F90E008958FEF9FEFE6
:1001B0000895FC01918D828D981731F0828DE80FA2
:1001C000F11D858D90E008958FEF9FEF0895FC015C
:1001D000918D228D892F90E0805C9F4F821B910929
:1001E0008F739927089587E692E00E94E70021E047
:1001F000892B09F420E0822F089580E090E0892B7C
:1002000029F00E94F30081110C9400000895FC0174
:10021000A48DA80FB92FB11DA35ABF4F2C91848D67
:1002200090E001968F739927848FA689B7892C93C4
:10023000A089B1898C91837080648C93938D848D17
:10024000981306C00288F389E02D80818F7D80831A
:100250000895EF92FF920F931F93CF93DF93EC01DA
:1002600081E0888F9B8D8C8D98131AC0E889F9895D
:10027000808185FF15C09FB7F894EE89FF89608360
:10028000E889F98980818370806480839FBF81E0E1
:1002900090E0DF91CF911F910F91FF90EF90089523
:1002A000F62E0B8D10E00F5F1F4F0F731127E02EFE
:1002B0008C8D8E110CC00FB607FCFACFE889F98936
:1002C000808185FFF5CFCE010E940701F1CFEB8D34
:1002D000EC0FFD2FF11DE35AFF4FF0829FB7F8940A
:1002E0000B8FEA89FB8980818062CFCFCF93DF9328
:1002F000EC01888D8823B9F0AA89BB89E889F9893E
:100300008C9185FD03C0808186FD0DC00FB607FC72
:10031000F7CF8C9185FFF2CF808185FFEDCFCE01A5
:100320000E940701E9CFDF91CF91089590E0FC0191
:10033000E859FF4F2491FC01EC55FF4F3491FC012B
:10034000E057FF4FE491EE23C9F0222339F0233028
:1003500001F1A8F4213019F1223029F1F0E0EE0F7B
:10036000FF1FE458FF4FA591B4918FB7F894EC911B
:10037000611126C030953E233C938FBF08952730EE
:10038000A9F02830C9F0243049F7809180008F7D92
:1003900003C0809180008F7780938000DFCF84B589
:1003A0008F7784BDDBCF84B58F7DFBCF8091B0008C
:1003B0008F778093B000D2CF8091B0008F7DF9CF3E
:1003C0003E2BDACF3FB7F89480915B0290915C02AC
:1003D000A0915D02B0915E0226B5A89B05C02F3F9B
:1003E00019F00196A11DB11D3FBFBA2FA92F982F5B
:1003F0008827BC01CD01620F711D811D911D42E056
:10040000660F771F881F991F4A95D1F708958F921D
:100410009F92AF92BF92CF92DF92EF92FF924B01E9
:100420005C010E94E2016B017C010E94E2016C19F7
:100430007D098E099F09683E734081059105A8F3E7
:1004400021E0821A9108A108B10888EEC80E83E065
:10045000D81EE11CF11C81149104A104B10429F7F8
:10046000FF90EF90DF90CF90BF90AF909F908F90D4
:10047000089508952091E501260F3327331F213277
:100480003105ECF420912E02FC0190E080E0243054
:1004900069F082E00895A091E5012191AC014B53F0
:1004A0005E4FA40FB52FB11D2C930196861798F3BC
:1004B0008091E501680F6093E50180E0089581E097
:1004C000089510922E0281E080932D02109208026E
:1004D00061E082E10E94960161E083E10E94960161
:1004E000E9EBF0E080818E7F808380818D7F808347
:1004F00088E48093B80085E48093BC000895CF938E
:10050000DF9391E09093C4018823B9F0C091B800C3
:10051000D091BA008091BC008A7B8093BC0060E0DF
:1005200082E10E94960160E083E10E9496010E94B0
:100530006102D093BA00C093B800DF91CF910895C3
:100540000895E091660280916502E81730F4F0E0CA
:10055000EC55FE4F808190E008958FEF9FEF089556
:1005600090916602809165022FEF3FEF981748F453
:10057000E92FF0E0EC55FE4F208130E09F5F909333
:100580006602C90108958091650290916602891BF7
:10059000990B0895CF92DF92EF92FF920F931F93E2
:1005A000CF93DF937C01CB018A0120913402222377
:1005B00089F0EB016B01C40ED51ECC15DD0569F089
:1005C0006991D701ED91FC910190F081E02DC70177
:1005D0000995F3CF642F0E943A02C801DF91CF91B1
:1005E0001F910F91FF90EF90DF90CF900895CF93E0
:1005F000DF931F92CDB7DEB76983209134022223A7
:10060000F9F020916302203258F021E030E0FC0143
:100610003383228390E080E00F90DF91CF910895A3
:1006200080916402E82FF0E0EB5CFD4F99819083AC
:100630008F5F809364028093630281E090E0ECCF4F
:1006400061E0CE0101960E943A02F7CFCF92DF928D
:10065000EF92FF920F931F93CF93DF93FC01C4811E
:1006600021E020933402C09355021092640210924C
:1006700063028385682B84E093E00E94F702D091A7
:100680006302D13208F092C00E94E2016B017C014A
:1006900080912E02811165C082E080932E0281E05C
:1006A00080932D028FEF80932C0210922B02D09317
:1006B0002A02A5E3B2E0EAE0F2E080E0D81385C0C8
:1006C0001092090280910902CC0FC82BC093090235
:1006D00080910802813009F07CC0109208020E94CB
:1006E000E2016B017C01809109028093BB00809143
:1006F000300290913102A0913202B0913302892BE5
:100700008A2B8B2B99F00E94E2010091300210910C
:10071000310220913202309133026C197D098E0929
:100720009F090617170728073907E0F18091BC00D9
:1007300083FDD9CF85EC8093BC000E94E2016B0160
:100740007C0180912E02823009F445C080912C02F8
:100750008F3F61F180912C02803241F180912C0217
:1007600025C08091300290913102A0913202B09167
:100770003302892B8A2B8B2B09F48ACF0E94E2014A
:1007800000913002109131022091320230913302F7
:100790006C197D098E099F09061717072807390765
:1007A00008F076CF80912F020E947F02109264029F
:1007B0001092630210923402DF91CF911F910F913A
:1007C000FF90EF90DF90CF9008959D9191938F5F70
:1007D00075CF85EEB0CF8091300290913102A0911B
:1007E0003202B0913302892B8A2B8B2B09F4A9CFCB
:1007F0000E94E201009130021091310220913202F8
:10080000309133026C197D098E099F09061717076D
:100810002807390708F095CFC5CF90E080E008950C
:10082000FB0101900020E9F73197AF01461B570B00
:10083000DC01ED91FC910280F381E02D0994CF93CE
:10084000DF93BC0187E692E00E941004EC0168E3AC
:1008500071E087E692E00E9410048C0F9D1FDF91EB
:10086000CF9108950F931F93CF938C01C62F0E94B1
:1008700026036C2F6460C8010E9426036C2F6B7FD7
:10088000C8010E94260383EC90E00197F1F7CF9115
:100890001F910F9108950F931F93CF93DF938C01B6
:1008A000D62FC42F607F642B0E94320480E1D89F32
:1008B000B00111246C2BC801DF91CF911F910F91D2
:1008C0000C943204CF93DF93CDB7DEB728970FB6E1
:1008D000F894DEBF0FBECDBF98E0E0E0F1E0DE01AE
:1008E000119601900D929A95E1F790911803961741
:1008F00008F46FEF262F30E0220F331F41E050E065
:100900004C0F5D1F240F351FF9016081680F60686F
:1009100040E080E193E028960FB6F894DEBF0FBE6A
:10092000CDBFDF91CF910C944B0440E061E080E1BA
:1009300093E00E944B048BE39FE10197F1F7089548
:1009400041E00E944B0481E090E0089585ED8093A2
:10095000BC008091300290913102A0913202B0919E
:1009600033020796A11DB11D23E0B695A795979573
:1009700087952A95D1F72091BC0024FD03C01092E1
:100980002E0208954091300250913102609132025E
:1009900070913302452B462B472B69F30097A10535
:1009A000B10541F025E32A95F1F700000197A1096F
:1009B000B109E1CF80912F020C947F021F920F9218
:1009C0000FB60F9211242F933F934F935F936F9322
:1009D0007F938F939F93AF93BF93EF93FF9387E69C
:1009E00092E00E940701FF91EF91BF91AF919F911B
:1009F0008F917F916F915F914F913F912F910F90C8
:100A00000FBE0F901F9018951F920F920FB60F9266
:100A100011242F938F939F93EF93FF93E09177028D
:100A2000F09178028081E0917D02F0917E0282FD5A
:100A30001BC09081809180028F5F8F732091810213
:100A4000821741F0E0918002F0E0E959FD4F958F67
:100A500080938002FF91EF919F918F912F910F9042
:100A60000FBE0F901F9018958081F4CF1F920F92A8
:100A70000FB60F9211242F933F938F939F93AF93B1
:100A8000BF938091570290915802A0915902B09162
:100A90005A023091560223E0230F2D3758F5019664
:100AA000A11DB11D209356028093570290935802C6
:100AB000A0935902B0935A0280915B0290915C021C
:100AC000A0915D02B0915E020196A11DB11D8093BF
:100AD0005B0290935C02A0935D02B0935E02BF91B3
:100AE000AF919F918F913F912F910F900FBE0F90DB
:100AF0001F90189526E8230F0296A11DB11DD2CF95
:100B00001F920F920FB60F9211242F933F934F9382
:100B10005F936F937F938F939F93AF93BF93EF9365
:100B2000FF938091B900887F803609F44AC0F0F5C0
:100B3000883209F4A7C018F5803109F49BC0B8F4D5
:100B4000882309F4F9C0883009F494C0FF91EF912B
:100B5000BF91AF919F918F917F916F915F914F91D5
:100B60003F912F910F900FBE0F901F9018958831D5
:100B700009F488C0803251F780932C0214C080346D
:100B800009F49DC040F48033B9F38833F9F68093BB
:100B90002C0285ECB0C0803509F485C0883509F495
:100BA00096C0883499F60E94A604D0CF883909F4FB
:100BB0008CC038F5883729F050F4883611F080372A
:100BC00029F683E080932E021092070257C08838DE
:100BD00009F47BC0803919F0803809F0B7CF8091D3
:100BE0000702803208F071C0E091070281E08E0FA9
:100BF000809307028091BB00F0E0E951FE4F8083B3
:100C00003DC0803B39F0E0F4803A09F479C0883A7D
:100C100009F09CCF84E080932E021092E60110929E
:100C2000E501E0916102F091620209958091E50190
:100C300081110FC081E08093E5011092C50109C0C8
:100C4000803C09F4A6CF883C09F4A3CF883B09F087
:100C50007DCFE091E60181E08E0F8093E601F0E028
:100C6000EB53FE4F80818093BB009091E601809111
:100C7000E50129C0809109028093BB0085EC809337
:100C8000BC0064CF90912B0280912A02981758F5EE
:100C9000E0912B0281E08E0F80932B02F0E0E65F63
:100CA000FD4F8081E9CFE0912B0281E08E0F809390
:100CB0002B028091BB00F0E0E65FFD4F80839091B6
:100CC0002B0280912A029817C8F285E8D8CFE091CC
:100CD0002B0281E08E0F80932B028091BB00F0E00D
:100CE000E65FFD4F808380912D0281115CCF81E012
:100CF0008093080284EA8093BC0010922E0226CFD3
:100D000085EC8093BC0010922E0280910702803205
:100D100030F4E0910702F0E0E951FE4F108260915B
:100D2000070270E0E0915F02F091600287EE91E0CF
:100D30000995109207020ACF10922C0234CFE7E6F1
:100D4000F2E01382128288EE93E0A0E0B0E08483A8
:100D50009583A683B7832CE031E03183208325EC93
:100D600030E03587248724EC30E03787268720EC75
:100D700030E0318B208B21EC30E0338B228B22EC66
:100D800030E0358B248B26EC30E0378B268B118EB0
:100D9000128E138E148EE4E0F3E0138212828483A9
:100DA0009583A683B7838EE191E091838083E0E110
:100DB000F3E01382128280E391E09183808380E2EA
:100DC000848380E1818782E0828713860895789406
:100DD00084B5826084BD84B5816084BD85B5826040
:100DE00085BD85B5816085BD80916E0081608093F1
:100DF0006E0010928100809181008260809381005A
:100E00008091810081608093810080918000816069
:100E1000809380008091B10084608093B1008091C4
:100E2000B00081608093B00080917A0084608093EC
:100E30007A0080917A00826080937A0080917A00B3
:100E4000816080937A0080917A00806880937A0034
:100E50001092C100E0917702F091780282E08083E5
:100E6000E0917302F09174021082E0917502F091AA
:100E700076028FEC808310927F02E0917B02F091EA
:100E80007C0286E08083E0917902F0917A02808191
:100E900080618083E0917902F0917A02808188609C
:100EA0008083E0917902F0917A028081806880836A
:100EB000E0917902F0917A0280818F7D8083E1EB6D
:100EC000F0E02491EDE9F0E08491882399F090E03E
:100ED000880F991FFC01EA57FF4FA591B491FC01BF
:100EE000E458FF4F859194918FB7F894EC91E22BE1
:100EF000EC938FBF1092660210926502109264020A
:100F0000109263020E94610287E890E0909362026F
:100F10008093610288E890E09093600280935F0282
:100F20001092150380911A03823018F098E0909384
:100F300015038093180362E370E080E090E00E9464
:100F4000070260911B0380E193E00E94260368EE94
:100F500073E080E090E00E94070260E380E193E0AC
:100F60000E943204CBE4D6E4CE010197F1F760E3AE
:100F700080E193E00E9432042197F1F760E380E181
:100F800093E00E94320483E592E00197F1F760E27A
:100F900080E193E00E94320460911503606240E0BA
:100FA00080E193E00E944B0484E08093160340E0CC
:100FB0006CE080E193E00E944B040E94950482E083
:100FC0008093170340E066E080E193E00E944B04C9
:100FD00040E062E080E193E00E944B048BE39FE1FC
:100FE0000197F1F70E94950460E084E00E9462049A
:100FF0006BE371E080E193E00E94100468EE73E01F
:1010000080E090E00E94070200E010E087E692E0B6
:101010000E94E700892B09F481C087E692E00E94D4
:10102000C500C82F682F87E692E00E94290168E377
:1010300071E087E692E00E941004C334E9F1ACF459
:10104000C13441F1C23411F70E94950460E084E09C
:101050000E94620462E571E080E193E00E94100466
:1010600082E591E00E941F04D1CFC53409F447C046
:101070008CF1C63459F60E94950460E080E00E942D
:10108000620467E971E080E193E00E94100487E95F
:1010900091E00EC00E94950460E084E00E9462042A
:1010A00068E471E080E193E00E94100488E491E03C
:1010B0000E941F0461E01FC00E94950460E080E070
:1010C0000E94620467E571E080E193E00E941004F1
:1010D00061E0E3CF0E94950460E080E00E9462043A
:1010E00067E671E080E193E00E94100487E791E0F9
:1010F0000E941F0460E08DE00E94960187CF0E944D
:10110000950460E080E00E94620468E871E080E19C
:1011100093E00E94100488E891E0EACF64EF71E068
:1011200080E090E00E9407020115110509F46ECFDE
:101130000E94F300882309F469CF0E94000066CF63
:10114000EE0FFF1F0590F491E02D0994F894FFCF66
:101150000000400014005400000000002901890034
:10116000B6007601E700C500D90000000000F702D4
:10117000CA020D04A002C302B002A10200000000D6
:10118000A00489000D0439020D0A00574F4D454E49
:101190002053414645545900454D455247454E431D
:1011A000590046696E6500484541525420524154E9
:1011B000452048494748004845415254205241542F
:1011C00045204E524D4C0048454152205241544515
:1011D000204E4F524D414C004845415254205241FF
:1011E0005445204C4F5700504C4143452046494EF2
:0411F000474552001D
:107E0000112484B714BE81FFF0D085E080938100F7
:107E100082E08093C00088E18093C10086E0809377
:107E2000C20080E18093C4008EE0C9D0259A86E02C
:107E300020E33CEF91E0309385002093840096BBD3
:107E4000B09BFECF1D9AA8958150A9F7CC24DD24C4
:107E500088248394B5E0AB2EA1E19A2EF3E0BF2EE7
:107E6000A2D0813461F49FD0082FAFD0023811F036
:107E7000013811F484E001C083E08DD089C08234E0
:107E800011F484E103C0853419F485E0A6D080C0E4
:107E9000853579F488D0E82EFF2485D0082F10E0AE
:107EA000102F00270E291F29000F111F8ED06801E7
:107EB0006FC0863521F484E090D080E0DECF843638
:107EC00009F040C070D06FD0082F6DD080E0C81688
:107ED00080E7D80618F4F601B7BEE895C0E0D1E017
:107EE00062D089930C17E1F7F0E0CF16F0E7DF06D8
:107EF00018F0F601B7BEE89568D007B600FCFDCFD4
:107F0000A601A0E0B1E02C9130E011968C91119780
:107F100090E0982F8827822B932B1296FA010C0160
:107F200087BEE89511244E5F5F4FF1E0A038BF0790
:107F300051F7F601A7BEE89507B600FCFDCF97BE46
:107F4000E89526C08437B1F42ED02DD0F82E2BD052
:107F50003CD0F601EF2C8F010F5F1F4F84911BD097
:107F6000EA94F801C1F70894C11CD11CFA94CF0C13
:107F7000D11C0EC0853739F428D08EE10CD085E9AC
:107F80000AD08FE07ACF813511F488E018D01DD067
:107F900080E101D065CF982F8091C00085FFFCCF94
:107FA0009093C60008958091C00087FFFCCF809118
:107FB000C00084FD01C0A8958091C6000895E0E648
:107FC000F0E098E1908380830895EDDF803219F02E
:107FD00088E0F5DFFFCF84E1DECF1F93182FE3DFCA
:107FE0001150E9F7F2DF1F91089580E0E8DFEE27F6
:047FF000FF270994CA
:027FFE00040479
:00000001FF
