:100000000C9415020C9446020C9446020C94460281
:100010000C9446020C9446020C9446020C94460240
:100020000C9446020C9446020C9446020C94460230
:100030000C9446020C9446020C9446020C94460220
:100040000C9446020C9446020C9446020C94460210
:100050000C9446020C9446020C9446020C94570BE6
:100060000C9446020C94210B0C94F70A0C94460253
:100070000C9446020C9446020C9446020C944602E0
:100080000C9446020C9446020C9446020C944602D0
:100090000C9446020C9446020C9446020C944602C0
:1000A0000C9446020C9446020C9446020C944602B0
:1000B0000C9446020C9446020C9446020C944602A0
:1000C0000C9446020C9446020C9446020C94460290
:1000D0000C9446020C9446020C9446020C94460280
:1000E0000C94460205A84CCDB2D44EB93836A902BC
:1000F0000C50B9918688083CA6AAAA2ABE00000026
:10010000803F0C944B120C945D150C94BB060C9420
:100110009E030C94A10B0C94F4040C94C3030C9454
:10012000810D0C94DA140C94C91E0C941F050C94C8
:10013000FC040C94281C0C9413050C94A7030C9439
:1001400096030C94E4040C94CE120C9425050C94A4
:10015000EE040C94340F0C94B1030C94CD030C9466
:10016000FB170C9469160C9448020C9480030C94B1
:1001700060040C94AD0E0C9422050C9488040C942D
:10018000260E0C9457140C94B5030C94501F0C9429
:10019000DE040C94EF160C9498020C9492030C94C9
:1001A00081180C94D8040C9419050C9416050C9421
:1001B00000050C94E3150C94F6040C94E0040C94E4
:1001C000F2040C9475020C9428050C94C3100C9442
:1001D00007190C94EA040C9451130C94110D0C940F
:1001E000421E0C94AD1C0C94E8040C94E2040C9494
:1001F000991A0C94FE040C9410050C94A1030C9411
:10020000DA040C94341D0C94F8040C94DE020C9463
:10021000F0040C9407050C94BB0F0C9484020C940E
:10022000B9030C94A6020C940D050C941C050C94B7
:10023000EC040C94D1030C949F0D0C9445110C9478
:100240009A030C94DC040C941E1B0C94D4040C94A0
:1002500041100C947B030C94BB1D0C94FA040C9479
:10026000A31B0C94131A0C9475170C94C7030C94CD
:100270008D190C94C8110C94BF030C94E6040C94D3
:10028000D4130C9402050C9404050C942B030C94C9
:10029000AB030C940A050C945F0400000000F30407
:1002A000353F5E836C3FBE147B3F6DC47E3F0FB114
:1002B0007F3F43EC7F3F11FB7F3FC4FE7F3FB1FF99
:1002C0007F3FECFF7F3FFBFF7F3FFFFF7F3F000053
:1002D000803F0000803F0000803F0000803F000022
:1002E000803FF304353F15EFC33EC2C5473E36BDE0
:1002F000C83D30FB483DB00AC93C900E493C880FD0
:10030000C93BC60F493BD60FC93AD90F493ADB0F53
:10031000C939DB0F4939DB0FC938DB0F4938BF0F4B
:10032000C93700002100240027002A002D003000DA
:10033000330001010000040107010A01000022004E
:10034000250028002B002E0031003400020100009F
:10035000050108010B010505050507050808080842
:10036000020202020A0A080804040404010101014D
:100370000101010103030303030303030407070748
:100380000C0C0C0C0C0C0C0C0202020206060606ED
:10039000060606060B0B0B0B0B0B0B0B01021020BA
:1003A00020080810204010204080020102010804AB
:1003B000020101020408102040808040201008043F
:1003C0000201800402018040201008040201080498
:1003D00002010102040810204080010204081020DC
:1003E000408000000A0B02090C0D0E0807030401EF
:1003F00000000000000000000000000000000000FD
:1004000000000000000000000000000000001211C9
:1004100010000000000000000000000000000000CC
:100420000000000000000000A10B11241FBECFEF50
:10043000D1E2DEBFCDBF00E00CBF1BE0A0E0B2E028
:10044000E6E3F6E400E00BBF02C007900D92A23392
:10045000B107D9F72FE0A2E3BBE001C01D92AB3F8B
:10046000B207E1F712E0C5E1D2E000E006C0219753
:100470000109802FFE010E941123C431D10780E0C1
:100480000807A9F70E94EB0B0C9419230C940000A9
:10049000AF92BF92CF92DF92EF92FF920F931F9392
:1004A000CF93DF936C017B018B01040F151FEB01D0
:1004B0005E01AE18BF08C017D10759F06991D60187
:1004C000ED91FC910190F081E02DC6011995892BE9
:1004D00079F7C501DF91CF911F910F91FF90EF90B8
:1004E000DF90CF90BF90AF900895FC01538D448D65
:1004F000252F30E0842F90E0821B930B541710F0CF
:10050000CF96089501970895FC01918D828D9817DB
:1005100061F0A28DAE0FBF2FB11D5D968C91928DB3
:100520009F5F9F73928F90E008958FEF9FEF0895E4
:10053000FC01918D828D981731F0828DE80FF11DAD
:10054000858D90E008958FEF9FEF0895FC01918DC8
:10055000228D892F90E0805C9F4F821B91098F73C1
:100560009927089586E49FE00E94A60221E0892B46
:1005700009F420E0822F0895FC01A48DA80FB92F63
:10058000B11DA35ABF4F2C91848D90E001968F73BB
:100590009927848FA689B7892C93A089B1898C91DA
:1005A000837080648C93938D848D981306C0028829
:1005B000F389E02D80818F7D80830895EF92FF92F3
:1005C0000F931F93CF93DF93EC0181E0888F9B8D76
:1005D0008C8D98131AC0E889F989808185FF15C030
:1005E0009FB7F894EE89FF896083E889F989808153
:1005F0008370806480839FBF81E090E0DF91CF9122
:100600001F910F91FF90EF900895F62E0B8D10E043
:100610000F5F1F4F0F731127E02E8C8D8E110CC0B2
:100620000FB607FCFACFE889F989808185FFF5CFFD
:10063000CE010E94BC02F1CFEB8DEC0FFD2FF11D1E
:10064000E35AFF4FF0829FB7F8940B8FEA89FB893A
:1006500080818062CFCFCF93DF93EC01888D882398
:10066000B9F0AA89BB89E889F9898C9185FD03C015
:10067000808186FD0DC00FB607FCF7CF8C9185FFFA
:10068000F2CF808185FFEDCFCE010E94BC02E9CF81
:10069000DF91CF910895282F30E0F901EE51FC4F02
:1006A0009491F901E456FC4F44912A5A3C4FF901C8
:1006B0002491222309F435C0992311F191509231EC
:1006C000F8F4E92FF0E08827E759FC4F8F4F0C949E
:1006D00011239A039E037B03920396038003A103D5
:1006E000A703AB03B103B503B903BF03C30380037F
:1006F000C703CD03D103809180008F778093800062
:10070000E22FF0E0EE0FFF1FE45CFC4FA591B491E7
:100710008FB7F894EC91611148C040954E234C93EB
:100720008FBF0895809180008F7DE8CF80918000F9
:10073000877FE4CF84B58F7784BDE2CF84B58F7D8A
:10074000FBCF8091B0008F778093B000D9CF80919C
:10075000B0008F7DF9CF809190008F7780939000CB
:10076000CFCF809190008F7DF9CF80919000877FCF
:10077000F5CF8091A0008F778093A000C1CF8091AA
:10078000A0008F7DF9CF8091A000877FF5CF809169
:1007900020018F7780932001B3CF809120018F7D3E
:1007A000F9CF80912001877FF5CF4E2BB8CFCF9323
:1007B000DF9390E0FC01E456FC4F24918A5A9C4F51
:1007C000FC0184918823D1F090E0880F991FFC01EF
:1007D000EE5DFC4FA591B491FC01E45CFC4FC5912A
:1007E000D49161110EC09FB7F8948C91E22FE095DF
:1007F0008E238C932881E223E8839FBFDF91CF91E2
:1008000008958FB7F894EC91E22BEC938FBFF6CF5D
:100810003FB7F89480913C0F90913D0FA0913E0F0F
:10082000B0913F0F26B5A89B05C02F3F19F0019648
:10083000A11DB11D3FBFBA2FA92F982F8827BC013A
:10084000CD01620F711D811D911D42E0660F771F62
:10085000881F991F4A95D1F708958F929F92AF9262
:10086000BF92CF92DF92EF92FF924B015C010E9408
:1008700008046B017C010E9408046C197D098E0933
:100880009F09683E734081059105A8F321E0821A13
:100890009108A108B10888EEC80E83E0D81EE11CBB
:1008A000F11C81149104A104B10429F7FF90EF9089
:1008B000DF90CF90BF90AF909F908F900895089554
:1008C00090E080E008956F927F928F929F92AF9216
:1008D000BF92CF92DF92EF92FF920F931F93CF932D
:1008E000DF93D9E318E307E386E3F82E95E3E92ED7
:1008F00024E3D22E33E3C32E42E3B42E51E3A52EDC
:1009000060E3962E7AE5872EE9E57E2EF8E56F2ED8
:1009100086E49FE00E94A602181619060CF09BC000
:1009200086E49FE00E948402C82F8093360F682FD0
:1009300086E49FE00E94DE02E0EDEC0FEB3240F730
:100940000E2E000CFF0B8827E755FB4F8F4F0C94A2
:1009500011230D0510051305160519051C051F05A6
:10096000220525052805880488048804880488044D
:1009700088048804D404D804DA04DC04DE04E00427
:10098000E204E404E604E804EA04EC04EE04F004FF
:10099000F204F404F604F804FA04FC04FE0400056E
:1009A0000205040507050A0581E480930002B0CF23
:1009B00082E4FBCF83E4F9CF84E4F7CF85E4F5CF7D
:1009C00086E4F3CF87E4F1CF88E4EFCF89E4EDCF7D
:1009D0008AE4EBCF8BE4E9CF8CE4E7CF8DE4E5CF7D
:1009E0008EE4E3CF8FE4E1CF80E5DFCF81E5DDCF9B
:1009F00082E5DBCF83E5D9CF84E5D7CF85E5D5CFB9
:100A000086E5D3CF87E5D1CF6092000281CF709287
:100A100000027ECF809200027BCF9092000278CFBE
:100A2000A092000275CFB092000272CFC092000275
:100A30006FCFD09200026CCFE092000269CFF092AB
:100A4000000266CF0093000263CF1093000260CFD4
:100A5000D09300025DCFDF91CF911F910F91FF9056
:100A6000EF90DF90CF90BF90AF909F908F907F904E
:100A70006F9008950E94B20281110E94630480E089
:100A800090E0892B49F080E090E0892B29F00E94CA
:100A9000000081110E94000080E090E0892B49F065
:100AA00080E090E0892B29F00E94000081110E94D3
:100AB000000080E090E0892B49F080E090E0892BF5
:100AC00029F00E94000081110C9400000895CF933A
:100AD000DF93EC0160E08E810E944B0361E08E8128
:100AE0000E944B0360E08E810E944B038BE891E0F3
:100AF0000197F1F7DF91CF910895CF92DF92EF92B6
:100B0000FF920F931F93CF93DF936C017C0187E0DB
:100B1000E80EF11CD0E0C0E0062F10E0B8010C2E6A
:100B200002C0759567950A94E2F76170F7018191AB
:100B30007F010E944B032196C430D10579F7C6018D
:100B4000DF91CF911F910F91FF90EF90DF90CF90A9
:100B50000C946705CF92DF92EF92FF920F931F9351
:100B6000CF93DF93EC01F62E642F8C810E944B0310
:100B70008D818F3F19F060E00E944B030F2D10E034
:100B80008F8584FF25C06E0187E0C80ED11CF12C33
:100B9000E12CB8010E2C02C0759567950A94E2F716
:100BA0006170F60181916F010E944B03FFEFEF1A14
:100BB000FF0A88E0E816F10461F7CE01DF91CF91DA
:100BC0001F910F91FF90EF90DF90CF900C946705ED
:100BD000B80184E0759567958A95E1F7CE010E948A
:100BE0007D056F2DCE01DF91CF911F910F91FF9069
:100BF000EF90DF90CF900C947D0540E0682F83EE5E
:100C00009FE00C94AA0581E00E94FD058BE39FE123
:100C10000197F1F70895CF93DF93823029F49091F3
:100C2000F20F98609093F20F8093F60F1092F70FE7
:100C300080E48093F80F80E18093F90F80E5809342
:100C4000FA0F61E08091E70F0E94D7038091E80FCF
:100C50008F3F19F061E00E94D70361E08091E90FB6
:100C60000E94D703C3EEDFE09E01235E3F408091E8
:100C7000F20F84FD0BC084E090E02196281739071D
:100C800044F461E08E810E94D703EECF88E090E0CB
:100C9000F4CF8BE39DE00197F1F760E08091E70FDF
:100CA0000E944B0360E08091E90F0E944B0380910A
:100CB000E80F8F3F19F060E00E944B038091F20F24
:100CC00084FD34C063E083EE9FE00E947D05CBE4A9
:100CD000D6E4CE010197F1F763E083EE9FE00E9436
:100CE0007D052197F1F763E083EE9FE00E947D058B
:100CF00083E592E00197F1F762E083EE9FE00E94C6
:100D00007D058091F20F80620E94FD0584E0809352
:100D1000F30F8CE00E94FD050E94030682E08093A1
:100D2000F40F86E0DF91CF910C94FD0580620E9464
:100D3000FD058BE496E40197F1F78091F20F806254
:100D40000E94FD0583E592E00197F1F78091F20F93
:100D500080620E94FD05D5CF9091F60F691710F0C3
:100D60006FEF690FE62FF0E0ED51F04F9489890F96
:100D700080680C94FD0541E00E94AA0581E090E0A6
:100D80000895FB0101900020E9F73197AF01461B60
:100D9000570BDC01ED91FC910280F381E02D199459
:100DA000BC0183EE9FE00C94C1064F925F926F925C
:100DB0007F928F929F92AF92BF92CF92DF92EF92EB
:100DC000FF920F931F93CF93DF93CDB7DEB7A19719
:100DD0000FB6F894DEBF0FBECDBF8C016B01770F4D
:100DE000EE08FF08F7FE49C0DC01ED91FC9101908F
:100DF000F081E02D6DE219955C0122273327A901CE
:100E00002C193D094E095F0919A2FE01B1967F0117
:100E10009AE0492E512C612C712CCA01B901A30111
:100E200092010E94EF22605DD7016E937D01211532
:100E300031054105510589F790E080E0109721F0D8
:100E4000BD01C8010E94C1068A0D9B1DA1960FB667
:100E5000F894DEBF0FBECDBFDF91CF911F910F91F0
:100E6000FF90EF90DF90CF90BF90AF909F908F90CA
:100E70007F906F905F904F900895A701960119A2FF
:100E8000FE01B1967F018AE0882E912CA12CB12C15
:100E9000CA01B901A50194010E94EF22605DD7014A
:100EA0006E937D01211531054105510589F790E0CB
:100EB00080E0109759F2BD01C8010E94C106C6CF5B
:100EC000CF93DF93BC0186E49FE00E94D506EC013E
:100ED00069EA74E086E49FE00E94C1068C0F9D1FC2
:100EE000DF91CF910895CF93DF93BC0186E49FE01B
:100EF0000E94C106EC0169EA74E086E49FE00E946A
:100F0000C1068C0F9D1FDF91CF9108952F923F92C4
:100F10004F925F926F927F928F929F92AF92BF9209
:100F2000CF92DF92EF92FF920F931F93CF93DF93B5
:100F3000CDB7DEB7AC970FB6F894DEBF0FBECDBF0E
:100F400022E33DE03A83298382E39BE098A78FA3C5
:100F50009C838B833A87298710E40E94080460935E
:100F6000320F7093330F8093340F9093350F80912D
:100F70007B00877F80937B0010937C0080917A00B8
:100F8000806480937A0080917A0086FDFCCF809106
:100F9000780060917900762F682F072E000C880B5F
:100FA000990B0E94F820A985BA856D937D938D9346
:100FB0009D93BA87A987EB81FC81119211921192BE
:100FC0001192FC83EB830E940804AB01BC012091C9
:100FD000400F3091410F8091320F9091330FA091CB
:100FE000340FB091350F820F931FA11DB11D48170B
:100FF00059076A077B0738F329853A8522533F4012
:1010000009F0ABCF02E31FE0E2E3EE2EEDE0FE2EAF
:101010001C821B82AB81BC81BD0190E080E00E94FC
:10102000F62020E030E04EEF52E40E944E202BEDFF
:101030003FE049EC50E40E94EC210E9449202FE15E
:1010400035E84BEE5EE30E94EC219B01AC0161E7C9
:101050007DE38AE09FE30E94D71F4B015C01AC0156
:101060009B01F70160817181828193810E94EC2153
:10107000D7016D937D938D939D937D01A50194017F
:10108000F80192918291729162918F010E94EC21FC
:10109000D8016D937D938D939C931397EB81FC8185
:1010A0003196FC83EB83E034F10509F0B3CFE2E342
:1010B000FDE050E040E090E080E01DC04817590797
:1010C000C8F4DC01AA0FBB1FAA0FBB1FAE5CB24F56
:1010D0000481158126813781CD90DD90ED90FC90C3
:1010E0001397C482D582E682F7820D931D932D93C8
:1010F0003C931397349620E430E08217930728F04E
:10110000821B930B36952795F8CF820F931F4F5F65
:101110005F4F4F37510591F6198A1A8A1B8A1C8A2C
:101120001B8E1C8EF0E8FD8F2FEB2E8F81E090E060
:101130009E838D831C821B82AD81BE81AA0FBB1F43
:10114000BAA7A9A7ED81FE8123E0EE0FFF1F2A9524
:10115000E1F7FEA3EDA32D813E81220F331F220F65
:10116000331F3CA32BA382E39BE0988F8F8BA2E3DA
:10117000BDE0BE8BAD8B412C512C320110E000E064
:10118000B0E8BF83EFE3E8871C861B862B853C8590
:101190008D819E812817390709F4FEC0AF89B88D6B
:1011A000BCA7ABA72D883E883A8F298FE98DFA8D91
:1011B000E038F10508F0A5C02BA13CA1220D331D9C
:1011C0003AA329A3D9018D909D90AD90BC90EBA13D
:1011D000FCA12BA53CA5E20FF31FF8A3EF8F8081A4
:1011E0009181A281B3818D879E87AF87B88B212F94
:1011F000302F4F815885C501B4010E94EC216B014D
:101200007C01A30192016D857E858F8598890E945E
:10121000EC219B01AC01C701B6010E94D71F6B01F5
:101220007C012D853E854F855889612F702F8F81D8
:1012300098850E94EC216D877E878F87988BA3010C
:101240009201C501B4010E94EC219B01AC016D85A6
:101250007E858F8598890E94D81F4B015C01A7016C
:101260009601F10160817181828193810E94D71F73
:10127000A9A1BAA16D937D938D939C931397A5011A
:101280009401EBA5FCA560817181828193810E940C
:10129000D71FAF8DB8A16D937D938D939C931397BA
:1012A000A7019601F10160817181828193810E9481
:1012B000D81FD1016D937D938D939C931397A501B6
:1012C0009401EBA5FCA560817181828193810E94CC
:1012D000D81FABA5BCA56D937D938D939C9313975D
:1012E000E98DFA8D29A53AA5E20FF31FFA8FE98F50
:1012F0008DA19EA1280E391EA80FB91FBCA7ABA7B0
:1013000055CF2B8D3C8D4D8D5E8D612F702F8F8134
:1013100098850E94EC216B017C01A30192016989EF
:101320007A898B899C890E94EC219B01AC01C701C1
:10133000B6010E94D71F6B017C012B8D3C8D4D8D1A
:101340005E8DC301B2010E94EC214B015C01212F93
:10135000302F4F81588569897A898B899C890E94B1
:10136000EC21A50194010E94D81F2B013C01AB8503
:10137000BC851196BC87AB87ED89FE893496FE8BC0
:10138000ED8B2F89388D2C5F3F4F388F2F8B1C2D85
:101390000D2DEF82F886FACEEB81FC81E252FD4FF3
:1013A0004591559165917491EB81FC81E656FD4F15
:1013B00085919591A591B4918B8F9C8FAD8FBE8FA8
:1013C000DB01CA01B058898B9A8BAB8BBC8BAB818C
:1013D000BC811496BC83AB83E9A5FAA5FE83ED839B
:1013E0005C9709F0A9CE22E33DE03C832B83AB81DF
:1013F000BC816D917D918D919D91BC83AB83EFA15B
:10140000F8A5C190D190E190F190F8A7EFA39B01CE
:10141000AC010E94EC214B015C01A7019601C701C0
:10142000B6010E94EC219B01AC01C501B4010E94F0
:10143000D81F0E945F22EB81FC8134976083718307
:101440008283938329853A858B819C81281739076C
:1014500071F61C821B82912C812C712C612C01E075
:1014600010E0A981BA816D917D918D919D91BA8392
:10147000A983CC901196DC9011971296EC9012975C
:101480001396FC905801BFEFAB1ABB0A9601A70157
:101490000E94442087FF1CC0E981FA8124813581A4
:1014A00046815781B601C7010E94E721181684F4CE
:1014B000292D382D472D562DB601C7010E94E72151
:1014C000181634F41C830B839C2C8D2C7E2C6F2CD3
:1014D00085010134110529F60B811C810150104C46
:1014E000000F111F000F111FF801EE5CF24F8080FA
:1014F0009180A280B380F801E65CF24FC080D18079
:10150000E280F380A7019601C501B4010E94D71FB4
:101510002B013C01F801EA5CF24F6081718182810C
:1015200093819B01AC010E94D81F9B01AC01C501B6
:10153000B4010E94D71FA70196010E94D81F9B01EA
:10154000AC01C301B2010E944E2020E030E040E037
:101550005FE30E94EC216B017C012B813C81B9018E
:1015600090E080E00E94F6209B01AC01C701B6012B
:101570000E94D81F20E030E040E055E40E94EC21BA
:10158000AB81BC81A034B10559F120E030E04EEFD1
:1015900052E40E944E200E94C0207093430F60933B
:1015A000420F6AE070E080E090E00E942D04AC966B
:1015B0000FB6F894DEBF0FBECDBFDF91CF911F9164
:1015C0000F91FF90EF90DF90CF90BF90AF909F90E2
:1015D0008F907F906F905F904F903F902F900895E5
:1015E00020E030E040E05CE30E94EC21D4CF1F9289
:1015F0000F920FB60F9211240BB60F922F933F93B9
:101600004F935F936F937F938F939F93AF93BF930A
:10161000EF93FF9386E49FE00E94BC02FF91EF915D
:10162000BF91AF919F918F917F916F915F914F91FA
:101630003F912F910F900BBE0F900FBE0F901F90F8
:1016400018951F920F920FB60F9211240BB60F929E
:101650002F938F939F93EF93FF93E091560FF09109
:10166000570F8081E0915C0FF0915D0F82FD1DC0EE
:10167000908180915F0F8F5F8F732091600F821731
:1016800041F0E0915F0FF0E0EA5BF04F958F8093BF
:101690005F0FFF91EF919F918F912F910F900BBE54
:1016A0000F900FBE0F901F9018958081F2CF1F9260
:1016B0000F920FB60F9211242F933F938F939F9306
:1016C000AF93BF938091380F9091390FA0913A0F4B
:1016D000B0913B0F3091370F23E0230F2D3758F592
:1016E0000196A11DB11D2093370F8093380F909361
:1016F000390FA0933A0FB0933B0F80913C0F90911C
:101700003D0FA0913E0FB0913F0F0196A11DB11D5D
:1017100080933C0F90933D0FA0933E0FB0933F0FEB
:10172000BF91AF919F918F913F912F910F900FBEDD
:101730000F901F90189526E8230F0296A11DB11D4A
:10174000D2CFE6E4FFE01382128288EE93E0A0E0BD
:10175000B0E084839583A683B7838FE894E0918378
:10176000808385EC90E09587848784EC90E0978770
:10177000868780EC90E0918B808B81EC90E0938B5E
:10178000828B82EC90E0958B848B86EC90E0978B3B
:10179000868B118E128E138E148EE3EEFFE0138271
:1017A000128281EA94E09183808381E184838FEFC8
:1017B000858380E186838FE087838EE080878DE05C
:1017C00081878CE082871386148615861686178695
:1017D00081E00C940B06789484B5826084BD84B556
:1017E000816084BD85B5826085BD85B5816085BD1C
:1017F00080916E00816080936E00109281008091D4
:10180000810082608093810080918100816080935B
:101810008100809180008160809380008091B10080
:1018200084608093B1008091B00081608093B000AB
:1018300080919100826080939100809191008160FD
:1018400080939100809190008160809390008091BE
:10185000A10082608093A1008091A10081608093AB
:10186000A1008091A00081608093A000809121015F
:101870008260809321018091210181608093210108
:101880008091200181608093200180917A008460A2
:1018900080937A0080917A00826080937A008091B0
:1018A0007A00816080937A0080917A0080688093CA
:1018B0007A001092C100E091560FF091570F82E02C
:1018C0008083E091520FF091530F1082E091540FFA
:1018D000F091550F8FEC808310925E0FE0915A0FBC
:1018E000F0915B0F86E08083E091580FF091590FE3
:1018F000808180618083E091580FF091590F808141
:1019000088608083E091580FF091590F8081806842
:101910008083E091580FF091590F80818F7D8083F3
:1019200082E00E940B0688EE91E09093410F809335
:10193000400FCDE6D4E01881229661E0812F0E940D
:10194000D70360E086E30E94D70360E0812F0E9406
:101950004B0384E0CB38D80771F760E080E00E9449
:10196000AC068CEA94E00E94D00661E080E00E9420
:10197000AC068DEB94E00E94D006C1E0D0E06BE6AF
:10198000262E62E0362E7BE7472E72E0572EEBE8DC
:101990006E2EE2E07E2EF7E6EF2EF3E0FF2EA3EEB2
:1019A000CA2EA3E0DA2EBBEF8B2EB3E09B2EE09184
:1019B0000002E053EB3208F0A4C00E2E000CFF0B27
:1019C0008827EA51F34F8F4F0C941123991A1E1B4D
:1019D000A31B281CAD1C341DBB1D421EC91E501F5D
:1019E000810D810D810D810D810D810D810D110DF7
:1019F0009F0D260EAD0E340FBB0F4110C3104511C5
:101A0000C8114B12CE125113D4135714DA145D15AA
:101A1000E3156916EF167517FB17811807198D194D
:101A2000131A80E2809300020E9403060DE614E080
:101A3000F80180810E5F1F4F60E00E944B03F4E0CD
:101A40000B381F07A9F764E670E080E090E00E9481
:101A50002D0459E5A52E54E0B52E0DE614E0F50150
:101A60008081F2E0AF0EB11C61E00E944B036AE09E
:101A700070E080E090E00E942D040A151B0579F7C4
:101A8000D093450FC093440F8091440F9091450F20
:101A90000197B9F50E9486078091420F9091430FFC
:101AA0000E9460078EEC94E00E94730760E080E083
:101AB0000E94AC0680EF94E00E94D0066091420F35
:101AC0007091430F83EE9FE00E94D50660E086E0B0
:101AD0000E94AC0683EF94E00E94D0068091420FF2
:101AE0009091430F825891094297A0F461E080E001
:101AF0000E94AC068EEF94E00E94D00682E48093B0
:101B0000000264E670E080E090E00E942D040E94F4
:101B10003A054DCF86E49FE00E94A60218161906EA
:101B20003CF486E49FE00E94840280930002E9CFA7
:101B300064E670E080E090E00E942D04A5CF0E9452
:101B4000030680E2809300020DE614E0F801808134
:101B50000E5F1F4F60E00E944B03F4E00B381F073D
:101B6000A9F764E670E080E090E00E942D0445E46F
:101B7000A42E44E0B42E09E514E0F5018081F2E0E2
:101B8000AF0EB11C61E00E944B036AE070E080E0A0
:101B900090E00E942D040A151B0579F7D093450F9C
:101BA000C093440F8091440F9091450F019709F025
:101BB000A8CF0E9486078091420F9091430F0E9408
:101BC00060078FE095E00E94730760E080E00E946C
:101BD000AC0680EF94E00E94D0066091420F7091B5
:101BE000430F83EE9FE00E94D50660E086E00E94EE
:101BF000AC0680E395E00E94D0068091420F909160
:101C0000430F84599109439760F461E080E00E949A
:101C1000AC068EEF94E00E94D00683E4809300022D
:101C200070CF86E49FE00E94A602181619063CF4C5
:101C300086E49FE00E9484028093000262CF64E603
:101C400070E080E090E00E942D04ACCF0E9403067B
:101C500080E2809300020DE614E0F80180810E5FBF
:101C60001F4F60E00E944B03F4E00B381F07A9F7F9
:101C700064E670E080E090E00E942D0437E3A32E3C
:101C800034E0B32E05E414E0F5018081F2E0AF0EFC
:101C9000B11C61E00E944B036AE070E080E090E0DC
:101CA0000E942D040A151B0579F7D093450FC093A8
:101CB000440F8091440F9091450F019709F021CF77
:101CC0000E9486078091420F9091430F0E94600707
:101CD0008BE395E00E94730760E080E00E94AC0611
:101CE00080EF94E00E94D0066091420F7091430F04
:101CF00083EE9FE00E94D50660E086E00E94AC067D
:101D00008CE595E00E94D0068091420F9091430FA0
:101D1000875A9109429760F461E080E00E94AC0626
:101D20008EEF94E00E94D00684E480930002E9CE16
:101D300086E49FE00E94A602181619063CF486E489
:101D40009FE00E94840280930002DBCE64E670E094
:101D500080E090E00E942D04ACCF0E94030680E258
:101D6000809300020DE614E0F80180810E5F1F4FA2
:101D700060E00E944B03F4E00B381F07A9F764E60C
:101D800070E080E090E00E942D0423E2A22E24E087
:101D9000B22E07E314E0F5018081F2E0AF0EB11C32
:101DA00061E00E944B036AE070E080E090E00E94F6
:101DB0002D040A151B0579F7D093450FC093440FE6
:101DC0008091440F9091450F019709F09ACE0E949F
:101DD00086078091420F9091430F0E94600787E62B
:101DE00095E00E94730760E080E00E94AC0680EFFF
:101DF00094E00E94D0066091420F7091430F83EEF1
:101E00009FE00E94D50660E086E00E94AC0688E86C
:101E100095E00E94D0068091420F9091430F895B1C
:101E20009109459760F461E080E00E94AC068EEF76
:101E300094E00E94D00685E48093000262CE86E49E
:101E40009FE00E94A602181619063CF486E49FE063
:101E50000E9484028093000254CE64E670E080E029
:101E600090E00E942D04ACCF0E94030680E2809394
:101E700000020DE614E0F80180810E5F1F4F60E064
:101E80000E944B03F4E00B381F07A9F764E670E0EB
:101E900080E090E00E942D049DE0A92E94E0B92EF0
:101EA00003E214E0F5018081F2E0AF0EB11C61E0C5
:101EB0000E944B036AE070E080E090E00E942D04F5
:101EC0000A151B0579F7D093450FC093440F8091F5
:101ED000440F9091450F019709F013CE0E94860799
:101EE0008091420F9091430F0E94600783E995E033
:101EF0000E94730760E080E00E94AC0680EF94E0EF
:101F00000E94D0066091420F7091430F83EE9FE0D4
:101F10000E94D50660E086E00E94AC0684EB95E066
:101F20000E94D0068091420F9091430F8E5C9109E0
:101F3000449760F461E080E00E94AC068EEF94E08C
:101F40000E94D00686E480930002DBCD86E49FE009
:101F50000E94A602181619063CF486E49FE00E942F
:101F6000840280930002CDCD64E670E080E090E0D2
:101F70000E942D04ACCF0E94030680E280930002F1
:101F80000DE614E0F80180810E5F1F4F60E00E94B3
:101F90004B03F4E00B381F07A9F764E670E080E01C
:101FA00090E00E942D040BEF13E08DE0A82E84E05A
:101FB000B82EF80180810E5F1F4F61E00E944B0335
:101FC0006AE070E080E090E00E942D04A016B10667
:101FD00081F7D093450FC093440F8091440F9091A7
:101FE000450F019709F08DCD0E9486078091420F21
:101FF0009091430F0E9460078FEB95E00E9473075A
:1020000060E080E00E94AC0680EF94E00E94D00681
:102010006091420F7091430F83EE9FE00E94D506BE
:1020200060E086E00E94AC0680EE95E00E94D0065B
:102030008091420F9091430F825E9109439760F423
:1020400061E080E00E94AC068EEF94E00E94D00632
:1020500087E48093000255CD86E49FE00E94A602AB
:10206000181619063CF486E49FE00E9484028093CF
:10207000000247CD64E670E080E090E00E942D040D
:10208000ACCF0E94030680E2809300020DE614E0CC
:10209000F80180810E5F1F4F60E00E944B03F4E067
:1020A0000B381F07A9F764E670E080E090E00E941B
:1020B0002D0403EE13E0F80180810E5F1F4F61E0F5
:1020C0000E944B036AE070E080E090E00E942D04E3
:1020D0008016910681F7D093450FC093440F8091ED
:1020E000440F9091450F019709F00BCD0E94860790
:1020F0008091420F9091430F0E9460078BEE95E014
:102100000E94730760E080E00E94AC0680EF94E0DC
:102110000E94D0066091420F7091430F83EE9FE0C2
:102120000E94D50660E086E00E94AC068CE096E056
:102130000E94D0068091420F9091430F855F9109D4
:10214000439760F461E080E00E94AC068EEF94E07B
:102150000E94D00688E480930002D3CC86E49FE0FE
:102160000E94A602181619063CF486E49FE00E941D
:10217000840280930002C5CC64E670E080E090E0C9
:102180000E942D04ACCF0E94030680E280930002DF
:102190000DE614E0F80180810E5F1F4F60E00E94A1
:1021A0004B03F4E00B381F07A9F764E670E080E00A
:1021B00090E00E942D040DEC13E0F80180810E5F89
:1021C0001F4F61E00E944B036AE070E080E090E006
:1021D0000E942D04C016D10681F7D093450FC093FD
:1021E000440F8091440F9091450F019709F089CCDD
:1021F0000E9486078091420F9091430F0E946007D2
:1022000087E196E00E94730760E080E00E94AC06E0
:1022100080EF94E00E94D0066091420F7091430FCE
:1022200083EE9FE00E94D50660E086E00E94AC0647
:1022300088E396E00E94D0068091420F9091430F70
:1022400088509140459760F461E080E00E94AC06C0
:102250008EEF94E00E94D00689E48093000251CC76
:1022600086E49FE00E94A602181619063CF486E454
:102270009FE00E9484028093000243CC64E670E0F9
:1022800080E090E00E942D04ACCF0E94030680E223
:10229000809300020DE614E0F80180810E5F1F4F6D
:1022A00060E00E944B03F4E00B381F07A9F764E6D7
:1022B00070E080E090E00E942D040BEB13E0F80149
:1022C00080810E5F1F4F61E00E944B036AE070E067
:1022D00080E090E00E942D04F3E00D3C1F0779F7A9
:1022E000D093450FC093440F8091440F9091450FB8
:1022F000019709F006CC0E9486078091420F9091C9
:10230000430F0E94600783E496E00E94730760E039
:1023100080E00E94AC0680EF94E00E94D0066091BD
:10232000420F7091430F83EE9FE00E94D50660E05C
:1023300086E00E94AC0684E696E00E94D00680917A
:10234000420F9091430F8D519140449760F461E0AA
:1023500080E00E94AC068EEF94E00E94D0068AE4F2
:1023600080930002CECB86E49FE00E94A60218165E
:1023700019063CF486E49FE00E94840280930002E8
:10238000C0CB64E670E080E090E00E942D04ACCF0A
:102390000E94030680E2809300020DE614E0F8013B
:1023A00080810E5F1F4F60E00E944B03F4E00B380A
:1023B0001F07A9F764E670E080E090E00E942D041A
:1023C0000DEA13E0F80180810E5F1F4F61E00E946B
:1023D0004B036AE070E080E090E00E942D04F3E09F
:1023E0000B3B1F0779F7D093450FC093440F8091A3
:1023F000440F9091450F019709F083CB0E94860707
:102400008091420F9091430F0E9460078FE696E003
:102410000E94730760E080E00E94AC0680EF94E0C9
:102420000E94D0066091420F7091430F83EE9FE0AF
:102430000E94D50660E086E00E94AC0680E996E046
:102440000E94D0068091420F9091430F815391409A
:10245000429760F461E080E00E94AC068EEF94E069
:102460000E94D0068BE4809300024BCB86E49FE071
:102470000E94A602181619063CF486E49FE00E940A
:102480008402809300023DCB64E670E080E090E03F
:102490000E942D04ACCF0E94030680E280930002CC
:1024A0000DE614E0F80180810E5F1F4F60E00E948E
:1024B0004B03F4E00B381F07A9F764E670E080E0F7
:1024C00090E00E942D0409E913E0F80180810E5F7D
:1024D0001F4F61E00E944B036AE070E080E090E0F3
:1024E0000E942D04F3E00D3A1F0779F7D093450FB2
:1024F000C093440F8091440F9091450F019709F0CC
:1025000000CB0E9486078091420F9091430F0E945A
:1025100060078BE996E00E94730760E080E00E940C
:10252000AC0680EF94E00E94D0066091420F70915B
:10253000430F83EE9FE00E94D50660E086E00E9494
:10254000AC068CEB96E00E94D0068091420F9091F1
:10255000430F83549140439760F461E080E00E9410
:10256000AC068EEF94E00E94D0068CE480930002CB
:10257000C8CA86E49FE00E94A602181619063CF419
:1025800086E49FE00E94840280930002BACA64E657
:1025900070E080E090E00E942D04ACCF0E94030622
:1025A00080E2809300020DE614E0F80180810E5F66
:1025B0001F4F60E00E944B03F4E00B381F07A9F7A0
:1025C00064E670E080E090E00E942D040BE813E0E8
:1025D000F80180810E5F1F4F61E00E944B036AE0AB
:1025E00070E080E090E00E942D04F3E009391F07BD
:1025F00079F7D093450FC093440F8091440F909189
:10260000450F019709F07DCA0E9486078091420F0D
:102610009091430F0E94600787EC96E00E94730739
:1026200060E080E00E94AC0680EF94E00E94D0065B
:102630006091420F7091430F83EE9FE00E94D50698
:1026400060E086E00E94AC0688EE96E00E94D0062C
:102650008091420F9091430F86559140449760F4CA
:1026600061E080E00E94AC068EEF94E00E94D0060C
:102670008DE48093000245CA86E49FE00E94A60292
:10268000181619063CF486E49FE00E9484028093A9
:10269000000237CA64E670E080E090E00E942D04FA
:1026A000ACCF0E94030680E2809300020DE614E0A6
:1026B000F80180810E5F1F4F60E00E944B03F4E041
:1026C0000B381F07A9F764E670E080E090E00E94F5
:1026D0002D0405E713E0F80180810E5F1F4F61E0D4
:1026E0000E944B036AE070E080E090E00E942D04BD
:1026F000F3E00B381F0779F7D093450FC093440FD1
:102700008091440F9091450F019709F0FAC90E94FA
:1027100086078091420F9091430F0E94600783EFDC
:1027200096E00E94730760E080E00E94AC0680EFB4
:1027300094E00E94D0066091420F7091430F83EEA7
:102740009FE00E94D50660E086E00E94AC0684E12E
:1027500097E00E94D0068091420F9091430F8A56D5
:102760009140459760F461E080E00E94AC068EEFF6
:1027700094E00E94D0068EE480930002C2C986E4F1
:102780009FE00E94A602181619063CF486E49FE01A
:102790000E94840280930002B4C964E670E080E085
:1027A00090E00E942D04ACCF0E94030680E280934B
:1027B00000020DE614E0F80180810E5F1F4F60E01B
:1027C0000E944B03F4E00B381F07A9F764E670E0A2
:1027D00080E090E00E942D0407E613E0F80180817C
:1027E0000E5F1F4F61E00E944B036AE070E080E0E3
:1027F00090E00E942D04F3E005371F0779F7D0938E
:10280000450FC093440F8091440F9091450F01975D
:1028100009F077C90E9486078091420F9091430F7B
:102820000E9460078FE197E00E94730760E080E0FC
:102830000E94AC0680EF94E00E94D0066091420FA7
:102840007091430F83EE9FE00E94D50660E086E022
:102850000E94AC0680E497E00E94D0068091420F6F
:102860009091430F8F579140439760F461E080E06F
:102870000E94AC068EEF94E00E94D0068FE4809315
:1028800000023FC986E49FE00E94A60218161906BE
:102890003CF486E49FE00E9484028093000231C9E8
:1028A00064E670E080E090E00E942D04ACCF0E94CE
:1028B000030680E2809300020DE614E0F8018081B7
:1028C0000E5F1F4F60E00E944B03F4E00B381F07C0
:1028D000A9F764E670E080E090E00E942D0407E52F
:1028E00013E0F80180810E5F1F4F61E00E944B03EF
:1028F0006AE070E080E090E00E942D04F3E007368B
:102900001F0779F7D093450FC093440F8091440F70
:102910009091450F019709F0F4C80E9486078091B5
:10292000420F9091430F0E9460078BE497E00E9452
:10293000730760E080E00E94AC0680EF94E00E94A4
:10294000D0066091420F7091430F83EE9FE00E948A
:10295000D50660E086E00E94AC068CE697E00E9417
:10296000D0068091420F9091430F82599140429737
:1029700060F461E080E00E94AC068EEF94E00E947B
:10298000D00680E580930002BCC886E49FE00E94E8
:10299000A602181619063CF486E49FE00E94840201
:1029A00080930002AEC864E670E080E090E00E9490
:1029B0002D04ACCF0E94030680E2809300020DE656
:1029C00014E0F80180810E5F1F4F60E00E944B030E
:1029D000F4E00B381F07A9F764E670E080E090E0B0
:1029E0000E942D0403E413E0F80180810E5F1F4F65
:1029F00061E00E944B036AE070E080E090E00E949A
:102A00002D04F3E007351F0779F7D093450FC093E6
:102A1000440F8091440F9091450F019709F071C8C0
:102A20000E9486078091420F9091430F0E94600799
:102A300087E797E00E94730760E080E00E94AC06A1
:102A400080EF94E00E94D0066091420F7091430F96
:102A500083EE9FE00E94D50660E086E00E94AC060F
:102A600088E997E00E94D0068091420F9091430F31
:102A7000845A9140449760F461E080E00E94AC0683
:102A80008EEF94E00E94D00681E58093000239C861
:102A900086E49FE00E94A602181619063CF486E41C
:102AA0009FE00E948402809300022BC864E670E0DD
:102AB00080E090E00E942D04ACCF0E94030680E2EB
:102AC000809300020DE614E0F80180810E5F1F4F35
:102AD00060E00E944B03F4E00B381F07A9F764E69F
:102AE00070E080E090E00E942D0401E313E0F80123
:102AF00080810E5F1F4F61E00E944B036AE070E02F
:102B000080E090E00E942D04F3E003341F0779F782
:102B1000D093450FC093440F8091440F9091450F7F
:102B2000019711F00C94810D0E9486078091420F4D
:102B30009091430F0E94600783EA97E00E94730719
:102B400060E080E00E94AC0680EF94E00E94D00636
:102B50006091420F7091430F83EE9FE00E94D50673
:102B600060E086E00E94AC0684EC97E00E94D0060C
:102B70008091420F9091430F885B9140459768F494
:102B800061E080E00E94AC068EEF94E00E94D006E7
:102B900082E5809300020C94810D86E49FE00E9400
:102BA000A6021816190644F486E49FE00E948402E7
:102BB000809300020C94810D64E670E080E090E068
:102BC0000E942D04A9CF0E94030680E28093000298
:102BD0000DE614E0F80180810E5F1F4F60E00E9457
:102BE0004B03F4E00B381F07A9F764E670E080E0C0
:102BF00090E00E942D040BE113E0F80180810E5F4C
:102C00001F4F61E00E944B036AE070E080E090E0BB
:102C10000E942D04F3E001331F0779F7D093450F8D
:102C2000C093440F8091440F9091450F019711F08C
:102C30000C94810D0E9486078091420F9091430F62
:102C40000E9460078FEC97E00E94730760E080E0CD
:102C50000E94AC0680EF94E00E94D0066091420F83
:102C60007091430F83EE9FE00E94D50660E086E0FE
:102C70000E94AC0680EF97E00E94D0068091420F40
:102C80009091430F8D5C9140449768F461E080E03F
:102C90000E94AC068EEF94E00E94D00683E58093FC
:102CA00000020C94810D86E49FE00E94A602181693
:102CB000190644F486E49FE00E9484028093000297
:102CC0000C94810D64E670E080E090E00E942D0499
:102CD000A9CF0E94030680E2809300020DE614E073
:102CE000F80180810E5F1F4F60E00E944B03F4E00B
:102CF0000B381F07A9F764E670E080E090E00E94BF
:102D00002D0409E013E0F80180810E5F1F4F61E0A0
:102D10000E944B036AE070E080E090E00E942D0486
:102D2000F3E00B311F0779F7D093450FC093440FA1
:102D30008091440F9091450F019711F00C94810DF3
:102D40000E9486078091420F9091430F0E94600776
:102D50008BEF97E00E94730760E080E00E94AC0672
:102D600080EF94E00E94D0066091420F7091430F73
:102D700083EE9FE00E94D50660E086E00E94AC06EC
:102D80008CE198E00E94D0068091420F9091430F11
:102D9000815E9140419768F461E080E00E94AC065A
:102DA0008EEF94E00E94D00684E5809300020C949C
:102DB000810D86E49FE00E94A6021816190644F4CD
:102DC00086E49FE00E948402809300020C94810DAF
:102DD00064E670E080E090E00E942D04A9CF0E949C
:102DE000030680E2809300020DE614E0F801808182
:102DF0000E5F1F4F60E00E944B03F4E00B381F078B
:102E0000A9F764E670E080E090E00E942D040BEFEB
:102E100012E0F80180810E5F1F4F61E00E944B03BA
:102E20006AE070E080E090E00E942D04F3E0093059
:102E30001F0779F7D093450FC093440F8091440F3B
:102E40009091450F019711F00C94810D0E94860717
:102E50008091420F9091430F0E94600787E298E0B3
:102E60000E94730760E080E00E94AC0680EF94E06F
:102E70000E94D0066091420F7091430F83EE9FE055
:102E80000E94D50660E086E00E94AC0688E498E0E7
:102E90000E94D0068091420F9091430F825F914033
:102EA000459768F461E080E00E94AC068EEF94E004
:102EB0000E94D00685E5809300020C94810D86E483
:102EC0009FE00E94A6021816190644F486E49FE0CB
:102ED0000E948402809300020C94810D64E670E0ED
:102EE00080E090E00E942D04A9CF0E94030680E2BA
:102EF000809300020DE614E0F80180810E5F1F4F01
:102F000060E00E944B03F4E00B381F07A9F764E66A
:102F100070E080E090E00E942D0405EE12E0F801E0
:102F200080810E5F1F4F61E00E944B036AE070E0FA
:102F300080E090E00E942D04F2E00B3F1F0779F73C
:102F4000D093450FC093440F8091440F9091450F4B
:102F5000019711F00C94810D0E9486078091420F19
:102F60009091430F0E94600783E598E00E947307E9
:102F700060E080E00E94AC0680EF94E00E94D00602
:102F80006091420F7091430F83EE9FE00E94D5063F
:102F900060E086E00E94AC0684E798E00E94D006DC
:102FA0008091420F9091430F87509240449768F46C
:102FB00061E080E00E94AC068EEF94E00E94D006B3
:102FC00086E5809300020C94810D86E49FE00E94C8
:102FD000A6021816190644F486E49FE00E948402B3
:102FE000809300020C94810D64E670E080E090E034
:102FF0000E942D04A9CF0E94030680E28093000264
:103000000DE614E0F80180810E5F1F4F60E00E9422
:103010004B03F4E00B381F07A9F764E670E080E08B
:1030200090E00E942D0403ED12E0F80180810E5F14
:103030001F4F61E00E944B036AE070E080E090E087
:103040000E942D04F2E0053E1F0779F7D093450F4B
:10305000C093440F8091440F9091450F019711F058
:103060000C94810D0E9486078091420F9091430F2E
:103070000E9460078FE798E00E94730760E080E09D
:103080000E94AC0680EF94E00E94D0066091420F4F
:103090007091430F83EE9FE00E94D50660E086E0CA
:1030A0000E94AC0680EA98E00E94D0068091420F10
:1030B0009091430F8C519240439768F461E080E017
:1030C0000E94AC068EEF94E00E94D00687E58093C4
:1030D00000020C94810D86E49FE00E94A60218165F
:1030E000190644F486E49FE00E9484028093000263
:1030F0000C94810D64E670E080E090E00E942D0465
:10310000A9CF0E94030680E2809300020DE614E03E
:10311000F80180810E5F1F4F60E00E944B03F4E0D6
:103120000B381F07A9F764E670E080E090E00E948A
:103130002D040DEB12E0F80180810E5F1F4F61E05E
:103140000E944B036AE070E080E090E00E942D0452
:10315000F2E0033D1F0779F7D093450FC093440F6A
:103160008091440F9091450F019711F00C94810DBF
:103170000E9486078091420F9091430F0E94600742
:103180008BEA98E00E94730760E080E00E94AC0642
:1031900080EF94E00E94D0066091420F7091430F3F
:1031A00083EE9FE00E94D50660E086E00E94AC06B8
:1031B0008CEC98E00E94D0068091420F9091430FD2
:1031C0008F529240439768F461E080E00E94AC0621
:1031D0008EEF94E00E94D00688E5809300020C9464
:1031E000810D86E49FE00E94A6021816190644F499
:1031F00086E49FE00E948402809300020C94810D7B
:1032000064E670E080E090E00E942D04A9CF0E9467
:10321000030680E2809300020DE614E0F80180814D
:103220000E5F1F4F60E00E944B03F4E00B381F0756
:10323000A9F764E670E080E090E00E942D040BEABC
:1032400012E0F80180810E5F1F4F61E00E944B0386
:103250006AE070E080E090E00E942D04F2E00D3B17
:103260001F0779F7D093450FC093440F8091440F07
:103270009091450F019711F00C94810D0E948607E3
:103280008091420F9091430F0E94600787ED98E074
:103290000E94730760E080E00E94AC0680EF94E03B
:1032A0000E94D0066091420F7091430F83EE9FE021
:1032B0000E94D50660E086E00E94AC0688EF98E0A8
:1032C0000E94D0068091420F9091430F8254924009
:1032D000439768F461E080E00E94AC068EEF94E0D2
:1032E0000E94D00689E5809300020C94810D86E44B
:1032F0009FE00E94A6021816190644F486E49FE097
:103300000E948402809300020C94810D64E670E0B8
:1033100080E090E00E942D04A9CF0E94030680E285
:10332000809300020DE614E0F80180810E5F1F4FCC
:1033300060E00E944B03F4E00B381F07A9F764E636
:1033400070E080E090E00E942D040DE912E0F801A9
:1033500080810E5F1F4F61E00E944B036AE070E0C6
:1033600080E090E00E942D04F2E00B3A1F0779F70D
:10337000D093450FC093440F8091440F9091450F17
:10338000019711F00C94810D0E9486078091420FE5
:103390009091430F0E94600783E099E00E947307B9
:1033A00060E080E00E94AC0680EF94E00E94D006CE
:1033B0006091420F7091430F83EE9FE00E94D5060B
:1033C00060E086E00E94AC0684E299E00E94D006AC
:1033D0008091420F9091430F85559240459768F434
:1033E00061E080E00E94AC068EEF94E00E94D0067F
:1033F0008AE5809300020C94810D86E49FE00E9490
:10340000A6021816190644F486E49FE00E9484027E
:10341000809300020C94810D64E670E080E090E0FF
:103420000E942D04A9CF0E94030680E2809300022F
:103430000DE614E0F80180810E5F1F4F60E00E94EE
:103440004B03F4E00B381F07A9F764E670E080E057
:1034500090E00E942D040BE812E0F80180810E5FDD
:103460001F4F61E00E944B036AE070E080E090E053
:103470000E942D04F2E00D391F0779F7D093450F14
:10348000C093440F8091440F9091450F019711F024
:103490000C94810D0E9486078091420F9091430FFA
:1034A0000E9460078FE299E00E94730760E080E06D
:1034B0000E94AC0680EF94E00E94D0066091420F1B
:1034C0007091430F83EE9FE00E94D50660E086E096
:1034D0000E94AC0680E599E00E94D0068091420FE0
:1034E0009091430F8A569240449768F461E080E0DF
:1034F0000E94AC068EEF94E00E94D00681E4809397
:1035000000020C94810D86E49FE00E94A60218162A
:10351000190644F486E49FE00E948402809300022E
:103520000C94810D64E670E080E090E00E942D0430
:10353000A9CF0E94030680E2809300020DE614E00A
:10354000F80180810E5F1F4F60E00E944B03F4E0A2
:103550000B381F07A9F764E670E080E090E00E9456
:103560002D0407E513E0F80180810E5F1F4F61E035
:103570000E944B036AE070E080E090E00E942D041E
:10358000E016F10681F7D093450FC093440F809168
:10359000440F9091450F019711F00C94810D0E94FA
:1035A00086078091420F9091430F0E9460078BE540
:1035B00099E00E94730760E080E00E94AC0680EF13
:1035C00094E00E94D0066091420F7091430F83EE09
:1035D0009FE00E94D50660E086E00E94AC068FE77F
:1035E00099E00E94D0068091420F9091430F8E5730
:1035F0009240429768F461E080E00E94AC068EEF52
:1036000094E00E94D00681E3809300020C94810D27
:1036100086E49FE00E94A6021816190644F486E488
:103620009FE00E948402809300020C94810D64E666
:1036300070E080E090E00E942D04A9CF0E94030674
:1036400080E2809300020DE614E0F80180810E5FB5
:103650001F4F60E00E944B03F4E00B381F07A9F7EF
:1036600064E670E080E090E00E942D040BE712E039
:10367000F80180810E5F1F4F61E00E944B036AE0FA
:1036800070E080E090E00E942D046016710681F7E2
:10369000D093450FC093440F8091440F9091450FF4
:1036A000019711F00C94810D0E9486078091420FC2
:1036B0009091430F0E9460078AE899E00E94730787
:1036C00060E080E00E94AC0680EF94E00E94D006AB
:1036D0006091420F7091430F83EE9FE00E94D506E8
:1036E00060E086E00E94AC068DEA99E00E94D00678
:1036F0008091420F9091430F80599240439768F414
:1037000061E080E00E94AC068EEF94E00E94D0065B
:1037100082E3809300020C94810D86E49FE00E9476
:10372000A6021816190644F486E49FE00E9484025B
:10373000809300020C94810D64E670E080E090E0DC
:103740000E942D04A9CF0E94030680E2809300020C
:103750000DE614E0F80180810E5F1F4F60E00E94CB
:103760004B03F4E00B381F07A9F764E670E080E034
:1037700090E00E942D040BE612E0F80180810E5FBC
:103780001F4F61E00E944B036AE070E080E090E030
:103790000E942D044016510681F7D093450FC09327
:1037A000440F8091440F9091450F019711F00C94B4
:1037B000810D0E9486078091420F9091430F0E94D5
:1037C000600788EB99E00E94730760E080E00E9448
:1037D000AC0680EF94E00E94D0066091420F709199
:1037E000430F83EE9FE00E94D50660E086E00E94D2
:1037F000AC068BED99E00E94D0068091420F90912B
:10380000430F835A9240449768F461E080E00E943D
:10381000AC068EEF94E00E94D00683E38093000212
:103820000C94810D86E49FE00E94A60218161906EA
:1038300044F486E49FE00E948402809300020C948A
:10384000810D64E670E080E090E00E942D04A9CF35
:103850000E94030680E2809300020DE614E0F80166
:1038600080810E5F1F4F60E00E944B03F4E00B3835
:103870001F07A9F764E670E080E090E00E942D0445
:103880000DE512E0F80180810E5F1F4F61E00E949C
:103890004B036AE070E080E090E00E942D04201667
:1038A000310681F7D093450FC093440F8091440FA8
:1038B0009091450F019711F00C94810D0E9486079D
:1038C0008091420F9091430F0E94600786EE99E02D
:1038D0000E94730760E080E00E94AC0680EF94E0F5
:1038E0000E94D0066091420F7091430F83EE9FE0DB
:1038F0000E94D50660E086E00E94AC068BE09AE06C
:103900000E94D0068091420F9091430F875B9240B6
:10391000459768F461E080E00E94AC068EEF94E089
:103920000E94D00684E3809300020C94810D86E40B
:103930009FE00E94A6021816190644F486E49FE050
:103940000E948402809300020C94810D64E670E072
:1039500080E090E00E942D04A9CF0E94030680E23F
:10396000809300020DE614E0F80180810E5F1F4F86
:1039700060E00E944B03F4E00B381F07A9F764E6F0
:1039800070E080E090E00E942D040DE412E0F80168
:1039900080810E5F1F4F61E00E944B036AE070E080
:1039A00080E090E00E942D048DE592E08017910761
:1039B00071F7D093450FC093440F8091440F9091BD
:1039C000450F019711F00C94810D0E94860780919C
:1039D000420F9091430F0E94600786E19AE00E9497
:1039E000730760E080E00E94AC0680EF94E00E94E4
:1039F000D0066091420F7091430F83EE9FE00E94CA
:103A0000D50660E086E00E94AC068AE39AE00E9458
:103A1000D0068091420F9091430F8C5C9240439767
:103A200068F461E080E00E94AC068EEF94E00E94B2
:103A3000D00685E3809300020C94810D86E49FE01C
:103A40000E94A6021816190644F486E49FE00E941C
:103A50008402809300020C94810D64E670E080E0A3
:103A600090E00E942D04A9CF0E94030680E280937B
:103A700000020DE614E0F80180810E5F1F4F60E048
:103A80000E944B03F4E00B381F07A9F764E670E0CF
:103A900080E090E00E942D040BE312E0F8018081A9
:103AA0000E5F1F4F61E00E944B036AE070E080E010
:103AB00090E00E942D048FE492E08017910771F747
:103AC000D093450FC093440F8091440F9091450FC0
:103AD000019711F00C94810D0E9486078091420F8E
:103AE0009091430F0E94600785E49AE00E9473075B
:103AF00060E080E00E94AC0680EF94E00E94D00677
:103B00006091420F7091430F83EE9FE00E94D506B3
:103B100060E086E00E94AC0689E69AE00E94D0064A
:103B20008091420F9091430F8F5D9240439768F4CC
:103B300061E080E00E94AC068EEF94E00E94D00627
:103B400086E3809300020C94810D86E49FE00E943E
:103B5000A6021816190644F486E49FE00E94840227
:103B6000809300020C94810D64E670E080E090E0A8
:103B70000E942D04A9CF0E94030680E280930002D8
:103B80000DE614E0F80180810E5F1F4F60E00E9497
:103B90004B03F4E00B381F07A9F764E670E080E000
:103BA00090E00E942D040DE212E0F80180810E5F8A
:103BB0001F4F61E00E944B036AE070E080E090E0FC
:103BC0000E942D048BE392E08017910771F7D09348
:103BD000450FC093440F8091440F9091450F01977A
:103BE00011F00C94810D0E9486078091420F9091F4
:103BF000430F0E94600784E79AE00E94730760E029
:103C000080E00E94AC0680EF94E00E94D0066091B4
:103C1000420F7091430F83EE9FE00E94D50660E053
:103C200086E00E94AC0687E99AE00E94D006809167
:103C3000420F9091430F825F9240449768F461E095
:103C400080E00E94AC068EEF94E00E94D00687E3ED
:103C5000809300020C94810D86E49FE00E94A602EE
:103C60001816190644F486E49FE00E9484028093AB
:103C700000020C94810D64E670E080E090E00E9408
:103C80002D04A9CF0E94030680E2809300020DE676
:103C900014E0F80180810E5F1F4F60E00E944B032B
:103CA000F4E00B381F07A9F764E670E080E090E0CD
:103CB0000E942D040DE112E0F80180810E5F1F4F7C
:103CC00061E00E944B036AE070E080E090E00E94B7
:103CD0002D048DE292E08017910771F7D093450F84
:103CE000C093440F8091440F9091450F019711F0BC
:103CF0000C94810D0E9486078091420F9091430F92
:103D00000E94600782EA9AE00E94730760E080E008
:103D10000E94AC0680EF94E00E94D0066091420FB2
:103D20007091430F83EE9FE00E94D50660E086E02D
:103D30000E94AC0687EC9AE00E94D0068091420F68
:103D40009091430F86509340449768F461E080E07F
:103D50000E94AC068EEF94E00E94D00688E3809328
:103D600000020C94810D86E49FE00E94A6021816C2
:103D7000190644F486E49FE00E94840280930002C6
:103D80000C94810D64E670E080E090E00E942D04C8
:103D9000A9CF0E94030680E2809300020DE614E0A2
:103DA000F80180810E5F1F4F60E00E944B03F4E03A
:103DB0000B381F07A9F764E670E080E090E00E94EE
:103DC0002D040FE012E0F80180810E5F1F4F61E0CB
:103DD0000E944B036AE070E080E090E00E942D04B6
:103DE0008DE192E08017910771F7D093450FC09352
:103DF000440F8091440F9091450F019711F00C945E
:103E0000810D0E9486078091420F9091430F0E947E
:103E1000600782ED9AE00E94730760E080E00E94F4
:103E2000AC0680EF94E00E94D0066091420F709142
:103E3000430F83EE9FE00E94D50660E086E00E947B
:103E4000AC0687EF9AE00E94D0068091420F9091D5
:103E5000430F8A519340439768F461E080E00E94E9
:103E6000AC068EEF94E00E94D00689E380930002B6
:103E70000C94810D86E49FE00E94A6021816190694
:103E800044F486E49FE00E948402809300020C9434
:103E9000810D64E670E080E090E00E942D04A9CFDF
:103EA0000E94030680E2809300020DE614E0F80110
:103EB00080810E5F1F4F60E00E944B03F4E00B38DF
:103EC0001F07A9F764E670E080E090E00E942D04EF
:103ED00001E012E0F80180810E5F1F4F61E00E9457
:103EE0004B036AE070E080E090E00E942D048FE0D8
:103EF00092E08017910771F7D093450FC093440F5C
:103F00008091440F9091450F019711F00C94810D11
:103F10000E9486078091420F9091430F0E94600794
:103F200082E09BE00E94730760E080E00E94AC06A4
:103F300080EF94E00E94D0066091420F7091430F91
:103F400083EE9FE00E94D50660E086E00E94AC060A
:103F500086E29BE00E94D0068091420F9091430F31
:103F60008D529340439768F461E080E00E94AC0674
:103F70008EEF94E00E94D00680E3809300020C94C0
:103F8000810D86E49FE00E94A6021816190644F4EB
:103F900086E49FE00E948402809300020C94810DCD
:103FA00064E670E080E090E00E942D04A9CF5058B4
:103FB000BB27AA270E94EF1F0C9499210E94602121
:103FC00038F00E94672120F039F49F3F19F426F45D
:103FD0000C945D210EF4E095E7FB0C945721E92F3A
:103FE0000E94BE2158F3BA1762077307840795072A
:103FF00020F079F4A6F50C94E0210EF4E0950B2E58
:10400000BA2FA02D0B01B90190010C01CA01A0012A
:104010001124FF27591B99F0593F50F4503E68F185
:104020001A16F040A22F232F342F4427585FF3CFC6
:10403000469537952795A795F0405395C9F77EF497
:104040001F16BA0B620B730B840BBAF09150A1F0E0
:10405000FF0FBB1F661F771F881FC2F70EC0BA0F66
:10406000621F731F841F48F4879577956795B795EE
:10407000F7959E3F08F0B0CF9395880F08F09927E9
:10408000EE0F9795879508950E94332108F481E0FB
:1040900008950E947021E3950C94AA210E94622049
:1040A0000C9499210E94672158F00E94602140F0F1
:1040B00029F45F3F29F00C94572151110C94E12110
:1040C0000C945D210E94BE2168F39923B1F355231E
:1040D00091F3951B550BBB27AA276217730784071B
:1040E00038F09F5F5F4F220F331F441FAA1FA9F3B1
:1040F00035D00E2E3AF0E0E832D091505040E6959F
:10410000001CCAF72BD0FE2F29D0660F771F881FFF
:10411000BB1F261737074807AB07B0E809F0BB0BF2
:10412000802DBF01FF2793585F4F3AF09E3F510506
:1041300078F00C9457210C94E1215F3FE4F3983E12
:10414000D4F3869577956795B795F7959F5FC9F7EF
:10415000880F911D9695879597F90895E1E0660F70
:10416000771F881FBB1F621773078407BA0720F0E9
:10417000621B730B840BBA0BEE1F88F7E095089552
:104180000E94C7206894B1110C94E12108950E9407
:10419000C62188F09F5798F0B92F9927B751B0F0F2
:1041A000E1F0660F771F881F991F1AF0BA95C9F7BB
:1041B00014C0B13091F00E94E021B1E008950C9458
:1041C000E021672F782F8827B85F39F0B93FCCF30B
:1041D000869577956795B395D9F73EF49095809538
:1041E000709561957F4F8F4F9F4F0895E89409C058
:1041F00097FB3EF490958095709561957F4F8F4F1A
:104200009F4F9923A9F0F92F96E9BB279395F6952F
:10421000879577956795B795F111F8CFFAF4BB0FAD
:1042200011F460FF1BC06F5F7F4F8F4F9F4F16C011
:10423000882311F096E911C0772321F09EE8872F9B
:10424000762F05C0662371F096E8862F70E060E057
:104250002AF09A95660F771F881FDAF7880F9695D0
:10426000879597F90895990F0008550FAA0BE0E874
:10427000FEEF16161706E807F907C0F01216130628
:10428000E407F50798F0621B730B840B950B39F468
:104290000A2661F0232B242B252B21F408950A26CE
:1042A00009F4A140A6958FEF811D811D089597F90E
:1042B0009F6780E870E060E008959FEF80EC0895CC
:1042C00000240A94161617061806090608950024F5
:1042D0000A94121613061406050608950C945D211F
:1042E0000E94C621D8F3E894E0E0BB279F57F0F086
:1042F0002AED3FE049EC06C0EE0FBB0F661F771FAB
:10430000881F28F0B23A62077307840728F0B25A70
:10431000620B730B840BE3959A9572F7803830F437
:104320009A95BB0F661F771F881FD2F790480C9491
:10433000A122092E0394000C11F4882352F0BB0F24
:1043400040F4BF2B11F460FF04C06F5F7F4F8F4FAD
:104350009F4F0895EF93E0FF07C0A2EA2AED3FE0E8
:1043600049EC5FEB0E94EF1F0E9499210F9003948C
:1043700001FC9058E4EEF0E00C94B42257FD905804
:10438000440F551F59F05F3F71F04795880F97FB19
:10439000991F61F09F3F79F08795089512161306D3
:1043A0001406551FF2CF4695F1DF08C01616170602
:1043B0001806991FF1CF8695710561050894089537
:1043C000E894BB2766277727CB0197F908950E94C9
:1043D000332108F48FEF08950E94FF210C94992156
:1043E0000E94602138F00E94672120F0952311F08F
:1043F0000C9457210C945D2111240C94E1210E940E
:10440000BE2170F3959FC1F3950F50E0551F629F39
:10441000F001729FBB27F00DB11D639FAA27F00D1D
:10442000B11DAA1F649F6627B00DA11D661F829F44
:104430002227B00DA11D621F739FB00DA11D621F29
:10444000839FA00D611D221F749F3327A00D611D46
:10445000231F849F600D211D822F762F6A2F112428
:104460009F5750409AF0F1F088234AF0EE0FFF1F5B
:10447000BB1F661F771F881F91505040A9F79E3FB2
:10448000510580F00C9457210C94E1215F3FE4F337
:10449000983ED4F3869577956795B795F795E79508
:1044A0009F5FC1F7FE2B880F911D9695879597F911
:1044B000089519F416F40C945D210C949F220E9427
:1044C000C621B8F39923C9F3B6F39F57550B87FF5D
:1044D0000E94AD220024A0E640EA90018058569543
:1044E000979528F4805C660F771F881F20F02617A9
:1044F0003707480730F4621B730B840B20293129DE
:104500004A2BA69517940794202531254A2758F75A
:10451000660F771F881F20F026173707480730F4EB
:10452000620B730B840B200D311D411DA09581F78B
:10453000B901842F9158880F9695879508959F3FCC
:1045400031F0915020F4879577956795B795880F4E
:10455000911D9695879597F9089591505040660F53
:10456000771F881FD2F708959F938F937F936F9340
:10457000FF93EF939B01AC010E94EC21EF91FF911F
:104580000E94C8222F913F914F915F910C94EC2192
:10459000DF93CF931F930F93FF92EF92DF927B01F4
:1045A0008C01689406C0DA2EEF010E94FF21FE0103
:1045B000E894A5912591359145915591A6F3EF0188
:1045C0000E94EF1FFE019701A801DA9469F7DF90BE
:1045D000EF90FF900F911F91CF91DF910895A1E28D
:1045E0001A2EAA1BBB1BFD010DC0AA1FBB1FEE1F6D
:1045F000FF1FA217B307E407F50720F0A21BB30BB8
:10460000E40BF50B661F771F881F991F1A9469F733
:1046100060957095809590959B01AC01BD01CF018F
:104620000895EE0FFF1F881F8BBF0790F691E02DB6
:064630001994F894FFCF7D
:10463600783B00370003000700080009000A003B2A
:10464600003700030009000500390007000B003B96
:10465600000200030004000500380008003B003794
:10466600003800390005000900030006003B000B76
:1046760000370038000300090005003A000B003738
:10468600003800390004000900030005000B003B58
:104696000007000300090005003A0037003B000749
:1046A60000030039003A0005000A0037003B00020B
:1046B600000300040005003A000A000B003B000658
:1046C600000700030039003A0005000A000B003716
:1046D60000030007000600040005000B0037000376
:1046E6000009000A000600070039003A000B0037EF
:1046F60000380039003A0004000A000900080007E3
:104706000006000B003700380039000500090008D4
:1047160000070006000B003700380039003A000594
:10472600000A0009000800070006000B003B00060F
:1047360000020003000400050006003B00370038B5
:104746000003000800090005003A003A0039003865
:104756000037000B003B0006000700030009000AB3
:10476600003B00370038000400080007000300057E
:10477600000A003A003900380037000B003B0006FB
:10478600000700080003003B003700380039000529
:104796000009000800070039003800370003000947
:1047A60000080007003A003900380037000B000205
:1047B6000006000700080009000A000B0037003851
:1047C6000039003A0005000A000B003700380039AE
:1047D600003A000600020004000A0000000B003B3D
:1047E6000006000200030004003A000B003B00062E
:1047F600000200030004003A0005000A000B00371F
:1048060000380039003A00030006000700080009D6
:10481600000A0006003B000B003700380039003A5A
:104826000005000A0009000800030006003B000B13
:10483600003700380039003A000300080006003B44
:10484600000B00370038000300080039003A000565
:10485600000A003A003900380037000B003B000719
:104866000008000900050006003B00370038003943
:104876000005000A003A003900380037000B003BFB
:104886000007000300090005003A00390038003728
:10489600003B000700080009000A0003000B003770
:1048A60000380039003A003B00020003000400050E
:1048B6000006000700080009000A0000000000DEEC
:1048C60002480275022B03A6028402980200000029
:1048D60000BB06480260045F040D0A002020202069
:1048E6004459534C4558494120202020002020207F
:1048F600202020202A5F2A202020202020007761E7
:104906006974696E6720666F7220667265712D2DF7
:104916002D2D612D2D2D20646174612E2E2E3A00D1
:10492600463A00777467204672512E2E4100465251
:104936004551454E4359204D41544348454400771F
:10494600616974696E6720666F7220667265712090
:104956002D2D2D622D2D2D646174612E2E2E3A0083
:10496600777467204672512E2E420077616974690A
:104976006E6720666F722066726571202D2D632D1D
:104986002D2D20646174612E2E2E3A0077746720D7
:104996004672512E2E430077616974696E672066F0
:1049A6006F722066726571202D2D642D2D2D206469
:1049B6006174612E2E2E3A00777467204672512E4E
:1049C6002E440077616974696E6720666F7220668F
:1049D600726571202D2D652D2D2D20646174612E3B
:1049E6002E2E3A00777467204672512E2E45007798
:1049F600616974696E6720666F72206672657120E0
:104A06002D2D662D2D2D20646174612E2E2E3A00DB
:104A1600777467204672512E2E4600776169746955
:104A26006E6720666F722066726571202D2D672D68
:104A36002D2D20646174612E2E2E3A007774672026
:104A46004672512E2E470077616974696E6720663B
:104A56006F722066726571202D2D682D2D2D2064B4
:104A66006174612E2E2E3A00777467204672512E9D
:104A76002E480077616974696E6720666F722066DA
:104A8600726571202D2D692D2D2D20646174612E86
:104A96002E2E3A00777467204672512E2E490077E3
:104AA600616974696E6720666F722066726571202F
:104AB6002D2D6A2D2D2D20646174612E2E2E3A0027
:104AC600777467204672512E2E4A007761697469A1
:104AD6006E6720666F722066726571202D2D6B2DB4
:104AE6002D2D20646174612E2E2E3A007774672076
:104AF6004672512E2E4B0077616974696E67206687
:104B06006F722066726571202D2D6C2D2D2D2064FF
:104B16006174612E2E2E3A00777467204672512EEC
:104B26002E4C0077616974696E6720666F72206625
:104B3600726571202D2D6D2D2D2D20646174612ED1
:104B46002E2E3A00777467204672512E2E4D00772E
:104B5600616974696E6720666F722066726571207E
:104B66002D2D6E2D2D2D20646174612E2E2E3A0072
:104B7600777467204672512E2E4E007761697469EC
:104B86006E6720666F722066726571202D2D6F2DFF
:104B96002D2D20646174612E2E2E3A0077746720C5
:104BA6004672512E2E4F0077616974696E672066D2
:104BB6006F722066726571202D2D702D2D2D20644B
:104BC6006174612E2E2E3A00777467204672512E3C
:104BD6002E500077616974696E6720666F72206671
:104BE600726571202D2D712D2D2D20646174612E1D
:104BF6002E2E3A00777467204672512E2E5100777A
:104C0600616974696E6720666F72206672657120CD
:104C16002D2D722D2D2D20646174612E2E2E3A00BD
:104C2600777467204672512E2E5200776169746937
:104C36006E6720666F722066726571202D2D732D4A
:104C46002D2D20646174612E2E2E3A007774672014
:104C56004672512E2E530077616974696E6720661D
:104C66006F722066726571202D2D742D2D2D206496
:104C76006174612E2E2E3A00777467204672512E8B
:104C86002E540077616974696E6720666F722066BC
:104C9600726571202D2D752D2D2D20646174612E68
:104CA6002E2E3A00777467204672512E2E550077C5
:104CB600616974696E6720666F722066726571201D
:104CC6002D2D762D2D2D20646174612E2E2E3A0009
:104CD600777467204672512E2E5600776169746983
:104CE6006E6720666F722066726571202D2D772D96
:104CF6002D2D20646174612E2E2E3A007774672064
:104D06004672512E2E570077616974696E67206668
:104D16006F722066726571202D2D782D2D2D2064E1
:104D26006174612E2E2E3A00777467204672512EDA
:104D36002E580077616974696E6720666F72206607
:104D4600726571202D2D792D2D2D20646174612EB3
:104D56002E2E3A00777467204672512E2E59007710
:104D6600616974696E6720666F722066726571206C
:104D76002D2D7A2D2D2D20646174612E2E2E3A0054
:104D8600777467204672512E2E5A007761697469CE
:104D96006E6720666F722066726571202D2D7A65AA
:104DA600726F2D2D2D20646174612E2E2E3A0077A0
:104DB6007467204672512E2E300077616974696ED1
:104DC6006720666F722066726571202D2D6F6E6585
:104DD6002D2D2D20646174612E2E2E3A0077746776
:104DE600204672512E2E310077616974696E6720F4
:104DF600666F722066726571202D2D74776F2D2D6A
:104E06002D20646174612E2E2E3A00777467204639
:104E160072512E2E320077616974696E6720666F53
:104E2600722066726571202D2D74687265652D2D50
:104E36002D20646174612E2E2E3A00777467204609
:104E460072512E2E330077616974696E6720666F22
:104E5600722066726571202D2D666F75722D2D2D4F
:104E660020646174612E2E2E3A0077746720467294
:104E7600512E2E340077616974696E6720666F72F1
:104E86002066726571202D2D666976652D2D2D2083
:104E9600646174612E2E2E3A007774672046725133
:104EA6002E2E350077616974696E6720666F7220F1
:104EB60066726571202D2D7369782D2D2D20646104
:104EC60074612E2E2E3A00777467204672512E2E6C
:104ED600360077616974696E6720666F7220667244
:104EE6006571202D2D736576656E2D2D2D206461DF
:104EF60074612E2E2E3A00777467204672512E2E3C
:104F0600370077616974696E6720666F7220667212
:104F16006571202D2D65696768742D2D2D206461BE
:104F260074612E2E2E3A00777467204672512E2E0B
:104F3600380077616974696E6720666F72206672E1
:104F46006571202D2D6E696E652D2D2D2064617481
:104F5600612E2E2E3A00777467204672512E2E3916
:024F6600000049
:00000001FF
