:020000040000FA
:100000000C94BB010C94EC010C94EC010C94EC01ED
:100010000C94EC010C94EC010C94EC010C94EC01AC
:100020000C94EC010C94EC010C94EC010C94EC019C
:100030000C94EC010C94EC010C94EC010C94EC018C
:100040000C94EC010C941B0C0C94EC010C94EC0142
:100050000C94EC010C94EC010C94EC010C94470B07
:100060000C94EC010C941D0B0C94F30A0C94EC0111
:100070000C94EC010C94EC010C94EC010C94EC014C
:100080000C94ED0B0C94EC010C94EC010C94EC0131
:100090000C94C90A0C949F0A0C94EC010C94EC018A
:1000A0000C94EC010C94EC010C94BF0B0C94EC013F
:1000B0000C94EC010C94EC010C94EC010C94910B5D
:1000C0000C94EC010C94EC010C94EC010C94750A6A
:1000D0000C944B0A0C94EC010C94210A0C94F70933
:1000E0000C94EC010C9486030C946A020C94E202CA
:1000F0000C94CD030C948E0C0C9415020C94A70355
:100100000C94F3100C94C0040C9498030C94BF034B
:100110000C945B020C94D7030C94AD030C94310344
:100120000C94A0030C948C020C9481030C94C903CE
:100130000C949C030C94C5030C94C6070C94BF0448
:100140000C94A4030C94B7030C94D3030C947E0278
:100150000C94B1030C94BB0300407A10F35A00A036
:10016000724E18090010A5D4E80000E87648170080
:1001700000E40B54020000CA9A3B000000E1F505C0
:10018000000080969800000040420F000000A0860A
:1001900001000000102700000000E803000000003C
:1001A0006400000000000A000000000001000000E0
:1001B00000002C76D888DC674F0823DFC1DFAE59FA
:1001C000E1B1B796E5E3E453C63AE651997696E88D
:1001D000E6C28426EB898C9B62ED407C6FFCEFBC11
:1001E0009C9F40F2BAA56FA5F490055A2AF75C933C
:1001F0006B6CF9676DC11BFCE0E40D47FEF520E672
:10020000B500D0ED902E0300943577050080841E54
:10021000080000204E0A000000C80C333333330FAF
:10022000986E12831141EF8D2114893BE65516CF4C
:10023000FEE6DB18D1844B381BF77C1D901DA4BB58
:10024000E424203284725E228100C9F124ECA1E50D
:100250003D27000020002300260029002C002F004D
:100260003200000100000301060109010000210025
:10027000240027002A002D00300033000101000077
:10028000040107010A0100002200250028002B00BC
:100290002E003100340002010000050108010B01AD
:1002A00005050505070508080808020202020A0AF2
:1002B0000808040404040101010101010101030310
:1002C000030303030303040707070C0C0C0C0C0CBB
:1002D0000C0C0202020206060606060606060B0BB8
:1002E0000B0B0B0B0B0B01021020200808102040F9
:1002F00010204080020102010804020101020408EA
:100300001020408080402010080402018004020177
:1003100080402010080402010804020101020408C0
:1003200010204080010204081020408000000A0BC9
:1003300002090C0D0E080703040100000000000074
:1003400000000000000000000000000000000000AD
:10035000000000000000000012111000000000006A
:10036000000000000000000000000000000000008D
:1003700000008E0CF31011241FBECFEFD1E2DEBFC0
:10038000CDBF00E00CBF12E0A0E0B2E0E0EFFEE283
:1003900000E00BBF02C007900D92AC3AB107D9F74D
:1003A00026E0ACEAB2E001C01D92A530B207E1F749
:1003B00011E0CAEBD1E000E006C021970109802FCF
:1003C000FE010E944815C93BD10780E00807A9F744
:1003D0000E94F70D0C9466170C940000FC01A08994
:1003E000B18982E08C93A485B5851C92A685B785DA
:1003F0008FEC8C93108EA489B58986E08C93A289AA
:10040000B3898C9180618C93A289B3898C91886027
:100410008C93A289B3898C9180688C930288F3892C
:10042000E02D80818F7D80830895AF92BF92CF921F
:10043000DF92EF92FF920F931F93CF93DF936C01A4
:100440007B018B01040F151FEB015E01AE18BF0885
:10045000C017D10759F06991D601ED91FC91019037
:10046000F081E02DC6011995892B79F7C501DF913F
:10047000CF911F910F91FF90EF90DF90CF90BF90A1
:10048000AF900895FC01A089B1898C91A689B789A4
:1004900082FD0FC09C91818D8F5F8F73228D82179B
:1004A00049F0A18DAE0FBF2FB11D5D969C93818F3A
:1004B00008958C910895FC01538D448D252F30E0D3
:1004C000842F90E0821B930B541710F0CF96089561
:1004D00001970895FC01918D828D981761F0A28D8E
:1004E000AE0FBF2FB11D5D968C91928D9F5F9F7354
:1004F000928F90E008958FEF9FEF0895FC01918D0A
:10050000828D981731F0828DE80FF11D858D90E076
:1005100008958FEF9FEF0895FC01918D228D892F13
:1005200090E0805C9F4F821B91098F7399270895FB
:100530008CEC92E00E948C0221E0892B09F420E0EF
:10054000822F089589E693E00E948C0221E0892B96
:1005500009F420E0822F089586E094E00E948C0246
:1005600021E0892B09F420E0822F089583EA94E0AA
:100570000E948C0221E0892B09F420E0822F08954B
:10058000FC01A48DA80FB92FB11DA35ABF4F2C9108
:10059000848D90E001968F739927848FA689B789FF
:1005A0002C93A089B1898C91837080648C93938DF6
:1005B000848D981306C00288F389E02D80818F7D99
:1005C00080830895EF92FF920F931F93CF93DF9351
:1005D000EC0181E0888F9B8D8C8D98131AC0E8897F
:1005E000F989808185FF15C09FB7F894EE89FF894E
:1005F0006083E889F98980818370806480839FBFEC
:1006000081E090E0DF91CF911F910F91FF90EF90EB
:100610000895F62E0B8D10E00F5F1F4F0F731127FB
:10062000E02E8C8D8E110CC00FB607FCFACFE88936
:10063000F989808185FFF5CFCE010E94C002F1CFFC
:10064000EB8DEC0FFD2FF11DE35AFF4FF0829FB7AA
:10065000F8940B8FEA89FB8980818062CFCF0C945C
:10066000E202CF93DF93EC01888D8823B9F0AA8949
:10067000BB89E889F9898C9185FD03C0808186FD5D
:100680000DC00FB607FCF7CF8C9185FFF2CF8081AC
:1006900085FFEDCFCE010E94C002E9CFDF91CF915F
:1006A0000895282F30E0F901E45DFC4F9491F901A1
:1006B000EA51FD4F449120563D4FF90124912223E8
:1006C00009F435C0992311F191509231F8F4E92FD2
:1006D000F0E08827E159FC4F8F4F0C944815A00398
:1006E000A403810398039C038603A703AD03B1030E
:1006F000B703BB03BF03C503C9038603CD03D303FD
:10070000D703809180008F7780938000E22FF0E004
:10071000EE0FFF1FEA57FD4FA591B4918FB7F894E4
:10072000EC91611148C040954E234C938FBF0895C2
:10073000809180008F7DE8CF80918000877FE4CF1B
:1007400084B58F7784BDE2CF84B58F7DFBCF809158
:10075000B0008F778093B000D9CF8091B0008F7DAB
:10076000F9CF809190008F7780939000CFCF8091C8
:1007700090008F7DF9CF80919000877FF5CF809199
:10078000A0008F778093A000C1CF8091A0008F7DC3
:10079000F9CF8091A000877FF5CF809120018F77DE
:1007A00080932001B3CF809120018F7DF9CF80917C
:1007B0002001877FF5CF4E2BB8CFCF93DF9390E00A
:1007C000FC01EA51FD4F249180569D4FFC0184911C
:1007D0008823D1F090E0880F991FFC01E459FD4F68
:1007E000A591B491FC01EA57FD4FC591D4916111D7
:1007F0000EC09FB7F8948C91E22FE0958E238C93D6
:100800002881E223E8839FBFDF91CF9108958FB7BE
:10081000F894EC91E22BEC938FBFF6CF3FB7F894AE
:100820008091B5029091B602A091B702B091B80242
:1008300026B5A89B05C02F3F19F00196A11DB11D3B
:100840003FBFBA2FA92F982F8827BC01CD01620F77
:10085000711D811D911D42E0660F771F881F991F32
:100860004A95D1F708958F929F92AF92BF92CF92FF
:10087000DF92EF92FF924B015C010E940E046B012C
:100880007C010E940E046C197D098E099F09683E47
:10089000734081059105A8F321E0821A9108A1080F
:1008A000B10888EEC80E83E0D81EE11CF11C81144B
:1008B0009104A104B10429F7FF90EF90DF90CF904D
:1008C000BF90AF909F908F900895CF938CEC92E063
:1008D0000E948C02181619060CF04AC08CEC92E0AB
:1008E0000E946A02C82F682F8CEC92E00E942F03AE
:1008F000C63471F461E087E00E94510360E086E055
:100900000E94510361E085E00E94510360E00FC046
:10091000CC3489F461E087E00E94510360E086E016
:100920000E94510360E085E00E94510361E084E091
:100930000E945103CBCFC23531F460E087E00E94C2
:10094000510361E0DCCFC53431F460E087E00E9400
:10095000510361E0E4CFC33509F0B8CF60E087E030
:100960000E94510360E086E00E94510360E0CBCF1B
:1009700064E670E080E090E0CF910C943304089539
:1009800090E080E00895CF92DF92EF92FF92CF93B4
:10099000DF93EC01603282E07807CCF5653B7105AE
:1009A00014F064EB70E0898128E830E0281B3109FD
:1009B00087FD3395220F331F220F331F6901330F39
:1009C000EE08FF088A8128E532E0281B310987FDFF
:1009D0003395220F331F220F331F032E000C440BBD
:1009E000550B2C193D094E095F09DB0177FF02C049
:1009F000B0E0A0E00E945B1424EB30E040E050E067
:100A00000E943114C20ED31EE41EF51EB601E88109
:100A1000E03370F5298188E890E0821B910927FD79
:100A20009395880F991F880F991F681779077CF095
:100A30002A8188E592E0821B910927FD9395880F12
:100A4000991F880F991F681779070CF4CB0102973B
:100A5000880F991F4FB7F8942E2F30E0F901EE0F51
:100A6000FF1FE20FF31FE05CFA4F928381834FBFB9
:100A7000DF91CF91FF90EF90DF90CF9008951F937B
:100A8000CF93DF93EC01162F8881803308F04EC09E
:100A900061E0812F0E94DD038881282F30E0F90179
:100AA000EE0FFF1FE20FF31FE05CFA4F1F73608130
:100AB000607C612B608319821A822CE0622F0E9475
:100AC0003C15829FB001112430E020E0AB01420FC1
:100AD000531FFA01EE0FFF1FE40FF51FE05CFA4F02
:100AE000908196FD16C02F5F3F4F2C30310571F776
:100AF000813009F51092800082E08093810010928D
:100B0000850010928400B19A80916F00826080937A
:100B10006F00E8818E2F90E0FC01EE0FFF1FE80FC1
:100B2000F91FE05CFA4F8081806480838881DF91C7
:100B3000CF911F910895823061F4109290008093BC
:100B40009100109295001092940088BB80937100E0
:100B5000E0CF833069F41092A00082E08093A1007E
:100B60001092A5001092A40089BB80937200D1CF8F
:100B70008111CFCF1092200182E080932101109249
:100B80002501109224018ABB80937300C2CFAF92DB
:100B9000BF92CF92DF92EF92FF920F931F93CF936A
:100BA000DF936B017A01EC01C455DD4F28813CE0F5
:100BB000389F8001399F100D1124A090D005B12CD1
:100BC00027FF1FC0FB011182108288818F5F8883FD
:100BD00088819801280F311D87FD3A95F6012A1565
:100BE0003B051CF488818C30C4F18081918104968E
:100BF00080349C4908F473C0F60180819181049689
:100C000070C088819801280F311D87FD3A952A15FB
:100C10003B05DCF68881A801480F511D87FD5A95D8
:100C2000FA01EE0FFF1FE40FF51FE05CFA4F808121
:100C300086FFCBCF8881F801E80FF11D87FDFA957B
:100C4000CF01EE0FFF1FE80FF91FE05CFA4F808124
:100C500060E08F730E945103B8CF80819181288119
:100C6000A801420F511D27FD5A959A01FA01EE0F76
:100C7000FF1FE20FF31FE05CFA4F21813281820FE8
:100C8000931FF7019183808388819801280F311D7C
:100C900087FD3A95F901EE0FFF1FE20FF31FE05CAD
:100CA000FA4F808186FF22C08881080F111D87FDC1
:100CB0001A95F801EE0FFF1FE00FF11FE05CFA4FED
:100CC000808161E08F73DF91CF911F910F91FF9031
:100CD000EF90DF90CF90BF90AF900C94510380E4E1
:100CE0009CE9F701918380838FEF8883DF91CF9117
:100CF0001F910F91FF90EF90DF90CF90BF90AF903A
:100D00000895CF93DF93EC0160E08E810E94510340
:100D100061E08E810E94510360E08E810E94510348
:100D20008BE891E00197F1F7DF91CF910895CF9291
:100D3000DF92EF92FF920F931F93CF93DF936C019B
:100D40007C0187E0E80EF11CD0E0C0E0062F10E047
:100D5000B8010C2E02C0759567950A94E2F7617090
:100D6000F70181917F010E9451032196C430D10582
:100D700079F7C601DF91CF911F910F91FF90EF900E
:100D8000DF90CF900C948106CF92DF92EF92FF928A
:100D90000F931F93CF93DF93EC01F62E642F8C817A
:100DA0000E9451038D818F3F19F060E00E94510332
:100DB0000F2D10E08F8584FF25C06E0187E0C80EDF
:100DC000D11CF12CE12CB8010E2C02C07595679551
:100DD0000A94E2F76170F60181916F010E9451035C
:100DE000FFEFEF1AFF0A88E0E816F10461F7CE0181
:100DF000DF91CF911F910F91FF90EF90DF90CF90F7
:100E00000C948106B80184E0759567958A95E1F7A1
:100E1000CE010E9497066F2DCE01DF91CF911F91D9
:100E20000F91FF90EF90DF90CF900C94970640E0E9
:100E3000682F89EE95E00C94C40681E00E941707A4
:100E40008BE39FE10197F1F70895CF93DF93823011
:100E500029F49091F80598609093F8058093FC052B
:100E60001092FD0580E48093FE0580E18093FF05EC
:100E700080E58093000661E08091ED050E94DD032E
:100E80008091EE058F3F19F061E00E94DD0361E083
:100E90008091EF050E94DD03C9EED5E09E01295E39
:100EA00035408091F80584FD0BC084E090E02196E8
:100EB0002817390744F461E08E810E94DD03EECFEC
:100EC00088E090E0F4CF8BE39DE00197F1F760E0DC
:100ED0008091ED050E94510360E08091EF050E9432
:100EE00051038091EE058F3F19F060E00E9451039D
:100EF0008091F80584FD34C063E089EE95E00E949E
:100F00009706CBE4D6E4CE010197F1F763E089EED2
:100F100095E00E9497062197F1F763E089EE95E04E
:100F20000E94970683E592E00197F1F762E089EE6F
:100F300095E00E9497068091F80580620E9417074D
:100F400084E08093F9058CE00E9417070E941D073A
:100F500082E08093FA0586E0DF91CF910C94170729
:100F600080620E9417078BE496E40197F1F7809165
:100F7000F80580620E94170783E592E00197F1F778
:100F80008091F80580620E941707D5CF41E00E944A
:100F9000C40681E090E00895FB0101900020E9F78C
:100FA0003197AF01461B570BDC01ED91FC9102809C
:100FB000F381E02D19948F929F92AF92BF920F937D
:100FC0001F93CF93DF93CDB7DEB7A1970FB6F894F9
:100FD000DEBF0FBECDBF19A2423008F44AE08E0139
:100FE0000F5D1F4F842E912CB12CA12CA5019401D3
:100FF0000E946314E62FB901CA01EA3004F5E05DEE
:10100000D801EE938D01232B242B252B79F790E02B
:1010100080E0109729F0BD0183EA94E00E94CC079C
:10102000A1960FB6F894DEBF0FBECDBFDF91CF9172
:101030001F910F91BF90AF909F908F900895E95CA2
:10104000DFCFCF93DF93BC0186E094E00E94CC0712
:10105000EC0164E272E086E094E00E94CC078C0F21
:101060009D1FDF91CF910895CF9386E094E00E9479
:101070008C02181619060CF05EC086E094E00E94FF
:101080006A02C82F682F86E094E00E942F03C634BE
:1010900091F487E292E00E94210861E087E00E94DB
:1010A000510360E086E00E94510361E085E00E9408
:1010B000510360E013C0CC34A9F48FE292E00E94A7
:1010C000210861E087E00E94510360E086E00E9411
:1010D000510360E085E00E94510361E084E00E94DA
:1010E0005103C3CFC23551F484E392E00E9421083A
:1010F00060E087E00E94510361E0D4CFC53451F431
:101100008AE392E00E94210860E087E00E94510398
:1011100061E0DCCFC33509F0A8CF82E492E00E9401
:10112000210860E087E00E94510360E086E00E94B1
:10113000510360E0BBCF64E670E080E090E0CF91C7
:101140000C9433040E94B60281110E9434080E945C
:10115000AC0281110E94650480E090E0892B29F0A7
:101160000E94A20281110E94000080E090E0892B81
:1011700029F00E94980281110C9400000895CF93E9
:10118000DF93EC0188819981009711F00E94EC15A2
:10119000198218821D821C821B821A82DF91CF91D4
:1011A0000895FC0180819181009711F00C94EC1559
:1011B00008950F931F93CF93DF93EC01888199815A
:1011C000009759F02A813B812617370730F081E0DC
:1011D000DF91CF911F910F9108958B016F5F7F4F2A
:1011E0000E947516009759F0998388831B830A83A0
:1011F0002C813D81232B59F7FC011082E8CF80E040
:10120000E7CFEF92FF920F931F93CF93DF93611578
:10121000710541F480E0DF91CF911F910F91FF9014
:10122000EF90089541155105B1F07B01EC010C815F
:101230001D81040F151FB8010E94D908882351F39E
:10124000288139818C819D81B701820F931F0E9473
:101250005F171D830C8381E0DECFEF92FF920F9327
:101260001F93CF93DF93EC017B018A01BA010E94A7
:10127000D90881110BC0CE010E94BF08CE01DF91B9
:10128000CF911F910F91FF90EF9008951D830C83D4
:10129000B701888199810E945F17F0CFEF92FF928A
:1012A0000F931F93CF93DF93CDB7DEB7A1970FB600
:1012B000F894DEBF0FBECDBF7C01CB01BA01F701B0
:1012C0001182108213821282158214828E010F5FA6
:1012D0001F4F22E044E00E94FF100097C9F0FC017C
:1012E00001900020E9F73197AF01481B590BBC0171
:1012F000C7010E942D09A1960FB6F894DEBF0FBE5C
:10130000CDBFDF91CF911F910F91FF90EF90089586
:10131000C7010E94BF08EFCFFC0111821082138227
:10132000128215821482FB0101900020E9F73197A7
:10133000AF01461B570B0C942D090F931F93CF93AE
:10134000DF93EC0160E088810E94510383E090E02C
:101350000197F1F761E088810E94510383E290E0F8
:101360000197F1F760E088810E9451038A819B8197
:101370009927FC01EA51FD4F6491FC01E056FD4FB5
:10138000E491F0E0EE0FFF1FEE5AFD4F859194912E
:1013900000E412E42FE030E0462F0E94490C611572
:1013A00071058105910529F06F5F7F4F8F4F9F4F2A
:1013B0009F709B0177FF02C02F5F3F4FB90175956A
:1013C0006795072E000C880B990B0E94A5132DEC36
:1013D0003CEC48EE51E40E9494140E9406157D8373
:1013E0006C83CB01DF91CF911F910F9108951F92D4
:1013F0000F920FB60F9211240BB60F922F933F93BB
:101400004F935F936F937F938F939F93AF93BF930C
:10141000EF93FF938CEC92E00E94C002FF91EF915A
:10142000BF91AF919F918F917F916F915F914F91FC
:101430003F912F910F900BBE0F900FBE0F901F90FA
:1014400018951F920F920FB60F9211240BB60F92A0
:101450002F933F934F935F936F937F938F939F93BC
:10146000AF93BF93EF93FF938CEC92E00E94420204
:10147000FF91EF91BF91AF919F918F917F916F916C
:101480005F914F913F912F910F900BBE0F900FBE28
:101490000F901F9018951F920F920FB60F92112464
:1014A0000BB60F922F933F934F935F936F937F935E
:1014B0008F939F93AF93BF93EF93FF9389E693E04E
:1014C0000E94C002FF91EF91BF91AF919F918F91C8
:1014D0007F916F915F914F913F912F910F900BBE34
:1014E0000F900FBE0F901F9018951F920F920FB67E
:1014F0000F9211240BB60F922F933F934F935F934C
:101500006F937F938F939F93AF93BF93EF93FF93CB
:1015100089E693E00E944202FF91EF91BF91AF9163
:101520009F918F917F916F915F914F913F912F91FB
:101530000F900BBE0F900FBE0F901F9018951F922B
:101540000F920FB60F9211240BB60F922F933F9369
:101550004F935F936F937F938F939F93AF93BF93BB
:10156000EF93FF9386E094E00E94C002FF91EF9119
:10157000BF91AF919F918F917F916F915F914F91AB
:101580003F912F910F900BBE0F900FBE0F901F90A9
:1015900018951F920F920FB60F9211240BB60F924F
:1015A0002F933F934F935F936F937F938F939F936B
:1015B000AF93BF93EF93FF9386E094E00E944202C3
:1015C000FF91EF91BF91AF919F918F917F916F911B
:1015D0005F914F913F912F910F900BBE0F900FBED7
:1015E0000F901F9018951F920F920FB60F92112413
:1015F0000BB60F922F933F934F935F936F937F930D
:101600008F939F93AF93BF93EF93FF9383EA94E0FD
:101610000E94C002FF91EF91BF91AF919F918F9176
:101620007F916F915F914F913F912F910F900BBEE2
:101630000F900FBE0F901F9018951F920F920FB62C
:101640000F9211240BB60F922F933F934F935F93FA
:101650006F937F938F939F93AF93BF93EF93FF937A
:1016600083EA94E00E944202FF91EF91BF91AF9113
:101670009F918F917F916F915F914F913F912F91AA
:101680000F900BBE0F900FBE0F901F9018951F92DA
:101690000F920FB60F9211242F933F938F939F9326
:1016A000AF93BF938091B1029091B202A091B30227
:1016B000B091B4023091B00223E0230F2D3758F5DA
:1016C0000196A11DB11D2093B0028093B1029093A9
:1016D000B202A093B302B093B4028091B50290918C
:1016E000B602A091B702B091B8020196A11DB11D3A
:1016F0008093B5029093B602A093B702B093B8025C
:10170000BF91AF919F918F913F912F910F900FBEFD
:101710000F901F90189526E8230F0296A11DB11D6A
:10172000D2CF1F920F920FB60F9211240BB60F92C9
:101730002F933F934F935F936F937F938F939F93D9
:10174000AF93BF93EF93FF9348E251E064E271E0FF
:1017500090E080E00E94C705FF91EF91BF91AF91AB
:101760009F918F917F916F915F914F913F912F91B9
:101770000F900BBE0F900FBE0F901F9018951F92E9
:101780000F920FB60F9211240BB60F922F933F9327
:101790004F935F936F937F938F939F93AF93BF9379
:1017A000EF93FF9348EA50E064EA70E083E090E052
:1017B0000E94C705FF91EF91BF91AF919F918F91CB
:1017C0007F916F915F914F913F912F910F900BBE41
:1017D0000F900FBE0F901F9018951F920F920FB68B
:1017E0000F9211240BB60F922F933F934F935F9359
:1017F0006F937F938F939F93AF93BF93EF93FF93D9
:1018000048E950E064E970E082E090E00E94C7059A
:10181000FF91EF91BF91AF919F918F917F916F91C8
:101820005F914F913F912F910F900BBE0F900FBE84
:101830000F901F9018951F920F920FB60F921124C0
:101840000BB60F922F933F934F935F936F937F93BA
:101850008F939F93AF93BF93EF93FF9348E850E02C
:1018600064E870E081E090E00E94C705FF91EF918D
:10187000BF91AF919F918F917F916F915F914F91A8
:101880003F912F910F900BBE0F900FBE0F901F90A6
:101890001895CF92DF92EF92FF920F931F93E82F4C
:1018A000F92F05C0015011092109310961F1908119
:1018B00096239417B9F305C0015011092109310984
:1018C00011F1908196239413F7CFC12CD12CE12CE8
:1018D000F12C0AC08FEFC81AD80AE80AF80A0C15CA
:1018E0001D052E053F0579F080818623841791F32D
:1018F0006C2D7D2D8E2D9F2D1F910F91FF90EF90C0
:10190000DF90CF90089560E070E080E090E01F915C
:101910000F91FF90EF90DF90CF900895CF931092AA
:10192000CF021092CE0248EE53E060E070E04093A8
:10193000D0025093D1026093D2027093D3028AE016
:1019400092E09093CD028093CC0225E331E0309376
:10195000D9022093D80224E331E03093DB022093B4
:10196000DA0220E331E03093DD022093DC0221E350
:1019700031E03093DF022093DE0222E331E0309346
:10198000E1022093E00226E331E03093E30220936A
:10199000E2021092E5021092E6021092E702109223
:1019A000E80210926C0310926B0340936D03509306
:1019B0006E0360936F037093700390936A03809338
:1019C000690325ED30E0309376032093750324ED11
:1019D00030E0309378032093770320ED30E03093AC
:1019E0007A032093790321ED30E030937C03209338
:1019F0007B0322ED30E030937E0320937D0326EDC0
:101A000030E03093800320937F0310928203109282
:101A1000830310928403109285031092090410929C
:101A2000080440930A0450930B0460930C047093D1
:101A30000D0490930704809306042DEC30E030935E
:101A40001304209312042CEC30E0309315042093FF
:101A5000140428EC30E0309317042093160429EC8A
:101A600030E030931904209318042AEC30E03093CE
:101A70001B0420931A042EEC30E030931D042093B5
:101A80001C0410921F041092200410922104109242
:101A900022041092A6041092A5044093A704509328
:101AA000A8046093A9047093AA049093A40480935B
:101AB000A30485EC90E09093B0048093AF0484EC91
:101AC00090E09093B2048093B10480EC90E0909306
:101AD000B4048093B30481EC90E09093B6048093B7
:101AE000B50482EC90E09093B8048093B70486EC40
:101AF00090E09093BA048093B9041092BC041092C1
:101B0000BD041092BE041092BF041092EC05109216
:101B1000EB058CE192E09093EA058093E90583E27E
:101B20008093ED05CFEFC093EE0581E28093EF0542
:101B30008FE18093F00587E08093F10589E1809340
:101B4000F20587E18093F3051092F4051092F505F4
:101B50001092F6051092F7051092F80581E00E94A8
:101B600025078091D0058033D8F591E0980F9093A8
:101B7000D0058093E60590E0FC01EE0FFF1FE80F13
:101B8000F91FE05CFA4F88EB9BE0928381838091A0
:101B9000D005803340F591E0980F9093D005809365
:101BA000E30590E0FC01EE0FFF1FE80FF91FE05C7A
:101BB000FA4F88EB9BE09283818366E272E08DEDC1
:101BC00095E00E948C0967E472E087ED95E00E9441
:101BD0008C0966E572E081ED95E0CF910C948C095B
:101BE000C093E605D4CF8FEF8093E305E6CFCF9384
:101BF000DF93CDB7DEB7A4970FB6F894DEBF0FBE64
:101C0000CDBF789484B5826084BD84B5816084BD85
:101C100085B5826085BD85B5816085BD80916E008A
:101C2000816080936E0010928100809181008260BB
:101C300080938100809181008160809381008091F8
:101C400080008160809380008091B10084608093E7
:101C5000B1008091B00081608093B00080919100CC
:101C600082608093910080919100816080939100C7
:101C7000809190008160809390008091A1008260AB
:101C80008093A1008091A10081608093A100809148
:101C9000A00081608093A0008091210182608093E8
:101CA0002101809121018160809321018091200197
:101CB00081608093200180917A00846080937A0013
:101CC00080917A00826080937A0080917A008160AE
:101CD00080937A0080917A00806880937A001092D5
:101CE000C10083EA94E00E94EE0186E094E00E9445
:101CF000EE0189E693E00E94EE0182E00E94250752
:101D00000E941D07E1E08091FC058111E0E0E19572
:101D1000F0E0E751FA4F848980680E94170764E673
:101D200072E089EE95E00E94CC0769E070E086EEF3
:101D300095E00E943F056AE070E083EE95E00E9426
:101D40003F0561E087E00E94DD0361E086E00E94DC
:101D5000DD0361E085E00E94DD0361E084E00E9434
:101D6000DD0360E087E00E94510360E086E00E94AE
:101D7000510360E085E00E94510360E084E00E942E
:101D8000510386E390E09093C7028093C60287E3F5
:101D900090E09093C9028093C80261E086E30E94BC
:101DA000DD0360E08091C8020E94DD0388E390E0DB
:101DB0009093BF028093BE0289E390E09093C102AA
:101DC0008093C00261E088E30E94DD0360E08091BF
:101DD000C0020E94DD0370E060E086EE95E00E94A4
:101DE000C30470E060E083EE95E00E94C3046CEDF4
:101DF00075E080E090E00E9433048E010F5F1F4F7A
:101E000084EBE82EF12C9CE2D92E86EC92E00E9425
:101E10009D099093C5028093C4028EEB92E00E94CC
:101E20009D099093BD028093BC0263E772E083EA50
:101E300094E00E94CC078090C4029090C502092CC7
:101E4000000CAA08BB084AE0C501B401B7FE0DC0EA
:101E50006DE283EA94E00E942F0366277727CB0187
:101E6000681979098A099B094AE00E94DB0764E244
:101E700072E083EA94E00E94CC0760E872E083EAB3
:101E800094E00E94CC078090BC029090BD02092C87
:101E9000000CAA08BB084AE0C501B401B7FE0DC09A
:101EA0006DE283EA94E00E942F0366277727CB0137
:101EB000681979098A099B094AE00E94DB070E9498
:101EC0001D07E091FC05E23008F06FC0E150F0E042
:101ED000E751FA4F848980680E94170768E872E02A
:101EE00089EE95E00E94CC078091BC029091BD02E2
:101EF0001C8A1B8A1E8A1D8A188E1F8A4AE0B80116
:101F00000E941D11F80101900020E9F73197AF01FF
:101F1000401B510BB801CE0143960E942D094F89F9
:101F2000588D6B897C8989EE95E00E941502CE015F
:101F300043960E94D1088091C4029091C5024497B3
:101F400084F460E087E00E94510360E086E00E9434
:101F5000510360E085E00E94510360E084E00E944C
:101F600051031092BB021092BA02A090BA02B09034
:101F7000BB0285EBA816B104D4F4B50186EE95E05A
:101F80000E94C304B50183EE95E00E94C3046FE094
:101F900070E080E090E00E9433048FEFA81AB80A46
:101FA000B092BB02A092BA02E0CFE1E090CFF092F3
:101FB000BB02E092BA02A090BA02B090BB02B7FC9A
:101FC000DCC0B50186EE95E00E94C304B50183EE46
:101FD00095E00E94C3046FE070E080E090E00E9412
:101FE000330481E0A81AB108B092BB02A092BA02F1
:101FF000E2CF60E972E083EA94E00E94CC0761E0FE
:1020000083E00E94510360E087E00E94510360E09A
:1020100086E00E94510360E085E00E94510360E089
:1020200084E00E945103E1E08091FC058111E0E031
:10203000E195F0E0E751FA4F848980680E94170724
:1020400066E972E089EE95E00E94CC0743E251E731
:1020500060EA72E4CE0143960E944E0944ED5CEBC7
:1020600060E571E4CE0149960E944E0918A21F8EC8
:102070001AA219A21CA21BA241E050E063EA72E07E
:10208000CE014F960E942D094D8D5E8D698D7A8D02
:10209000CE014F960E940109811104C0CE014F96D6
:1020A0000E94BF08D9821A8241E050E0B801CE01F7
:1020B0004F960E940109811104C0CE014F960E94E3
:1020C000BF084F89588D6B897C89CE014F960E943D
:1020D0000109811104C0CE014F960E94BF0841E062
:1020E00050E065EA72E0CE014F960E94010981112D
:1020F00004C0CE014F960E94BF081A8219821C822A
:102100001B821E821D826F8D78A16115710501F100
:102110004BA15CA1C8010E942D09B12CA12C8D817D
:102120009E81A816B906A0F4E981FA81309769F476
:102130001092B902E9EBF2E0608186E094E00E943F
:10214000E2028FEFA81AB80AEACFEA0DFB1DF4CF1E
:1021500064E670E080E090E00E943304C8010E94D1
:10216000D108CE014F960E94D108CE0149960E9417
:10217000D108CE0143960E94D10883EA94E00E94E0
:102180008C021816190664F583EA94E00E946A022C
:10219000B82E682F83EA94E00E942F0381E4B816DA
:1021A00009F427CF82E4B812E8CF67EA72E083EA45
:1021B00094E00E94CC0760E083E00E94510361E05C
:1021C00087E00E94510360E086E00E94510361E0D5
:1021D00085E00E94510360E084E00E945103CDCF6E
:1021E0000E94A20812CE81ED95E00E94D10887EDF1
:1021F00095E00E94D1088DED95E00C94D108EF9206
:102200000F931F93CF93DF93E80134E047FD34E150
:10221000042E000C550B57FF03C0519541955109F1
:10222000E32E022F242FAE010E944211CE01DF9136
:10223000CF911F910F91EF900895BB274A3031F451
:10224000992322F4BDE2909581959F4F0C9429111A
:10225000BB27FB015527AA27880F991FAA1FA41780
:1022600010F0A41B83955051B9F7A05DAA3308F074
:10227000A95DA193009779F7B111B1931192CB01A8
:102280000C9493138F929F92AF92BF92CF92DF9252
:10229000EF92FF920F931F93CF93DF9300D000D064
:1022A00000D0CDB7DEB76A01F22EB02E102FFBE3BF
:1022B000AF2EA01608F41BE31F5F012F27E0AE012D
:1022C0004F5F5F4F0E94BB12BC018981982F9970AC
:1022D000913009F44EC09BE2E1FC04C09E2D917048
:1022E000E0FC49C05E2D5071E82FE87083FF55C0B7
:1022F00084E0911101C083E0EF2DE81B8F1508F0F9
:10230000E0E0D6018E2F20E25523C9F1992329F070
:10231000D6019C93C60101966C0196012D5F3F4F3B
:10232000E2FE33C08EE4D6018C9391E411969C9327
:10233000119712968C93D9018E2F90E281112AC0A9
:10234000E20FF32FF11D10828EEF9FEF29960FB64B
:10235000F894DEBF0FBECDBFDF91CF911F910F91DB
:10236000FF90EF90DF90CF90BF90AF909F908F90B5
:1023700008959DE2B7CF90E2B5CF2D9381508111A2
:10238000FCCFCE0ED11CE0E0C1CF8EE6D6018C93FF
:1023900091E6CCCF9D938150D1CF482F447082FFDE
:1023A0003DC084E0911101C083E08F1510F4EF2D42
:1023B000E81BD6018E2F20E2552309F1992329F03D
:1023C000D6019C93C60101966C0196012D5F3F4F8B
:1023D000E2FE1BC089E4D6018C938EE411968C93A7
:1023E000119786E412968C93D9018E2F90E2882360
:1023F00009F4A6CF9D938150FACF2D93815081117E
:10240000FCCFCE0ED11CE0E0D9CF89E6D6018C936B
:102410008EE611968C93119786E6E4CF9B0177FFA9
:1024200002C030E020E0A1E0B0E0911102C0B0E0D5
:10243000A0E0F9013196AE0FBF1F8B2C912CBB2071
:1024400009F461C05401EFEFAE1ABE0AAA0DBB1D1C
:10245000FA161B0619F014F04F2D4A1B511188C0B3
:10246000E3FC59C07601A42FB0E2A1114FC0C40E05
:10247000D11C992309F45BC040E0D6011196F60106
:1024800090836D01552309F448C0012F060F9A81EE
:10249000582F507184FF03C0913309F40150101676
:1024A0000CF047C0093008F008E0EEE2FE2E5B01B8
:1024B000A01AB10885019194819491082F3F3207A9
:1024C00029F4D601FC92F60131966F016217730769
:1024D00094F1021713077CF5DB01A21BB30BAA24AE
:1024E000A394B12CAC0EBD1EAA0DBB1D11968C91F0
:1024F00021503109D601119628153905F4F0F6015D
:1025000080836D01DBCFB12CA12CA0CFF701B1935B
:102510007F01A150AACF9111B0CFD601942F50E3E3
:1025200002C05D9391509111FCCFC40ED11C40E0CC
:10253000ACCF01E0BACF80E3DBCF6217730731F491
:10254000963388F4953311F4552369F0F6018083AE
:10255000FD01842F90E2811108C0A40FB11D1C92CF
:1025600090E080E0F3CE81E3F1CF91938150F3CFFF
:10257000911183CF8ACF283008F027E03327DA0182
:10258000990F311D87FD916000966105710539F441
:1025900032602E5F3D9330E32A95E1F708959F3F27
:1025A00030F080387105610509F03C5F3C5F3D9378
:1025B000913008F08068911DDF93CF931F930F93A4
:1025C000FF92EF92192F987F9695E92F9695969501
:1025D000E90FFF27EE54FE4F99273327EE24FF24FF
:1025E000A701E70105900894079428F4360FE71E29
:1025F000F81E491F511D660F771F881F991F0694EB
:10260000A1F70590079428F4E70EF81E491F561FFE
:10261000C11D770F881F991F661F0694A1F70590AB
:10262000079428F4F80E491F561FC71FD11D880FA5
:10263000991F661F771F0694A1F70590079420F451
:10264000490F561FC71FD81F990F661F771F881F76
:102650000694A9F784911095177041F0D695C79507
:1026600057954795F794E7941A95C1F7E8E5F1E097
:1026700068941590159135916591959105907FE23B
:102680007395E118F10A430B560BC90BD009C0F73B
:10269000E10CF11E431F561FC91FD01D7EF470337D
:1026A00011F48A95E6CFE894015030F0080F0AF44F
:1026B0000027021708F4202F2395022F7A3328F0E1
:1026C00079E37D932A95E9F710C07D932A9589F6E1
:1026D000069497956795379517951794E118F10A21
:1026E000430B560BC90BD00998F023957E91739537
:1026F0007A3308F070E37C932013B8F77E91706111
:102700007D9330F0839571E37D9370E32A95E1F733
:102710001124EF90FF900F911F91CF91DF91992796
:1027200087FD90950895DC01FC01672F7191772357
:10273000E1F7329704C07C916D9370836291AE177C
:10274000BF07C8F30895E89409C097FB3EF490953D
:102750008095709561957F4F8F4F9F4F9923A9F07A
:10276000F92F96E9BB279395F69587957795679509
:10277000B795F111F8CFFAF4BB0F11F460FF1BC04D
:102780006F5F7F4F8F4F9F4F16C0882311F096E9E0
:1027900011C0772321F09EE8872F762F05C066238E
:1027A00071F096E8862F70E060E02AF09A95660F47
:1027B000771F881FDAF7880F9695879597F9089500
:1027C00097F99F6780E870E060E008959FEF80ECE4
:1027D000089500240A941616170618060906089587
:1027E00000240A9412161306140605060895092EED
:1027F0000394000C11F4882352F0BB0F40F4BF2B5C
:1028000011F460FF04C06F5F7F4F8F4F9F4F08959B
:1028100057FD9058440F551F59F05F3F71F0479591
:10282000880F97FB991F61F09F3F79F08795089576
:10283000121613061406551FF2CF4695F1DF08C095
:10284000161617061806991FF1CF869571056105B2
:1028500008940895E894BB2766277727CB0197F95A
:102860000895052E97FB1EF400940E94481457FD0E
:1028700007D00E94631407FC03D04EF40C94481454
:1028800050954095309521953F4F4F4F5F4F08959C
:1028900090958095709561957F4F8F4F9F4F0895CC
:1028A0000E948514A59F900DB49F900DA49F800D4C
:1028B000911D11240895B7FF0C9450140E945014D8
:1028C000821B930B0895A1E21A2EAA1BBB1BFD01CC
:1028D0000DC0AA1FBB1FEE1FFF1FA217B307E407FF
:1028E000F50720F0A21BB30BE40BF50B661F771F57
:1028F000881F991F1A9469F7609570958095909537
:102900009B01AC01BD01CF010895A29FB001B39F0F
:10291000C001A39F700D811D1124911DB29F700DE8
:10292000811D1124911D08950E94A8140C94F71381
:102930000E94F01358F00E94E91340F029F45F3F21
:1029400029F00C94E01351110C942B140C94E61301
:102950000E94081468F39923B1F3552391F3951B52
:10296000550BBB27AA2762177307840738F09F5FB0
:102970005F4F220F331F441FAA1FA9F335D00E2E1D
:102980003AF0E0E832D091505040E695001CCAF78A
:102990002BD0FE2F29D0660F771F881FBB1F26174D
:1029A00037074807AB07B0E809F0BB0B802DBF0124
:1029B000FF2793585F4F3AF09E3F510578F00C94F3
:1029C000E0130C942B145F3FE4F3983ED4F3869508
:1029D00077956795B795F7959F5FC9F7880F911D14
:1029E0009695879597F90895E1E0660F771F881F00
:1029F000BB1F621773078407BA0720F0621B730BB3
:102A0000840BBA0BEE1F88F7E09508950E940D1510
:102A10006894B1110C942B1408950E94101488F03E
:102A20009F5798F0B92F9927B751B0F0E1F0660F92
:102A3000771F881F991F1AF0BA95C9F714C0B130D3
:102A400091F00E942A14B1E008950C942A14672F83
:102A5000782F8827B85F39F0B93FCCF38695779502
:102A60006795B395D9F73EF49095809570956195EB
:102A70007F4F8F4F9F4F0895991B79E004C0991F96
:102A8000961708F0961B881F7A95C9F780950895C8
:102A9000EE0FFF1F881F8BBF0790F691E02D199452
:102AA0000F931F93CF93DF938230910510F482E050
:102AB00090E0E0910306F091040630E020E0B0E001
:102AC000A0E0309799F42115310509F44AC0281B7C
:102AD000390B24303105D8F58A819B816115710548
:102AE00089F1FB0193838283FE0111C040815181F2
:102AF0000281138148175907E0F04817590799F4E4
:102B0000109761F012960C93129713961C933296BD
:102B1000CF01DF91CF911F910F910895009303068C
:102B200010930406F4CF2115310551F042175307D5
:102B300038F0A901DB019A01BD01DF01F801C1CF25
:102B4000EF01F9CF9093040680930306CDCFFE01E9
:102B5000E20FF31F81939193225031093983288327
:102B6000D7CF2091010630910206232B41F420910A
:102B70000202309103023093020620930106209155
:102B80000002309101022115310541F42DB73EB705
:102B90004091040250910502241B350BE09101067F
:102BA000F0910206E217F307A0F42E1B3F0B281743
:102BB000390778F0AC014E5F5F4F2417350748F0B6
:102BC0004E0F5F1F5093020640930106819391932D
:102BD0009FCFF0E0E0E09CCFCF93DF930097E9F048
:102BE000FC01329713821282A0910306B091040671
:102BF000ED0130E020E01097A1F420813181820FB7
:102C0000931F20910106309102062817390709F019
:102C100061C0F0930206E0930106DF91CF91089521
:102C2000EA01CE17DF07E8F54A815B819E01411575
:102C30005105B1F7E901FB83EA8349915991C40F2A
:102C4000D51FEC17FD0761F4808191810296840FF6
:102C5000951FE90199838883828193819B838A836D
:102C6000F0E0E0E012968D919C9113970097B9F5F2
:102C70002D913C911197CD010296820F931F2091C7
:102C80000106309102062817390739F6309751F5B9
:102C90001092040610920306B0930206A093010658
:102CA000BCCFD383C28340815181840F951FC81745
:102CB000D90761F44E5F5F4F88819981480F591F92
:102CC000518340838A819B819383828321153105BF
:102CD00009F0B0CFF0930406E09303069ECFFD0108
:102CE000DC01C0CF13821282D7CF4F925F926F92D6
:102CF0007F928F929F92AF92BF92CF92DF92EF928C
:102D0000FF920F931F93CF93DF938C01009799F459
:102D1000CB01DF91CF911F910F91FF90EF90DF904A
:102D2000CF90BF90AF909F908F907F906F905F906B
:102D30004F900C945015FC01E60FF71F9C01225098
:102D40003109E217F30708F4AEC0D901CD91DC9147
:102D50001197C617D70720F1C530D10578F0CE01FD
:102D600004978617970750F0C61BD70B2297C1937D
:102D7000D1936D937C93CF010E94EC15C801DF9134
:102D8000CF911F910F91FF90EF90DF90CF90BF9068
:102D9000AF909F908F907F906F905F904F9008952D
:102DA0005B01AC1ABD0A4C018C0E9D1EA09103065E
:102DB000B0910406512C412CF12CE12C109731F5E7
:102DC00080910106909102068815990509F05CC072
:102DD0004616570608F058C08091000290910102F3
:102DE000009741F48DB79EB74091040250910502BF
:102DF000841B950BE817F90708F055C0F0930206FD
:102E0000E0930106F90171836083B8CF8D919C91A5
:102E1000119712966C90129713967C901397A815A1
:102E2000B90559F56C0142E0C40ED11CCA14DB048B
:102E300020F1AC014A195B09DA011296159780F06E
:102E40006282738251834083D9016D937C93E11434
:102E5000F10471F0D7011396FC93EE9312978ECF85
:102E600022968C0F9D1FF90191838083F301EFCF90
:102E7000F0930406E093030681CF4816590608F440
:102E80002C017D01D3019ACFCB010E9450157C010A
:102E9000009749F0AE01B8010E945617C8010E9480
:102EA000EC1587016BCF10E000E068CFFB01DC017F
:102EB00002C001900D9241505040D8F70895FB0197
:102EC000DC0101900D920020E1F7089511E0CAEBBA
:102ED000D1E000E006C0802FFE010E944815219637
:102EE000011DCB3BD10780E00807A9F7F894FFCF7D
:102EF00000000506800000000000E20215025B02EF
:102F000031038C026A027E0200000000C60715022F
:102F1000C004BF040D0A00666F7277617264006CB2
:102F200065667400726967687400726576657273AD
:102F3000650073746F70004E6F2052616E6765207C
:102F40002020202020004E6F2052616E67652020D7
:102F500020202000434F4D424154205645484943CC
:102F60004C450020204F42535441434C45203A00E9
:102F7000454E454D59203A00455F444953203A009B
:102F8000656E656D7900454E454D59204445544563
:0C2F90004354002A002300427965000031
:10E000000D9489F10D94B2F10D94B2F10D94B2F129
:10E010000D94B2F10D94B2F10D94B2F10D94B2F1F0
:10E020000D94B2F10D94B2F10D94B2F10D94B2F1E0
:10E030000D94B2F10D94B2F10D94B2F10D94B2F1D0
:10E040000D94B2F10D94B2F10D94B2F10D94B2F1C0
:10E050000D94B2F10D94B2F10D94B2F10D94B2F1B0
:10E060000D94B2F10D94B2F10D94B2F10D94B2F1A0
:10E070000D94B2F10D94B2F10D94B2F10D94B2F190
:10E080000D94B2F10D94B2F10D94B2F10D94B2F180
:10E090000D94B2F10D94B2F10D94B2F10D94B2F170
:10E0A0000D94B2F10D94B2F10D94B2F10D94B2F160
:10E0B0000D94B2F10D94B2F10D94B2F10D94B2F150
:10E0C0000D94B2F10D94B2F10D94B2F10D94B2F140
:10E0D0000D94B2F10D94B2F10D94B2F10D94B2F130
:10E0E0000D94B2F141546D656761323536300041AF
:10E0F000726475696E6F206578706C6F72657220DE
:10E1000073746B3530305632206279204D4C530099
:10E11000426F6F746C6F616465723E004875683F52
:10E1200000436F6D70696C6564206F6E203D200048
:10E130004350552054797065202020203D20005FF9
:10E140005F4156525F415243485F5F3D2000415658
:10E1500052204C696243205665723D20004743437C
:10E160002056657273696F6E203D20004350552024
:10E1700049442020202020203D20004C6F7720663D
:10E18000757365202020203D20004869676820665F
:10E190007573652020203D200045787420667573D6
:10E1A00065202020203D20004C6F636B2066757336
:10E1B000652020203D20004D617220203720323024
:10E1C000313300312E362E3800342E332E350056A2
:10E1D00023202020414444522020206F7020636F70
:10E1E00064652020202020696E73747275637469E1
:10E1F0006F6E2061646472202020496E74657272B3
:10E20000757074006E6F20766563746F7200726A49
:10E210006D702020006A6D70200057686174207056
:10E220006F72743A00506F7274206E6F7420737541
:10E2300070706F72746564004D7573742062652030
:10E2400061206C6574746572002000577269747483
:10E25000696E672045450052656164696E672045B7
:10E26000450045452065727220636E743D00504F35
:10E27000525400303D5A65726F2061646472003FF1
:10E280003D43505520737461747300403D454550C3
:10E29000524F4D207465737400423D426C696E6B41
:10E2A000204C454400453D44756D70204545505215
:10E2B0004F4D00463D44756D7020464C415348001B
:10E2C000483D48656C70004C3D4C69737420492F83
:10E2D0004F20506F72747300513D51756974005234
:10E2E0003D44756D702052414D00563D73686F7707
:10E2F00020696E7465727275707420566563746FF0
:10E30000727300593D506F727420626C696E6B00BD
:10E310002A0011241FBECFEFD1E2DEBFCDBF01E046
:10E320000CBF12E0A0E0B2E0EEE1FDEF03E00BBFB6
:10E3300002C007900D92A030B107D9F712E0A0E01B
:10E34000B2E001C01D92AE30B107E1F70F9460F367
:10E350000D948DFE01E20EBF0FEF0DBF11241FBE05
:10E360000D9460F30D9400F020E030E040ED57E0B4
:10E3700005C0FA013197F1F72F5F3F4F2817390792
:10E38000C0F308959C01260F311DC901A0E0B0E043
:10E390002F5F3F4FABBFFC018791882361F08093D3
:10E3A000C6008091C00086FFFCCF8091C0008064D1
:10E3B0008093C000EACF08958DE08093C6008091DD
:10E3C000C00086FFFCCF8091C00080648093C000B5
:10E3D0008AE08093C6008091C00086FFFCCF8091C8
:10E3E000C00080648093C00008950F94C2F10F9420
:10E3F000DCF10895FC019081992359F09093C600B7
:10E400008091C00086FFFCCF8091C0008064809323
:10E41000C0003196992379F70895282F982F929567
:10E420009F70892F805D8A3308F0895F8093C600D2
:10E430008091C00086FFFCCF8091C00080648093F3
:10E44000C000822F8F70982F905D9A3308F0995FEB
:10E450009093C6008091C00086FFFCCF8091C000E1
:10E4600080648093C00008959C01FB01853691056E
:10E470001CF46330710594F0C90164E670E00F94F8
:10E480002EFE605D7F4F6093C6008091C00086FFC6
:10E49000FCCF8091C00080648093C0002B30310598
:10E4A00014F43297B4F0C90164E670E00F942EFEC4
:10E4B0006AE070E00F942EFE605D7F4F6093C600AF
:10E4C0008091C00086FFFCCF8091C0008064809363
:10E4D000C000C9016AE070E00F942EFEC0968093E0
:10E4E000C6008091C00086FFFCCF8091C000806490
:10E4F0008093C00008951F93182F8EE692EE60E07F
:10E500000F94C2F11093C6008091C00086FFFCCF2B
:10E510008091C00080648093C0000F94DCF11F9153
:10E5200008952F923F924F925F926F927F928F92B7
:10E530009F92AF92BF92CF92DF92EF92FF920F9392
:10E540001F93DF93CF93CDB7DEB762970FB6F894E2
:10E55000DEBF0FBECDBF382E622ECA01DB015C01CB
:10E560006D01772420E2222E2E010894411C511CBB
:10E570008BC081E0A81680E0B80681E0C80680E084
:10E58000D80628F0C601AA27BB270F940DF2BB2797
:10E59000AD2D9C2D8B2D0F940DF28A2D0F940DF225
:10E5A0002092C6008091C00086FFFCCF8091C00001
:10E5B00080648093C0009DE29093C6008091C0006B
:10E5C00086FFFCCF8091C00080648093C0002092C1
:10E5D000C6008091C00086FFFCCF8091C00080649F
:10E5E0008093C00019828601750188249924A1E0D6
:10E5F0003A1651F03A1620F0B2E03B1661F409C029
:10E600000BBFF701779007C0C7010F9477FE782EF4
:10E6100002C0F7017080872D0F940DF22092C60082
:10E620008091C00086FFFCCF8091C0008064809301
:10E63000C000872D8052F401EF70F0708F3520F408
:10E64000E40DF51D708204C0E40DF51D8EE280839B
:10E650000894E11CF11C011D111D0894811C911CE2
:10E6600090E18916910409F0C2CF80E190E0A0E02A
:10E67000B0E0A80EB91ECA1EDB1E198AC2010F9493
:10E68000FAF10F94DCF16A94662009F072CF629679
:10E690000FB6F894DEBF0FBECDBFCF91DF911F91B3
:10E6A0000F91FF90EF90DF90CF90BF90AF909F9031
:10E6B0008F907F906F905F904F903F902F90089534
:10E6C0002F923F924F925F926F927F928F929F9282
:10E6D000AF92BF92CF92DF92EF92FF920F931F9370
:10E6E000DF93CF93CDB7DEB7CD53D1400FB6F894BB
:10E6F000DEBF0FBECDBF01E20EBF0FEF0DBF94B75F
:10E70000F894A89514BE80916000886180936000A1
:10E7100010926000789493FF05C0E0910002F091A0
:10E7200001021995279A2F9A8091C00082608093E8
:10E73000C00080E18093C40088E18093C1000000A4
:10E74000EE24FF24870144E0A42EB12CCC24DD2448
:10E7500024C0C5010197F1F70894E11CF11C011DCB
:10E76000111D21E2E2162EE4F20620E0020720E06D
:10E77000120718F031E0C32ED12CC801B70127ECE5
:10E780003BE140E050E00F9441FE611571058105C9
:10E79000910519F485B1805885B98091C00087FD35
:10E7A00003C0C114D104A9F2A6014F5F5F4FC25E3E
:10E7B000DE4F59834883CE51D140C25EDE4F8881FF
:10E7C0009981CE51D140019711F00D9410FEC05D9A
:10E7D000DE4F19821882C053D14060E0C15DDE4F28
:10E7E0001882CF52D14088249924C35DDE4F19820C
:10E7F0001882CD52D140C05EDE4F188219821A8233
:10E800001B82C052D140CE5CDE4F188219821A8220
:10E810001B82C253D140EE24FF2487010BBFF701B6
:10E8200007911691C45CDE4F19830883CC53D14005
:10E830000D940BFEC25EDE4F28813981CE51D1404E
:10E840002130310509F52091C600C25EDE4F1982E4
:10E850001882CE51D14022C02F5F3F4F4F4F5F4FA4
:10E86000213082E138078AE7480780E0580780F0C6
:10E87000C45CDE4FE881F981CC53D140EF5FFF4F9C
:10E8800019F0EE27FF27099420E030E040E050E047
:10E890008091C00087FFE0CF2091C600C35DDE4FAE
:10E8A00048815981CD52D1404F5F5F4FC35DDE4FEC
:10E8B00059834883CD52D140213209F063C64A3092
:10E8C000510508F05FC60894811C911C53E0851621
:10E8D000910409F059C600E010E018C081E280936D
:10E8E000C6008091C00086FFFCCF8091C00080648C
:10E8F0008093C0002F5F3F4F2931310579F70F9486
:10E90000DCF10F5F1F4F0530110519F020E030E0FA
:10E91000E5CF10920A0210920B0210920C02109294
:10E920000D02109206021092070210920802109235
:10E930000902109202021092030210920402109235
:10E9400005028FEE90EE60E00F94F5F180E191EE1C
:10E9500060E00F94C2F18091C00087FFFCCF9091DE
:10E96000C600903608F09F759032B8F09093C600BC
:10E970008091C00086FFFCCF8091C00080648093AE
:10E98000C000A0E2A093C6008091C00086FFFCCF2B
:10E990008091C00080648093C000983409F4D7C18E
:10E9A0009934B8F4923409F459C1933458F490333B
:10E9B00019F1903308F4E3C59F33A1F1903409F0C5
:10E9C000DEC5BDC0953409F470C1963409F0D7C5D1
:10E9D00098C1923509F42BC2933538F49C3409F46C
:10E9E000F5C1913509F0CBC518C2963509F445C279
:10E9F000993509F0C4C567C483E792EE62E00F94CD
:10EA0000F5F110920602109207021092080210927D
:10EA1000090210920A0210920B0210920C0210923C
:10EA20000D0213C18FE792EE62E00F94F5F18FEEC5
:10EA300090EE60E00F94F5F181E291EE60E00F94CA
:10EA4000C2F187EB91EE60E00F94F5F180E391EE77
:10EA500060E00F94C2F184EE90EE60E00F94F5F167
:10EA60008FE391EE60E00F94C2F186E090E061E008
:10EA700070E00F9434F20F94DCF18DE591EE60E0DC
:10EA80000F94C2F189EC91EE60E00F94F5F18EE401
:10EA900091EE60E00F94C2F183EC91EE60E00F9490
:10EAA000F5F18CE691EE60E00F94C2F18EE10F94E7
:10EAB0000DF288E90F940DF281E00F940DF20F949E
:10EAC000DCF18BE791EE60E00F94C2F119E0E0E039
:10EAD000F0E010935700E4918E2F0F940DF20F94F5
:10EAE000DCF18AE891EE60E00F94C2F1E3E0F0E03F
:10EAF00010935700E4918E2F0F940DF20F94DCF1D8
:10EB000089E991EE60E00F94C2F1E2E0F0E0109349
:10EB10005700E4918E2F0F940DF20F94DCF188EAE8
:10EB200091EE60E00F94C2F1E1E0F0E01093570045
:10EB30001491812F0F940DF20F94DCF107CF8BE825
:10EB400092EE62E00F94F5F18BE492EE60E00F94A8
:10EB5000F5F10F94DCF100E010E019C0C8016F2D51
:10EB60000F947FFEFF2031F489E492EE60E00F9471
:10EB7000C2F10BC0F092C6008091C00086FFFCCFAE
:10EB80008091C00080648093C0000F5F1F4FC80158
:10EB900081519F41A0E0B0E0ABBFFC01F790BAE229
:10EBA000FB1621F0E2E000301E07C1F60F94DCF105
:10EBB0000F94DCF187E592EE60E00F94F5F10F948D
:10EBC000DCF1CC24DD2400E010E01EC0C8010F946D
:10EBD00077FEF82E882331F489E492EE60E00F94FA
:10EBE000C2F10BC08093C6008091C00086FFFCCFAD
:10EBF0008091C00080648093C000FE1419F00894D6
:10EC0000C11CD11C0F5F1F4FC80181519F41A0E063
:10EC1000B0E0ABBFFC01E790FAE2EF1621F022E092
:10EC20000030120799F60F94DCF10F94DCF182E6C4
:10EC300092EE60E00F94C2F1C60161E070E00F94C3
:10EC400034F20F94DCF10F94DCF110920202109276
:10EC50000302109204021092050278CE89E992EE26
:10EC600062E00F94F5F1279A2F9A16C02F9880E052
:10EC700090E0E0EDF7E03197F1F7019684369105E9
:10EC8000C1F72F9A80E090E0E0EDF7E03197F1F7DF
:10EC9000019684369105C1F78091C00087FFE6CFC9
:10ECA0008091C00087FFFCCF64C485EA92EE62E0E9
:10ECB0000F94F5F140910202509103026091040219
:10ECC0007091050281E020E10F9491F2809102029F
:10ECD00090910302A0910402B091050280509F4FD1
:10ECE000AF4FBF4F8093020290930302A0930402A0
:10ECF000B093050280509041A040B04008F426CE69
:10ED0000A4CF83EB92EE62E00F94F5F140910602FE
:10ED100050910702609108027091090280E020E1A1
:10ED20000F9491F28091060290910702A09108023F
:10ED3000B091090280509F4FAF4FBF4F80930602A2
:10ED400090930702A0930802B0930902FFCD80ECD4
:10ED500092EE62E00F94F5F183E792EE60E00F949B
:10ED6000F5F18FE792EE60E00F94F5F18BE892EE0B
:10ED700060E00F94F5F189E992EE60E00F94F5F10F
:10ED800085EA92EE60E00F94F5F183EB92EE60E09D
:10ED90000F94F5F180EC92EE60E00F94F5F187ECC2
:10EDA00092EE60E00F94F5F188ED92EE60E00F9442
:10EDB000F5F18FED92EE60E00F94F5F18AEE92EEB0
:10EDC00060E00F94F5F183E093EEBDCD87EC92EE19
:10EDD00062E00F94F5F181E40F947BF282E40F94EA
:10EDE0007BF283E40F947BF284E40F947BF285E45E
:10EDF0000F947BF286E40F947BF287E40F947BF20E
:10EE000088E40F947BF28AE40F947BF28BE40F94F6
:10EE10007BF28CE40F947BF299CD88ED92EE62E068
:10EE20000F94F5F1772473948824992409C48FED05
:10EE300092EE62E00F94F5F140910A0250910B02BC
:10EE400060910C0270910D0282E020E10F9491F22A
:10EE500080910A0290910B02A0910C02B0910D02D8
:10EE600080509F4FAF4FBF4F80930A0290930B0289
:10EE7000A0930C02B0930D0269CD8AEE92EE62E08F
:10EE80000F94F5F184EE90EE60E00F94F5F18FECC5
:10EE900091EE60E00F94F5F1662477244301CC5D98
:10EEA000DE4F19821882C452D140D401C301B695F5
:10EEB000A79597958795CA5DDE4F88839983AA8326
:10EEC000BB83C652D140CC5DDE4FA881B981C4520C
:10EED000D1401196CC5DDE4FB983A883C452D14096
:10EEE000CD0162E070E00F9434F2B0E2B093C6005E
:10EEF0008091C00086FFFCCF8091C0008064809329
:10EF0000C000EDE2E093C6008091C00086FFFCCF18
:10EF10008091C00080648093C000F0E2F093C6004E
:10EF20008091C00086FFFCCF8091C00080648093F8
:10EF3000C000CA5DDE4FE880F9800A811B81C6529D
:10EF4000D140BB27A12F902F8F2D0F940DF2CA5DBA
:10EF5000DE4F8881C652D1400F940DF2B0E2FB2EF5
:10EF6000F092C6008091C00086FFFCCF8091C00067
:10EF700080648093C0000DE30093C6008091C000C0
:10EF800086FFFCCF8091C00080648093C00010E2B7
:10EF90001093C6008091C00086FFFCCF8091C00016
:10EFA00080648093C0008BBEF3012791C65DDE4F65
:10EFB0002883CA52D140A22EBB24CC24DD2408943D
:10EFC000611C711C811C911C8BBEF3018791282E42
:10EFD0003324442455240894611C711C811C911C09
:10EFE0008BBEF3013791C55DDE4F3883CB52D140E4
:10EFF0000894611C711C811C911C8BBEF30147910C
:10F00000C45DDE4F4883CC52D140ADEFEA2EAFEF66
:10F01000FA2EAFEF0A2FAFEF1A2F6E0C7F1C801E57
:10F02000911E142D032DF22CEE24EA0CFB1C0C1D5A
:10F030001D1D0F940DF220E22093C6008091C000A8
:10F0400086FFFCCF8091C00080648093C000C65DC5
:10F05000DE4F8881CA52D1400F940DF230E23093D6
:10F06000C6008091C00086FFFCCF8091C000806404
:10F070008093C000C45DDE4F8881CC52D1400F9494
:10F080000DF240E24093C6008091C00086FFFCCFA5
:10F090008091C00080648093C000C55DDE4F888190
:10F0A000CB52D1400F940DF250E25093C6008091A4
:10F0B000C00086FFFCCF8091C00080648093C000B8
:10F0C0008FEFE8168FEFF80680E0080780E018075A
:10F0D00031F484E092EE60E00F94C2F1DFC0D80119
:10F0E000C7018070907CA070B0708050904CA040A0
:10F0F000B040D1F52FEF3FE340E050E0E222F322B1
:10F1000004231523CA5DDE4FA880B980CA80DB8046
:10F11000C652D140AE0CBF1CC01ED11EAA0CBB1CD7
:10F12000CC1CDD1C8EE092EE60E00F94C2F1BB2798
:10F13000A12F902F8F2D0F940DF28E2D0F940DF285
:10F1400030E23093C6008091C00086FFFCCF8091F2
:10F15000C00080648093C0004EE34093C60080915D
:10F16000C00086FFFCCF87C08EE09EEFA0E0B0E03D
:10F17000E822F9220A231B239CE0E91694E9F90608
:10F1800090E0090790E0190709F088C0C45DDE4FE0
:10F19000A881CC52D140EA2EFF2400E010E0102FCD
:10F1A0000F2DFE2CEE24C55DDE4FB881CB52D14031
:10F1B000EB0EF11C011D111DD601C501817090706F
:10F1C000A070B070DC0199278827E80EF91E0A1F8D
:10F1D0001B1F20EF30E040E050E0A222B322C42207
:10F1E000D52241E1AA0CBB1CCC1CDD1C4A95D1F7F1
:10F1F000EA0CFB1C0C1D1D1D81E090E0A0E0B0E0BE
:10F20000282239224A225B2235E1220C331C441C7D
:10F21000551C3A95D1F7E20CF31C041D151D57013E
:10F220006801AA0CBB1CCC1CDD1C85E192EE60E0E1
:10F230000F94C2F1C801AA27BB270F940DF2BB2778
:10F24000A12F902F8F2D0F940DF28E2D0F940DF274
:10F2500090E29093C6008091C00086FFFCCF809121
:10F26000C00080648093C000AEE3A093C60080918C
:10F27000C00086FFFCCF8091C00080648093C000F6
:10F28000C601AA27BB270F940DF2BB27AD2D9C2DDD
:10F290008B2D0F940DF28A2D0F940DF20F94DCF14B
:10F2A000CC5DDE4FE881F981C452D140F99709F471
:10F2B0004DCBF4E0EF2EF12C012D112D6E0C7F1CA7
:10F2C000801E911EF2CD83E093EE62E00F94F5F183
:10F2D0008AE192EE60E00F94C2F18091C00087FF56
:10F2E000FCCF1091C6001F751093C6008091C0001E
:10F2F00086FFFCCF8091C00080648093C0000F9493
:10F30000DCF1812F81548A3108F036C1163409F4BA
:10F3100095C0173490F4133409F44EC0143430F40B
:10F320001134F1F0123409F01DC130C0143409F465
:10F3300059C0153409F016C16BC01A3409F4C4C0A1
:10F340001B3438F4173409F48FC0183409F00AC19B
:10F35000A1C01B3409F4D2C01C3409F003C1E8C0B9
:10F360008FEF81B90DC082B1809582B980E090E0C5
:10F37000E0EDF7E03197F1F70196883C9105C1F790
:10F380008091C00087FFEFCF12B8EFC08FEF84B934
:10F390000DC085B1809585B980E090E0E0EDF7E0A3
:10F3A0003197F1F70196883C9105C1F78091C00033
:10F3B00087FFEFCF15B8D9C08FEF87B90DC088B1DF
:10F3C000809588B980E090E0E0EDF7E03197F1F7C3
:10F3D0000196883C9105C1F78091C00087FFEFCF6F
:10F3E00018B8C3C08FEF8AB90DC08BB180958BB9A7
:10F3F00080E090E0E0EDF7E03197F1F70196883C8E
:10F400009105C1F78091C00087FFEFCF1BB8ADC059
:10F410008FEF8DB90DC08EB180958EB980E090E0F0
:10F42000E0EDF7E03197F1F70196883C9105C1F7DF
:10F430008091C00087FFEFCF1EB897C08FEF80BBD1
:10F440000DC081B3809581BB80E090E0E0EDF7E0F6
:10F450003197F1F70196883C9105C1F78091C00082
:10F4600087FFEFCF11BA81C08FEF83BB0DC084B38C
:10F47000809584BB80E090E0E0EDF7E03197F1F714
:10F480000196883C9105C1F78091C00087FFEFCFBE
:10F4900014BA6BC08FEF809301010FC080910201FD
:10F4A00080958093020180E090E0E0EDF7E03197F5
:10F4B000F1F70196883C9105C1F78091C00087FF64
:10F4C000EDCF1092020151C08FEF809304010FC065
:10F4D0008091050180958093050180E090E0E0ED4A
:10F4E000F7E03197F1F70196883C9105C1F78091DB
:10F4F000C00087FFEDCF1092050137C08FEF8093DA
:10F5000007010FC08091080180958093080180E079
:10F5100090E0E0EDF7E03197F1F70196883C910536
:10F52000C1F78091C00087FFEDCF109208011DC088
:10F530008FEF80930A010FC080910B01809580931B
:10F540000B0180E090E0E0EDF7E03197F1F70196F4
:10F55000883C9105C1F78091C00087FFEDCF1092E4
:10F560000B0103C085E292EEEEC98091C00087FFD7
:10F57000FCCF8091C600EAC988E392EEE4C98CE131
:10F5800091EEE1C988249924933011F1943028F444
:10F59000913089F09230B8F408C0953061F195301F
:10F5A000F0F0963009F048C043C02B3109F042C951
:10F5B00091E06BE13FC96227C15DDE4F2883CF52E6
:10F5C000D14092E037C9B22FA0E0622793E032C960
:10F5D000822F90E0A82BB92B622794E02BC92E3004
:10F5E00009F039C3622795E0C05DDE4F19821882A9
:10F5F000C053D1401FC9E1E0F0E0EC0FFD1FC05D3A
:10F60000DE4F08811981C053D140E00FF11F2083E4
:10F610000F5F1F4FC05DDE4F19830883C053D14079
:10F6200062270A171B0709F005C9D80196E002C92D
:10F63000261709F010C303C0973009F0FBC87724E0
:10F640009981933109F412C19431C8F4963009F4C8
:10F65000D8C0973050F4923009F406C1933009F4C1
:10F660006DC0913009F059C253C0913109F477C08F
:10F67000923108F0BBC0903109F04FC2F5C098310B
:10F6800009F487C0993150F4953109F4EFC09531F0
:10F6900008F4C6C1963109F040C2C2C19A3109F4DA
:10F6A0006CC09A3108F491C09B3109F45BC09D3164
:10F6B00009F033C29D81903359F48F81882311F46E
:10F6C0009EE11CC0813011F091E018C098E916C08D
:10F6D000892F807591F0903539F4E0E0F0E089E011
:10F6E0008093570094910AC0983539F4E3E0F0E034
:10F6F00089E080935700949101C090E01A821B82A8
:10F700008D818C831D829E831F8227E030E009C299
:10F710001A8288E08B8381E48C8386E58D8382E581
:10F720008E8389E48F8383E5888780E589878FE5E9
:10F730008A8782E38B872BE030E0F3C18A818139AD
:10F7400041F0823941F0803911F48FE005C080E04A
:10F7500003C082E001C08AE01A828B8344C0772410
:10F76000739482C08D81882311F48EE12CC0813086
:10F7700011F081E028C088E926C01A82E1E0F0E0BB
:10F7800089E08093570084918B831C8224E030E0D1
:10F79000C8C18B81803589F48C81883039F4E2E0EE
:10F7A000F0E089E08093570084910DC0E0E0F0E044
:10F7B00089E080935700849106C0E3E0F0E089E09F
:10F7C0008093570084911A82DFCF8D81836C99E0FA
:10F7D000E1E0F0E0082E90935700E89507B600FCB2
:10F7E000FDCF1A821B8223E030E09BC180EC8A832C
:10F7F000CE5CDE4F188219821A821B82C253D1401E
:10F800008EC18A8190E0A0E0B0E0582F44273327D2
:10F8100022278B8190E0A0E0B0E0DC0199278827C7
:10F82000282B392B4A2B5B2B8D8190E0A0E0B0E098
:10F83000282B392B4A2B5B2B8C8190E0A0E0B0E089
:10F84000BA2FA92F982F8827282B392B4A2B5B2BCF
:10F85000220F331F441F551FC05EDE4F288339839C
:10F860004A835B83C052D1401A8259C13A81C95C34
:10F87000DE4F3883C753D140CA5CDE4F1882C6536F
:10F88000D1408B81C82EDD24CA5CDE4F488159816E
:10F89000C653D140C42AD52A933109F082C0CE5C28
:10F8A000DE4F88819981AA81BB81C253D1408050AB
:10F8B000904CA340B04030F583E0CE5CDE4FE88052
:10F8C000F9800A811B81C253D140F70100935B008C
:10F8D00080935700E89507B600FCFDCFCE5CDE4F65
:10F8E000088119812A813B81C253D14000501F4FAA
:10F8F0002F4F3F4FCE5CDE4F088319832A833B8313
:10F90000C253D140C05EDE4F488159816A817B81FC
:10F91000C052D140DE011B9631E08C9111962C91A2
:10F9200011971296C75CDE4F2883C953D140C85C3B
:10F93000DE4F1882C853D14090E0C85CDE4FE881AA
:10F94000F981C853D1408E2B9F2B0C01FA01609393
:10F950005B0030935700E89511244E5F5F4F6F4F67
:10F960007F4F0EEFE02E0FEFF02ECE0CDF1CC114F8
:10F97000D10499F685E0C05EDE4F088119812A81A5
:10F980003B81C052D140F80120935B008093570027
:10F99000E89507B600FCFDCF81E180935700E8951C
:10F9A00035C0C05EDE4F88819981AA81BB81C0527B
:10F9B000D140B695A795979587957C018601ABE0D8
:10F9C000AA2EB12CAC0EBD1E0BC0D5016D915D01F0
:10F9D000C7010F947FFE0894E11CF11C01501040F8
:10F9E0000115110591F7A60160E070E0440F551F65
:10F9F000661F771FC05EDE4FE880F9800A811B8199
:10FA0000C052D1404E0D5F1D601F711F1A82C05E33
:10FA1000DE4F488359836A837B83C052D1407FC0C5
:10FA2000FA80C55CDE4FF882CB53D140C65CDE4F16
:10FA30001882CA53D1408B81C82EDD24C65CDE4FAC
:10FA400008811981CA53D140C02AD12A1A828981DA
:10FA5000BE016D5F7F4F843121F59601C05EDE4FA0
:10FA6000E880F9800A811B81C052D1400BBFF701A9
:10FA700087919691DB018C9311969C936E5F7F4FDB
:10FA8000D801C7010296A11DB11DC05EDE4F88835B
:10FA90009983AA83BB83C052D14022503040F1F6F3
:10FAA00036C0C05EDE4F288139814A815B81C052F9
:10FAB000D1400894C108D108760100E010E0089414
:10FAC000C11CD11C0894E11CF11C011D111DE20E8A
:10FAD000F31E041F151F21BDBB27A52F942F832FB5
:10FAE00082BD2F5F3F4F4F4F5F4FF89A80B5DB01CC
:10FAF0008D93BD012E153F054007510761F7C05E8C
:10FB0000DE4F288339834A835B83C052D1409601FC
:10FB10002D5F3F4FFB01108204C080EC8A8322E0FE
:10FB200030E08BE18093C6008091C00086FFFCCF5F
:10FB30008091C00080648093C000C15DDE4FF88179
:10FB4000CF52D140F093C6008091C00086FFFCCF19
:10FB50008091C00080648093C000432F3093C60022
:10FB60008091C00086FFFCCF8091C00080648093AC
:10FB7000C000922F2093C6008091C00086FFFCCF6A
:10FB80008091C00080648093C0008EE08093C600A6
:10FB90008091C00086FFFCCF8091C000806480937C
:10FBA000C00065E1C15DDE4FE880CF52D1406E25D7
:10FBB00069276427FE01319610C090819093C6009A
:10FBC0008091C00086FFFCCF31968091C000806498
:10FBD0008093C0006927215030402115310569F715
:10FBE0006093C6008091C00086FFFCCF8091C0006A
:10FBF00080648093C00085B1805885B9772081F4F6
:10FC0000C15DDE4F0881CF52D1400F5FC15DDE4F35
:10FC10000883CF52D14090E0A0E0B0E00D941AF4F8
:10FC200027982F9880E090E020ED37E0F901319798
:10FC3000F1F7019684369105C9F700008091C00064
:10FC40008D7F8093C00081E180935700E895EE2777
:10FC5000FF270994FFCF90E00D941AF497FB092E2B
:10FC600007260AD077FD04D02ED006D000201AF443
:10FC7000709561957F4F0895F6F7909581959F4F08
:10FC80000895A1E21A2EAA1BBB1BFD010DC0AA1FDD
:10FC9000BB1FEE1FFF1FA217B307E407F50720F0F5
:10FCA000A21BB30BE40BF50B661F771F881F991F70
:10FCB0001A9469F760957095809590959B01AC01B9
:10FCC000BD01CF010895AA1BBB1B51E107C0AA1FAC
:10FCD000BB1FA617B70710F0A61BB70B881F991FED
:10FCE0005A95A9F780959095BC01CD010895F99991
:10FCF000FECF92BD81BDF89A992780B50895262F31
:10FD0000F999FECF1FBA92BD81BD20BD0FB6F89400
:0EFD1000FA9AF99A0FBE01960895F894FFCF63
:00000001FF
