:020000040000FA
:100000000C9452010C94EF0A0C94C40A0C94990AB3
:100010000C946E0A0C94430A0C94180A0C94ED0983
:100020000C94C2090C9483010C9483010C948301F9
:100030000C9483010C9483010C9483010C94830130
:100040000C9483010C9483010C9483010C94830120
:100050000C9483010C9483010C9483010C94780913
:100060000C9483010C9442090C9418090C9483019C
:100070000C9483010C9483010C9483010C948301F0
:100080000C9483010C9483010C9483010C948301E0
:100090000C94E2080C94B8080C9483010C9483012E
:1000A0000C9483010C9483010C9483010C948301C0
:1000B0000C9483010C9483010C9483010C948301B0
:1000C0000C9483010C9483010C9483010C948301A0
:1000D0000C9483010C9483010C9483010C94830190
:1000E0000C9483010C9498030C9463050C948E0378
:1000F0000C9453020C9494030C9444020C94170235
:100100000C94A2030C948A030C9462050C94F901DC
:100110000C949C030C946F030C94B7020C94D901BB
:100120000C9404030C9484030C940F020C94750338
:100130000C94AA030C9467020C94F00E0C947903AF
:100140000C945F0B0C9409020C94B0030C94810383
:100150000C94F1010C9401020C94BA060C94C901A0
:100160000C94E9010C94E1010C94B4030C94AF03DA
:100170000C9475020C94D1010C94A6030C947D038D
:1001800000002100240027002A002D003000330049
:1001900001010000040107010A01000022002500FE
:1001A00028002B002E003100340002010000050160
:1001B00008010B0100000A0B02090C0D0E080703D1
:1001C000040100000000000000000000000000002A
:1001D000000000000000000000000000000000001F
:1001E00012111000000000000000000000000000DC
:1001F00000000000000000000000000020002300BC
:10020000260029002C002F0032000001000003010D
:100210000601090105050505070508080808020289
:1002200002020A0A08080404040401010101010190
:1002300001010303030303030303040707070C0C73
:100240000C0C0C0C0C0C020202020606060606063A
:1002500006060B0B0B0B0B0B0B0B010210202008DF
:100260000810204010204080020102010804020111
:100270000102040810204080804020100804020180
:1002800080040201804020100804020108040201D9
:100290000102040810204080010204081020408060
:1002A0005F0BF00E11241FBECFEFD1E2DEBFCDBF3A
:1002B00000E00CBF24E0A8E3B3E001C01D92A83C1D
:1002C000B207E1F713E0A0E0B2E0E2EEF5E200E011
:1002D0000BBF02C007900D92A833B107D9F711E008
:1002E000C1E5D1E000E006C021970109802FFE01A1
:1002F0000E94C110C035D10780E00807A9F70E940D
:10030000E10B0C94DF120C940000FC01A089B18970
:1003100082E08C93A485B5851C92A685B7858FEC69
:100320008C93108EA489B58986E08C93A289B389B9
:100330008C9180618C93A289B3898C9188608C9315
:10034000A289B3898C9180688C930288F389E02D0F
:1003500080818F7D80830895E82FF0E0DF01AA0F70
:10036000BB1FA050BE4F29E032E011963C932E9364
:10037000883008F04DC08827EF53FE4F8F4F0C9404
:10038000C110E901F101C901D101D901E101F9016E
:100390000102809169008C7F826080936900E89AF5
:1003A000089580916900837F886080936900E99A4D
:1003B0000895809169008F7C806280936900EA9A39
:1003C0000895809169008F73806880936900EB9A2B
:1003D000089580916A008C7F826080936A00EC9A15
:1003E000089580916A00837F886080936A00ED9A07
:1003F000089580916A008F7C806280936A00EE9AF3
:10040000089580916A008F73806880936A00EF9AE4
:100410000895809151038F5F80935103089508954B
:10042000DC01ED91FC910190F081E02D1994AF92E7
:10043000BF92CF92DF92EF92FF920F931F93CF93D1
:10044000DF936C017B018B01040F151FEB015E0133
:10045000AE18BF08C017D10759F06991D601ED91C8
:10046000FC910190F081E02DC6011995892B79F757
:10047000C501DF91CF911F910F91FF90EF90DF9019
:10048000CF90BF90AF900895FC01538D448D252FE0
:1004900030E0842F90E0821B930B541710F0CF961E
:1004A000089501970895FC01918D828D981761F050
:1004B000A28DAE0FBF2FB11D5D968C91928D9F5F67
:1004C0009F73928F90E008958FEF9FEF0895FC0146
:1004D000918D828D981731F0828DE80FF11D858DF9
:1004E00090E008958FEF9FEF0895FC01918D228D8C
:1004F000892F90E0805C9F4F821B91098F73992711
:10050000089580E693E00E94750221E0892B09F4AA
:1005100020E0822F08958DEF93E00E94750221E084
:10052000892B09F420E0822F0895FC01A48DA80FE7
:10053000B92FB11DA35ABF4F2C91848D90E0019625
:100540008F739927848FA689B7892C93A089B18945
:100550008C91837080648C93938D848D981306C0E6
:100560000288F389E02D80818F7D80830895EF924A
:10057000FF920F931F93CF93DF93EC0181E0888F5D
:100580009B8D8C8D98131AC0E889F989808185FF2D
:1005900015C09FB7F894EE89FF896083E889F989CF
:1005A00080818370806480839FBF81E090E0DF91D1
:1005B000CF911F910F91FF90EF900895F62E0B8D24
:1005C00010E00F5F1F4F0F731127E02E8C8D8E11DF
:1005D0000CC00FB607FCFACFE889F989808185FF46
:1005E000F5CFCE010E949502F1CFEB8DEC0FFD2FE0
:1005F000F11DE35AFF4FF0829FB7F8940B8FEA8901
:10060000FB8980818062CFCFCF93DF93EC01888D0F
:100610008823B9F0AA89BB89E889F9898C9185FD7D
:1006200003C0808186FD0DC00FB607FCF7CF8C910B
:1006300085FFF2CF808185FFEDCFCE010E9495022C
:10064000E9CFDF91CF91089580E090E0892B29F0E8
:100650000E948B0281110E94000080E090E0892BB3
:1006600029F00E94810281110E94000080E090E048
:10067000892B49F080E090E0892B29F00E9400004E
:1006800081110E94000080E090E0892B49F080E019
:1006900090E0892B29F00E94000081110C94000049
:1006A00008958150823108F05AC0E82FF0E0882781
:1006B000E35AFC4F8F4F0C94C1107D0381036F03ED
:1006C00075037903AF0384038A038E0394039803AD
:1006D0009C03A203A603AF03AA03B003B403809153
:1006E00080008F77809380000895809180008F7DB7
:1006F000F9CF80918000877FF5CF84B58F7784BD57
:10070000089584B58F7DFBCF8091B0008F77809363
:10071000B00008958091B0008F7DF9CF8091900056
:100720008F77809390000895809190008F7DF9CF0E
:1007300080919000877FF5CF8091A0008F77809384
:10074000A00008958091A0008F7DF9CF8091A00036
:10075000877FF5CF809120018F77809320010895C6
:10076000809120018F7DF9CF80912001877FF5CF87
:10077000CF93DF93282F30E0F901EC54FE4F8491A2
:10078000F901E65AFD4FD491F901EC5EFD4FC49199
:10079000CC23A1F081110E945103EC2FF0E0EE0F69
:1007A000FF1FE650FE4FA591B491EC91ED2381E03F
:1007B00090E009F480E0DF91CF91089580E090E02F
:1007C000FACFCF92DF92EF92FF920F931F93CF93C6
:1007D000C0E007E010E083E7E82EF12CCC24C394BE
:1007E000D12C80915803909159030E94B803892B12
:1007F000C1F3C7010197F1F7809158039091590314
:100800000E94B8039601002E01C0220F0A94EAF755
:10081000892B71F42095C2230150110910F78C2FF8
:10082000CF911F910F91FF90EF90DF90CF9008959F
:10083000C22B80915803909159030E94B803892BD1
:10084000C1F7EACF1F93CF93DF93282F30E0F90150
:10085000EC54FE4F8491F901E65AFD4FD491F90111
:10086000EC5EFD4FC491CC23A9F0162F81110E949C
:100870005103EC2FF0E0EE0FFF1FE656FE4FA5915F
:10088000B4918FB7F894EC91111108C0D095DE2384
:10089000DC938FBFDF91CF911F910895DE2BF8CFAE
:1008A000CF93DF9390E0FC01E65AFD4F24918C5EDC
:1008B0009D4FFC0184918823C9F090E0880F991F17
:1008C000FC01E058FE4FA591B491FC01E656FE4FA5
:1008D000C591D49161110DC09FB7F8948C9120956A
:1008E00082238C938881282328839FBFDF91CF9117
:1008F0000895623051F49FB7F8943C91822F80950F
:1009000083238C93E8812E2BEFCF8FB7F894EC9153
:100910002E2B2C938FBFEACF3FB7F89480913903E9
:1009200090913A03A0913B03B0913C0326B5A89B5C
:1009300005C02F3F19F00196A11DB11D3FBFBA2F71
:10094000A92F982F8827BC01CD01620F711D811D31
:10095000911D42E0660F771F881F991F4A95D1F7B6
:1009600008958F929F92AF92BF92CF92DF92EF92B3
:10097000FF924B015C010E948C046B017C010E9480
:100980008C046C197D098E099F09683E73408105AE
:100990009105A8F321E0821A9108A108B10888EE18
:1009A000C80E83E0D81EE11CF11C81149104A1043F
:1009B000B10429F7FF90EF90DF90CF90BF90AF90F8
:1009C0009F908F90089586E390E0909359038093D1
:1009D0005803809158039091590361E00E9450049C
:1009E000809158039091590360E00E94220462E1D3
:1009F00070E080E090E00E94B104809158039091F3
:100A0000590361E00E9422048BE490E00197F1F722
:100A1000809158039091590362E00E945004109213
:100A20005A038BE990E00197F1F780915803909178
:100A300059030E94B803892B99F48BE391E0019745
:100A4000F1F780915803909159030E94B8030197E0
:100A500019F481E080935A0383EC90E00197F1F759
:100A600080915A03813069F50E94E10380935D0310
:100A70000E94E10380935E030E94E10380935B0385
:100A80000E94E10380935C030E94E10380935F0373
:100A900090915D0360915B0320915E03290F3327E2
:100AA000331FA901460F511D20915C03240F352FE0
:100AB000311D33278217130621F460935603909358
:100AC00057030895089590E080E00895CF93DF9351
:100AD000EC0160E08E810E94220461E08E810E9420
:100AE000220460E08E810E9422048BE891E001974D
:100AF000F1F7DF91CF910895CF92DF92EF92FF92BD
:100B00000F931F93CF93DF936C017C0187E0E80E76
:100B1000F11CD0E0C0E0062F10E0B8010C2E02C09E
:100B2000759567950A94E2F76170F70181917F01ED
:100B30000E9422042196C430D10579F7C601DF91C5
:100B4000CF911F910F91FF90EF90DF90CF900C9479
:100B50006605CF92DF92EF92FF920F931F93CF9390
:100B6000DF93EC01F62E642F8C810E9422048D818C
:100B70008F3F19F060E00E9422040F2D10E08F8556
:100B800084FF25C06E0187E0C80ED11CF12CE12C3A
:100B9000B8010E2C02C0759567950A94E2F7617052
:100BA000F60181916F010E942204FFEFEF1AFF0A04
:100BB00088E0E816F10461F7CE01DF91CF911F9133
:100BC0000F91FF90EF90DF90CF900C946605B801E5
:100BD00084E0759567958A95E1F7CE010E947C05C2
:100BE0006F2DCE01DF91CF911F910F91FF90EF906C
:100BF000DF90CF900C947C0540E0682F8CEA94E065
:100C00000C94A90581E00E94FC058BE39FE101970C
:100C1000F1F70895CF93DF93823029F49091BB04CC
:100C200098609093BB048093BF041092C00480E44A
:100C30008093C10480E18093C20480E58093C30463
:100C400061E08091B0040E9450048091B1048F3F14
:100C500019F061E00E94500461E08091B2040E94AA
:100C60005004CCEAD4E09E012C5A34408091BB045D
:100C700084FD0BC084E090E021962817390744F4E6
:100C800061E08E810E945004EECF88E090E0F4CFC6
:100C90008BE39DE00197F1F760E08091B0040E9442
:100CA000220460E08091B2040E9422048091B10489
:100CB0008F3F19F060E00E9422048091BB0484FD04
:100CC00034C063E08CEA94E00E947C05CBE4D6E477
:100CD000CE010197F1F763E08CEA94E00E947C0575
:100CE0002197F1F763E08CEA94E00E947C0583E5AC
:100CF00092E00197F1F762E08CEA94E00E947C05B3
:100D00008091BB0480620E94FC0584E08093BC0457
:100D10008CE00E94FC050E94020682E08093BD04E4
:100D200086E0DF91CF910C94FC0580620E94FC0567
:100D30008BE496E40197F1F78091BB0480620E94F6
:100D4000FC0583E592E00197F1F78091BB04806296
:100D50000E94FC05D5CF9091BF04691710F06FEF8A
:100D6000690FE62FF0E0E455FB4F9489890F806806
:100D70000C94FC0541E00E94A90581E090E00895F3
:100D80000F931F93CF93DF93EC0188819981009794
:100D900059F02A813B812617370730F081E0DF9137
:100DA000CF911F910F9108958B016F5F7F4F0E942C
:100DB000EE11009759F0998388831B830A832C8155
:100DC0003D81232B59F7FC011082E8CF80E0E7CF6B
:100DD000CF93DF93EC0188819981009711F00E94F5
:100DE0006511198218821D821C821B821A82DF9172
:100DF000CF910895FC0180819181009711F00C94AE
:100E000065110895FB0101900020E9F73197AF01CA
:100E1000461B570BDC01ED91FC910280F381E02D24
:100E20001994CF93DF93FC014481558160817181D6
:100E300080E693E00E941702EC0164E372E080E632
:100E400093E00E9402078C0F9D1FDF91CF910895C0
:100E50008F929F92AF92BF920F931F93CF93DF9386
:100E6000CDB7DEB7A1970FB6F894DEBF0FBECDBFEA
:100E700019A2423008F44AE08E010F5D1F4F842E04
:100E8000912CB12CA12CA50194010E949F10E62F5A
:100E9000B901CA01EA3004F5E05DD801EE938D0195
:100EA000232B242B252B79F790E080E0109729F055
:100EB000BD018CEA94E00E940207A1960FB6F89457
:100EC000DEBF0FBECDBFDF91CF911F910F91BF90BD
:100ED000AF909F908F900895E95CDFCFCF92DF9223
:100EE000EF92FF92CF93DF936C01990FEE08FF080A
:100EF000F7FE19C06DE28CEA94E00E941002EC014A
:100F000066277727CB016C197D098E099F094AE076
:100F10000E9428078C0F9D1FDF91CF91FF90EF90CB
:100F2000DF90CF9008954AE0C701B601DF91CF91DD
:100F3000FF90EF90DF90CF900C9428070C9402075D
:100F4000EF92FF920F931F93CF93DF93EC017B01FE
:100F5000198218821B821A821D821C82FB01019059
:100F60000020E9F731978F01061B170BB8010E948B
:100F7000C006811109C0CE01DF91CF911F910F9161
:100F8000FF90EF900C94E8061D830C83B7018881D5
:100F90009981DF91CF911F910F91FF90EF900C9469
:100FA000D812CF92DF92EF92FF920F931F93CF93BD
:100FB000DF93CDB7DEB72C970FB6F894DEBF0FBE28
:100FC000CDBF6C017B0167E372E080E693E00E9495
:100FD000020764E372E080E693E00E94020768EE95
:100FE00073E080E090E00E94B1046AE372E080E682
:100FF00093E00E94020764E372E080E693E00E94BF
:10100000020768EE73E080E090E00E94B104188669
:101010001F821A8619861C861B86F60100811181A3
:101020000115110569F0C480D580B601CE0107967F
:101030000E94C006811182C0CE0107960E94E80678
:1010400064E472E0CE0101960E94A007CF80D884AC
:10105000C114D10409F47AC00B851C850115110552
:10106000B9F08D819E81080F191FB801CE0101963C
:101070000E94C006882309F469C029813A818D81C4
:101080009E81B601820F931F0E94D8121E830D838A
:101090000D811E810E5F1F4FB801CE0101960E9487
:1010A000C006811158C0CE0101960E94E806CE010B
:1010B00001960E941107CE0101960E94FA06CE0108
:1010C00007960E94FA0668EE73E080E090E00E94C6
:1010D000B104C7010E94110764E572E080E693E065
:1010E0000E949E0761E772E080E693E00E949E07FF
:1010F0006CE772E080E693E00E949E076EE772E084
:1011000080E693E00E949E0768EE73E080E090E046
:101110000E94B1046AE180E693E00E94B7022C9637
:101120000FB6F894DEBF0FBECDBFDF91CF911F91F8
:101130000F91FF90EF90DF90CF900895DC86CB86E3
:10114000B8018F8198850E94D8127ACFCE0101967E
:101150000E94E8069DCF29813A818D819E8161E5BB
:1011600072E0820F931F0E94D8121E830D839FCFBF
:101170001F920F920FB60F9211240BB60F922F935E
:101180003F934F935F936F937F938F939F93AF930F
:10119000BF93EF93FF9380E693E00E949502FF9147
:1011A000EF91BF91AF919F918F917F916F915F91DF
:1011B0004F913F912F910F900BBE0F900FBE0F904C
:1011C0001F9018951F920F920FB60F9211240BB615
:1011D0000F922F938F939F93EF93FF93E091700360
:1011E000F09171038081E0917603F091770382FDA5
:1011F0001DC09081809179038F5F8F7320917A0356
:10120000821741F0E0917903F0E0E05AFC4F958FAE
:1012100080937903FF91EF919F918F912F910F9080
:101220000BBE0F900FBE0F901F9018958081F2CFCC
:101230001F920F920FB60F9211240BB60F922F939D
:101240003F934F935F936F937F938F939F93AF934E
:10125000BF93EF93FF938DEF93E00E949502FF9170
:10126000EF91BF91AF919F918F917F916F915F911E
:101270004F913F912F910F900BBE0F900FBE0F908B
:101280001F9018951F920F920FB60F9211240BB654
:101290000F922F938F939F93EF93FF93E0910D0401
:1012A000F0910E048081E0911304F091140482FD0A
:1012B0001DC09081809116048F5F8F732091170459
:1012C000821741F0E0911604F0E0E350FC4F958F57
:1012D00080931604FF91EF919F918F912F910F9022
:1012E0000BBE0F900FBE0F901F9018958081F2CF0C
:1012F0001F920F920FB60F9211242F933F938F934B
:101300009F93AF93BF938091430390914403A09127
:101310004503B09146033091380323E0230F2D3766
:1013200058F50196A11DB11D209338038093430306
:1013300090934403A0934503B093460380913903EF
:1013400090913A03A0913B03B0913C030196A11DFB
:10135000B11D8093390390933A03A0933B03B0935C
:101360003C03BF91AF919F918F913F912F910F902F
:101370000FBE0F901F90189526E8230F0296A11D0F
:10138000B11DD2CF1F920F920FB60F9211240BB640
:101390000F922F933F934F935F936F937F938F930E
:1013A0009F93AF93BF93EF93FF93E0910E02F09161
:1013B0000F021995FF91EF91BF91AF919F918F917E
:1013C0007F916F915F914F913F912F910F900BBE45
:1013D0000F900FBE0F901F9018951F920F920FB68F
:1013E0000F9211240BB60F922F933F934F935F935D
:1013F0006F937F938F939F93AF93BF93EF93FF93DD
:10140000E0910C02F0910D021995FF91EF91BF91BF
:10141000AF919F918F917F916F915F914F913F918C
:101420002F910F900BBE0F900FBE0F901F9018952D
:101430001F920F920FB60F9211240BB60F922F939B
:101440003F934F935F936F937F938F939F93AF934C
:10145000BF93EF93FF93E0910202F091030219957D
:10146000FF91EF91BF91AF919F918F917F916F917C
:101470005F914F913F912F910F900BBE0F900FBE38
:101480000F901F9018951F920F920FB60F92112474
:101490000BB60F922F933F934F935F936F937F936E
:1014A0008F939F93AF93BF93EF93FF93E0910002CD
:1014B000F09101021995FF91EF91BF91AF919F912A
:1014C0008F917F916F915F914F913F912F910F90ED
:1014D0000BBE0F900FBE0F901F9018951F920F928A
:1014E0000FB60F9211240BB60F922F933F934F9389
:1014F0005F936F937F938F939F93AF93BF93EF937C
:10150000FF93E0910A02F0910B021995FF91EF9180
:10151000BF91AF919F918F917F916F915F914F910B
:101520003F912F910F900BBE0F900FBE0F901F9009
:1015300018951F920F920FB60F9211240BB60F92AF
:101540002F933F934F935F936F937F938F939F93CB
:10155000AF93BF93EF93FF93E0910802F0910902DC
:101560001995FF91EF91BF91AF919F918F917F91CD
:101570006F915F914F913F912F910F900BBE0F9004
:101580000FBE0F901F9018951F920F920FB60F92DB
:1015900011240BB60F922F933F934F935F936F934A
:1015A0007F938F939F93AF93BF93EF93FF93E091BC
:1015B0000602F09107021995FF91EF91BF91AF914B
:1015C0009F918F917F916F915F914F913F912F915B
:1015D0000F900BBE0F900FBE0F901F9018951F928B
:1015E0000F920FB60F9211240BB60F922F933F93C9
:1015F0004F935F936F937F938F939F93AF93BF931B
:10160000EF93FF93E0910402F09105021995FF9189
:10161000EF91BF91AF919F918F917F916F915F916A
:101620004F913F912F910F900BBE0F900FBE0F90D7
:101630001F901895CF92DF92EF92FF920F931F9316
:10164000E82FF92F05C0015011092109310961F175
:10165000908196239417B9F305C00150110921090F
:10166000310911F1908196239413F7CFC12CD12C1D
:10167000E12CF12C0AC08FEFC81AD80AE80AF80A40
:101680000C151D052E053F0579F0808186238417F2
:1016900091F36C2D7D2D8E2D9F2D1F910F91FF901D
:1016A000EF90DF90CF90089560E070E080E090E0F0
:1016B0001F910F91FF90EF90DF90CF900895E0E69B
:1016C000F3E01382128248EE53E060E070E044835E
:1016D0005583668377838AE192E0918380832DEC42
:1016E00030E0358724872CEC30E03787268728ECDC
:1016F00030E0318B208B29EC30E0338B228B2AECCD
:1017000030E0358B248B2EEC30E0378B268B118E1E
:10171000128E138E148EEDEFF3E013821282448347
:101720005583668377839183808385EC90E09587EA
:10173000848784EC90E09787868780EC90E0918B9B
:10174000808B81EC90E0938B828B82EC90E0958B88
:10175000848B86EC90E0978B868B118E128E138E85
:10176000148EECEAF4E0138212828CE292E0918310
:10177000808388E084838FEF858389E086838AE095
:1017800087838BE080878CE081878DE0828713865A
:10179000148615861686178681E00E940A0666E37F
:1017A00072E086EA94E00E94A00769E872E080EAAD
:1017B00094E00E94A00768E972E08AE994E00C9442
:1017C000A007CF93DF93CDB7DEB72C970FB6F89471
:1017D000DEBF0FBECDBF789484B5826084BD84B572
:1017E000816084BD85B5826085BD85B5816085BD1C
:1017F00080916E00816080936E00109281008091D4
:10180000810082608093810080918100816080935B
:101810008100809180008160809380008091B10080
:1018200084608093B1008091B00081608093B000AB
:1018300080919100826080939100809191008160FD
:1018400080939100809190008160809390008091BE
:10185000A10082608093A1008091A10081608093AB
:10186000A1008091A00081608093A000809121015F
:101870008260809321018091210181608093210108
:101880008091200181608093200180917A008460A2
:1018900080937A0080917A00826080937A008091B0
:1018A0007A00816080937A0080917A0080688093CA
:1018B0007A001092C1008DEF93E00E94850180E6CE
:1018C00093E00E94850182E00E940A0687E390E08F
:1018D00090933E0380933D0388E390E09093400310
:1018E00080933F0361E087E30E94500460E08091B1
:1018F0003F030E94500460E082E00E94500461E0D7
:1019000082E00E94220460E083E00E9450040E9472
:10191000E3040E94020660E081E00E94AB0666EAF2
:1019200072E08CEA94E00E949E0761E083E00E94EE
:10193000AB0665EB72E08CEA94E00E949E0764E6D9
:1019400070E080E090E00E94B1040E94020680E016
:101950000E94AC0123E0E22EF12C33E2C32ED12C05
:101960004FE0A42E42E0B42E2FB7F89480914303A9
:1019700090914403A0914503B09146032FBF40913D
:101980005203509153036091540370915503841B8B
:10199000950BA60BB70B893E9340A105B10508F442
:1019A00004C20E94E30480915603823200F161E494
:1019B0008DEF93E00E94100260EC72E0CE0107967A
:1019C0000E94A00761ED72E0CE0101960E94A0077F
:1019D000BE01695F7F4FCE0101960E94D107CE0103
:1019E00001960E94FA06CE0107960E94FA0660E070
:1019F00080E00E94AB066CED72E08CEA94E00E94FD
:101A00009E0760E082E00E94AB066091560370E0A2
:101A100090E080E04AE00E94280764E670E080E001
:101A200090E00E94B10460E085E00E94AB066FED9B
:101A300072E08CEA94E00E949E0760E080913D0392
:101A40000E942204C7010197F1F761E080913D03F4
:101A50000E942204C6010197F1F760E080913D03E6
:101A60000E94220480913F03909140039927FC013A
:101A7000E65AFD4F6491FC01EC5EFD4FE491F0E00D
:101A8000EE0FFF1FE650FE4F8591949100E412E4A3
:101A90002FE030E0462F0E941A0B61157105810579
:101AA000910529F06F5F7F4F8F4F9F4F9F709B0174
:101AB00077FF02C02F5F3F4FB90175956795072EDD
:101AC000000C880B990B0E94FE0E2DEC3CEC48EEAE
:101AD00051E40E94F70F0E9469109B01709342032A
:101AE000609341036A3071050CF067C163E48DEFC8
:101AF00093E00E94100262EE72E08CEA94E00E9491
:101B00009E0764EE72E0CE0107960E94A00761ED89
:101B100072E0CE0101960E94A007BE01695F7F4F6F
:101B2000CE0101960E94D107CE0101960E94FA06CD
:101B3000CE0107960E94FA0660E089E00E94AB069B
:101B400064EF72E08CEA94E00E949E0760E08BE014
:101B50000E94AB0683E00E94B8033C010E946E071E
:101B6000672801F564E48DEF93E00E94100267EFAF
:101B700072E0CE0101960E94A00761ED72E0CE01F5
:101B800007960E94A007BE016F5F7F4FCE010796A8
:101B90000E94D107CE0107960E94FA06CE01019657
:101BA0000E94FA0660E08DE00E94AB0665E073E0FB
:101BB0008CEA94E00E949E0760E08FE00E94AB06F2
:101BC00084E00E94B8030E946E0761E080E00E94FA
:101BD000AB0684E00E94B803892B01F562E48DEF27
:101BE00093E00E94100268E073E0CE0101960E942B
:101BF000A00761ED72E0CE0107960E94A007BE012A
:101C00006F5F7F4FCE0107960E94D107CE010796E6
:101C10000E94FA06CE0101960E94FA0669E173E07D
:101C20008CEA94E00E949E07EC98B0920102A09288
:101C300000022FB7F89460914303709144038091A0
:101C40004503909146032FBF7090510300915203BA
:101C5000109153032091540330915503601B710B75
:101C6000820B930B0E94FC0E9B01AC0160E070E0C4
:101C70008AE794E40E94F70F1B012C01672D70E0A6
:101C800090E080E00E94FE0E9B01AC01C201B10118
:101C90000E94390F20E030E044EB52E40E94F70F3D
:101CA00060934D0370934E0380934F0390935003C2
:101CB0002FB7F8948091430390914403A09145037A
:101CC000B09146032FBF8093520390935303A09388
:101CD0005403B093550320E030E040E752E46091B4
:101CE0004D0370914E0380914F03909150030E94D9
:101CF000F70F20E030E04AE754E40E94390F0E94D9
:101D0000701070934C0360934B032B01712C612C6A
:101D10008091470390914803A0914903B0914A03F1
:101D2000840D951DA61DB71D80934703909348030E
:101D3000A0934903B0934A0361E082E00E94AB069E
:101D40004AE0C301B2010E94280780914B039091A1
:101D50004C03069750F165E48DEF93E00E9410026A
:101D600061E084E00E94AB066CE173E08CEA94E0F1
:101D70000E949E0769E273E0CE0101960E94A007CF
:101D800061ED72E0CE0107960E94A007BE016F5F71
:101D90007F4FCE0107960E94D107CE0107960E9481
:101DA000FA06CE0101960E94FA061092510380E0D5
:101DB0000E94AC010E942403D7CD6B50710963319E
:101DC000710538F462EF72E08CEA94E00E949E079D
:101DD000B3CE2F3131050CF4AFCE6FEC72E0F4CFFF
:101DE0008AE994E00E94FA0680EA94E00E94FA06EA
:101DF00086EA94E00C94FA06E89409C097FB3EF456
:101E000090958095709561957F4F8F4F9F4F992347
:101E1000A9F0F92F96E9BB279395F69587957795C5
:101E20006795B795F111F8CFFAF4BB0F11F460FF85
:101E30001BC06F5F7F4F8F4F9F4F16C0882311F0DD
:101E400096E911C0772321F09EE8872F762F05C0F1
:101E5000662371F096E8862F70E060E02AF09A958C
:101E6000660F771F881FDAF7880F9695879597F981
:101E700008950E944C0F0C94BD0F0E94AF0F38F0D4
:101E80000E94B60F20F0952311F00C94A60F0C942D
:101E9000AC0F11240C94F10F0E94CE0F70F3959F9C
:101EA000C1F3950F50E0551F629FF001729FBB2751
:101EB000F00DB11D639FAA27F00DB11DAA1F649FED
:101EC0006627B00DA11D661F829F2227B00DA11DA0
:101ED000621F739FB00DA11D621F839FA00D611D26
:101EE000221F749F3327A00D611D231F849F600D47
:101EF000211D822F762F6A2F11249F5750409AF070
:101F0000F1F088234AF0EE0FFF1FBB1F661F771FFB
:101F1000881F91505040A9F79E3F510580F00C94C6
:101F2000A60F0C94F10F5F3FE4F3983ED4F386952F
:101F300077956795B795F795E7959F5FC1F7FE2B66
:101F4000880F911D9695879597F9089597F99F6742
:101F500080E870E060E008959FEF80EC0895002431
:101F60000A941616170618060906089500240A94FE
:101F700012161306140605060895092E0394000C84
:101F800011F4882352F0BB0F40F4BF2B11F460FF13
:101F900004C06F5F7F4F8F4F9F4F089557FD90583C
:101FA000440F551F59F05F3F71F04795880F97FB1D
:101FB000991F61F09F3F79F08795089512161306D7
:101FC0001406551FF2CF4695F1DF08C01616170606
:101FD0001806991FF1CF869571056105089408953B
:101FE000E894BB2766277727CB0197F908950E94CD
:101FF0000B100C94BD0F0E94B60F58F00E94AF0F4B
:1020000040F029F45F3F29F00C94A60F51110C9475
:10201000F10F0C94AC0F0E94CE0F68F39923B1F32B
:10202000552391F3951B550BBB27AA2762177307FE
:10203000840738F09F5F5F4F220F331F441FAA1F92
:10204000A9F335D00E2E3AF0E0E832D0915050404E
:10205000E695001CCAF72BD0FE2F29D0660F771FFC
:10206000881FBB1F261737074807AB07B0E809F0E2
:10207000BB0B802DBF01FF2793585F4F3AF09E3F67
:10208000510578F00C94A60F0C94F10F5F3FE4F328
:10209000983ED4F3869577956795B795F7959F5FAA
:1020A000C9F7880F911D9695879597F90895E1E0F6
:1020B000660F771F881FBB1F621773078407BA0755
:1020C00020F0621B730B840BBA0BEE1F88F7E095B0
:1020D00008950E9470106894B1110C94F10F089546
:1020E0000E94D60F88F09F5798F0B92F9927B751C3
:1020F000B0F0E1F0660F771F881F991F1AF0BA95AC
:10210000C9F714C0B13091F00E94F00FB1E008950A
:102110000C94F00F672F782F8827B85F39F0B93FFC
:10212000CCF3869577956795B395D9F73EF490955E
:102130008095709561957F4F8F4F9F4F0895A1E2D5
:102140001A2EAA1BBB1BFD010DC0AA1FBB1FEE1F31
:10215000FF1FA217B307E407F50720F0A21BB30B7C
:10216000E40BF50B661F771F881F991F1A9469F7F8
:1021700060957095809590959B01AC01BD01CF0154
:102180000895EE0FFF1F881F8BBF0790F691E02D7B
:1021900019940F931F93CF93DF938230910510F41E
:1021A00082E090E0E091C604F091C70430E020E0C6
:1021B000B0E0A0E0309799F42115310509F44AC048
:1021C000281B390B24303105D8F58A819B81611594
:1021D000710589F1FB0193838283FE0111C0408167
:1021E00051810281138148175907E0F048175907B8
:1021F00099F4109761F012960C93129713961C9312
:102200003296CF01DF91CF911F910F9108950093E6
:10221000C6041093C704F4CF2115310551F04217BD
:10222000530738F0A901DB019A01BD01DF01F80174
:10223000C1CFEF01F9CF9093C7048093C604CDCFEF
:10224000FE01E20FF31F81939193225031093983EC
:102250002883D7CF2091C4043091C504232B41F4A7
:1022600020911202309113023093C5042093C404CC
:1022700020911002309111022115310541F42DB742
:102280003EB74091140250911502241B350BE0918A
:10229000C404F091C504E217F307A0F42E1B3F0B12
:1022A0002817390778F0AC014E5F5F4F24173507C8
:1022B00048F04E0F5F1F5093C5044093C4048193B0
:1022C00091939FCFF0E0E0E09CCFCF93DF93009716
:1022D000E9F0FC01329713821282A091C604B091FA
:1022E000C704ED0130E020E01097A1F42081318196
:1022F000820F931F2091C4043091C5042817390719
:1023000009F061C0F093C504E093C404DF91CF915C
:102310000895EA01CE17DF07E8F54A815B819E0147
:1023200041155105B1F7E901FB83EA8349915991C0
:10233000C40FD51FEC17FD0761F4808191810296CF
:10234000840F951FE90199838883828193819B8300
:102350008A83F0E0E0E012968D919C9113970097AC
:10236000B9F52D913C911197CD010296820F931FE3
:102370002091C4043091C5042817390739F63097E5
:1023800051F51092C7041092C604B093C504A093EF
:10239000C404BCCFD383C28340815181840F951F75
:1023A000C817D90761F44E5F5F4F88819981480F44
:1023B000591F518340838A819B8193838283211596
:1023C000310509F0B0CFF093C704E093C6049ECF67
:1023D000FD01DC01C0CF13821282D7CF4F925F92F2
:1023E0006F927F928F929F92AF92BF92CF92DF9225
:1023F000EF92FF920F931F93CF93DF938C0100977F
:1024000099F4CB01DF91CF911F910F91FF90EF9045
:10241000DF90CF90BF90AF909F908F907F906F9004
:102420005F904F900C94C910FC01E60FF71F9C01C0
:1024300022503109E217F30708F4AEC0D901CD915B
:10244000DC911197C617D70720F1C530D10578F078
:10245000CE0104978617970750F0C61BD70B22971B
:10246000C193D1936D937C93CF010E946511C801F4
:10247000DF91CF911F910F91FF90EF90DF90CF9060
:10248000BF90AF909F908F907F906F905F904F9094
:1024900008955B01AC1ABD0A4C018C0E9D1EA091E3
:1024A000C604B091C704512C412CF12CE12C10979B
:1024B00031F58091C4049091C5048815990509F0FF
:1024C0005CC04616570608F058C0809110029091E3
:1024D0001102009741F48DB79EB7409114025091BC
:1024E0001502841B950BE817F90708F055C0F09307
:1024F000C504E093C404F90171836083B8CF8D9162
:102500009C91119712966C90129713967C9013974A
:10251000A815B90559F56C0142E0C40ED11CCA14C6
:10252000DB0420F1AC014A195B09DA011296159718
:1025300080F06282738251834083D9016D937C93D2
:10254000E114F10471F0D7011396FC93EE93129706
:102550008ECF22968C0F9D1FF90191838083F3010A
:10256000EFCFF093C704E093C60481CF4816590615
:1025700008F42C017D01D3019ACFCB010E94C91030
:102580007C01009749F0AE01B8010E94CF12C8014A
:102590000E94651187016BCF10E000E068CFFB015E
:1025A000DC0102C001900D9241505040D8F70895CF
:1025B000FB01DC0101900D920020E1F7089511E08C
:1025C000C1E5D1E000E006C0802FFE010E94C110ED
:1025D0002196011DC235D10780E00807A9F7F894BC
:1025E000FFCF0F020F020F020F020F020F020F02A6
:1025F0000F020000C804800000000000B7021702AC
:102600004402040375025302670200000000BA0688
:102610001702630562050D0A0041540041542B4323
:102620004D47463D310041542B434D47533D222BEE
:10263000393100220D0068747470733A2F2F777748
:10264000772E676F6F676C652E636F6D2F6D61708E
:10265000732F0031332E30343631303036002C00B9
:1026600038302E32323039363634004E6F205261D7
:102670006E6765202020202020004E6F2052616E62
:102680006765202020202000445241494E414745A3
:102690005F424C4F434B004D4F4E49544F52494EB1
:1026A0004700484947482054454D504552415455EC
:1026B0005245003831383939383833343700543AD4
:1026C00000553A004600445241494E414745204694
:1026D000554C4C004D00443A00445241494E41474C
:1026E00045204F50454E00473A004D455448414E15
:1026F0004520444554454354454400463A00666CE1
:102700006F7720626C6F636B656400464C4F572097
:0A271000424C4F434B4544200000AB
:10E000000D9489F10D94B2F10D94B2F10D94B2F129
:10E010000D94B2F10D94B2F10D94B2F10D94B2F1F0
:10E020000D94B2F10D94B2F10D94B2F10D94B2F1E0
:10E030000D94B2F10D94B2F10D94B2F10D94B2F1D0
:10E040000D94B2F10D94B2F10D94B2F10D94B2F1C0
:10E050000D94B2F10D94B2F10D94B2F10D94B2F1B0
:10E060000D94B2F10D94B2F10D94B2F10D94B2F1A0
:10E070000D94B2F10D94B2F10D94B2F10D94B2F190
:10E080000D94B2F10D94B2F10D94B2F10D94B2F180
:10E090000D94B2F10D94B2F10D94B2F10D94B2F170
:10E0A0000D94B2F10D94B2F10D94B2F10D94B2F160
:10E0B0000D94B2F10D94B2F10D94B2F10D94B2F150
:10E0C0000D94B2F10D94B2F10D94B2F10D94B2F140
:10E0D0000D94B2F10D94B2F10D94B2F10D94B2F130
:10E0E0000D94B2F141546D656761323536300041AF
:10E0F000726475696E6F206578706C6F72657220DE
:10E1000073746B3530305632206279204D4C530099
:10E11000426F6F746C6F616465723E004875683F52
:10E1200000436F6D70696C6564206F6E203D200048
:10E130004350552054797065202020203D20005FF9
:10E140005F4156525F415243485F5F3D2000415658
:10E1500052204C696243205665723D20004743437C
:10E160002056657273696F6E203D20004350552024
:10E1700049442020202020203D20004C6F7720663D
:10E18000757365202020203D20004869676820665F
:10E190007573652020203D200045787420667573D6
:10E1A00065202020203D20004C6F636B2066757336
:10E1B000652020203D20004D617220203720323024
:10E1C000313300312E362E3800342E332E350056A2
:10E1D00023202020414444522020206F7020636F70
:10E1E00064652020202020696E73747275637469E1
:10E1F0006F6E2061646472202020496E74657272B3
:10E20000757074006E6F20766563746F7200726A49
:10E210006D702020006A6D70200057686174207056
:10E220006F72743A00506F7274206E6F7420737541
:10E2300070706F72746564004D7573742062652030
:10E2400061206C6574746572002000577269747483
:10E25000696E672045450052656164696E672045B7
:10E26000450045452065727220636E743D00504F35
:10E27000525400303D5A65726F2061646472003FF1
:10E280003D43505520737461747300403D454550C3
:10E29000524F4D207465737400423D426C696E6B41
:10E2A000204C454400453D44756D70204545505215
:10E2B0004F4D00463D44756D7020464C415348001B
:10E2C000483D48656C70004C3D4C69737420492F83
:10E2D0004F20506F72747300513D51756974005234
:10E2E0003D44756D702052414D00563D73686F7707
:10E2F00020696E7465727275707420566563746FF0
:10E30000727300593D506F727420626C696E6B00BD
:10E310002A0011241FBECFEFD1E2DEBFCDBF01E046
:10E320000CBF12E0A0E0B2E0EEE1FDEF03E00BBFB6
:10E3300002C007900D92A030B107D9F712E0A0E01B
:10E34000B2E001C01D92AE30B107E1F70F9460F367
:10E350000D948DFE01E20EBF0FEF0DBF11241FBE05
:10E360000D9460F30D9400F020E030E040ED57E0B4
:10E3700005C0FA013197F1F72F5F3F4F2817390792
:10E38000C0F308959C01260F311DC901A0E0B0E043
:10E390002F5F3F4FABBFFC018791882361F08093D3
:10E3A000C6008091C00086FFFCCF8091C0008064D1
:10E3B0008093C000EACF08958DE08093C6008091DD
:10E3C000C00086FFFCCF8091C00080648093C000B5
:10E3D0008AE08093C6008091C00086FFFCCF8091C8
:10E3E000C00080648093C00008950F94C2F10F9420
:10E3F000DCF10895FC019081992359F09093C600B7
:10E400008091C00086FFFCCF8091C0008064809323
:10E41000C0003196992379F70895282F982F929567
:10E420009F70892F805D8A3308F0895F8093C600D2
:10E430008091C00086FFFCCF8091C00080648093F3
:10E44000C000822F8F70982F905D9A3308F0995FEB
:10E450009093C6008091C00086FFFCCF8091C000E1
:10E4600080648093C00008959C01FB01853691056E
:10E470001CF46330710594F0C90164E670E00F94F8
:10E480002EFE605D7F4F6093C6008091C00086FFC6
:10E49000FCCF8091C00080648093C0002B30310598
:10E4A00014F43297B4F0C90164E670E00F942EFEC4
:10E4B0006AE070E00F942EFE605D7F4F6093C600AF
:10E4C0008091C00086FFFCCF8091C0008064809363
:10E4D000C000C9016AE070E00F942EFEC0968093E0
:10E4E000C6008091C00086FFFCCF8091C000806490
:10E4F0008093C00008951F93182F8EE692EE60E07F
:10E500000F94C2F11093C6008091C00086FFFCCF2B
:10E510008091C00080648093C0000F94DCF11F9153
:10E5200008952F923F924F925F926F927F928F92B7
:10E530009F92AF92BF92CF92DF92EF92FF920F9392
:10E540001F93DF93CF93CDB7DEB762970FB6F894E2
:10E55000DEBF0FBECDBF382E622ECA01DB015C01CB
:10E560006D01772420E2222E2E010894411C511CBB
:10E570008BC081E0A81680E0B80681E0C80680E084
:10E58000D80628F0C601AA27BB270F940DF2BB2797
:10E59000AD2D9C2D8B2D0F940DF28A2D0F940DF225
:10E5A0002092C6008091C00086FFFCCF8091C00001
:10E5B00080648093C0009DE29093C6008091C0006B
:10E5C00086FFFCCF8091C00080648093C0002092C1
:10E5D000C6008091C00086FFFCCF8091C00080649F
:10E5E0008093C00019828601750188249924A1E0D6
:10E5F0003A1651F03A1620F0B2E03B1661F409C029
:10E600000BBFF701779007C0C7010F9477FE782EF4
:10E6100002C0F7017080872D0F940DF22092C60082
:10E620008091C00086FFFCCF8091C0008064809301
:10E63000C000872D8052F401EF70F0708F3520F408
:10E64000E40DF51D708204C0E40DF51D8EE280839B
:10E650000894E11CF11C011D111D0894811C911CE2
:10E6600090E18916910409F0C2CF80E190E0A0E02A
:10E67000B0E0A80EB91ECA1EDB1E198AC2010F9493
:10E68000FAF10F94DCF16A94662009F072CF629679
:10E690000FB6F894DEBF0FBECDBFCF91DF911F91B3
:10E6A0000F91FF90EF90DF90CF90BF90AF909F9031
:10E6B0008F907F906F905F904F903F902F90089534
:10E6C0002F923F924F925F926F927F928F929F9282
:10E6D000AF92BF92CF92DF92EF92FF920F931F9370
:10E6E000DF93CF93CDB7DEB7CD53D1400FB6F894BB
:10E6F000DEBF0FBECDBF01E20EBF0FEF0DBF94B75F
:10E70000F894A89514BE80916000886180936000A1
:10E7100010926000789493FF05C0E0910002F091A0
:10E7200001021995279A2F9A8091C00082608093E8
:10E73000C00080E18093C40088E18093C1000000A4
:10E74000EE24FF24870144E0A42EB12CCC24DD2448
:10E7500024C0C5010197F1F70894E11CF11C011DCB
:10E76000111D21E2E2162EE4F20620E0020720E06D
:10E77000120718F031E0C32ED12CC801B70127ECE5
:10E780003BE140E050E00F9441FE611571058105C9
:10E79000910519F485B1805885B98091C00087FD35
:10E7A00003C0C114D104A9F2A6014F5F5F4FC25E3E
:10E7B000DE4F59834883CE51D140C25EDE4F8881FF
:10E7C0009981CE51D140019711F00D9410FEC05D9A
:10E7D000DE4F19821882C053D14060E0C15DDE4F28
:10E7E0001882CF52D14088249924C35DDE4F19820C
:10E7F0001882CD52D140C05EDE4F188219821A8233
:10E800001B82C052D140CE5CDE4F188219821A8220
:10E810001B82C253D140EE24FF2487010BBFF701B6
:10E8200007911691C45CDE4F19830883CC53D14005
:10E830000D940BFEC25EDE4F28813981CE51D1404E
:10E840002130310509F52091C600C25EDE4F1982E4
:10E850001882CE51D14022C02F5F3F4F4F4F5F4FA4
:10E86000213082E138078AE7480780E0580780F0C6
:10E87000C45CDE4FE881F981CC53D140EF5FFF4F9C
:10E8800019F0EE27FF27099420E030E040E050E047
:10E890008091C00087FFE0CF2091C600C35DDE4FAE
:10E8A00048815981CD52D1404F5F5F4FC35DDE4FEC
:10E8B00059834883CD52D140213209F063C64A3092
:10E8C000510508F05FC60894811C911C53E0851621
:10E8D000910409F059C600E010E018C081E280936D
:10E8E000C6008091C00086FFFCCF8091C00080648C
:10E8F0008093C0002F5F3F4F2931310579F70F9486
:10E90000DCF10F5F1F4F0530110519F020E030E0FA
:10E91000E5CF10920A0210920B0210920C02109294
:10E920000D02109206021092070210920802109235
:10E930000902109202021092030210920402109235
:10E9400005028FEE90EE60E00F94F5F180E191EE1C
:10E9500060E00F94C2F18091C00087FFFCCF9091DE
:10E96000C600903608F09F759032B8F09093C600BC
:10E970008091C00086FFFCCF8091C00080648093AE
:10E98000C000A0E2A093C6008091C00086FFFCCF2B
:10E990008091C00080648093C000983409F4D7C18E
:10E9A0009934B8F4923409F459C1933458F490333B
:10E9B00019F1903308F4E3C59F33A1F1903409F0C5
:10E9C000DEC5BDC0953409F470C1963409F0D7C5D1
:10E9D00098C1923509F42BC2933538F49C3409F46C
:10E9E000F5C1913509F0CBC518C2963509F445C279
:10E9F000993509F0C4C567C483E792EE62E00F94CD
:10EA0000F5F110920602109207021092080210927D
:10EA1000090210920A0210920B0210920C0210923C
:10EA20000D0213C18FE792EE62E00F94F5F18FEEC5
:10EA300090EE60E00F94F5F181E291EE60E00F94CA
:10EA4000C2F187EB91EE60E00F94F5F180E391EE77
:10EA500060E00F94C2F184EE90EE60E00F94F5F167
:10EA60008FE391EE60E00F94C2F186E090E061E008
:10EA700070E00F9434F20F94DCF18DE591EE60E0DC
:10EA80000F94C2F189EC91EE60E00F94F5F18EE401
:10EA900091EE60E00F94C2F183EC91EE60E00F9490
:10EAA000F5F18CE691EE60E00F94C2F18EE10F94E7
:10EAB0000DF288E90F940DF281E00F940DF20F949E
:10EAC000DCF18BE791EE60E00F94C2F119E0E0E039
:10EAD000F0E010935700E4918E2F0F940DF20F94F5
:10EAE000DCF18AE891EE60E00F94C2F1E3E0F0E03F
:10EAF00010935700E4918E2F0F940DF20F94DCF1D8
:10EB000089E991EE60E00F94C2F1E2E0F0E0109349
:10EB10005700E4918E2F0F940DF20F94DCF188EAE8
:10EB200091EE60E00F94C2F1E1E0F0E01093570045
:10EB30001491812F0F940DF20F94DCF107CF8BE825
:10EB400092EE62E00F94F5F18BE492EE60E00F94A8
:10EB5000F5F10F94DCF100E010E019C0C8016F2D51
:10EB60000F947FFEFF2031F489E492EE60E00F9471
:10EB7000C2F10BC0F092C6008091C00086FFFCCFAE
:10EB80008091C00080648093C0000F5F1F4FC80158
:10EB900081519F41A0E0B0E0ABBFFC01F790BAE229
:10EBA000FB1621F0E2E000301E07C1F60F94DCF105
:10EBB0000F94DCF187E592EE60E00F94F5F10F948D
:10EBC000DCF1CC24DD2400E010E01EC0C8010F946D
:10EBD00077FEF82E882331F489E492EE60E00F94FA
:10EBE000C2F10BC08093C6008091C00086FFFCCFAD
:10EBF0008091C00080648093C000FE1419F00894D6
:10EC0000C11CD11C0F5F1F4FC80181519F41A0E063
:10EC1000B0E0ABBFFC01E790FAE2EF1621F022E092
:10EC20000030120799F60F94DCF10F94DCF182E6C4
:10EC300092EE60E00F94C2F1C60161E070E00F94C3
:10EC400034F20F94DCF10F94DCF110920202109276
:10EC50000302109204021092050278CE89E992EE26
:10EC600062E00F94F5F1279A2F9A16C02F9880E052
:10EC700090E0E0EDF7E03197F1F7019684369105E9
:10EC8000C1F72F9A80E090E0E0EDF7E03197F1F7DF
:10EC9000019684369105C1F78091C00087FFE6CFC9
:10ECA0008091C00087FFFCCF64C485EA92EE62E0E9
:10ECB0000F94F5F140910202509103026091040219
:10ECC0007091050281E020E10F9491F2809102029F
:10ECD00090910302A0910402B091050280509F4FD1
:10ECE000AF4FBF4F8093020290930302A0930402A0
:10ECF000B093050280509041A040B04008F426CE69
:10ED0000A4CF83EB92EE62E00F94F5F140910602FE
:10ED100050910702609108027091090280E020E1A1
:10ED20000F9491F28091060290910702A09108023F
:10ED3000B091090280509F4FAF4FBF4F80930602A2
:10ED400090930702A0930802B0930902FFCD80ECD4
:10ED500092EE62E00F94F5F183E792EE60E00F949B
:10ED6000F5F18FE792EE60E00F94F5F18BE892EE0B
:10ED700060E00F94F5F189E992EE60E00F94F5F10F
:10ED800085EA92EE60E00F94F5F183EB92EE60E09D
:10ED90000F94F5F180EC92EE60E00F94F5F187ECC2
:10EDA00092EE60E00F94F5F188ED92EE60E00F9442
:10EDB000F5F18FED92EE60E00F94F5F18AEE92EEB0
:10EDC00060E00F94F5F183E093EEBDCD87EC92EE19
:10EDD00062E00F94F5F181E40F947BF282E40F94EA
:10EDE0007BF283E40F947BF284E40F947BF285E45E
:10EDF0000F947BF286E40F947BF287E40F947BF20E
:10EE000088E40F947BF28AE40F947BF28BE40F94F6
:10EE10007BF28CE40F947BF299CD88ED92EE62E068
:10EE20000F94F5F1772473948824992409C48FED05
:10EE300092EE62E00F94F5F140910A0250910B02BC
:10EE400060910C0270910D0282E020E10F9491F22A
:10EE500080910A0290910B02A0910C02B0910D02D8
:10EE600080509F4FAF4FBF4F80930A0290930B0289
:10EE7000A0930C02B0930D0269CD8AEE92EE62E08F
:10EE80000F94F5F184EE90EE60E00F94F5F18FECC5
:10EE900091EE60E00F94F5F1662477244301CC5D98
:10EEA000DE4F19821882C452D140D401C301B695F5
:10EEB000A79597958795CA5DDE4F88839983AA8326
:10EEC000BB83C652D140CC5DDE4FA881B981C4520C
:10EED000D1401196CC5DDE4FB983A883C452D14096
:10EEE000CD0162E070E00F9434F2B0E2B093C6005E
:10EEF0008091C00086FFFCCF8091C0008064809329
:10EF0000C000EDE2E093C6008091C00086FFFCCF18
:10EF10008091C00080648093C000F0E2F093C6004E
:10EF20008091C00086FFFCCF8091C00080648093F8
:10EF3000C000CA5DDE4FE880F9800A811B81C6529D
:10EF4000D140BB27A12F902F8F2D0F940DF2CA5DBA
:10EF5000DE4F8881C652D1400F940DF2B0E2FB2EF5
:10EF6000F092C6008091C00086FFFCCF8091C00067
:10EF700080648093C0000DE30093C6008091C000C0
:10EF800086FFFCCF8091C00080648093C00010E2B7
:10EF90001093C6008091C00086FFFCCF8091C00016
:10EFA00080648093C0008BBEF3012791C65DDE4F65
:10EFB0002883CA52D140A22EBB24CC24DD2408943D
:10EFC000611C711C811C911C8BBEF3018791282E42
:10EFD0003324442455240894611C711C811C911C09
:10EFE0008BBEF3013791C55DDE4F3883CB52D140E4
:10EFF0000894611C711C811C911C8BBEF30147910C
:10F00000C45DDE4F4883CC52D140ADEFEA2EAFEF66
:10F01000FA2EAFEF0A2FAFEF1A2F6E0C7F1C801E57
:10F02000911E142D032DF22CEE24EA0CFB1C0C1D5A
:10F030001D1D0F940DF220E22093C6008091C000A8
:10F0400086FFFCCF8091C00080648093C000C65DC5
:10F05000DE4F8881CA52D1400F940DF230E23093D6
:10F06000C6008091C00086FFFCCF8091C000806404
:10F070008093C000C45DDE4F8881CC52D1400F9494
:10F080000DF240E24093C6008091C00086FFFCCFA5
:10F090008091C00080648093C000C55DDE4F888190
:10F0A000CB52D1400F940DF250E25093C6008091A4
:10F0B000C00086FFFCCF8091C00080648093C000B8
:10F0C0008FEFE8168FEFF80680E0080780E018075A
:10F0D00031F484E092EE60E00F94C2F1DFC0D80119
:10F0E000C7018070907CA070B0708050904CA040A0
:10F0F000B040D1F52FEF3FE340E050E0E222F322B1
:10F1000004231523CA5DDE4FA880B980CA80DB8046
:10F11000C652D140AE0CBF1CC01ED11EAA0CBB1CD7
:10F12000CC1CDD1C8EE092EE60E00F94C2F1BB2798
:10F13000A12F902F8F2D0F940DF28E2D0F940DF285
:10F1400030E23093C6008091C00086FFFCCF8091F2
:10F15000C00080648093C0004EE34093C60080915D
:10F16000C00086FFFCCF87C08EE09EEFA0E0B0E03D
:10F17000E822F9220A231B239CE0E91694E9F90608
:10F1800090E0090790E0190709F088C0C45DDE4FE0
:10F19000A881CC52D140EA2EFF2400E010E0102FCD
:10F1A0000F2DFE2CEE24C55DDE4FB881CB52D14031
:10F1B000EB0EF11C011D111DD601C501817090706F
:10F1C000A070B070DC0199278827E80EF91E0A1F8D
:10F1D0001B1F20EF30E040E050E0A222B322C42207
:10F1E000D52241E1AA0CBB1CCC1CDD1C4A95D1F7F1
:10F1F000EA0CFB1C0C1D1D1D81E090E0A0E0B0E0BE
:10F20000282239224A225B2235E1220C331C441C7D
:10F21000551C3A95D1F7E20CF31C041D151D57013E
:10F220006801AA0CBB1CCC1CDD1C85E192EE60E0E1
:10F230000F94C2F1C801AA27BB270F940DF2BB2778
:10F24000A12F902F8F2D0F940DF28E2D0F940DF274
:10F2500090E29093C6008091C00086FFFCCF809121
:10F26000C00080648093C000AEE3A093C60080918C
:10F27000C00086FFFCCF8091C00080648093C000F6
:10F28000C601AA27BB270F940DF2BB27AD2D9C2DDD
:10F290008B2D0F940DF28A2D0F940DF20F94DCF14B
:10F2A000CC5DDE4FE881F981C452D140F99709F471
:10F2B0004DCBF4E0EF2EF12C012D112D6E0C7F1CA7
:10F2C000801E911EF2CD83E093EE62E00F94F5F183
:10F2D0008AE192EE60E00F94C2F18091C00087FF56
:10F2E000FCCF1091C6001F751093C6008091C0001E
:10F2F00086FFFCCF8091C00080648093C0000F9493
:10F30000DCF1812F81548A3108F036C1163409F4BA
:10F3100095C0173490F4133409F44EC0143430F40B
:10F320001134F1F0123409F01DC130C0143409F465
:10F3300059C0153409F016C16BC01A3409F4C4C0A1
:10F340001B3438F4173409F48FC0183409F00AC19B
:10F35000A1C01B3409F4D2C01C3409F003C1E8C0B9
:10F360008FEF81B90DC082B1809582B980E090E0C5
:10F37000E0EDF7E03197F1F70196883C9105C1F790
:10F380008091C00087FFEFCF12B8EFC08FEF84B934
:10F390000DC085B1809585B980E090E0E0EDF7E0A3
:10F3A0003197F1F70196883C9105C1F78091C00033
:10F3B00087FFEFCF15B8D9C08FEF87B90DC088B1DF
:10F3C000809588B980E090E0E0EDF7E03197F1F7C3
:10F3D0000196883C9105C1F78091C00087FFEFCF6F
:10F3E00018B8C3C08FEF8AB90DC08BB180958BB9A7
:10F3F00080E090E0E0EDF7E03197F1F70196883C8E
:10F400009105C1F78091C00087FFEFCF1BB8ADC059
:10F410008FEF8DB90DC08EB180958EB980E090E0F0
:10F42000E0EDF7E03197F1F70196883C9105C1F7DF
:10F430008091C00087FFEFCF1EB897C08FEF80BBD1
:10F440000DC081B3809581BB80E090E0E0EDF7E0F6
:10F450003197F1F70196883C9105C1F78091C00082
:10F4600087FFEFCF11BA81C08FEF83BB0DC084B38C
:10F47000809584BB80E090E0E0EDF7E03197F1F714
:10F480000196883C9105C1F78091C00087FFEFCFBE
:10F4900014BA6BC08FEF809301010FC080910201FD
:10F4A00080958093020180E090E0E0EDF7E03197F5
:10F4B000F1F70196883C9105C1F78091C00087FF64
:10F4C000EDCF1092020151C08FEF809304010FC065
:10F4D0008091050180958093050180E090E0E0ED4A
:10F4E000F7E03197F1F70196883C9105C1F78091DB
:10F4F000C00087FFEDCF1092050137C08FEF8093DA
:10F5000007010FC08091080180958093080180E079
:10F5100090E0E0EDF7E03197F1F70196883C910536
:10F52000C1F78091C00087FFEDCF109208011DC088
:10F530008FEF80930A010FC080910B01809580931B
:10F540000B0180E090E0E0EDF7E03197F1F70196F4
:10F55000883C9105C1F78091C00087FFEDCF1092E4
:10F560000B0103C085E292EEEEC98091C00087FFD7
:10F57000FCCF8091C600EAC988E392EEE4C98CE131
:10F5800091EEE1C988249924933011F1943028F444
:10F59000913089F09230B8F408C0953061F195301F
:10F5A000F0F0963009F048C043C02B3109F042C951
:10F5B00091E06BE13FC96227C15DDE4F2883CF52E6
:10F5C000D14092E037C9B22FA0E0622793E032C960
:10F5D000822F90E0A82BB92B622794E02BC92E3004
:10F5E00009F039C3622795E0C05DDE4F19821882A9
:10F5F000C053D1401FC9E1E0F0E0EC0FFD1FC05D3A
:10F60000DE4F08811981C053D140E00FF11F2083E4
:10F610000F5F1F4FC05DDE4F19830883C053D14079
:10F6200062270A171B0709F005C9D80196E002C92D
:10F63000261709F010C303C0973009F0FBC87724E0
:10F640009981933109F412C19431C8F4963009F4C8
:10F65000D8C0973050F4923009F406C1933009F4C1
:10F660006DC0913009F059C253C0913109F477C08F
:10F67000923108F0BBC0903109F04FC2F5C098310B
:10F6800009F487C0993150F4953109F4EFC09531F0
:10F6900008F4C6C1963109F040C2C2C19A3109F4DA
:10F6A0006CC09A3108F491C09B3109F45BC09D3164
:10F6B00009F033C29D81903359F48F81882311F46E
:10F6C0009EE11CC0813011F091E018C098E916C08D
:10F6D000892F807591F0903539F4E0E0F0E089E011
:10F6E0008093570094910AC0983539F4E3E0F0E034
:10F6F00089E080935700949101C090E01A821B82A8
:10F700008D818C831D829E831F8227E030E009C299
:10F710001A8288E08B8381E48C8386E58D8382E581
:10F720008E8389E48F8383E5888780E589878FE5E9
:10F730008A8782E38B872BE030E0F3C18A818139AD
:10F7400041F0823941F0803911F48FE005C080E04A
:10F7500003C082E001C08AE01A828B8344C0772410
:10F76000739482C08D81882311F48EE12CC0813086
:10F7700011F081E028C088E926C01A82E1E0F0E0BB
:10F7800089E08093570084918B831C8224E030E0D1
:10F79000C8C18B81803589F48C81883039F4E2E0EE
:10F7A000F0E089E08093570084910DC0E0E0F0E044
:10F7B00089E080935700849106C0E3E0F0E089E09F
:10F7C0008093570084911A82DFCF8D81836C99E0FA
:10F7D000E1E0F0E0082E90935700E89507B600FCB2
:10F7E000FDCF1A821B8223E030E09BC180EC8A832C
:10F7F000CE5CDE4F188219821A821B82C253D1401E
:10F800008EC18A8190E0A0E0B0E0582F44273327D2
:10F8100022278B8190E0A0E0B0E0DC0199278827C7
:10F82000282B392B4A2B5B2B8D8190E0A0E0B0E098
:10F83000282B392B4A2B5B2B8C8190E0A0E0B0E089
:10F84000BA2FA92F982F8827282B392B4A2B5B2BCF
:10F85000220F331F441F551FC05EDE4F288339839C
:10F860004A835B83C052D1401A8259C13A81C95C34
:10F87000DE4F3883C753D140CA5CDE4F1882C6536F
:10F88000D1408B81C82EDD24CA5CDE4F488159816E
:10F89000C653D140C42AD52A933109F082C0CE5C28
:10F8A000DE4F88819981AA81BB81C253D1408050AB
:10F8B000904CA340B04030F583E0CE5CDE4FE88052
:10F8C000F9800A811B81C253D140F70100935B008C
:10F8D00080935700E89507B600FCFDCFCE5CDE4F65
:10F8E000088119812A813B81C253D14000501F4FAA
:10F8F0002F4F3F4FCE5CDE4F088319832A833B8313
:10F90000C253D140C05EDE4F488159816A817B81FC
:10F91000C052D140DE011B9631E08C9111962C91A2
:10F9200011971296C75CDE4F2883C953D140C85C3B
:10F93000DE4F1882C853D14090E0C85CDE4FE881AA
:10F94000F981C853D1408E2B9F2B0C01FA01609393
:10F950005B0030935700E89511244E5F5F4F6F4F67
:10F960007F4F0EEFE02E0FEFF02ECE0CDF1CC114F8
:10F97000D10499F685E0C05EDE4F088119812A81A5
:10F980003B81C052D140F80120935B008093570027
:10F99000E89507B600FCFDCF81E180935700E8951C
:10F9A00035C0C05EDE4F88819981AA81BB81C0527B
:10F9B000D140B695A795979587957C018601ABE0D8
:10F9C000AA2EB12CAC0EBD1E0BC0D5016D915D01F0
:10F9D000C7010F947FFE0894E11CF11C01501040F8
:10F9E0000115110591F7A60160E070E0440F551F65
:10F9F000661F771FC05EDE4FE880F9800A811B8199
:10FA0000C052D1404E0D5F1D601F711F1A82C05E33
:10FA1000DE4F488359836A837B83C052D1407FC0C5
:10FA2000FA80C55CDE4FF882CB53D140C65CDE4F16
:10FA30001882CA53D1408B81C82EDD24C65CDE4FAC
:10FA400008811981CA53D140C02AD12A1A828981DA
:10FA5000BE016D5F7F4F843121F59601C05EDE4FA0
:10FA6000E880F9800A811B81C052D1400BBFF701A9
:10FA700087919691DB018C9311969C936E5F7F4FDB
:10FA8000D801C7010296A11DB11DC05EDE4F88835B
:10FA90009983AA83BB83C052D14022503040F1F6F3
:10FAA00036C0C05EDE4F288139814A815B81C052F9
:10FAB000D1400894C108D108760100E010E0089414
:10FAC000C11CD11C0894E11CF11C011D111DE20E8A
:10FAD000F31E041F151F21BDBB27A52F942F832FB5
:10FAE00082BD2F5F3F4F4F4F5F4FF89A80B5DB01CC
:10FAF0008D93BD012E153F054007510761F7C05E8C
:10FB0000DE4F288339834A835B83C052D1409601FC
:10FB10002D5F3F4FFB01108204C080EC8A8322E0FE
:10FB200030E08BE18093C6008091C00086FFFCCF5F
:10FB30008091C00080648093C000C15DDE4FF88179
:10FB4000CF52D140F093C6008091C00086FFFCCF19
:10FB50008091C00080648093C000432F3093C60022
:10FB60008091C00086FFFCCF8091C00080648093AC
:10FB7000C000922F2093C6008091C00086FFFCCF6A
:10FB80008091C00080648093C0008EE08093C600A6
:10FB90008091C00086FFFCCF8091C000806480937C
:10FBA000C00065E1C15DDE4FE880CF52D1406E25D7
:10FBB00069276427FE01319610C090819093C6009A
:10FBC0008091C00086FFFCCF31968091C000806498
:10FBD0008093C0006927215030402115310569F715
:10FBE0006093C6008091C00086FFFCCF8091C0006A
:10FBF00080648093C00085B1805885B9772081F4F6
:10FC0000C15DDE4F0881CF52D1400F5FC15DDE4F35
:10FC10000883CF52D14090E0A0E0B0E00D941AF4F8
:10FC200027982F9880E090E020ED37E0F901319798
:10FC3000F1F7019684369105C9F700008091C00064
:10FC40008D7F8093C00081E180935700E895EE2777
:10FC5000FF270994FFCF90E00D941AF497FB092E2B
:10FC600007260AD077FD04D02ED006D000201AF443
:10FC7000709561957F4F0895F6F7909581959F4F08
:10FC80000895A1E21A2EAA1BBB1BFD010DC0AA1FDD
:10FC9000BB1FEE1FFF1FA217B307E407F50720F0F5
:10FCA000A21BB30BE40BF50B661F771F881F991F70
:10FCB0001A9469F760957095809590959B01AC01B9
:10FCC000BD01CF010895AA1BBB1B51E107C0AA1FAC
:10FCD000BB1FA617B70710F0A61BB70B881F991FED
:10FCE0005A95A9F780959095BC01CD010895F99991
:10FCF000FECF92BD81BDF89A992780B50895262F31
:10FD0000F999FECF1FBA92BD81BD20BD0FB6F89400
:0EFD1000FA9AF99A0FBE01960895F894FFCF63
:00000001FF
