:100000000C9463000C948B000C948B000C942909C5
:100010000C9429090C9429090C948B000C948B00E6
:100020000C948B000C948B000C948B000C948B0024
:100030000C948B000C948B000C948B000C948B0014
:100040000C94DF080C948B000C94AD080C9487087A
:100050000C948B000C948B000C948B000C948B00F4
:100060000C94A1090C948B000000000024002700D0
:100070002A0000000008000201000003040700003D
:1000800000000000000000000000230026002900FE
:1000900000000000250028002B00040404040404D0
:1000A0000404020202020202030303030303010227
:1000B00004081020408001020408102001020408F6
:1000C0001020050B990F11241FBECFEFD8E0DEBF23
:1000D000CDBF24E0ACE6B2E001C01D92A039B2076A
:1000E000E1F712E0A0E0B1E0EAEFF6E202C005902D
:1000F0000D92AC36B107D9F710E0C2E6D0E004C0EB
:100100002197FE010E947811C136D107C9F70E94DC
:10011000030C0C9470130C94000008950895AF9292
:10012000BF92CF92DF92EF92FF920F931F93CF93E4
:10013000DF936C017B018B01040F151FEB015E0146
:10014000AE18BF08C017D10759F06991D601ED91DB
:10015000FC910190F081E02DC6010995892B79F77A
:10016000C501DF91CF911F910F91FF90EF90DF902C
:10017000CF90BF90AF900895FC01538D448D252FF3
:1001800030E0842F90E0821B930B541710F0CF9631
:10019000089501970895FC01918D828D981761F063
:1001A000A28DAE0FBF2FB11D5D968C91928D9F5F7A
:1001B0009F73928F90E008958FEF9FEF0895FC0159
:1001C000918D828D981731F0828DE80FF11D858D0C
:1001D00090E008958FEF9FEF0895FC01918D228D9F
:1001E000892F90E0805C9F4F821B91098F73992724
:1001F000089584E993E00E94ED0021E0892B09F441
:1002000020E0822F089580E090E0892B29F00E9461
:10021000F90081110C9400000895FC01A48DA80F31
:10022000B92FB11DA35ABF4F2C91848D90E0019638
:100230008F739927848FA689B7892C93A089B18958
:100240008C91837080648C93938D848D981306C0F9
:100250000288F389E02D80818F7D80830895EF925D
:10026000FF920F931F93CF93DF93EC0181E0888F70
:100270009B8D8C8D98131AC0E889F989808185FF40
:1002800015C09FB7F894EE89FF896083E889F989E2
:1002900080818370806480839FBF81E090E0DF91E4
:1002A000CF911F910F91FF90EF900895F62E0B8D37
:1002B00010E00F5F1F4F0F731127E02E8C8D8E11F2
:1002C0000CC00FB607FCFACFE889F989808185FF59
:1002D000F5CFCE010E940D01F1CFEB8DEC0FFD2F7C
:1002E000F11DE35AFF4FF0829FB7F8940B8FEA8914
:1002F000FB8980818062CFCF682F84E993E00C94E2
:100300002F01CF93DF93EC01888D8823B9F0AA8960
:10031000BB89E889F9898C9185FD03C0808186FDC0
:100320000DC00FB607FCF7CF8C9185FFF2CF80810F
:1003300085FFEDCFCE010E940D01E9CFDF91CF9176
:100340000895833081F028F4813099F08230A9F04B
:1003500008958730A9F08830C9F08430B1F48091D5
:1003600080008F7D03C0809180008F778093800014
:10037000089584B58F7784BD089584B58F7DFBCFB4
:100380008091B0008F778093B00008958091B00085
:100390008F7DF9CFCF93DF93282F30E0F901EE580E
:1003A000FF4F8491F901E255FF4FD491F901E656D0
:1003B000FF4FC491CC23A1F081110E94A101EC2F29
:1003C000F0E0EE0FFF1FEA57FF4FA591B491EC91BB
:1003D000ED2381E090E009F480E0DF91CF91089572
:1003E00080E090E0FACF1F93CF93DF93282F30E087
:1003F000F901EE58FF4F8491F901E255FF4FD49176
:10040000F901E656FF4FC491CC23A9F0162F8111B4
:100410000E94A101EC2FF0E0EE0FFF1FE057FF4F0D
:10042000A591B4918FB7F894EC91111108C0D095B3
:10043000DE23DC938FBFDF91CF911F910895DE2BD8
:10044000F8CFCF93DF9390E0FC01E255FF4F24916A
:1004500086569F4FFC0184918823D1F090E0880F4D
:10046000991FFC01E859FF4FA591B491FC01E05799
:10047000FF4FC591D49161110EC09FB7F8948C9134
:10048000E22FE0958E238C932881E223E8839FBF9F
:10049000DF91CF9108958FB7F894EC91E22BEC9314
:1004A0008FBFF6CF3FB7F8948091680390916903AE
:1004B000A0916A03B0916B0326B5A89B05C02F3F9E
:1004C00019F00196A11DB11D3FBFBA2FA92F982F7A
:1004D0008827BC01CD01620F711D811D911D42E075
:1004E000660F771F881F991F4A95D1F708958F923D
:1004F0009F92AF92BF92CF92DF92EF92FF924B0109
:100500005C010E9452026B017C010E9452026C1934
:100510007D098E099F09683E734081059105A8F306
:1005200021E0821A9108A108B10888EEC80E83E084
:10053000D81EE11CF11C81149104A104B10429F717
:10054000FF90EF90DF90CF90BF90AF909F908F90F3
:10055000089520916103309162032817390771F4DF
:100560009091600380915F03981741F0E0916003E0
:10057000F0E0E15EFC4F808190E008958FEF9FEF07
:1005800008950895EF92FF920F931F93CF93DF93F7
:10059000DC015C96ED90FC905D97E114F10479F438
:1005A00081E090E013969C938E93129790E080E008
:1005B000DF91CF911F910F91FF90EF900895519689
:1005C000ED91FC91529750968C915097982F909561
:1005D0000FB75E962C915E97122F127021FD6095D9
:1005E000F8942081112319F1282B2083E70121970A
:1005F000F1F728E0462F50E0308160FF1AC0382B19
:100600003083E7012197F1F7BA017595679521507D
:1006100089F7112381F08081892380830FBF5C9645
:100620008D919C910197F1F781E090E0C1CF292352
:10063000DCCF3923E5CF9081892BEFCF2091610367
:10064000309162032817390771F480915F0320917C
:10065000600390E0805C9F4F821B910960E470E032
:100660000E942E11089590E080E00895209161038A
:100670003091620328173907B9F490916003809193
:100680005F03981789F0E0916003F0E0E15EFC4FB2
:1006900080812091600330E02F5F3F4F2F7333271D
:1006A0002093600390E008958FEF9FEF08952091CD
:1006B000D502260F3327331F21323105ECF4209168
:1006C000F902FC0190E080E0243069F082E00895B6
:1006D000A091D5022191AC014B545D4FA40FB52FD1
:1006E000B11D2C930196861798F38091D502680F5F
:1006F0006093D50280E0089581E008951092F90298
:1007000081E08093FB021092FA0261E082E10E9494
:10071000F30161E083E10E94F301E9EBF0E0808105
:100720008E7F808380818D7F808388E48093B80072
:1007300085E48093BC000895CF93DF9391E090937C
:10074000B4028823B9F0C091B800D091BA0080916A
:10075000BC008A7B8093BC0060E082E10E94F301D0
:1007600060E083E10E94F3010E947E03D093BA000F
:10077000C093B800DF91CF910895E0917303809109
:100780007203E81730F4F0E0E157FD4F808190E00C
:1007900008958FEF9FEF08959091730380917203F6
:1007A0002FEF3FEF981748F4E92FF0E0E157FD4FA6
:1007B000208130E09F5F90937303C9010895809179
:1007C000720390917303891B990B0895CF92DF9266
:1007D000EF92FF920F931F93CF93DF937C01CB0196
:1007E0008A0120918E02222389F0EB016B01C40E55
:1007F000D51ECC15DD0569F06991D701ED91FC910D
:100800000190F081E02DC7010995F3CF642F0E947C
:100810005703C801DF91CF911F910F91FF90EF9087
:10082000DF90CF900895CF93DF931F92CDB7DEB7BF
:10083000698320918E022223F9F0209170032032E7
:1008400058F021E030E0FC013383228390E080E027
:100850000F90DF91CF91089580917103E82FF0E020
:10086000E259FD4F998190838F5F8093710380934C
:10087000700381E090E0ECCF61E0CE0101960E9430
:100880005703F7CFCF92DF92EF92FF920F931F9310
:10089000CF93DF93FC01C48121E020938E02C093AB
:1008A0006D0210927103109270038385682B81E3AF
:1008B00094E00E941304D0917003D13208F092C0EA
:1008C0000E9452026B017C018091F902811165C086
:1008D00082E08093F90281E08093FB028FEF8093A6
:1008E000F80210921D03D0931C03AEE6B2E0ECEFC9
:1008F000F2E080E0D81385C010921E0380911E03A1
:10090000CC0FC82BC0931E038091FA02813009F0EE
:100910007CC01092FA020E9452026B017C0180910D
:100920001E038093BB008091B0029091B102A09110
:10093000B202B091B302892B8A2B8B2B99F00E94C3
:1009400052020091B0021091B1022091B202309196
:10095000B3026C197D098E099F090617170728072E
:100960003907E0F18091BC0083FDD9CF85EC8093FD
:10097000BC000E9452026B017C018091F90282301E
:1009800009F445C08091F8028F3F61F18091F8022F
:10099000803241F18091F80225C08091B00290919F
:1009A000B102A091B202B091B302892B8A2B8B2B9A
:1009B00009F48ACF0E9452020091B0021091B10254
:1009C0002091B2023091B3026C197D098E099F0902
:1009D000061717072807390708F076CF8091AF026E
:1009E0000E949C03109271031092700310928E0269
:1009F000DF91CF911F910F91FF90EF90DF90CF90FB
:100A000008959D9191938F5F75CF85EEB0CF8091C2
:100A1000B0029091B102A091B202B091B302892BC1
:100A20008A2B8B2B09F4A9CF0E9452020091B002AD
:100A30001091B1022091B2023091B3026C197D097C
:100A40008E099F09061717072807390708F095CF61
:100A5000C5CF089590E080E008950F931F93CF9342
:100A6000DF938C01D0E0C0E0D80114968D919C9169
:100A70001597C817D90790F4ED91FC91309759F468
:100A800010926C02ECE6F2E0608184E993E00E944F
:100A90002F012196E9CFEC0FFD1FF6CFDF91CF910B
:100AA0001F910F9108950F931F93CF938C01C62F21
:100AB0000E9442046C2F6460C8010E9442046C2FA3
:100AC0006B7FC8010E94420483EC90E00197F1F72C
:100AD000CF911F910F9108950F931F93CF93DF93A1
:100AE0008C01D62FC42F607F642B0E94530580E1B8
:100AF000D89FB00111246C2BC801DF91CF911F91B9
:100B00000F910C945305CF93DF93CDB7DEB72897A1
:100B10000FB6F894DEBF0FBECDBF98E0E6E0F1E07F
:100B2000DE01119601900D929A95E1F7909188045B
:100B3000981708F48FEF90E0880F991F21E030E0BC
:100B40002C0F3D1F820F931FFC016081606840E005
:100B500080E894E028960FB6F894DEBF0FBECDBFB4
:100B6000DF91CF910C946C0540E061E080E894E067
:100B70000E946C058BE39FE10197F1F7089541E036
:100B80000E946C0581E090E008950F931F93CF932E
:100B9000DF93EC0188819981009759F02A813B818C
:100BA0002617370730F081E0DF91CF911F910F9129
:100BB00008958B016F5F7F4F0E94A312009759F039
:100BC000998388831B830A832C813D81232B59F7CA
:100BD000FC011082E8CF80E0E7CFCF93DF93EC01F8
:100BE00088819981009711F00E941A121982188247
:100BF0001D821C821B821A82DF91CF910895FC0115
:100C000080819181009711F00C941A120895FB01D4
:100C100001900020E9F73197AF01461B570BDC012B
:100C2000ED91FC910280F381E02D09948F929F92C7
:100C3000AF92BF920F931F93CF93DF93CDB7DEB7E1
:100C4000A1970FB6F894DEBF0FBECDBF19A24230F8
:100C500008F44AE08E010F5D1F4F842E912CB12CB9
:100C6000A12CA50194010E944211E62FB901CA01ED
:100C7000EA3004F5E05DD801EE938D01232B242B9F
:100C8000252B79F790E080E0109729F0BD0184E9E9
:100C900093E00E940706A1960FB6F894DEBF0FBE40
:100CA000CDBFDF91CF911F910F91BF90AF909F90DB
:100CB0008F900895E95CDFCFCF92DF92EF92FF92A1
:100CC000CF93DF936C01990FEE08FF08F7FE17C072
:100CD0008DE20E947C01EC0166277727CB016C191D
:100CE0007D098E099F094AE00E9416068C0F9D1F00
:100CF000DF91CF91FF90EF90DF90CF9008954AE081
:100D0000C701B601DF91CF91FF90EF90DF90CF90B8
:100D10000C941606CF92DF92EF92FF92CF93DF935F
:100D20006C01990FEE08FF08F7FE1FC08DE20E94CC
:100D30007C01EC0166277727CB016C197D098E09B0
:100D40009F094AE00E941606C80FD91F60E571E0AE
:100D500084E993E00E9407068C0F9D1FDF91CF91DD
:100D6000FF90EF90DF90CF9008954AE0C701B60161
:100D70000E941606EC01EACFCF93DF93FC01448179
:100D800055816081718181E694E00E948F00EC01C1
:100D900060E571E081E694E00E9407068C0F9D1FDC
:100DA000DF91CF9108950F931F93CF93DF93EC01C1
:100DB0000E9407068C0160E571E0CE010E940706E3
:100DC000800F911FDF91CF911F910F9108950C9487
:100DD0000706EF92FF920F931F93CF93DF93EC01DF
:100DE0007B01198218821B821A821D821C82FB01E0
:100DF00001900020E9F731978F01061B170BB8010E
:100E00000E94C505811109C0CE01DF91CF911F91CC
:100E10000F91FF90EF900C94ED051D830C83B701AB
:100E200088819981DF91CF911F910F91FF90EF9071
:100E30000C946913CF92DF92EF92FF920F931F935E
:100E4000CF93DF93CDB7DEB72C970FB6F894DEBF04
:100E50000FBECDBF6C017B0163E571E081E694E0DC
:100E60000E94D30668EE73E080E090E00E94770273
:100E700066E571E081E694E00E94D30668EE73E0D7
:100E800080E090E00E94770218861F821A861986F9
:100E90001C861B86F601008111810115110569F080
:100EA000C480D580B601CE0107960E94C505811188
:100EB00082C0CE0107960E94ED0560E671E0CE018A
:100EC00001960E94E906CF80D884C114D10409F4A8
:100ED0007AC00B851C8501151105B9F08D819E81A5
:100EE000080F191FB801CE0101960E94C50588237D
:100EF00009F469C029813A818D819E81B601820FF2
:100F0000931F0E9469131E830D830D811E810E5F46
:100F10001F4FB801CE0101960E94C505811158C02E
:100F2000CE0101960E94ED05CE0101960E94BC06FD
:100F3000CE0101960E94FF05CE0107960E94FF0593
:100F400068EE73E080E090E00E947702C7010E94A3
:100F5000BC0660E771E081E694E00E94E7066DE878
:100F600071E081E694E00E94E70668E971E081E6BD
:100F700094E00E94E7066AE971E081E694E00E944D
:100F8000E70668EE73E080E090E00E9477026AE195
:100F900081E694E00E94C2022C960FB6F894DEBF60
:100FA0000FBECDBFDF91CF911F910F91FF90EF90BA
:100FB000DF90CF900895DC86CB86B8018F8198852D
:100FC0000E9469137ACFCE0101960E94ED059DCF54
:100FD00029813A818D819E816DE671E0820F931F98
:100FE0000E9469131E830D839FCF0F931F93CF938E
:100FF000DF93EC0160E088810E94F30183E090E0E0
:101000000197F1F761E088810E94F30183E290E0AB
:101010000197F1F760E088810E94F3018A819B814A
:101020009927FC01E255FF4F6491FC01E656FF4F02
:10103000E491F0E0EE0FFF1FEA57FF4F8591949186
:1010400000E412E42FE030E0462F0E94C00A611550
:1010500071058105910529F06F5F7F4F8F4F9F4F7D
:101060009F709B0177FF02C02F5F3F4FB9017595BD
:101070006795072E000C880B990B0E94C30F2DEC6F
:101080003CEC48EE51E40E9486100E94F8107D83EB
:101090006C83CB01DF91CF911F910F91089585ED66
:1010A0008093BC008091B0029091B102A091B202F5
:1010B000B091B3020796A11DB11D23E0B695A79587
:1010C000979587952A95D1F72091BC0024FD03C000
:1010D0001092F90208954091B0025091B1026091CE
:1010E000B2027091B302452B462B472B69F3009750
:1010F000A105B10541F025E32A95F1F7000001971C
:10110000A109B109E1CF8091AF020C949C031F9219
:101110000F920FB60F9211242F933F934F935F932B
:101120006F937F938F939F93AF93BF93EF93FF93AF
:1011300084E993E00E940D01FF91EF91BF91AF917F
:101140009F918F917F916F915F914F913F912F91DF
:101150000F900FBE0F901F9018951F920F920FB611
:101160000F9211242F938F939F93EF93FF93E0910E
:10117000A403F091A5038081E091AA03F091AB0351
:1011800082FD1BC090818091AD038F5F8F73209192
:10119000AE03821741F0E091AD03F0E0EC56FC4F56
:1011A000958F8093AD03FF91EF919F918F912F9138
:1011B0000F900FBE0F901F9018958081F4CF1F9253
:1011C0000F920FB60F9211242F933F938F939F93FB
:1011D000AF93BF938091640390916503A0916603E0
:1011E000B09167033091630323E0230F2D3758F547
:1011F0000196A11DB11D2093630380936403909316
:101200006503A0936603B093670380916803909190
:101210006903A0916A03B0916B030196A11DB11DF2
:101220008093680390936903A0936A03B0936B0360
:10123000BF91AF919F918F913F912F910F900FBED2
:101240000F901F90189526E8230F0296A11DB11D3F
:10125000D2CF1F920F920FB60F9211242F933F936C
:101260004F935F936F937F938F939F93AF93BF93AE
:10127000EF93FF93E0916103F0916203309749F09F
:10128000A685B7858585968D91FF14C09C9189238D
:10129000A1F4FF91EF91BF91AF919F918F917F91B9
:1012A0006F915F914F913F912F910F900FBE0F90D3
:1012B0001F9018959C91892361F7A389B4899C910B
:1012C0008589809589238C93868997890197F1F781
:1012D000608D718DA685B785558538E020E0CB01FE
:1012E0000197F1F7822F90E095958795282F4C91E3
:1012F000452309F02068315091F7868D81FD2095B6
:1013000080915F0390E001968F739927309160037D
:10131000381799F0A0915F03B0E0A15EBC4F2C9309
:1013200080935F03828D938D0197F1F7A389B48930
:101330008C919589892B8C93ACCF868D8160868F1B
:10134000F1CF1F920F920FB60F9211242F933F935C
:101350004F935F936F937F938F939F93AF93BF93BD
:10136000EF93FF938091B900887F803609F44AC0DB
:10137000F0F5883209F4A7C018F5803109F49BC054
:10138000B8F4882309F4F9C0883009F494C0FF91B7
:10139000EF91BF91AF919F918F917F916F915F91ED
:1013A0004F913F912F910F900FBE0F901F90189566
:1013B000883109F488C0803251F78093F80214C054
:1013C000803409F49DC040F48033B9F38833F9F6D2
:1013D0008093F80285ECB0C0803509F485C088356B
:1013E00009F496C0883499F60E944F08D0CF883906
:1013F00009F48CC038F5883729F050F4883611F09C
:10140000803729F683E08093F9021092F70257C0E3
:10141000883809F47BC0803919F0803809F0B7CFDB
:101420008091F702803208F071C0E091F70281E00C
:101430008E0F8093F7028091BB00F0E0E952FD4FE0
:1014400080833DC0803B39F0E0F4803A09F479C0F4
:10145000883A09F09CCF84E08093F9021092D6027A
:101460001092D502E0916E03F0916F03099580917F
:10147000D50281110FC081E08093D5021092B50290
:1014800009C0803C09F4A6CF883C09F4A3CF883B6F
:1014900009F07DCFE091D60281E08E0F8093D602D5
:1014A000F0E0EB54FD4F80818093BB009091D60219
:1014B0008091D50229C080911E038093BB0085ECEA
:1014C0008093BC0064CF90911D0380911C039817FA
:1014D00058F5E0911D0381E08E0F80931D03F0E02D
:1014E000E450FD4F8081E9CFE0911D0381E08E0F34
:1014F00080931D038091BB00F0E0E450FD4F80839A
:1015000090911D0380911C039817C8F285E8D8CFED
:10151000E0911D0381E08E0F80931D038091BB003D
:10152000F0E0E450FD4F80838091FB0281115CCF9D
:1015300081E08093FA0284EA8093BC001092F90261
:1015400026CF85EC8093BC001092F9028091F702BF
:10155000803230F4E091F702F0E0E952FD4F108262
:101560006091F70270E0E0916C03F0916D0387EDFC
:1015700092E009951092F7020ACF1092F80234CF48
:10158000CF92DF92EF92FF920F931F93E82FF92FE4
:1015900005C0015011092109310961F1908196239B
:1015A0009417B9F305C0015011092109310911F14E
:1015B000908196239413F7CFC12CD12CE12CF12CE0
:1015C0000AC08FEFC81AD80AE80AF80A0C151D05D8
:1015D0002E053F0579F080818623841791F36C2DC9
:1015E0007D2D8E2D9F2D1F910F91FF90EF90DF90FD
:1015F000CF90089560E070E080E090E01F910F913F
:10160000FF90EF90DF90CF90089510929703109283
:10161000960388EE93E0A0E0B0E080939803909367
:101620009903A0939A03B0939B0322E131E0309396
:1016300095032093940325EC30E03093A10320938D
:10164000A00324EC30E03093A3032093A20320EC0A
:1016500030E03093A5032093A40321EC30E03093D5
:10166000A7032093A60322EC30E03093A903209334
:10167000A80326EC30E03093AB032093AA0310922A
:10168000AD031092AE031092AF031092B00310920C
:101690003404109233048093350490933604A0935D
:1016A0003704B093380424E231E0309332042093BD
:1016B0003104109283041092820428E431E03093C4
:1016C00081042093800427E22093840420E1209366
:1016D000890422E020938A0410928B0410926404FF
:1016E000109263048093650490936604A09367044A
:1016F000B093680486E391E0909362048093610460
:10170000109278041092770410927A04109279045F
:1017100010927C0410927B0410927E0410927D043F
:1017200060917F046E7F6D7F60937F04669561702A
:1017300081E0682789E00E94F30161E089E00E946E
:101740002102E7EBF0E0E491E0937104E3EAF0E0DA
:10175000E491F0E0EE0FFF1FE057FF4F8591949169
:10176000909373048093720460E088E00E942102E9
:1017700080917F0481FD04C061E088E00E94F30154
:1017800088E080936D04E6EBF0E0E491E0936E0472
:10179000E2EAF0E0E491F0E0EE0FFF1FEA57FF4FBE
:1017A000859194919093700480936F0462E571E049
:1017B0008BE594E00E94E90665EA71E085E594E036
:1017C0000E94E90664EB71E08FE494E00E94E90670
:1017D00082E18093460483E1809345048EED97E097
:1017E000909343048093420481E08093410480936A
:1017F000400410923D0410923E0410923F0483E096
:10180000809344040895CF93DF93CDB7DEB72C9730
:101810000FB6F894DEBF0FBECDBF789484B582605A
:1018200084BD84B5816084BD85B5826085BD85B584
:10183000816085BD80916E00816080936E00109202
:10184000810080918100826080938100809181007D
:10185000816080938100809180008160809380000E
:101860008091B10084608093B1008091B00081606C
:101870008093B00080917A00846080937A00809198
:101880007A00826080937A0080917A0081608093F0
:101890007A0080917A00806880937A001092C1006B
:1018A000E091A403F091A50382E08083E091A0037E
:1018B000F091A1031082E091A203F091A3038FECB9
:1018C00080831092AC03E091A803F091A90386E015
:1018D0008083E091A603F091A703808180618083DB
:1018E000E091A603F091A703808188608083E09156
:1018F000A603F091A703808180688083E091A6030E
:10190000F091A70380818F7D808362EC71E084E990
:1019100093E00E94E70610927303109272031092F4
:101920007103109270030E947E038DE890E0909303
:101930006F0380936E038EE890E090936D03809325
:101940006C031092850480918A04823018F098E02C
:10195000909385048093880462E370E080E090E0D7
:101960000E94770260918B0480E894E00E94420418
:1019700068EE73E080E090E00E94770260E380E828
:1019800094E00E9453050BE416E4C8010197F1F7B7
:1019900060E380E894E00E945305C8010197F1F7E5
:1019A00060E380E894E00E94530583E592E00197AC
:1019B000F1F760E280E894E00E94530560918504AD
:1019C000606240E080E894E00E946C0584E08093CF
:1019D000860440E06CE080E894E00E946C050E9480
:1019E000B40582E08093870440E066E080E894E0FC
:1019F0000E946C0540E062E080E894E00E946C0583
:101A00008BE39FE10197F1F788E080938B0460E01E
:101A100080E894E00E94420480E00E9483056BED20
:101A200071E080E894E00E94E70681E00E9483056F
:101A30006BEE71E080E894E00E94E70661E082E0EE
:101A40000E94210261E083E00E94210261E084E0C3
:101A50000E94210260E085E00E94210260E082E0B5
:101A60000E94F30160E083E00E94F30160E084E003
:101A70000E94F3018EE090E09093750380937403CD
:101A80008FE090E0909377038093760361E08EE09F
:101A90000E94210260E0809176030E94210280E191
:101AA00090E090937B0380937A0381E190E09093A0
:101AB0007D0380937C0361E080E10E94210260E06D
:101AC00080917C030E94210286E090E09093810344
:101AD0008093800387E090E0909383038093820358
:101AE00061E086E00E94210260E0809182030E9412
:101AF000210268EE73E080E090E00E94770200E04F
:101B000010E08CE00E94CA017C010E945C0668EE35
:101B100073E080E090E00E94770281E0E816F10433
:101B200099F50E94B40580E00E94830569EF71E099
:101B300080E894E00E94E70684E993E00E94ED00CB
:101B4000181619060CF584E993E00E94CB00843343
:101B5000A1F04CF4823379F060E0833369F782E0DE
:101B60000E94F301E9CF863369F054F060E08733D7
:101B700019F784E0F5CF61E0F2CF61E083E0F0CFC8
:101B800060E0FCCF61E0F5CF68EE73E080E090E0CC
:101B90000E947702EF2809F0BAC10E94B40580E0E4
:101BA0000E94830565E072E080E894E00E94E70609
:101BB00084E793E00E94F50790939103809390034C
:101BC0006FE072E084E993E00E94D3068091900375
:101BD000909191030E948A0668EE73E080E090E0A5
:101BE0000E9477028AE793E00E94F50790938D03A5
:101BF00080938C0363E172E084E993E00E94D30652
:101C000080918C0390918D030E948A0668EE73E0A8
:101C100080E090E00E94770280E893E00E94F50760
:101C2000909389038093880367E172E084E993E0ED
:101C30000E94D30680918803909189030E948A06AE
:101C400068EE73E080E090E00E94770260ED77E05C
:101C500080E090E00E94770285E00E94CA01209116
:101C6000920330919303263031050CF047C1019760
:101C700009F044C1809190039091910345970CF035
:101C80005BC081E60E947C0161E082E00E94F3017A
:101C900080918E0390918F03019690938F03809390
:101CA0008E030E945C0680918E0390918F030297B1
:101CB000E9F50E94B40580E00E9483056BE172E0C3
:101CC00080E894E00E94E70681E00E9483056CEEC4
:101CD00071E080E894E00E94E7066AE272E0CE01DB
:101CE00001960E94E90664E472E0CE0107960E9424
:101CF000E906BE016F5F7F4FCE0107960E941A076B
:101D0000CE0107960E94FF05CE0101960E94FF05B5
:101D10006FE472E0CE0101960E94E906CE010196C1
:101D20000E942D05CE0101960E94FF05809190032F
:101D300090919103459724F060E082E00E94F301C6
:101D400080918C0390918D0345970CF05AC082E6E8
:101D50000E947C0161E082E00E94F30161E083E087
:101D60000E94F30180918A0390918B0301969093D6
:101D70008B0380938A03029709F04BC00E94B4053D
:101D800080E00E9483056BE172E080E894E00E94AD
:101D9000E70681E00E9483056CEE71E080E894E044
:101DA0000E94E7066AE272E0CE0101960E94E9060F
:101DB00064E472E0CE0107960E94E906BE016F5FFF
:101DC0007F4FCE0107960E941A07CE0107960E9408
:101DD000FF05CE0101960E94FF056FE472E0CE017F
:101DE00001960E94E906CE0101960E942D05CE01C2
:101DF00001960E94FF0580918C0390918D03459779
:101E000044F060E082E00E94F30160E083E00E9421
:101E1000F301809188039091890345970CF05AC093
:101E200083E60E947C0161E083E00E94F30161E0AF
:101E300084E00E94F30180918603909187030196CC
:101E40009093870380938603029709F04BC00E940A
:101E5000B40580E00E9483056BE172E080E894E0C5
:101E60000E94E70681E00E9483056CEE71E080E845
:101E700094E00E94E7066AE272E0CE0101960E94B9
:101E8000E90664E472E0CE0107960E94E906BE010D
:101E90006F5F7F4FCE0107960E941A07CE0107960B
:101EA0000E94FF05CE0101960E94FF056FE472E0DB
:101EB000CE0101960E94E906CE0101960E942D05F1
:101EC000CE0101960E94FF058091880390918903BD
:101ED000459744F060E083E00E94F30160E084E015
:101EE0000E94F30160E082E00E94F30160E083E081
:101EF0000E94F30160E084E00E94F301809192036C
:101F0000909193030196909393038093920368EECC
:101F100073E080E090E00E9477020115110509F45A
:101F2000F0CD0E94F900882309F4EBCD0E94000057
:101F3000E8CD8FE494E00E94FF0585E594E00E94DF
:101F4000FF058BE594E00E94FF0586E391E0909306
:101F500062048093610480916103909162038156D1
:101F6000944071F4E0917404F09175049081809133
:101F70007604809589238083109262031092610316
:101F80000895E89409C097FB3EF49095809570956C
:101F900061957F4F8F4F9F4F9923A9F0F92F96E9B5
:101FA000BB279395F695879577956795B795F1112A
:101FB000F8CFFAF4BB0F11F460FF1BC06F5F7F4FC7
:101FC0008F4F9F4F16C0882311F096E911C07723D9
:101FD00021F09EE8872F762F05C0662371F096E8E2
:101FE000862F70E060E02AF09A95660F771F881FB1
:101FF000DAF7880F9695879597F9089597F99F676F
:1020000080E870E060E008959FEF80EC0895002480
:102010000A941616170618060906089500240A944D
:1020200012161306140605060895092E0394000CD3
:1020300011F4882352F0BB0F40F4BF2B11F460FF62
:1020400004C06F5F7F4F8F4F9F4F089557FD90588B
:10205000440F551F59F05F3F71F04795880F97FB6C
:10206000991F61F09F3F79F0879508951216130626
:102070001406551FF2CF4695F1DF08C01616170655
:102080001806991FF1CF869571056105089408958A
:10209000E894BB2766277727CB0197F908952F92FD
:1020A0003F924F925F926F927F928F929F92AF92E8
:1020B000BF92CF92DF92EF92FF920F931F93CF9335
:1020C000DF93CDB7DEB7CA1BDB0B0FB6F894DEBFCC
:1020D0000FBECDBF09942A88398848885F846E84F2
:1020E0007D848C849B84AA84B984C884DF80EE803C
:1020F000FD800C811B81AA81B981CE0FD11D0FB645
:10210000F894DEBF0FBECDBFED0108950E949A1076
:102110000C9415100E940E1058F00E94071040F009
:1021200029F45F3F29F00C94FE0F51110C944910D3
:102130000C9404100E94261068F39923B1F35523E0
:1021400091F3951B550BBB27AA27621773078407CA
:1021500038F09F5F5F4F220F331F441FAA1FA9F360
:1021600035D00E2E3AF0E0E832D091505040E6954E
:10217000001CCAF72BD0FE2F29D0660F771F881FAF
:10218000BB1F261737074807AB07B0E809F0BB0BA2
:10219000802DBF01FF2793585F4F3AF09E3F5105B6
:1021A00078F00C94FE0F0C9449105F3FE4F3983ED6
:1021B000D4F3869577956795B795F7959F5FC9F79F
:1021C000880F911D9695879597F90895E1E0660F20
:1021D000771F881FBB1F621773078407BA0720F099
:1021E000621B730B840BBA0BEE1F88F7E095089502
:1021F0000E94FF106894B1110C94491008950E9438
:102200002E1088F09F5798F0B92F9927B751B0F04A
:10221000E1F0660F771F881F991F1AF0BA95C9F76A
:1022200014C0B13091F00E944810B1E008950C94B0
:102230004810672F782F8827B85F39F0B93FCCF363
:10224000869577956795B395D9F73EF490958095E7
:10225000709561957F4F8F4F9F4F089597FB072E85
:1022600016F4009407D077FD09D00E94641107FC92
:1022700005D03EF4909581959F4F08957095619596
:102280007F4F0895A1E21A2EAA1BBB1BFD010DC0B2
:10229000AA1FBB1FEE1FFF1FA217B307E407F50716
:1022A00020F0A21BB30BE40BF50B661F771F881FF2
:1022B000991F1A9469F760957095809590959B0188
:1022C000AC01BD01CF010895AA1BBB1B51E107C0A2
:1022D000AA1FBB1FA617B70710F0A61BB70B881FB6
:1022E000991F5A95A9F780959095BC01CD01089545
:1022F000EE0FFF1F0590F491E02D09940F931F93AB
:10230000CF93DF938230910510F482E090E0E0916A
:102310008E04F0918F0430E020E0B0E0A0E0309730
:1023200099F42115310509F44AC0281B390B2430D2
:102330003105D8F58A819B816115710589F1FB0111
:1023400093838283FE0111C04081518102811381F8
:1023500048175907E0F04817590799F4109761F0AA
:1023600012960C93129713961C933296CF01DF911D
:10237000CF911F910F91089500938E0410938F04B5
:10238000F4CF2115310551F04217530738F0A90158
:10239000DB019A01BD01DF01F801C1CFEF01F9CFE7
:1023A00090938F0480938E04CDCFFE01E20FF31F34
:1023B000819391932250310939832883D7CF20917B
:1023C0008C0430918D04232B41F420910201309133
:1023D000030130938D0420938C04209100013091EF
:1023E00001012115310541F42DB73EB7409104019B
:1023F00050910501241B350BE0918C04F0918D0464
:10240000E217F307A0F42E1B3F0B2817390778F0CB
:10241000AC014E5F5F4F2417350748F04E0F5F1F2A
:1024200050938D0440938C04819391939FCFF0E05F
:10243000E0E09CCFCF93DF930097E9F0FC01329767
:1024400013821282A0918E04B0918F04ED0130E0CE
:1024500020E01097A1F420813181820F931F2091F9
:102460008C0430918D042817390709F061C0F0936E
:102470008D04E0938C04DF91CF910895EA01CE178B
:10248000DF07E8F54A815B819E0141155105B1F7EF
:10249000E901FB83EA8349915991C40FD51FEC17D9
:1024A000FD0761F4808191810296840F951FE901F7
:1024B00099838883828193819B838A83F0E0E0E023
:1024C00012968D919C9113970097B9F52D913C919F
:1024D0001197CD010296820F931F20918C043091A9
:1024E0008D042817390739F6309751F510928F046B
:1024F00010928E04B0938D04A0938C04BCCFD38330
:10250000C28340815181840F951FC817D90761F498
:102510004E5F5F4F88819981480F591F51834083D7
:102520008A819B81938382832115310509F0B0CF85
:10253000F0938F04E0938E049ECFFD01DC01C0CFA9
:1025400013821282D7CFB0E0A0E0E9EAF2E10C9466
:1025500051108C01009751F4CB010E947E118C0127
:10256000C801CDB7DEB7E0E10C946D10FC01E60FB9
:10257000F71F9C0122503109E217F30708F49DC0B0
:10258000D901CD91DC911197C617D70798F0C530C6
:10259000D10530F3CE0104978617970708F3C61BC1
:1025A000D70B2297C193D1936D937C93CF010E9457
:1025B0001A12D6CF5B01AC1ABD0A4C018C0E9D1EBF
:1025C000A0918E04B0918F04512C412CF12CE12C60
:1025D000109731F580918C0490918D0488159905A0
:1025E00009F05CC04616570608F058C080910001FB
:1025F00090910101009741F48DB79EB7409104017D
:1026000050910501841B950BE817F90708F055C098
:10261000F0938D04E0938C04F90171836083A0CF63
:102620008D919C91119712966C90129713967C90B5
:102630001397A815B90559F56C0142E0C40ED11CD9
:10264000CA14DB0420F1AC014A195B09DA011296C5
:10265000159780F06282738251834083D9016D9314
:102660007C93E114F10471F0D7011396FC93EE937F
:10267000129776CF22968C0F9D1FF901918380834C
:10268000F301EFCFF0938F04E0938E0469CF4816E7
:10269000590608F42C017D01D3019ACFCB010E9489
:1026A0007E117C01009749F0AE01B8010E946013D1
:1026B000C8010E941A12870153CF10E000E050CFEA
:1026C000FB01DC0102C001900D9241505040D8F74F
:1026D0000895FB01DC0101900D920020E1F70895BF
:1026E00010E0C2E6D0E004C0FE010E9478112196FD
:0A26F000C336D107C9F7F894FFCFF5
:1026FA000000900480000000400014005400000014
:10270A0000002F018F00BC008101ED00CB00DF002B
:10271A00000000001304E6032A05C102DF03CC030C
:10272A00BD0300000000C2028F002A05C1021E0379
:10273A003603A90200000000BF058F002A052905FB
:10274A000D0A0041540041542B434D47463D310088
:10275A0041542B434D47533D222B393100220D0062
:10276A0068747470733A2F2F7777772E676F6F6755
:10277A006C652E636F6D2F6D6170732F0031332E70
:10278A0030343631303036002C0038302E32323088
:10279A0039363634004E6F2052616E67652020202C
:1027AA00202020004E6F2052616E67652020202075
:1027BA002000425249444745204352494D494E411F
:1027CA004C204143544956495459004252494447BE
:1027DA0045204352494D494E414C0020202020209B
:1027EA004143544956495459006D616E75616C20D4
:1027FA006D6F6465006175746F206D6F6465006349
:10280A006D3100636D3200636D3300202020435226
:10281A00494D494E414C202020004352494D494ED2
:10282A00414C2041435449564954592053504F541E
:10283A005445440038313839393838333437002A66
:10284A004352494D494E414C2041435449564954FB
:0C285A00592053504F54544544230000B3
:00000001FF
