:020000040000FA
:100000000C946B000C9493000C9493000C9474115A
:100010000C9474110C9474110C9493000C94930030
:100020000C9493000C9493000C9493000C94930004
:100030000C9493000C9493000C9493000C949300F4
:100040000C942A110C9493000C94F8100C94D21078
:100050000C9493000C9493000C9493000C949300D4
:100060000C94EC110C949300000000002400270075
:100070002A0000000008000201000003040700003D
:10008000000000000000542D484947483A004E4FF8
:10009000524D414C3A000000000023002600290088
:1000A00000000000250028002B00040404040404C0
:1000B0000404020202020202030303030303010217
:1000C00004081020408001020408102001020408E6
:1000D00010200B13F81811241FBECFEFD8E0DEBF9D
:1000E000CDBF26E0A4E7B2E001C01D92A23FB20757
:1000F000E1F712E0A0E0B1E0E6E7FAE302C0059024
:100100000D92A437B107D9F710E0CAE6D0E004C0D9
:100110002197FE010E94361BC936D107C9F70E94FC
:100120002C140C942E1D0C94000008950895AF9289
:10013000BF92CF92DF92EF92FF920F931F93CF93D4
:10014000DF936C017B018B01040F151FEB015E0136
:10015000AE18BF08C017D10759F06991D601ED91CB
:10016000FC910190F081E02DC6010995892B79F76A
:10017000C501DF91CF911F910F91FF90EF90DF901C
:10018000CF90BF90AF900895FC01538D448D252FE3
:1001900030E0842F90E0821B930B541710F0CF9621
:1001A000089501970895FC01918D828D981761F053
:1001B000A28DAE0FBF2FB11D5D968C91928D9F5F6A
:1001C0009F73928F90E008958FEF9FEF0895FC0149
:1001D000918D828D981731F0828DE80FF11D858DFC
:1001E00090E008958FEF9FEF0895FC01918D228D8F
:1001F000892F90E0805C9F4F821B91098F73992714
:1002000008958EEA95E00E94F50021E0892B09F41B
:1002100020E0822F089580E090E0892B29F00E9451
:10022000010181110C9400000895FC01A48DA80F18
:10023000B92FB11DA35ABF4F2C91848D90E0019628
:100240008F739927848FA689B7892C93A089B18948
:100250008C91837080648C93938D848D981306C0E9
:100260000288F389E02D80818F7D80830895EF924D
:10027000FF920F931F93CF93DF93EC0181E0888F60
:100280009B8D8C8D98131AC0E889F989808185FF30
:1002900015C09FB7F894EE89FF896083E889F989D2
:1002A00080818370806480839FBF81E090E0DF91D4
:1002B000CF911F910F91FF90EF900895F62E0B8D27
:1002C00010E00F5F1F4F0F731127E02E8C8D8E11E2
:1002D0000CC00FB607FCFACFE889F989808185FF49
:1002E000F5CFCE010E941501F1CFEB8DEC0FFD2F64
:1002F000F11DE35AFF4FF0829FB7F8940B8FEA8904
:10030000FB8980818062CFCFCF93DF93EC01888D12
:100310008823B9F0AA89BB89E889F9898C9185FD80
:1003200003C0808186FD0DC00FB607FCF7CF8C910E
:1003300085FFF2CF808185FFEDCFCE010E941501B0
:10034000E9CFDF91CF910895833081F028F4813097
:1003500099F08230A9F008958730A9F08830C9F06B
:100360008430B1F4809180008F7D03C08091800043
:100370008F7780938000089584B58F7784BD08952A
:1003800084B58F7DFBCF8091B0008F778093B000D4
:1003900008958091B0008F7DF9CFCF93DF93282F00
:1003A00030E0F901EE58FF4F8491F901E254FF4F1C
:1003B000D491F901E655FF4FC491CC23A1F08111EE
:1003C0000E94A401EC2FF0E0EE0FFF1FEA56FF4F52
:1003D000A591B491EC91ED2381E090E009F480E0E7
:1003E000DF91CF91089580E090E0FACFCF92DF9235
:1003F000EF92FF920F931F93CF93C0E007E010E0BE
:1004000083E7E82EF12CCC24C394D12C8091A6054F
:100410009091A7050E94CD01892BC1F3C7010197D7
:10042000F1F78091A6059091A7050E94CD01960154
:10043000002E01C0220F0A94EAF7892B71F420954F
:10044000C2230150110910F78C2FCF911F910F91EA
:10045000FF90EF90DF90CF900895C22B8091A6057A
:100460009091A7050E94CD01892BC1F7EACF1F9378
:10047000CF93DF93282F30E0F901EE58FF4F84919E
:10048000F901E254FF4FD491F901E655FF4FC491B1
:10049000CC23A9F0162F81110E94A401EC2FF0E0CB
:1004A000EE0FFF1FE056FF4FA591B4918FB7F89460
:1004B000EC91111108C0D095DE23DC938FBFDF9142
:1004C000CF911F910895DE2BF8CFCF93DF9390E06B
:1004D000FC01E254FF4F249186559F4FFC0184910B
:1004E0008823C9F090E0880F991FFC01E859FF4F5D
:1004F000A591B491FC01E056FF4FC591D4916111D3
:100500000DC09FB7F8948C91209582238C9388819D
:10051000282328839FBFDF91CF910895623051F443
:100520009FB7F8943C91822F809583238C93E88128
:100530002E2BEFCF8FB7F894EC912E2B2C938FBFEF
:10054000EACF3FB7F8948091700390917103A09126
:100550007203B091730326B5A89B05C02F3F19F015
:100560000196A11DB11D3FBFBA2FA92F982F882733
:10057000BC01CD01620F711D811D911D42E0660F0E
:10058000771F881F991F4A95D1F708958F929F92E0
:10059000AF92BF92CF92DF92EF92FF924B015C013C
:1005A0000E94A1026B017C010E94A1026C197D09CD
:1005B0008E099F09683E734081059105A8F321E0EB
:1005C000821A9108A108B10888EEC80E83E0D81EEF
:1005D000E11CF11C81149104A104B10429F7FF90DE
:1005E000EF90DF90CF90BF90AF909F908F90089545
:1005F00020917603309177032817390771F4909191
:10060000740380917503981741F0E0917403F0E052
:10061000E15DFC4F808190E008958FEF9FEF08959A
:100620000895EF92FF920F931F93CF93DF93DC0116
:100630005C96ED90FC905D97E114F10479F481E013
:1006400090E013969C938E93129790E080E0DF9158
:10065000CF911F910F91FF90EF9008955196ED91DA
:10066000FC91529750968C915097982F90950FB778
:100670005E962C915E97122F127021FD6095F89472
:100680002081112319F1282B2083E7012197F1F70D
:1006900028E0462F50E0308160FF1AC0382B3083AD
:1006A000E7012197F1F7BA0175956795215089F710
:1006B000112381F08081892380830FBF5C968D9107
:1006C0009C910197F1F781E090E0C1CF2923DCCF25
:1006D0003923E5CF9081892BEFCF2091760330919C
:1006E00077032817390771F48091750320917403FB
:1006F00090E0805C9F4F821B910960E470E00E9453
:10070000EC1A089590E080E00895209176033091EE
:10071000770328173907B9F4909174038091750312
:10072000981789F0E0917403F0E0E15DFC4F80815F
:100730002091740330E02F5F3F4F2F7333272093B6
:10074000740390E008958FEF9FEF0895209129039F
:10075000211109C021E02093290330914B062091FB
:100760004C063CBD2DBD60E0FC0184810C94370239
:1007700061E0FC0184810E9437028091290381118C
:100780001092290308958EBD00000DB407FEFDCF21
:100790008EB508958FEF0C94C3030F931F93CF93DF
:1007A000DF938C012FB7F8948091A0059091A1055B
:1007B000A091A205B091A3052FBFEC010E94CA032E
:1007C0008F3FB1F02FB7F8948091A0059091A105CB
:1007D000A091A205B091A3052FBF8C1B9D0B801784
:1007E000910760F380E0DF91CF911F910F91089501
:1007F00081E0F9CFCF92DF92EF92FF920F931F9398
:10080000CF93DF93EC01162F69017A018E81882343
:1008100089F08F8198859C012F5F3F4F38872F8308
:100820008230924018F40E94CA03F3CFCE010E9496
:10083000B8031E82CE010E94A6038CE291E00E94C2
:10084000CD03812F80640E94C30308E110E0D7012B
:10085000C601002E04C0B695A795979587950A9472
:10086000D2F70E94C30308501109083F8FEF180701
:1008700071F78FEF0E94C30310E00E94CA038A87BA
:1008800087FF04C01F3F11F01F5FF7CFDF91CF91AB
:100890001F910F91FF90EF90DF90CF900895AF924E
:1008A000BF92CF92DF92EF92FF920F931F93CF935D
:1008B000DF93EC016901C801820F931F81309240E0
:1008C00050F58E81882379F088819981AA81BB8136
:1008D00084179507A607B70731F48F819885C81646
:1008E000D90608F054C0488359836A837B838B857B
:1008F000833039F089E0440F551F661F771F8A95B2
:10090000D1F79A01AB0161E1CE010E94FA0388237D
:1009100089F083E08D83CE010E94B80380E0DF91EF
:10092000CF911F910F91FF90EF90DF90CF90BF90EC
:10093000AF9008952FB7F8948091A0059091A105EC
:10094000A091A205B091A3052FBF5C010E94CA032C
:100950008A878F3FB1F42FB7F8948091A0059091CA
:10096000A105A091A205B091A3052FBF8A199B09EB
:100970008D32914058F38FE08D83CE010E94B803F1
:10098000CACF8E3F89F418861F8281E08E838F81C3
:1009900098858C159D0550F40E94CA038F81988517
:1009A000019698878F83F3CF8DE0E6CF6701E00E45
:1009B000F11E0E94CA03F60181936F01EE15FF0537
:1009C000C1F78F819885080F191F18870F838985B4
:1009D000882319F001151240A0F08E81882389F038
:1009E0008F8198859C012F5F3F4F38872F838230FE
:1009F000924018F40E94CA03F3CFCE010E94B803BC
:100A00001E8281E08CCFCF92DF92EF92FF920F9304
:100A1000CF93DF93EC01690182E141155105610536
:100A2000710599F08B85833039F089E0440F551FAB
:100A3000661F771F8A95D1F79A01AB0168E1CE0155
:100A40000E94FA03882319F084E08D832DC08EEF75
:100A50000E94C30376018EEFD81AF70181917F01BE
:100A60000E94C303EC14FD04C1F78FEF0E94C3037F
:100A70008FEF0E94C3030E94CA038A878F7185305B
:100A800071F4011116C0CE010E94B80381E0DF911C
:100A9000CF910F91FF90EF90DF90CF90089581E17B
:100AA0008D83CE010E94B803CE010E94B80380E07E
:100AB000EECF88E592E00E94CD03811102C085E16E
:100AC000C4CF20E030E0A9016DE0CE010E94FA031E
:100AD000882311F084E1B9CF0E94CA038111FACFB3
:100AE000D2CF0F9340912B0350912C0360912D0393
:100AF00070912E03411551056105710589F0082F8C
:100B000020EA33E090E080E00E940305882349F06A
:100B100010922B0310922C0310922D0310922E038F
:100B200081E00F9108950F93CF93C82F80912A03EE
:100B3000811105C0C1E08C2FCF910F910895409194
:100B400000015091010160910201709103010C2F8D
:100B500020EA33E090E080E00E940305811102C0AA
:100B6000C0E0E9CFCC2331F381E00E9471058823F6
:100B7000B9F310922A03DFCF8F929F92AF92BF9268
:100B8000EF92FF920F931F93CF934B015C01C42F01
:100B90008091000190910101A0910201B0910301A7
:100BA00088159905AA05BB0541F181E00E949305CE
:100BB00081110BC080E0CF911F910F91FF90EF90BA
:100BC000BF90AF909F908F90089580EAE82E83E0C9
:100BD000F82E00E012E030E020E0B501A40190E042
:100BE00080E00E944F04882329F3809200019092B4
:100BF0000101A0920201B092030140912A034C2B03
:100C000040932A0381E0D7CF4F925F926F927F92F9
:100C10008F929F92AF92BF92CF92DF92EF92FF920C
:100C20000F931F93CF93DF93EC0142305105610581
:100C3000710590F480E0DF91CF911F910F91FF90AB
:100C4000EF90DF90CF90BF90AF909F908F907F906C
:100C50006F905F904F90089589859A85AB85BC858C
:100C60000196A11DB11D84179507A607B70710F3BC
:100C7000CB88DC88ED88FE888F89803109F042C0FE
:100C8000BB27A72F962F852F480159012A013B0129
:100C9000C80ED91EEA1EFB1E809100019091010131
:100CA000A0910201B0910301C816D906EA06FB061D
:100CB00099F58F898031C1F5B301A20155276627C7
:100CC0007727440F551F40565C4FFA01918280826E
:100CD00080912A03816080932A038A89823080F080
:100CE0008D819E81AF81B8858C0D9D1DAE1DBF1D70
:100CF00080932B0390932C03A0932D03B0932E038A
:100D000081E099CFDB01CA01E7E0B695A7959795F9
:100D10008795EA95D1F7B8CF40E0C701B6010E94A8
:100D2000BC058111C6CF86CFB301A2014F775527ED
:100D300066277727440F551F440F551F40565C4FB9
:100D4000FA0180829182A282B382C2CF8F929F9257
:100D5000AF92BF92CF92DF92EF92FF920F931F93C9
:100D6000CF93DF93FC0181859285A385B48501969D
:100D7000A11DB11D84179507A607B70770F480E081
:100D8000DF91CF911F910F91FF90EF90DF90CF9067
:100D9000BF90AF909F908F90089583889488A58886
:100DA000B6888789803189F5BB27A72F962F852F95
:100DB000E9016A017B018F01BC01CD01680D791D3C
:100DC0008A1D9B1D8090000190900101A09002015E
:100DD000B090030186169706A806B90601F5F8013A
:100DE0008789803111F5DD24EE24FF24F601EE0F12
:100DF000FF1FE056FC4F80819181B0E0A0E0888326
:100E00009983AA83BB8381E0BBCFDB01CA01C7E022
:100E1000B695A79597958795CA95D1F7C9CF40E024
:100E20000E94BC058111DBCFAACFE894C7F8DD246E
:100E3000EE24FF24F601EE0FFF1FEE0FFF1FE0561A
:100E4000FC4F80819181A281B381BF70D8CF2F9256
:100E50003F924F925F926F927F928F929F92AF924A
:100E6000BF92CF92DF92EF92FF920F931F93CF9397
:100E7000DF93EC014B018D81811115C08FEF9FEF46
:100E8000DF91CF911F910F91FF90EF90DF90CF9066
:100E9000BF90AF909F908F907F906F905F904F909A
:100EA0003F902F9008958C8180FFE8CF4B895C891B
:100EB0006D897E898A859B85AC85BD85412C4817C7
:100EC00059076A077B0711F044244394512C5201BF
:100ED0001E0126E0220E311CA114B10409F4B1C098
:100EE0004A855B856C857D856A0181E0D8228B8D82
:100EF0009C8D8A019B01E9E036952795179507950A
:100F0000EA95D1F7ED81E230E1F5FC01628D738D58
:100F1000848D958D600F711F821F931F612C22E0BD
:100F2000722E6C187D08A614B70408F435012C81C4
:100F300026FD04C06114F2E07F0671F40091000107
:100F4000109101012091020130910301061717074A
:100F50002807390709F053C040E00E94BC058823E8
:100F600009F48CCFC60180569C4FD4019C01260DFC
:100F7000371DFC012E173F0709F45EC041914D93C8
:100F8000F9CFFC0174807A947022C114D10471F4F9
:100F900071100CC0452B462B472B39F58F89988D46
:100FA000A98DBA8D8E839F83A887B987EB8DFC8D21
:100FB0006E817F81888599856250710981099109C7
:100FC000258504C0660F771F881F991F2A95D2F7C1
:100FD0000685178520893189600F711F821F931F35
:100FE000670D711D811D911D99CF4E815F816885AF
:100FF000798591010E94A6068111D8CF3FCF740157
:1010000083019601AB01BC0190E080E00E944F0497
:10101000882309F433CF860C971C8A859B85AC8581
:10102000BD85860D971DA11DB11D8A879B87AC8745
:10103000BD87A618B70850CF281B390B820E931E08
:10104000ECCFC2011DCF8F929F92AF92BF92CF92F1
:10105000DF92EF92FF920F931F93CF93DF93EC01F8
:101060008D8181110EC080E0DF91CF911F910F9192
:10107000FF90EF90DF90CF90BF90AF909F908F90B8
:1010800008950B891C892D893E89041715072607A9
:10109000370748F34A015B01823031F48A869B8628
:1010A000AC86BD8681E0E0CF81149104A104B10437
:1010B00049F41E821F82188619861A861B861C8692
:1010C0001D86F0CF0A851B852C853D85EB8DFC8D1B
:1010D000858590E00996B901A8014150510961093F
:1010E0007109082E04C076956795579547950A941F
:1010F000D2F775016401E1E0CE1AD108E108F108E8
:1011000004C0F694E794D794C7948A95D2F7C4168E
:10111000D506E606F70620F0012B022B032B11F56E
:101120008F89988DA98DBA8D8E839F83A887B98763
:101130008E010A5F1F4FC114D104E104F10409F4C8
:10114000ADCF4E815F816885798598018B8D9C8DAF
:101150000E94A60691E0C91AD108E108F1088111A0
:10116000EACF81CFC41AD50AE60AF70AE1CF3F9247
:101170004F925F926F927F928F929F92AF92BF92A7
:10118000CF92DF92EF92FF920F931F93CF93DF9353
:10119000CDB7DEB72C970FB6F894DEBF0FBECDBF2C
:1011A0005C01DC015B968D909C905C9716964D904F
:1011B0005D906D907C901997411451046104710405
:1011C00009F468C0BFEF4B1A5B0A6B0A7B0A312C2B
:1011D000F40181859285A385B4859C01AD012F5FC3
:1011E0003F4F4F4F5F4F29873A874B875C8773018B
:1011F00062011D821E821F821886F40181859285FC
:10120000A385B4852D813E814F81588528173907E4
:101210004A075B0708F056C089859A85AB85BC856F
:101220008C159D05AE05BF0550F482E0C82ED12C6B
:10123000E12CF12C92E0492E512C612C712C9E0155
:101240002F5F3F4FB701A601C4010E94A606882365
:10125000C9F189819A81AB81BC81892B8A2B8B2B27
:1012600009F1260137019FEF491A590A690A790ADB
:101270002D813E814F8158852F5F3F4F4F4F5F4FEC
:101280002D833E834F8358873FEFC31AD30AE30A67
:10129000F30AB3CFF401408051806280738033241D
:1012A000339496CFC414D504E604F70409F70FEF7E
:1012B0001FEF2FEF3FE0B701A601C4010E94040613
:1012C000811119C080E02C960FB6F894DEBF0FBED6
:1012D000CDBFDF91CF911F910F91FF90EF90DF90E5
:1012E000CF90BF90AF909F908F907F906F905F90C6
:1012F0004F903F900895D50116964D915D916D9157
:101300007C911997411551056105710539F09701D7
:101310008601C4010E9404068823A1F2D501169615
:10132000CD92DD92ED92FC921997332051F0D701C6
:10133000C6010196A11DB11DF40180839183A28392
:10134000B383F5018789908DA18DB28D892B8A2B6E
:101350008B2B39F48481C78AD08EE18EF28E80681F
:101360008483F50184818062848381E0ACCF1F9304
:10137000CF93DF93FC0125812223D1F1162FEC01BD
:10138000848187FF2AC0668577858089918941E0BD
:101390000E94BC05882361F1EA8980E2E89FF001A0
:1013A0001124E056FC4F309719F18D81823040F4C2
:1013B0008B899C89AD89BE89848F958FA68FB78FC5
:1013C0008F89988D938F828F8F89988DA98DBA8DF3
:1013D000B58BA48B8C818F778C83111103C08C818A
:1013E0008F7E8C83812FDF91CF911F910C94930579
:1013F00080E0DF91CF911F9108951F93CF93DF93EA
:10140000EC018D81813031F090E080E0DF91CF916F
:101410001F9108958C8181FFF7CF82FD18C090E065
:1014200080E00E94A6030E94CA03182F90E080E08B
:101430000E94B8031F3F41F78C8185FF1BC060E00D
:10144000CE010E94B7098C818F7D8C83DDCF4B89C3
:101450005C896D897E898A859B85AC85BD8584176D
:101460009507A607B707D9F2CE010E94230881117C
:10147000D6CFCACF40912B0350912C0360912D03FE
:1014800070912E03452B462B472B21F080E00E94C4
:101490007105BACF80618C832A853B85317080E0ED
:1014A00092E0821B930BB2CF2F923F924F925F92AA
:1014B0006F927F928F929F92AF92BF92CF92DF9264
:1014C000EF92FF920F931F93CF93DF9300D000D042
:1014D0001F92CDB7DEB77C015B01342E5D83DC014A
:1014E00015968C911597813009F0CCC014962C90EC
:1014F00021FEC8C022FCB2C0C32CDD8022947FE054
:1015000027222094B22DB1702B2ED7011A964D911F
:101510005D916D917C911D97C114D10409F426C190
:101520005B968D919C915C97FC0174807A948A0102
:101530009B0169E036952795179507956A95D1F730
:1015400070228A011170711020C001151105E9F493
:1015500016964D915D916D917C91199741155105AC
:101560006105710509F097C057968D919D910D9079
:10157000BC91A02D0097A105B10509F0AEC0C7012F
:101580000E94B708882309F47DC080E092E0801BA8
:10159000910B46018C159D0508F44C01D7015B9613
:1015A0004D915C915C9716968D919D910D90BC919B
:1015B000A02D0297A109B109FA01258504C0880F61
:1015C000991FAA1FBB1F2A95D2F7468557856089A8
:1015D0007189840F951FA61FB71F9C01AD01270DB0
:1015E000311D411D511D29013A01811432E093063C
:1015F00009F079C08091000190910101A091020150
:10160000B091030184159505A605B70559F48FEF30
:101610009FEFDC018093000190930101A0930201F0
:10162000B0930301022D9501B301A20190E080E087
:101630000E940305882331F19EEFB91AC818D90812
:10164000F70182859385A485B585880D991DA11D17
:10165000B11D82879387A487B58757CFF701438948
:1016600054896589768982859385A485B5854817CF
:1016700059076A077B0709F43FCFC7010E94230877
:1016800081113ACF81E090E0D70113969C938E931D
:10169000129780E007C09E012F5F3F4F0E94A60671
:1016A000811102C090E079C089819A81AB81BC81AF
:1016B000F701238D348DF901278948EF5FEF60E052
:1016C00070E0203121F048EF5FEF6FEF7FE084178B
:1016D0009507A607B70708F052CFF70186839783CF
:1016E000A087B18752CF0115110599F5D7011A9638
:1016F0004D915D916D917C911D9753968D919D912A
:101700000D90BC91A02D481759076A077B0708F177
:1017100081E00E949305882309F4B4CF4092000130
:1017200050920101609202017092030180912A039C
:10173000816080932A03C80180569C4FD5019C018B
:10174000280D391DFC012E173F0759F04D9141938B
:10175000FACF41E0C301B2010E94BC058111EBCF79
:1017600091CF281B390BA20EB31E68CFF7018389D6
:101770009489A589B68984179507A607B70738F411
:101780008481438B548B658B768B80688483F701CF
:10179000848183FD1AC0832D9D810F900F900F903F
:1017A0000F900F90DF91CF911F910F91FF90EF90CD
:1017B000DF90CF90BF90AF909F908F907F906F9071
:1017C0005F904F903F902F90089561E0C7010E9475
:1017D000B709882309F456CFDECFCF93DF931F924A
:1017E000CDB7DEB7698341E050E0BE016F5F7F4F48
:1017F0000E94540A0F90DF91CF910895FC01818DD2
:10180000928D009719F061E00C94B7090895DC01FE
:101810005996ED91FC913097B9F083899489A58907
:10182000B6894285538564857585841B950BA60B07
:10183000B70B811520E89207A105B10538F08FEFAD
:101840009FE7A0E0B0E0089590E080E00895CF9396
:10185000DF931F92CDB7DEB7FC01818D928D00978B
:1018600069F0BE016F5F7F4F0E942707019731F437
:10187000898190E00F90DF91CF9108958FEF9FEFD6
:10188000F9CFEF92FF920F931F93CF93DF931F92A5
:10189000CDB7DEB7FC01818D928D10E000E000979E
:1018A000D1F07F01BE016F5F7F4F0E9427070FEFCE
:1018B0001FEF019781F4098110E0F701818D928D6E
:1018C000FC01428553856485758541505109610944
:1018D00071090E942308C8010F90DF91CF911F91D9
:1018E0000F91FF90EF900895DC0159968D919C9196
:1018F000009739F0DC01ED91FC910480F581E02D39
:10190000099490E080E00895CF93DF93EC01E98D96
:10191000FA8D309749F481E090E09B838A8390E0D0
:1019200080E0DF91CF91089513821282898D9A8D84
:101930000E94540AE98DFA8D22813381232B59F7B5
:10194000F0CFCF93DF931F92CDB7DEB76983DC0171
:10195000ED91FC910280F381E02D41E050E0BE0169
:101960006F5F7F4F09950F90DF91CF910895089594
:101970002091B802260F3327331F21323105ECF4B2
:1019800020910103FC0190E080E0243069F082E0C6
:101990000895A091B8022191AC0148565D4FA40F63
:1019A000B52FB11D2C930196861798F38091B8023C
:1019B000680F6093B80280E0089581E00895109266
:1019C000010381E0809300031092DB0261E082E179
:1019D0000E94370261E083E10E943702E9EBF0E008
:1019E00080818E7F808380818D7F808388E4809357
:1019F000B80085E48093BC000895CF93DF9391E015
:101A0000909397028823B9F0C091B800D091BA00A2
:101A10008091BC008A7B8093BC0060E082E10E94E0
:101A2000370260E083E10E9437020E94DF0CD0930E
:101A3000BA00C093B800DF91CF910895E0917F0381
:101A400080917E03E81730F4F0E0E958FD4F808183
:101A500090E008958FEF9FEF089590917F0380911C
:101A60007E032FEF3FEF981748F4E92FF0E0E95895
:101A7000FD4F208130E09F5F90937F03C90108955F
:101A800080917E0390917F03891B990B0895CF92DB
:101A9000DF92EF92FF920F931F93CF93DF937C011E
:101AA000CB018A0120910703222389F0EB016B010E
:101AB000C40ED51ECC15DD0569F06991D701ED91F5
:101AC000FC910190F081E02DC7010995F3CF642FBF
:101AD0000E94B80CC801DF91CF911F910F91FF9028
:101AE000EF90DF90CF900895CF93DF931F92CDB703
:101AF000DEB76983209107032223F9F020917C034C
:101B0000203258F021E030E0FC013383228390E062
:101B100080E00F90DF91CF91089580917D03E82FB1
:101B2000F0E0E85FFC4F998190838F5F80937D03A5
:101B300080937C0381E090E0ECCF61E0CE010196E0
:101B40000E94B80CF7CFCF92DF92EF92FF920F93E3
:101B50001F93CF93DF93FC01C48121E020930703FF
:101B6000C093280310927D0310927C038385682B19
:101B700086E996E00E94740DD0917C03D13208F082
:101B800092C00E94A1026B017C018091010381112E
:101B900065C082E08093010381E0809300038FEFB2
:101BA0008093FF021092FE02D093FD02A8E0B3E002
:101BB000EDEDF2E080E0D81385C01092DC02809158
:101BC000DC02CC0FC82BC093DC028091DB02813099
:101BD00009F07CC01092DB020E94A1026B017C0123
:101BE0008091DC028093BB008091030390910403F9
:101BF000A0910503B0910603892B8A2B8B2B99F0BA
:101C00000E94A10200910303109104032091050397
:101C1000309106036C197D098E099F090617170775
:101C200028073907E0F18091BC0083FDD9CF85EC0E
:101C30008093BC000E94A1026B017C018091010392
:101C4000823009F445C08091FF028F3F61F180919D
:101C5000FF02803241F18091FF0225C08091030391
:101C600090910403A0910503B0910603892B8A2B60
:101C70008B2B09F48ACF0E94A102009103031091DB
:101C8000040320910503309106036C197D098E0928
:101C90009F09061717072807390708F076CF8091A4
:101CA00002030E94FD0C10927D0310927C0310929F
:101CB0000703DF91CF911F910F91FF90EF90DF907D
:101CC000CF9008959D9191938F5F75CF85EEB0CFA2
:101CD0008091030390910403A0910503B091060342
:101CE000892B8A2B8B2B09F4A9CF0E94A10200918A
:101CF00003031091040320910503309106036C192E
:101D00007D098E099F09061717072807390708F06C
:101D100095CFC5CF90E080E008950F931F93CF93A8
:101D20008C01C62F0E94A30D6C2F6460C8010E9415
:101D3000A30D6C2F6B7FC8010E94A30D83EC90E074
:101D40000197F1F7CF911F910F9108950F931F9372
:101D5000CF93DF938C01D62FC42F607F642B0E941A
:101D60008D0E80E1D89FB00111246C2BC801DF914A
:101D7000CF911F910F910C948D0E40E061E082EEA7
:101D800096E00E94A60E8BE39FE10197F1F708957C
:101D9000CF93DF93CDB7DEB728970FB6F894DEBFA9
:101DA0000FBECDBF98E0EAE0F1E0DE0111960190B0
:101DB0000D929A95E1F79091EA06961710F46FEF5D
:101DC000690F262F30E0220F331F41E050E04C0F07
:101DD0005D1F240F351FF9016081680F606840E0C6
:101DE00082EE96E028960FB6F894DEBF0FBECDBF08
:101DF000DF91CF910C94A60E41E00E94A60E81E0E7
:101E000090E00895FB0101900020E9F73197AF01C0
:101E1000461B570BDC01ED91FC910280F381E02D14
:101E20000994CF93DF93FC014481558160817181D6
:101E30008EEA95E00E949700EC016EEA71E08EEA6E
:101E400095E00E94020F8C0F9D1FDF91CF910895A6
:101E50008F929F92AF92BF92EF92FF920F931F9338
:101E6000CF93DF93CDB7DEB7A1970FB6F894DEBF5F
:101E70000FBECDBF7C01FA01CB0119A2223008F4BC
:101E80002AE08E010F5D1F4F822E912CB12CA12CC8
:101E9000BF01A50194010E94001BF901CA016A302B
:101EA0000CF5605DD8016E938D01232B242B252B1F
:101EB00079F790E080E0109721F0BD01C7010E9402
:101EC000020FA1960FB6F894DEBF0FBECDBFDF9113
:101ED000CF911F910F91FF90EF90BF90AF909F9087
:101EE0008F900895695CDECFCF92DF92EF92FF92E0
:101EF0000F931F93CF93DF93EC016A017B01E8817D
:101F0000F9810190F081E02D6DE209958C01442763
:101F10005527BA014C195D096E097F092AE0CE01E7
:101F20000E94280F800F911FDF91CF911F910F9179
:101F3000FF90EF90DF90CF9008950F931F93CF9372
:101F4000DF93EC01AB01770F660B770B77FF0FC0C8
:101F50000E94740F8C016EEA71E0CE010E94020FA4
:101F6000800F911FDF91CF911F910F9108952AE06B
:101F70000E94280FEFCFAB01770F660B770B77FD31
:101F80000C94740F2AE00C94280FCF93DF93BC01BC
:101F90008EEA95E00E94020FEC016EEA71E08EEA93
:101FA00095E00E94020F8C0F9D1FDF91CF91089545
:101FB0000F931F93CF93DF938C01D0E0C0E0F80123
:101FC000EC0FFD1F6491662341F08EEA95E00E94BC
:101FD0003701892B11F02196F2CF6EEA71E08EEA7B
:101FE00095E00E94020F8C0F9D1FDF91CF911F91F2
:101FF0000F910895CF93DF93EC0188819981009729
:1020000011F00E94D81B198218821D821C821B822B
:102010001A82DF91CF910895FC0180819181009710
:1020200011F00C94D81B08950F931F93CF93DF9357
:10203000EC0188819981009759F02A813B8126170C
:10204000370730F081E0DF91CF911F910F91089514
:102050008B016F5F7F4F0E94611C009759F099833D
:1020600088831B830A832C813D81232B59F7FC0134
:102070001082E8CF80E0E7CFEF92FF920F931F939B
:10208000CF93DF936115710541F480E0DF91CF912B
:102090001F910F91FF90EF90089541155105B1F0F8
:1020A0007B01EC010C811D81040F151FB8010E94FA
:1020B0001410882351F3288139818C819D81B701C7
:1020C000820F931F0E94271D1D830C8381E0DECFAA
:1020D000EF92FF920F931F93CF93DF93EC017B015D
:1020E0008A01BA010E94141081110BC0CE010E9416
:1020F000FA0FCE01DF91CF911F910F91FF90EF90DA
:1021000008951D830C83B701888199810E94271D42
:10211000F0CFFC0111821082138212821582148288
:10212000FB0101900020E9F73197AF01461B570BE7
:102130000C94681085ED8093BC008091030390910E
:102140000403A0910503B09106030796A11DB11DDC
:1021500023E0B695A795979587952A95D1F7209175
:10216000BC0024FD03C010920103089540910303B5
:10217000509104036091050370910603452B462B93
:10218000472B69F30097A105B10541F025E32A9596
:10219000F1F700000197A109B109E1CF8091020395
:1021A0000C94FD0C1F920F920FB60F9211242F93D7
:1021B0003F934F935F936F937F938F939F93AF93CF
:1021C000BF93EF93FF938EEA95E00E941501FF9174
:1021D000EF91BF91AF919F918F917F916F915F919F
:1021E0004F913F912F910F900FBE0F901F90189518
:1021F0001F920F920FB60F9211242F938F939F93DC
:10220000EF93FF93E091BE05F091BF058081E091CF
:10221000C405F091C50582FD1BC090818091C70562
:102220008F5F8F732091C805821741F0E091C70539
:10223000F0E0E255FA4F958F8093C705FF91EF913B
:102240009F918F912F910F900FBE0F901F90189517
:102250008081F4CF1F920F920FB60F9211242F930B
:102260003F938F939F93AF93BF938091A0059091DD
:10227000A105A091A205B091A30530916F0323E0C1
:10228000230F2D3758F50196A11DB11D20936F0323
:102290008093A0059093A105A093A205B093A305F8
:1022A0008091700390917103A0917203B0917303B8
:1022B0000196A11DB11D8093700390937103A093AB
:1022C0007203B0937303BF91AF919F918F913F9130
:1022D0002F910F900FBE0F901F90189526E8230F97
:1022E0000296A11DB11DD2CF1F920F920FB60F9271
:1022F00011242F933F934F935F936F937F938F930B
:102300009F93AF93BF93EF93FF93E0917603F09188
:102310007703309749F0A685B7858585968D91FF1F
:1023200014C09C918923A1F4FF91EF91BF91AF91CB
:102330009F918F917F916F915F914F913F912F91DD
:102340000F900FBE0F901F9018959C91892361F7F5
:10235000A389B4899C918589809589238C938689EA
:1023600097890197F1F7608D718DA685B7855585A1
:1023700038E020E0CB010197F1F7822F90E09595AE
:102380008795282F4C91452309F02068315091F70B
:10239000868D81FD20958091750390E001968F7365
:1023A000992730917403381799F0A0917503B0E024
:1023B000A15DBC4F2C9380937503828D938D019703
:1023C000F1F7A389B4898C919589892B8C93ACCF33
:1023D000868D8160868FF1CF1F920F920FB60F927C
:1023E00011242F933F934F935F936F937F938F931A
:1023F0009F93AF93BF93EF93FF938091B900887F32
:10240000803609F44AC0F0F5883209F4A7C018F5FF
:10241000803109F49BC0B8F4882309F4F9C08830EE
:1024200009F494C0FF91EF91BF91AF919F918F916B
:102430007F916F915F914F913F912F910F900FBEC0
:102440000F901F901895883109F488C0803251F799
:102450008093FF0214C0803409F49DC040F480339F
:10246000B9F38833F9F68093FF0285ECB0C080356C
:1024700009F485C0883509F496C0883499F60E941D
:102480009A10D0CF883909F48CC038F5883729F0F4
:1024900050F4883611F0803729F683E080930103E9
:1024A0001092DA0257C0883809F47BC0803919F0DD
:1024B000803809F0B7CF8091DA02803208F071C01D
:1024C000E091DA0281E08E0F8093DA028091BB0006
:1024D000F0E0E654FD4F80833DC0803B39F0E0F4EE
:1024E000803A09F479C0883A09F09CCF84E080935F
:1024F00001031092B9021092B802E0917A03F091B0
:102500007B0309958091B80281110FC081E080930F
:10251000B8021092980209C0803C09F4A6CF883C0A
:1025200009F4A3CF883B09F07DCFE091B90281E0A7
:102530008E0F8093B902F0E0E856FD4F80818093C2
:10254000BB009091B9028091B80229C08091DC0251
:102550008093BB0085EC8093BC0064CF9091FE0219
:102560008091FD02981758F5E091FE0281E08E0FF0
:102570008093FE02F0E0E352FD4F8081E9CFE091CD
:10258000FE0281E08E0F8093FE028091BB00F0E09E
:10259000E352FD4F80839091FE028091FD029817D7
:1025A000C8F285E8D8CFE091FE0281E08E0F8093DB
:1025B000FE028091BB00F0E0E352FD4F80838091EA
:1025C000000381115CCF81E08093DB0284EA809379
:1025D000BC001092010326CF85EC8093BC001092C2
:1025E00001038091DA02803230F4E091DA02F0E007
:1025F000E654FD4F10826091DA0270E0E0917803BA
:10260000F09179038AEB92E009951092DA020ACFF1
:102610001092FF0234CFCF92DF92EF92FF9210928E
:10262000B1051092B00598EEC92E93E0D92EE12C99
:10263000F12CC092B205D092B305E092B405F092AD
:10264000B50582E591E09093AF058093AE0585ECEA
:1026500090E09093BB058093BA0584EC90E0909352
:10266000BD058093BC0580EC90E09093BF058093FE
:10267000BE0581EC90E09093C1058093C00582EC8B
:1026800090E09093C3058093C20586EC90E0909310
:10269000C5058093C4051092C7051092C805109215
:1026A000C9051092CA0580E580934B0610924C062E
:1026B0001092520610925306109256061092580627
:1026C00082E090E0A0E0B0E08093590690935A0633
:1026D000A0935B06B0935C061092700610927A0687
:1026E0001092790684E691E09093780680937706BD
:1026F00010927C061092990610929806C0929A0643
:10270000D0929B06E0929C06F0929D0680E791E0B5
:1027100090939706809396061092E5061092E40631
:1027200086EA91E09093E3068093E20680E280934C
:10273000E60680E18093EB0682E08093EC0610923F
:10274000ED061092CA061092C906C092CB06D0922E
:10275000CC06E092CD06F092CE0684E991E090930B
:10276000C8068093C7061092E1061092E006109208
:10277000D30660EB71E081EC96E00E948910109224
:10278000A5061092A406C092A606D092A706E092D3
:10279000A806F092A90682E891E09093A3068093A0
:1027A000A2061092B9061092B8061092BB061092BB
:1027B000BA061092BD061092BC061092BF06109287
:1027C000BE066091C0066E7F6D7F6093C006669501
:1027D000617081E0682781E10E94370261E081E158
:1027E0000E946502EFECF0E0E491E093B206EBEBBF
:1027F000F0E0E491F0E0EE0FFF1FE056FF4F85910F
:1028000094919093B4068093B30660E080E10E94B7
:1028100065028091C00681FD04C061E080E10E94F4
:10282000370280E18093AE06EEECF0E0E491E093B5
:10283000AF06EAEBF0E0E491F0E0EE0FFF1FEA569E
:10284000FF4F859194919093B1068093B006FF90CD
:10285000EF90DF90CF900895CF93DF93CDB7DEB7A1
:1028600068970FB6F894DEBF0FBECDBF789484B5DD
:10287000826084BD84B5816084BD85B5826085BD7C
:1028800085B5816085BD80916E00816080936E000A
:1028900010928100809181008260809381008091FC
:1028A00081008160809381008091800081608093AD
:1028B00080008091B10084608093B1008091B0006D
:1028C00081608093B00080917A00846080937A0068
:1028D00080917A00826080937A0080917A00816092
:1028E00080937A0080917A00806880937A001092B9
:1028F000C100E091BE05F091BF0582E08083E091C8
:10290000BA05F091BB051082E091BC05F091BD05C0
:102910008FEC80831092C605E091C205F091C3054B
:1029200086E08083E091C005F091C10580818061DF
:102930008083E091C005F091C1058081886080832B
:10294000E091C005F091C105808180688083E091AD
:10295000C005F091C10580818F7D80831092BD06F6
:102960001092BC061092BB061092BA061092B906DD
:102970001092B8068DE991E09093BF068093BE0651
:102980009091AE06963108F047C02DEB30E03093C1
:10299000B9062093B8062BE931E03093BB062093AB
:1029A000BA062CE231E03093BD062093BC0620919C
:1029B000680084E0983048F031E09E3008F430E060
:1029C00081E001C0880F3A95EAF7822B8093680076
:1029D0002DE630E0983050F02BE630E09E3030F0BD
:1029E0002CE630E0963110F030E020E03093B6066F
:1029F0002093B506292F30E0983008F08CC381E091
:102A000001C0880F9A95EAF78093B7068091BE06B9
:102A10009091BF060197F1F78091BC069091BD0699
:102A2000892B49F1E0917603F091770386E0E23A51
:102A3000F80709F1309739F0A389B4899C91858909
:102A4000809589238C938091C0068E7F8093C006E9
:102A5000109275031092740382EA96E090937703C4
:102A600080937603E091B506F091B606808190914F
:102A7000B706892B808310927F0310927E031092F9
:102A80007D0310927C030E94DF0C85E990E0909317
:102A90007B0380937A0386E990E090937903809397
:102AA00078031092E7068091EC06823018F098E0E7
:102AB0009093E7068093EA0662E370E080E090E09E
:102AC0000E94C6026091ED0682EE96E00E94A30D80
:102AD00068EE73E080E090E00E94C60260E382EE60
:102AE00096E00E948D0E0BE416E4C8010197F1F701
:102AF00060E382EE96E00E948D0EC8010197F1F727
:102B000060E382EE96E00E948D0E83E592E00197ED
:102B1000F1F760E282EE96E00E948D0E6091E7068A
:102B2000606240E082EE96E00E94A60E84E0809310
:102B3000E80640E06CE082EE96E00E94A60E0E945D
:102B4000BD0E82E08093E90640E066E082EE96E00A
:102B50000E94A60E40E062E082EE96E00E94A60E81
:102B60008BE39FE10197F1F788E08093ED0660E049
:102B700082EE96E00E94A30D0E94BD0E62E085E009
:102B80000E94650260E082E00E94650281EB91E0B4
:102B90000E94C50F60E082E00E94C80E61EB71E008
:102BA00082EE96E00E94020F64E170E080E090E027
:102BB0000E94C6020E94BD0E55E0252E312C64E015
:102BC000462E512C9BE4692E712C2BE9C22ED12C60
:102BD00033E0A32EB12C42E0842E912C8EE090E0C5
:102BE0009093A7058093A6058091A6059091A705CF
:102BF00061E00E9465028091A6059091A70560E0C2
:102C00000E94370262E170E080E090E00E94C6021C
:102C10008091A6059091A70561E00E943702C3014B
:102C20000197F1F78091A6059091A70562E00E94B7
:102C300065021092A805C6010197F1F78091A605DB
:102C40009091A7050E94CD01892B99F48BE391E027
:102C50000197F1F78091A6059091A7050E94CD01FB
:102C6000019719F481E08093A80583EC90E0019727
:102C7000F1F78091A805813069F50E94F6018093F3
:102C8000AB050E94F6018093AC050E94F60180938B
:102C9000A9050E94F6018093AA050E94F60180937F
:102CA000AD059091AB056091A9052091AC05290F68
:102CB0003327331FA901460F511D2091AA05240F68
:102CC000352F311D33278217130621F46093A40595
:102CD0009093A5056091A40570E090E080E00E94CB
:102CE000191926E636E646EE5FE30E94541920E005
:102CF00030E040E052E40E944A1A0E94B61A7093F3
:102D00009F0360939E038EEA95E00E949D0F60EC06
:102D100071E08EEA95E00E94020F80919E039091EF
:102D20009F03843691050CF003C28EE890E00E9468
:102D3000D80F60919E0370919F038EEA95E00E94E8
:102D4000BB0F60E080E00E94C80E60919E0370910E
:102D50009F0382EE96E00E949D0F66EC71E082EE8A
:102D600096E00E94020F80919C0390919D03873C06
:102D700091050CF0EAC188E7E82EF12C10E000E0A4
:102D800085E00E94CD01892B11F40F5F1F4F6EE08B
:102D900070E080E090E00E94C60291E0E91AF1083C
:102DA00079F710939D0300939C036BEC71E08EEA1E
:102DB00095E00E94020F60919C0370919D038EEA42
:102DC00095E00E94BB0F66E080E00E94C80E609113
:102DD0009C0370919D0382EE96E00E94BB0F67ED0D
:102DE00071E082EE96E00E94020F8EEA95E00E946A
:102DF000F500892B19F18EEA95E00E94D300182F77
:102E0000682F8EEA95E00E94370119831A8241E00B
:102E100050E0BE016F5F7F4F81EC96E00E943C1056
:102E200080919A0390919B030B9709F093C11092A4
:102E30009B0310929A0381E08093990380919903F8
:102E4000882309F4B4C04091C5065091C60620916C
:102E5000C1063091C20690E080E08417950730F4F7
:102E6000F901E80FF91F2115310521F410928003B3
:102E7000E0E8F3E06081FC01E357FC4F60830196DA
:102E80008C30910551F750E040E060EB71E081EC4F
:102E900096E00E946810E2E4F1E090E080E0319179
:102EA000DC01A357BC4F2C9132130AC020918B0335
:102EB00030918C032F5F3F4F30938C0320938B0313
:102EC00001968C30910559F7E6E3F1E090E080E05F
:102ED0003191DC01A357BC4F2C9132130AC02091D1
:102EE000890330918A032F5F3F4F30938A032093E9
:102EF000890301968C30910559F7EAE2F1E090E000
:102F000080E03191DC01A357BC4F2C9132130AC0F1
:102F100020918703309188032F5F3F4F30938803C0
:102F20002093870301968C30910559F7EEE1F1E08B
:102F300090E080E03191DC01A357BC4F2C9132131B
:102F40000AC020918503309186032F5F3F4F309355
:102F500086032093850301968C30910559F7E2E1B1
:102F6000F1E090E080E03191DC01A357BC4F2C915F
:102F700032130AC020918303309184032F5F3F4FA7
:102F8000309384032093830301968C30910559F785
:102F900080918B0390918C030C9709F0E5C081E040
:102FA00090E0909382038093810310929903109292
:102FB0008C0310928B0310928A0310928903109253
:102FC0008803109287031092860310928503109253
:102FD000840310928303809181039091820301976F
:102FE00009F0F3C00E94BD0E60E080E00E94C80EB0
:102FF00061EF71E082EE96E00E94020F61E080E0F6
:103000000E94C80E64E072E082EE96E00E94020F19
:1030100063E172E0CE010D960E9489106BE472E0CC
:10302000CE0143960E94891086E592E00E94C50F6A
:1030300068EE73E080E090E00E94C60289E592E0CD
:103040000E94C50F68EE73E080E090E00E94C60227
:103050001A8219821C821B821E821D826B897C89C6
:103060006115710531F04F89588DCE0101960E948E
:10307000681063E672E0CE0107960E9489104D81C8
:103080005E8169817A81CE0107960E943C10811190
:1030900004C0CE0107960E94FA0F42E050E060E7BC
:1030A00072E0CE0107960E943C10811104C0CE014F
:1030B00007960E94FA0FCE0107960E94110FCE01CB
:1030C00007960E940C10CE0101960E940C1068EE2B
:1030D00073E080E090E00E94C602CE010D960E944F
:1030E000110F68EE73E080E090E00E94C6026AE192
:1030F0008EEA95E00E94370168EE73E080E090E090
:103100000E94C602CE0143960E940C10CE010D967D
:103110000E940C10FFCF9E3040F42850310981E00E
:1031200001C0880F2A95EAF76FCC2E503109F7CFEE
:1031300086E890E00E94D80F60919E0370919F03F3
:103140008EEA95E00E949D0F0ECE6EED71E08EEA44
:1031500095E049CE80919A0390919B0301969093BC
:103160009B0380939A0341CE8091890390918A03B7
:103170000C9729F4909282038092810316CF80915C
:103180008703909188030C9729F4B0928203A09250
:1031900081030BCF80918503909186030C9729F4CE
:1031A000509282034092810300CF809183039091DB
:1031B00084030C9729F43092820320928103F5CE88
:1031C0001092820310928103F0CE6AE070E080E0FA
:1031D00090E00E94C60280E090E0892B09F4FECCCA
:1031E0000E940101882309F4EDCC0E940000EACC82
:1031F00082E891E09093A3068093A20680917603E3
:1032000090917703825A964071F4E091B506F0915F
:10321000B60690818091B7068095892380831092AD
:1032200077031092760381EC96E00C940C10E894EE
:1032300009C097FB3EF490958095709561957F4FFE
:103240008F4F9F4F9923A9F0F92F96E9BB279395AC
:10325000F695879577956795B795F111F8CFFAF4BC
:10326000BB0F11F460FF1BC06F5F7F4F8F4F9F4FED
:1032700016C0882311F096E911C0772321F09EE84B
:10328000872F762F05C0662371F096E8862F70E0B1
:1032900060E02AF09A95660F771F881FDAF7880F8B
:1032A0009695879597F908950E9467190C94D819F7
:1032B0000E94CA1938F00E94D11920F0952311F00C
:1032C0000C94C1190C94C71911240C940C1A0E9467
:1032D000E91970F3959FC1F3950F50E0551F629F58
:1032E000F001729FBB27F00DB11D639FAA27F00D5F
:1032F000B11DAA1F649F6627B00DA11D661F829F86
:103300002227B00DA11D621F739FB00DA11D621F6A
:10331000839FA00D611D221F749F3327A00D611D87
:10332000231F849F600D211D822F762F6A2F112469
:103330009F5750409AF0F1F088234AF0EE0FFF1F9C
:10334000BB1F661F771F881F91505040A9F79E3FF3
:10335000510580F00C94C1190C940C1A5F3FE4F3F2
:10336000983ED4F3869577956795B795F795E79549
:103370009F5FC1F7FE2B880F911D9695879597F952
:10338000089597F99F6780E870E060E008959FEFE7
:1033900080EC089500240A941616170618060906EC
:1033A000089500240A9412161306140605060895BB
:1033B000092E0394000C11F4882352F0BB0F40F443
:1033C000BF2B11F460FF04C06F5F7F4F8F4F9F4F83
:1033D000089557FD9058440F551F59F05F3F71F005
:1033E0004795880F97FB991F61F09F3F79F087956C
:1033F0000895121613061406551FF2CF4695F1DFF5
:1034000008C0161617061806991FF1CF8695710584
:10341000610508940895E894BB2766277727CB01B8
:1034200097F908952F923F924F925F926F927F92F9
:103430008F929F92AF92BF92CF92DF92EF92FF92C4
:103440000F931F93CF93DF93CDB7DEB7CA1BDB0B70
:103450000FB6F894DEBF0FBECDBF09942A88398815
:1034600048885F846E847D848C849B84AA84B9841C
:10347000C884DF80EE80FD800C811B81AA81B98128
:10348000CE0FD11D0FB6F894DEBF0FBECDBFED013C
:1034900008955058BB27AA270E94611A0C94D81986
:1034A0000E94CA1938F00E94D11920F039F49F3FC8
:1034B00019F426F40C94C7190EF4E095E7FB0C946C
:1034C000C119E92F0E94E91958F3BA176207730767
:1034D0008407950720F079F4A6F50C940B1A0EF4E6
:1034E000E0950B2EBA2FA02D0B01B90190010C0114
:1034F000CA01A0011124FF27591B99F0593F50F42C
:10350000503E68F11A16F040A22F232F342F442783
:10351000585FF3CF469537952795A795F04053957B
:10352000C9F77EF41F16BA0B620B730B840BBAF04B
:103530009150A1F0FF0FBB1F661F771F881FC2F7B6
:103540000EC0BA0F621F731F841F48F487957795CA
:103550006795B795F7959E3F08F0B0CF9395880F84
:1035600008F09927EE0F9795879508950E94BD1A48
:103570006894B1110C940C1A08950E94F11988F006
:103580009F5798F0B92F9927B751B0F0E1F0660F27
:10359000771F881F991F1AF0BA95C9F714C0B13068
:1035A00091F00E940B1AB1E008950C940B1A672F4A
:1035B000782F8827B85F39F0B93FCCF38695779597
:1035C0006795B395D9F73EF4909580957095619580
:1035D0007F4F8F4F9F4F089597FB072E16F400944F
:1035E00007D077FD09D00E94221B07FC05D03EF4CE
:1035F000909581959F4F0895709561957F4F08959F
:10360000A1E21A2EAA1BBB1BFD010DC0AA1FBB1FE6
:10361000EE1FFF1FA217B307E407F50720F0A21B58
:10362000B30BE40BF50B661F771F881F991F1A94C5
:1036300069F760957095809590959B01AC01BD01EF
:10364000CF010895AA1BBB1B51E107C0AA1FBB1FD6
:10365000A617B70710F0A61BB70B881F991F5A951E
:10366000A9F780959095BC01CD010895EE0FFF1F3D
:103670000590F491E02D09940F931F93CF93DF935E
:103680008230910510F482E090E0E091F006F09134
:10369000F10630E020E0B0E0A0E0309799F4211589
:1036A000310509F44AC0281B390B24303105D8F5FF
:1036B0008A819B816115710589F1FB019383828366
:1036C000FE0111C0408151810281138148175907C1
:1036D000E0F04817590799F4109761F012960C938F
:1036E000129713961C933296CF01DF91CF911F91C1
:1036F0000F9108950093F0061093F106F4CF211571
:10370000310551F04217530738F0A901DB019A0146
:10371000BD01DF01F801C1CFEF01F9CF9093F106B0
:103720008093F006CDCFFE01E20FF31F81939193BA
:103730002250310939832883D7CF2091EE0630916A
:10374000EF06232B41F420910601309107013093BD
:10375000EF062093EE06209104013091050121151A
:10376000310541F42DB73EB7409108015091090150
:10377000241B350BE091EE06F091EF06E217F307FC
:10378000A0F42E1B3F0B2817390778F0AC014E5FD1
:103790005F4F2417350748F04E0F5F1F5093EF0619
:1037A0004093EE06819391939FCFF0E0E0E09CCFB1
:1037B000CF93DF930097E9F0FC01329713821282D6
:1037C000A091F006B091F106ED0130E020E01097F5
:1037D000A1F420813181820F931F2091EE06309158
:1037E000EF062817390709F061C0F093EF06E09360
:1037F000EE06DF91CF910895EA01CE17DF07E8F5D5
:103800004A815B819E0141155105B1F7E901FB83B6
:10381000EA8349915991C40FD51FEC17FD0761F454
:10382000808191810296840F951FE9019983888395
:10383000828193819B838A83F0E0E0E012968D91F0
:103840009C9113970097B9F52D913C911197CD015B
:103850000296820F931F2091EE063091EF062817F3
:10386000390739F6309751F51092F1061092F006AB
:10387000B093EF06A093EE06BCCFD383C283408102
:103880005181840F951FC817D90761F44E5F5F4FB0
:1038900088819981480F591F518340838A819B8178
:1038A000938382832115310509F0B0CFF093F1069F
:1038B000E093F0069ECFFD01DC01C0CF138212829F
:1038C000D7CFB0E0A0E0E7E6FCE10C94141A8C013D
:1038D000009751F4CB010E943C1B8C01C801CDB76D
:1038E000DEB7E0E10C94301AFC01E60FF71F9C01F3
:1038F00022503109E217F30708F49DC0D901CD9198
:10390000DC911197C617D70798F0C530D10530F371
:10391000CE0104978617970708F3C61BD70B22978B
:10392000C193D1936D937C93CF010E94D81BD6CFC6
:103930005B01AC1ABD0A4C018C0E9D1EA091F006D5
:10394000B091F106512C412CF12CE12C109731F55E
:103950008091EE069091EF068815990509F05CC0FC
:103960004616570608F058C0809104019091050151
:10397000009741F48DB79EB740910801509109011D
:10398000841B950BE817F90708F055C0F093EF0674
:10399000E093EE06F90171836083A0CF8D919C9135
:1039A000119712966C90129713967C901397A81506
:1039B000B90559F56C0142E0C40ED11CCA14DB04F0
:1039C00020F1AC014A195B09DA011296159780F0D3
:1039D0006282738251834083D9016D937C93E11499
:1039E000F10471F0D7011396FC93EE93129776CF02
:1039F00022968C0F9D1FF90191838083F301EFCFF5
:103A0000F093F106E093F00669CF4816590608F4E2
:103A10002C017D01D3019ACFCB010E943C1B7C017C
:103A2000009749F0AE01B8010E941E1DC8010E9416
:103A3000D81B870153CF10E000E050CFFB01DC0121
:103A400002C001900D9241505040D8F70895FB01FB
:103A5000DC0101900D920020E1F7089510E0CAE624
:103A6000D0E004C0FE010E94361B2196CB36D10760
:103A7000C9F7F894FFCFFFFFFFFF0000F2068000B8
:103A800000004000140054003341303031383830E9
:103A900036414338323530303839373743443136A0
:103AA00032353030384132324632374638373030AE
:103AB0003833463339443641323530303841344674
:103AC000443933390000000037019700C4008401F5
:103AD000F500D300E70000000000ED0B9700FD09A2
:103AE000B70C00000000740D470D8A0E1003400D46
:103AF0002D0D1E0D00000000110397008A0E10030B
:103B00006D038503F80200000000A10C840C740C06
:103B1000FE0B070C270C410C00000000FC0E970068
:103B20008A0EB70C0D0A004845414C544820434FBB
:103B30004E54524F4C0074656D703A0074656D3A86
:103B400000484541525420524154453A006865614D
:103B500072743A004865617274206265617420690C
:103B60007320686967680068747470733A2F2F69EE
:103B70006F2E6164616672752F0069742E636F6DBC
:103B80002F4954494F5431330068747470733A2F7D
:103B90002F68747470733A2F2F696F2E6164616699
:103BA000727569742E636F6D2F4954494F543133C8
:103BB0002F64617368626F617264732F696F742F11
:103BC00000383138393938383334370041540041FE
:103BD000542B434D47463D310041542B434D4753F1
:0A3BE0003D222B393100220D0000B8
:107E0000112484B714BE81FFF0D085E080938100F7
:107E100082E08093C00088E18093C10086E0809377
:107E2000C20080E18093C4008EE0C9D0259A86E02C
:107E300020E33CEF91E0309385002093840096BBD3
:107E4000B09BFECF1D9AA8958150A9F7CC24DD24C4
:107E500088248394B5E0AB2EA1E19A2EF3E0BF2EE7
:107E6000A2D0813461F49FD0082FAFD0023811F036
:107E7000013811F484E001C083E08DD089C08234E0
:107E800011F484E103C0853419F485E0A6D080C0E4
:107E9000853579F488D0E82EFF2485D0082F10E0AE
:107EA000102F00270E291F29000F111F8ED06801E7
:107EB0006FC0863521F484E090D080E0DECF843638
:107EC00009F040C070D06FD0082F6DD080E0C81688
:107ED00080E7D80618F4F601B7BEE895C0E0D1E017
:107EE00062D089930C17E1F7F0E0CF16F0E7DF06D8
:107EF00018F0F601B7BEE89568D007B600FCFDCFD4
:107F0000A601A0E0B1E02C9130E011968C91119780
:107F100090E0982F8827822B932B1296FA010C0160
:107F200087BEE89511244E5F5F4FF1E0A038BF0790
:107F300051F7F601A7BEE89507B600FCFDCF97BE46
:107F4000E89526C08437B1F42ED02DD0F82E2BD052
:107F50003CD0F601EF2C8F010F5F1F4F84911BD097
:107F6000EA94F801C1F70894C11CD11CFA94CF0C13
:107F7000D11C0EC0853739F428D08EE10CD085E9AC
:107F80000AD08FE07ACF813511F488E018D01DD067
:107F900080E101D065CF982F8091C00085FFFCCF94
:107FA0009093C60008958091C00087FFFCCF809118
:107FB000C00084FD01C0A8958091C6000895E0E648
:107FC000F0E098E1908380830895EDDF803219F02E
:107FD00088E0F5DFFFCF84E1DECF1F93182FE3DFCA
:107FE0001150E9F7F2DF1F91089580E0E8DFEE27F6
:047FF000FF270994CA
:027FFE00040479
:00000001FF
