:020000040000FA
:100000000C94DA000C94C6070C949F070C94020120
:100010000C9402010C9402010C9402010C94020154
:100020000C9402010C9402010C9402010C94020144
:100030000C9402010C9402010C9402010C94020134
:100040000C9455070C9402010C9423070C94FD06A4
:100050000C9402010C9402010C9402010C94020114
:100060000C9402010C94020100407A10F35A00A093
:10007000724E18090010A5D4E80000E87648170071
:1000800000E40B54020000CA9A3B000000E1F505B1
:10009000000080969800000040420F000000A086FB
:1000A00001000000102700000000E803000000002D
:1000B0006400000000000A000000000001000000D1
:1000C00000002C76D888DC674F0823DFC1DFAE59EB
:1000D000E1B1B796E5E3E453C63AE651997696E87E
:1000E000E6C28426EB898C9B62ED407C6FFCEFBC02
:1000F0009C9F40F2BAA56FA5F490055A2AF75C932D
:100100006B6CF9676DC11BFCE0E40D47FEF520E662
:10011000B500D0ED902E0300943577050080841E45
:10012000080000204E0A000000C80C333333330FA0
:10013000986E12831141EF8D2114893BE65516CF3D
:10014000FEE6DB18D1844B381BF77C1D901DA4BB49
:10015000E424203284725E228100C9F124ECA1E5FE
:100160003D2700000000240027002A0000000000B6
:10017000250028002B0004040404040404040202E3
:100180000202020203030303030301020408102016
:100190004080010204081020010204081020000021
:1001A0000008000201000003040700000000000036
:1001B0000000ED0711241FBECFEFD8E0DEBFCDBF9A
:1001C00022E0AAECB1E001C01D92A43AB207E1F727
:1001D00011E0A0E0B1E0E4E5F5E202C005900D9287
:1001E000AA3CB107D9F710E0CAEDD0E004C02197CE
:1001F000FE010E94B010C93DD107C9F70E9437081F
:100200000C94A8120C94000008958091E6018F5F71
:100210008093E6010895AF92BF92CF92DF92EF9262
:10022000FF920F931F93CF93DF936C017B018B01A0
:10023000040F151FEB015E01AE18BF08C017D107F0
:1002400059F06991D601ED91FC910190F081E02D7A
:10025000C6010995892B79F7C501DF91CF911F91CF
:100260000F91FF90EF90DF90CF90BF90AF900895E7
:10027000FC01538D448D252F30E0842F90E0821BAC
:10028000930B541710F0CF96089501970895FC0131
:10029000918D828D981761F0A28DAE0FBF2FB11D89
:1002A0005D968C91928D9F5F9F73928F90E00895E1
:1002B0008FEF9FEF0895FC01918D828D981731F09B
:1002C000828DE80FF11D858D90E008958FEF9FEFEF
:1002D0000895FC01918D228D892F90E0805C9F4FC5
:1002E000821B91098F73992708958BEE91E00E94EC
:1002F000690121E0892B09F420E0822F089580E034
:1003000090E0892B29F00E94750181110C94000066
:100310000895FC01A48DA80FB92FB11DA35ABF4F9A
:100320002C91848D90E001968F739927848FA689F4
:10033000B7892C93A089B1898C91837080648C9348
:10034000938D848D981306C00288F389E02D8081F7
:100350008F7D80830895EF92FF920F931F93CF9329
:10036000DF93EC0181E0888F9B8D8C8D98131AC0F0
:10037000E889F989808185FF15C09FB7F894EE89D7
:10038000FF896083E889F989808183708064808334
:100390009FBF81E090E0DF91CF911F910F91FF907F
:1003A000EF900895F62E0B8D10E00F5F1F4F0F7327
:1003B0001127E02E8C8D8E110CC00FB607FCFACFE2
:1003C000E889F989808185FFF5CFCE010E948901F6
:1003D000F1CFEB8DEC0FFD2FF11DE35AFF4FF082B3
:1003E0009FB7F8940B8FEA89FB8980818062CFCF19
:1003F000CF93DF93EC01888D8823B9F0AA89BB895C
:10040000E889F9898C9185FD03C0808186FD0DC046
:100410000FB607FCF7CF8C9185FFF2CF808185FF67
:10042000EDCFCE010E948901E9CFDF91CF910895F0
:1004300090E0FC01E256FE4F2491FC01E657FE4F8E
:100440003491FC01EA58FE4FE491EE23C9F02223D7
:1004500039F0233001F1A8F4213019F1223029F1CB
:10046000F0E0EE0FFF1FE459FE4FA591B4918FB756
:10047000F894EC91611126C030953E233C938FBFD8
:1004800008952730A9F02830C9F0243049F7809129
:1004900080008F7D03C0809180008F7780938000E3
:1004A000DFCF84B58F7784BDDBCF84B58F7DFBCF65
:1004B0008091B0008F778093B000D2CF8091B00050
:1004C0008F7DF9CF3E2BDACFCF93DF9390E0FC0105
:1004D000E657FE4F24918A589E4FFC018491882351
:1004E000D1F090E0880F991FFC01EE59FE4FA591C5
:1004F000B491FC01E459FE4FC591D49161110EC035
:100500009FB7F8948C91E22FE0958E238C932881ED
:10051000E223E8839FBFDF91CF9108958FB7F894CE
:10052000EC91E22BEC938FBFF6CF8E5080648093DA
:100530007C0080917A00806480937A0080917A00B8
:1005400086FDFCCF809178009091790008953FB7A7
:10055000F8948091CC019091CD01A091CE01B09101
:10056000CF0126B5A89B05C02F3F19F00196A11D0C
:10057000B11D3FBFBA2FA92F982F8827BC01CD01ED
:10058000620F711D811D911D42E0660F771F881F4C
:10059000991F4A95D1F708958F929F92AF92BF927B
:1005A000CF92DF92EF92FF920E94A7024B015C0173
:1005B00088EBC82E8BE0D82EE12CF12C0E94A702EC
:1005C000681979098A099B09683E7340810591057C
:1005D000A8F321E0C21AD108E108F10888EE880EDC
:1005E00083E0981EA11CB11CC114D104E104F104E4
:1005F00029F7FF90EF90DF90CF90BF90AF909F9042
:100600008F9008958230E8F4E82FF0E0EE0FFF1F9E
:10061000E050FF4F71836083813041F08091690029
:100620008C7F482B40936900E89A08958091690077
:10063000837F440F551F440F551F482B409369007B
:10064000E99A0895089590E080E008950F931F932C
:10065000CF93DF938C01D0E0C0E0D80114968D9148
:100660009C911597C817D90790F4ED91FC9130979C
:1006700059F41092CA01EAECF1E060818BEE91E04E
:100680000E94AB012196E9CFEC0FFD1FF6CFDF9161
:10069000CF911F910F910C94CC02FB01019000208F
:1006A000E9F73197AF01461B570BDC01ED91FC9147
:1006B0000280F381E02D09948F929F92AF92BF92B6
:1006C0000F931F93CF93DF93CDB7DEB7A1970FB6EC
:1006D000F894DEBF0FBECDBF19A2423008F44AE045
:1006E0008E010F5D1F4F842E912CB12CA12CA501E2
:1006F00094010E948E10E62FB901CA01EA3004F578
:10070000E05DD801EE938D01232B242B252B79F767
:1007100090E080E0109729F0BD0188E892E00E9407
:100720004D03A1960FB6F894DEBF0FBECDBFDF918B
:10073000CF911F910F91BF90AF909F908F90089590
:10074000E95CDFCFCF93DF93EC0160E08E810E9404
:10075000180261E08E810E94180260E08E810E9482
:1007600018028BE891E00197F1F7DF91CF9108959E
:10077000CF92DF92EF92FF920F931F93CF93DF936D
:100780006C017C0187E0E80EF11CD0E0C0E0062F90
:1007900010E0B8010C2E02C0759567950A94E2F737
:1007A0006170F70181917F010E9418022196C43087
:1007B000D10579F7C601DF91CF911F910F91FF907D
:1007C000EF90DF90CF900C94A203CF92DF92EF9244
:1007D000FF920F931F93CF93DF93EC01F62E642FBC
:1007E0008C810E9418028D818F3F19F060E00E9479
:1007F00018020F2D10E08F8584FF25C06E0187E061
:10080000C80ED11CF12CE12CB8010E2C02C075953C
:1008100067950A94E2F76170F60181916F010E9479
:100820001802FFEFEF1AFF0A88E0E816F10461F7FB
:10083000CE01DF91CF911F910F91FF90EF90DF904C
:10084000CF900C94A203B80184E0759567958A95C2
:10085000E1F7CE010E94B8036F2DCE01DF91CF9159
:100860001F910F91FF90EF90DF90CF900C94B80301
:1008700040E0682F88E892E00C94E50381E00E9454
:1008800038048BE39FE10197F1F70895CF93DF934D
:10089000823029F490919702986090939702809308
:1008A0009B0210929C0280E480939D0280E18093E1
:1008B0009E0280E580939F0261E080918C020E94FD
:1008C000640280918D028F3F19F061E00E94640202
:1008D00061E080918E020E946402C8E8D2E09E012D
:1008E000285832408091970284FD0BC084E090E04C
:1008F00021962817390744F461E08E810E94640232
:10090000EECF88E090E0F4CF8BE39DE00197F1F724
:1009100060E080918C020E94180260E080918E025B
:100920000E94180280918D028F3F19F060E00E94B2
:1009300018028091970284FD34C063E088E892E059
:100940000E94B803CBE4D6E4CE010197F1F763E04F
:1009500088E892E00E94B8032197F1F763E088E805
:1009600092E00E94B80383E592E00197F1F762E01C
:1009700088E892E00E94B8038091970280620E940A
:10098000380484E0809398028CE00E9438040E942E
:100990003E0482E08093990286E0DF91CF910C942F
:1009A000380480620E9438048BE496E40197F1F7E2
:1009B0008091970280620E94380483E592E001975B
:1009C000F1F78091970280620E943804D5CF909110
:1009D0009B02691710F06FEF690FE62FF0E0E85700
:1009E000FD4F9489890F80680C94380441E00E947F
:1009F000E50381E090E008954F925F926F927F92BD
:100A00008F929F92AF92BF92CF92DF92EF92FF921E
:100A10000F931F93CF936B017C01742EAC019B014C
:100A20000E94891068E271E0811126C046015701D9
:100A3000E894B7F82FEF3FEF4FE75FE7C501B40148
:100A40000E94891081110CC02FEF3FEF4FE75FE745
:100A5000C501B4010E941B0E6CE271E0181664F02F
:100A60002FEF3FEF4FE75FE4C701B6010E9484100C
:100A70001816ACF460E371E088E892E0CF911F9122
:100A80000F91FF90EF90DF90CF90BF90AF909F902D
:100A90008F907F906F905F904F900C944D032FEF4D
:100AA0003FEF4FE75FECC701B6010E941B0E87FDC9
:100AB000E1CF20E030E0A901C701B6010E941B0E82
:100AC00010E000E087FF0CC041E06DE288E892E0B2
:100AD0000E94E503F7FAF094F7F8F09401E010E0D3
:100AE000C0E060E070E080E09FE37C1641F020E031
:100AF00030E040E251E40E94E30FCF5FF6CFA70160
:100B000096010E94770F4B015C010E9455102B014A
:100B10003C014AE00E945C03080F191FCC23C9F175
:100B2000C301B2010E94200E9B01AC01C501B401BA
:100B30000E94760F4B015C0141E06EE288E892E092
:100B40000E94E5030F5F1F4FC15018F120E030E015
:100B500040E251E4C501B4010E94810E2B013C0129
:100B60000E9455104B01B12CA12C4AE0C501B401E3
:100B70000E945C03080F191FC501B4010E94200EDA
:100B80009B01AC01C301B2010E94760F4B015C01D5
:100B9000DBCFC801CF911F910F91FF90EF90DF90B5
:100BA000CF90BF90AF909F908F907F906F905F900D
:100BB0004F9008950F931F93CF93DF93EC0188819B
:100BC0009981009759F02A813B812617370730F029
:100BD00081E0DF91CF911F910F9108958B016F5F9D
:100BE0007F4F0E94DB11009759F0998388831B8304
:100BF0000A832C813D81232B59F7FC011082E8CF19
:100C000080E0E7CFCF93DF93EC0188819981009753
:100C100011F00E945211198218821D821C821B82BF
:100C20001A82DF91CF9108950F931F93CF93DF9393
:100C3000EC010C811D810F5F1F4FB8010E94DA0586
:100C4000882391F0288139818C819D816FE971E041
:100C5000820F931F0E94A1121D830C83CE01DF918E
:100C6000CF911F910F910895CE010E940206F6CFF9
:100C7000EF92FF920F931F93CF93DF93EC01FB0151
:100C8000E080F180E114F10411F104811581011576
:100C90001105A9F08C819D81080F191FB801CE01A3
:100CA0000E94DA05882399F0288139818C819D8101
:100CB000B701820F931F0E94A1121D830C83CE01E6
:100CC000DF91CF911F910F91FF90EF900895CE018A
:100CD0000E940206F4CFEF92FF920F931F93CF93DF
:100CE000DF93EC017B018A01BA010E94DA058111D0
:100CF0000BC0CE010E940206CE01DF91CF911F9161
:100D00000F91FF90EF9008951D830C83B7018881A8
:100D100099810E94A112F0CFEF92FF920F931F933F
:100D2000CF93DF93CDB7DEB7A1970FB6F894DEBFB0
:100D30000FBECDBF7C01CB01BA01F7011182108239
:100D400013821282158214828E010F5F1F4F22E0E0
:100D500044E00E949C0B0097C9F0FC010190002028
:100D6000E9F73197AF01481B590BBC01C7010E943D
:100D70006B06A1960FB6F894DEBF0FBECDBFDF9114
:100D8000CF911F910F91FF90EF900895C7010E949E
:100D90000206EFCFFB01DC0111961C921E92139606
:100DA0001C921E92129715961C921E9214978617EB
:100DB000970749F0608171816115710521F04481C7
:100DC00055810C946B060895FC01118210821382E8
:100DD000128215821482FB0101900020E9F73197FD
:100DE000AF01461B570B0C946B06FC01808191816F
:100DF000009711F00C94521108951F920F920FB6A4
:100E00000F9211242F933F934F935F936F937F9390
:100E10008F939F93AF93BF93EF93FF938BEE91E0EC
:100E20000E948901FF91EF91BF91AF919F918F91A6
:100E30007F916F915F914F913F912F910F900FBED6
:100E40000F901F9018951F920F920FB60F921124BA
:100E50002F938F939F93EF93FF93E091FB01F0917A
:100E6000FC018081E0910102F091020282FD1BC031
:100E70009081809104028F5F8F7320910502821709
:100E800041F0E0910402F0E0E551FE4F958F809330
:100E90000402FF91EF919F918F912F910F900FBEC0
:100EA0000F901F9018958081F4CF1F920F920FB66C
:100EB0000F9211242F933F938F939F93AF93BF93E0
:100EC0008091D0019091D101A091D201B091D30134
:100ED0003091CB0123E0230F2D3758F50196A11D4A
:100EE000B11D2093CB018093D0019093D101A093A9
:100EF000D201B093D3018091CC019091CD01A0910A
:100F0000CE01B091CF010196A11DB11D8093CC01FE
:100F10009093CD01A093CE01B093CF01BF91AF913B
:100F20009F918F913F912F910F900FBE0F901F9027
:100F3000189526E8230F0296A11DB11DD2CF1F924E
:100F40000F920FB60F9211242F933F934F935F93FD
:100F50006F937F938F939F93AF93BF93EF93FF9381
:100F6000E0910201F09103010995FF91EF91BF918A
:100F7000AF919F918F917F916F915F914F913F9131
:100F80002F910F900FBE0F901F9018951F920F92E8
:100F90000FB60F9211242F933F934F935F936F934C
:100FA0007F938F939F93AF93BF93EF93FF93E091C2
:100FB0000001F09101010995FF91EF91BF91AF916F
:100FC0009F918F917F916F915F914F913F912F9161
:100FD0000F900FBE0F901F901895EBEEF1E013826B
:100FE000128288EE93E0A0E0B0E084839583A6832C
:100FF000B7838EE091E09183808385EC90E09587C4
:10100000848784EC90E09787868780EC90E0918BD2
:10101000808B81EC90E0938B828B82EC90E0958BBF
:10102000848B86EC90E0978B868B118E128E138EBC
:10103000148EE8E8F2E01382128280E291E091835C
:1010400080838DE084838FEF85838CE086838BE0C3
:1010500087838AE0808789E0818788E0828713869A
:10106000148615861686178681E00C944604CF9365
:10107000DF93CDB7DEB76D970FB6F894DEBF0FBE26
:10108000CDBF789484B5826084BD84B5816084BD11
:1010900085B5826085BD85B5816085BD80916E0016
:1010A000816080936E001092810080918100826047
:1010B0008093810080918100816080938100809184
:1010C00080008160809380008091B1008460809373
:1010D000B1008091B00081608093B00080917A006F
:1010E000846080937A0080917A00826080937A0095
:1010F00080917A00816080937A0080917A00806884
:1011000080937A001092C100E091FB01F091FC0104
:1011100082E08083E091F701F091F8011082E09184
:10112000F901F091FA018FEC808310920302E091B3
:10113000FF01F091000286E08083E091FD01F091D3
:10114000FE01808180618083E091FD01F091FE01CC
:10115000808188608083E091FD01F091FE018081B3
:1011600080688083E091FD01F091FE0180818F7D98
:10117000808360E08FE00E94640260E080E10E9472
:10118000640261E084E00E94640260E084E00E9406
:10119000180282E00E9446040E943E0460E080E063
:1011A0000E94E70464E371E088E892E00E944D0346
:1011B00061E080E00E94E70464E471E088E892E086
:1011C0000E944D030E94CC020E943E0443E050E086
:1011D00065E071E083E00E9402038E010F5F1F4F04
:1011E00080E0E82E80E0F82E94E0C92E91E0D92E20
:1011F0002FB7F8948091D0019091D101A091D201A4
:10120000B091D3012FBF4091E7015091E801609167
:10121000E9017091EA01841B950BA60BB70B893E7F
:101220009340A105B10508F46FC260E080E00E9420
:10123000E70463E571E088E892E00E944D0361E015
:1012400086E00E94E70467E571E088E892E00E948A
:101250004D0361E080E00E94E7046AE571E088E800
:1012600092E00E944D0360E089E00E94E7046EE591
:1012700071E088E892E00E944D03E898D092010165
:10128000C09200012FB7F8946091D0017091D10104
:101290008091D2019091D3012FBFB090E601409090
:1012A000E7015090E8016090E9017090EA0164194B
:1012B0007509860997090E94200E9B01AC0160E028
:1012C00070E08AE794E40E94E30F2B013C016B2D50
:1012D00070E090E080E00E94220E9B01AC01C3010F
:1012E000B2010E94810E20E030E044EB52E40E9403
:1012F000E30F6093E2017093E3018093E401909324
:10130000E5012FB7F8948091D0019091D101A0917F
:10131000D201B091D3012FBF8093E7019093E801F0
:10132000A093E901B093EA0120E030E040E752E405
:101330006091E2017091E3018091E4019091E501F7
:101340000E94E30F20E030E04AE754E40E94810E5F
:101350000E9455107093E1016093E0014B01B12CA4
:10136000A12C8091DC019091DD01A091DE01B09172
:10137000DF01880D991DAA1DBB1D8093DC01909390
:10138000DD01A093DE01B093DF018FE00E949502A2
:10139000BC01990F880B990B0E94220E20E030E0CF
:1013A00040EA50E40E94810E20E030E040E85AE339
:1013B0000E94810E2DEC3CEC4CE45EE30E94E30FB6
:1013C0006093D8017093D9018093DA019093DB0187
:1013D00061E083E00E94E7044AE0C501B4010E9495
:1013E0005C038091E0019091E1011B8A1A8A1D8AB9
:1013F0001C8A1F8A1E8A4AE0B8010E94BA0BF801B3
:1014000001900020E9F73197AF01401B510BB80163
:10141000CE0142960E946B0661E671E0C8010E940F
:10142000E406BE016E5E7F4FC8010E9438060E942E
:101430001406BC01CE0148960E94CA06CE01489609
:101440000E942603CE0148960E94F506C8010E941C
:10145000F506CE0142960E94F50660E08BE00E9400
:10146000E7046091D8017091D9018091DA019091DF
:10147000DB014AE00E94FC044091D8015091D9015F
:101480006091DA017091DB01CE0142960E948C06D8
:1014900063E671E0C8010E94E406BE016E5E7F4F04
:1014A000C8010E9438060E941406BC01CE0148966D
:1014B0000E94CA06CE0148960E942603CE01489695
:1014C0000E94F506C8010E94F506CE0142960E94D0
:1014D000F50680E10E949502BC01990F880B990BDB
:1014E0000E94220E4B015C018092D4019092D501A2
:1014F000A092D601B092D70160E083E00E94E70499
:1015000042E0C501B4010E94FC044091D401509115
:10151000D5016091D6017091D701CE0142960E940B
:101520008C0665E671E0C8010E94E406BE016E5EAD
:101530007F4FC8010E9438060E941406BC01CE01EC
:1015400048960E94CA06CE0148960E942603CE0104
:1015500048960E94F506C8010E94F506CE01429603
:101560000E94F5068091E0019091E1014097C8F555
:101570008090D4019090D501A090D601B090D70171
:1015800020E030E044E652E4C501B4010E9484103A
:1015900018163CF120E030E04CE552E4C501B401FE
:1015A0000E941B0E87FD1DC08090D8019090D9012C
:1015B000A090DA01B090DB0120E030E040E251E49D
:1015C000C501B4010E941B0E87FD0BC020E030E076
:1015D00040E451E4C501B4010E94841018160CF0D7
:1015E0009FC067E671E08BEE91E00E944D0361E0E1
:1015F00088E00E94E7046AE671E088E892E00E94D1
:101600004D038091E0019091E101409758F06FE621
:1016100071E0C8010E94E406C8010E942603C801C7
:101620000E94F5068090D8019090D901A090DA012F
:10163000B090DB0120E030E040E251E4C501B401AC
:101640000E941B0E87FF0BC064E871E0C8010E9476
:10165000E406C8010E942603C8010E94F50620E0A6
:1016600030E040E451E4C501B4010E948410181632
:101670005CF462E971E0C8010E94E406C8010E94BE
:101680002603C8010E94F5068090D4019090D501F0
:10169000A090D601B090D70120E030E044E652E4BB
:1016A000C501B4010E94841018165CF461EA71E06F
:1016B000C8010E94E406C8010E942603C8010E94D6
:1016C000F50620E030E04CE552E4C501B4010E948B
:1016D0001B0E87FF0BC064EB71E0C8010E94E4069B
:1016E000C8010E942603C8010E94F50660E084E05C
:1016F0000E9418021092E6016091E60170E042E05B
:1017000050E080E00E940203E114F10409F470CD7E
:101710000E947501882309F46BCD0E94000068CDFA
:1017200061E088E00E94E70466EC71E088E892E0FE
:101730000E944D0361E0DBCFEF920F931F93CF9395
:10174000DF93E80134E047FD34E1042E000C550B33
:1017500057FF03C0519541955109E32E022F242FC5
:10176000AE010E94D40BCE01DF91CF911F910F915A
:10177000EF900895BB27FB015527AA27880F991FD3
:10178000AA1FA41710F0A41B83955051B9F7A05DB0
:10179000AA3308F0A95DA193009779F7B111B1932D
:1017A0001192CB010C940B0EA9E0B0E0EAEDFBE046
:1017B0000C94450F6A01F22EB02E102FFBE3AF2ED2
:1017C000A01608F41BE31F5F012F27E0AE014F5F57
:1017D0005F4F0E94330DBC018981982F9970913021
:1017E00009F43FC09BE2E1FC04C09E2D9170E0FC37
:1017F0003AC05E2D5071E82FE87083FF46C084E048
:10180000911101C083E0EF2DE81B8F1508F0E0E097
:10181000D6018E2F20E2552351F1992329F0D601CC
:101820009C93C60101966C0196012D5F3F4FE2FE2D
:1018300024C08EE4D6018C9391E411969C93119769
:1018400012968C93D9018E2F90E281111BC0E20F6A
:10185000F32FF11D10828EEF9FEF2996ECE00C9490
:10186000610F9DE2C6CF90E2C4CF2D9381508111CC
:10187000FCCFCE0ED11CE0E0D0CF8EE6D6018C930B
:1018800091E6DBCF9D938150E0CF482F447082FFDB
:101890003DC084E0911101C083E08F1510F4EF2D5D
:1018A000E81BD6018E2F20E2552309F1992329F058
:1018B000D6019C93C60101966C0196012D5F3F4FA6
:1018C000E2FE1BC089E4D6018C938EE411968C93C2
:1018D000119786E412968C93D9018E2F90E288237B
:1018E00009F4B5CF9D938150FACF2D93815081118A
:1018F000FCCFCE0ED11CE0E0D9CF89E6D6018C9387
:101900008EE611968C93119786E6E4CF9B0177FFC4
:1019100002C030E020E0A1E0B0E0911102C0B0E0F0
:10192000A0E0F9013196AE0FBF1F8B2C912CBB208C
:1019300009F461C05401EFEFAE1ABE0AAA0DBB1D37
:10194000FA161B0619F014F04F2D4A1B511188C0CE
:10195000E3FC59C07601A42FB0E2A1114FC0C40E20
:10196000D11C992309F45BC040E0D6011196F60121
:1019700090836D01552309F448C0012F060F9A8109
:10198000582F507184FF03C0913309F40150101691
:101990000CF047C0093008F008E0EEE2FE2E5B01D3
:1019A000A01AB10885019194819491082F3F3207C4
:1019B00029F4D601FC92F60131966F016217730784
:1019C00094F1021713077CF5DB01A21BB30BAA24C9
:1019D000A394B12CAC0EBD1EAA0DBB1D11968C910B
:1019E00021503109D601119628153905F4F0F60178
:1019F00080836D01DBCFB12CA12CA0CFF701B19377
:101A00007F01A150AACF9111B0CFD601942F50E3FE
:101A100002C05D9391509111FCCFC40ED11C40E0E7
:101A2000ACCF01E0BACF80E3DBCF6217730731F4AC
:101A3000963388F4953311F4552369F0F6018083C9
:101A4000FD01842F90E2811108C0A40FB11D1C92EA
:101A500090E080E002CF81E3F1CF91938150F3CF0A
:101A6000911183CF8ACF283008F027E03327DA019D
:101A7000990F311D87FD916000966105710539F45C
:101A800032602E5F3D9330E32A95E1F708959F3F42
:101A900030F080387105610509F03C5F3C5F3D9393
:101AA000913008F08068911DDF93CF931F930F93BF
:101AB000FF92EF92192F987F9695E92F969596951C
:101AC000E90FFF27EE53FF4F99273327EE24FF241A
:101AD000A701E70105900894079428F4360FE71E44
:101AE000F81E491F511D660F771F881F991F069406
:101AF000A1F70590079428F4E70EF81E491F561F1A
:101B0000C11D770F881F991F661F0694A1F70590C6
:101B1000079428F4F80E491F561FC71FD11D880FC0
:101B2000991F661F771F0694A1F70590079420F46C
:101B3000490F561FC71FD81F990F661F771F881F91
:101B40000694A9F784911095177041F0D695C79522
:101B500057954795F794E7941A95C1F7E8E6F0E0B2
:101B600068941590159135916591959105907FE256
:101B70007395E118F10A430B560BC90BD009C0F756
:101B8000E10CF11E431F561FC91FD01D7EF4703398
:101B900011F48A95E6CFE894015030F0080F0AF46A
:101BA0000027021708F4202F2395022F7A3328F0FC
:101BB00079E37D932A95E9F710C07D932A9589F6FC
:101BC000069497956795379517951794E118F10A3C
:101BD000430B560BC90BD00998F023957E91739552
:101BE0007A3308F070E37C932013B8F77E9170612C
:101BF0007D9330F0839571E37D9370E32A95E1F74F
:101C00001124EF90FF900F911F91CF91DF919927B1
:101C100087FD90950895DC01FC01672F7191772372
:101C2000E1F7329704C07C916D9370836291AE1797
:101C3000BF07C8F308950E945D0E08F481E008957F
:101C4000E89409C097FB3EF4909580957095619556
:101C50007F4F8F4F9F4F9923A9F0F92F96E9BB270C
:101C60009395F695879577956795B795F111F8CF88
:101C7000FAF4BB0F11F460FF1BC06F5F7F4F8F4FF3
:101C80009F4F16C0882311F096E911C0772321F0E9
:101C90009EE8872F762F05C0662371F096E8862F81
:101CA00070E060E02AF09A95660F771F881FDAF7D8
:101CB000880F9695879597F90895990F0008550F05
:101CC000AA0BE0E8FEEF16161706E807F907C0F0C2
:101CD00012161306E407F50798F0621B730B840BCA
:101CE000950B39F40A2661F0232B242B252B21F4A4
:101CF00008950A2609F4A140A6958FEF811D811D44
:101D000008950E94940E0C94050F0E94F70E38F06F
:101D10000E94FE0E20F0952311F00C94EE0E0C9410
:101D2000F40E11240C94390F0E94160F70F3959F36
:101D3000C1F3950F50E0551F629FF001729FBB27C2
:101D4000F00DB11D639FAA27F00DB11DAA1F649F5E
:101D50006627B00DA11D661F829F2227B00DA11D11
:101D6000621F739FB00DA11D621F839FA00D611D97
:101D7000221F749F3327A00D611D231F849F600DB8
:101D8000211D822F762F6A2F11249F5750409AF0E1
:101D9000F1F088234AF0EE0FFF1FBB1F661F771F6D
:101DA000881F91505040A9F79E3F510580F00C9438
:101DB000EE0E0C94390F5F3FE4F3983ED4F3869512
:101DC00077956795B795F795E7959F5FC1F7FE2BD8
:101DD000880F911D9695879597F9089597F99F67B4
:101DE00080E870E060E008959FEF80EC08950024A3
:101DF0000A941616170618060906089500240A9470
:101E000012161306140605060895092E0394000CF5
:101E100011F4882352F0BB0F40F4BF2B11F460FF84
:101E200004C06F5F7F4F8F4F9F4F089557FD9058AD
:101E3000440F551F59F05F3F71F04795880F97FB8E
:101E4000991F61F09F3F79F0879508951216130648
:101E50001406551FF2CF4695F1DF08C01616170677
:101E60001806991FF1CF86957105610508940895AC
:101E7000E894BB2766277727CB0197F908952F921F
:101E80003F924F925F926F927F928F929F92AF920A
:101E9000BF92CF92DF92EF92FF920F931F93CF9357
:101EA000DF93CDB7DEB7CA1BDB0B0FB6F894DEBFEE
:101EB0000FBECDBF09942A88398848885F846E8414
:101EC0007D848C849B84AA84B984C884DF80EE805E
:101ED000FD800C811B81AA81B981CE0FD11D0FB667
:101EE000F894DEBF0FBECDBFED0108955058BB275B
:101EF000AA270E948E0F0C94050F0E94F70E38F04F
:101F00000E94FE0E20F039F49F3F19F426F40C9441
:101F1000F40E0EF4E095E7FB0C94EE0EE92F0E9410
:101F2000160F58F3BA17620773078407950720F056
:101F300079F4A6F50C94380F0EF4E0950B2EBA2F19
:101F4000A02D0B01B90190010C01CA01A0011124BF
:101F5000FF27591B99F0593F50F4503E68F11A166B
:101F6000F040A22F232F342F4427585FF3CF4695FC
:101F700037952795A795F0405395C9F77EF41F161E
:101F8000BA0B620B730B840BBAF09150A1F0FF0FE8
:101F9000BB1F661F771F881FC2F70EC0BA0F621FD4
:101FA000731F841F48F4879577956795B795F795C4
:101FB0009E3F08F0B0CF9395880F08F09927EE0F59
:101FC0009795879508950E94F70F0C94050F0E942E
:101FD000FE0E58F00E94F70E40F029F45F3F29F002
:101FE0000C94EE0E51110C94390F0C94F40E0E94C7
:101FF000160F68F39923B1F3552391F3951B550BF5
:10200000BB27AA2762177307840738F09F5F5F4FCB
:10201000220F331F441FAA1FA9F335D00E2E3AF00A
:10202000E0E832D091505040E695001CCAF72BD022
:10203000FE2F29D0660F771F881FBB1F2617370773
:102040004807AB07B0E809F0BB0B802DBF01FF27A5
:1020500093585F4F3AF09E3F510578F00C94EE0E86
:102060000C94390F5F3FE4F3983ED4F3869577954F
:102070006795B795F7959F5FC9F7880F911D96955E
:10208000879597F90895E1E0660F771F881FBB1FBA
:10209000621773078407BA0720F0621B730B840B67
:1020A000BA0BEE1F88F7E09508950E941E0F88F086
:1020B0009F5798F0B92F9927B751B0F0E1F0660F0C
:1020C000771F881F991F1AF0BA95C9F714C0B1304D
:1020D00091F00E94380FB1E008950C94380F672FEB
:1020E000782F8827B85F39F0B93FCCF3869577957C
:1020F0006795B395D9F73EF4909580957095619565
:102100007F4F8F4F9F4F08950E945D0E08F48FEF11
:1021100008950E945D0E880B990B0895A1E21A2E76
:10212000AA1BBB1BFD010DC0AA1FBB1FEE1FFF1F7B
:10213000A217B307E407F50720F0A21BB30BE40BCB
:10214000F50B661F771F881F991F1A9469F7609512
:102150007095809590959B01AC01BD01CF010895CC
:10216000EE0FFF1F0590F491E02D09940F931F933C
:10217000CF93DF938230910510F482E090E0E091FC
:10218000A202F091A30230E020E0B0E0A0E030979E
:1021900099F42115310509F44AC0281B390B243064
:1021A0003105D8F58A819B816115710589F1FB01A3
:1021B00093838283FE0111C040815181028113818A
:1021C00048175907E0F04817590799F4109761F03C
:1021D00012960C93129713961C933296CF01DF91AF
:1021E000CF911F910F9108950093A2021093A30223
:1021F000F4CF2115310551F04217530738F0A901EA
:10220000DB019A01BD01DF01F801C1CFEF01F9CF78
:102210009093A3028093A202CDCFFE01E20FF31FA1
:10222000819391932250310939832883D7CF20910C
:10223000A0023091A102232B41F42091060130919C
:1022400007013093A1022093A00220910401309154
:1022500005012115310541F42DB73EB74091080124
:1022600050910901241B350BE091A002F091A102CD
:10227000E217F307A0F42E1B3F0B2817390778F05D
:10228000AC014E5F5F4F2417350748F04E0F5F1FBC
:102290005093A1024093A002819391939FCFF0E0CD
:1022A000E0E09CCFCF93DF930097E9F0FC013297F9
:1022B00013821282A091A202B091A302ED0130E03C
:1022C00020E01097A1F420813181820F931F20918B
:1022D000A0023091A1022817390709F061C0F093DC
:1022E000A102E093A002DF91CF910895EA01CE17F9
:1022F000DF07E8F54A815B819E0141155105B1F781
:10230000E901FB83EA8349915991C40FD51FEC176A
:10231000FD0761F4808191810296840F951FE90188
:1023200099838883828193819B838A83F0E0E0E0B4
:1023300012968D919C9113970097B9F52D913C9130
:102340001197CD010296820F931F2091A002309128
:10235000A1022817390739F6309751F51092A302D8
:102360001092A202B093A102A093A002BCCFD3838B
:10237000C28340815181840F951FC817D90761F42A
:102380004E5F5F4F88819981480F591F5183408369
:102390008A819B81938382832115310509F0B0CF17
:1023A000F093A302E093A2029ECFFD01DC01C0CF17
:1023B00013821282D7CFB0E0A0E0E1EEF1E10C94FD
:1023C000410F8C01009751F4CB010E94B6108C0193
:1023D000C801CDB7DEB7E0E10C945D0FFC01E60F5C
:1023E000F71F9C0122503109E217F30708F49DC042
:1023F000D901CD91DC911197C617D70798F0C53058
:10240000D10530F3CE0104978617970708F3C61B52
:10241000D70B2297C193D1936D937C93CF010E94E8
:102420005211D6CF5B01AC1ABD0A4C018C0E9D1E19
:10243000A091A202B091A302512C412CF12CE12CCD
:10244000109731F58091A0029091A102881599050D
:1024500009F05CC04616570608F058C08091040188
:1024600090910501009741F48DB79EB74091080106
:1024700050910901841B950BE817F90708F055C026
:10248000F093A102E093A002F90171836083A0CFD1
:102490008D919C91119712966C90129713967C9047
:1024A0001397A815B90559F56C0142E0C40ED11C6B
:1024B000CA14DB0420F1AC014A195B09DA01129657
:1024C000159780F06282738251834083D9016D93A6
:1024D0007C93E114F10471F0D7011396FC93EE9311
:1024E000129776CF22968C0F9D1FF90191838083DE
:1024F000F301EFCFF093A302E093A20269CF481655
:10250000590608F42C017D01D3019ACFCB010E941A
:10251000B6107C01009749F0AE01B8010E949812F4
:10252000C8010E945211870153CF10E000E050CF44
:10253000FB01DC0102C001900D9241505040D8F7E0
:102540000895FB01DC0101900D920020E1F7089550
:10255000F894FFCF040104010000A40280000000F1
:102560000000AB010B013801F801690147015B0173
:1025700000000000F6040B01230322036E616E00CD
:10258000696E66006F76660020204D4F544F522DC5
:10259000504F574552202000202020434F4E535586
:1025A0004D5054494F4E0070483A004D3A00465342
:1025B0003A00563A0025005E0040007068004F4621
:1025C0004620002A5761746572466C6F7720446517
:1025D00074656374656423002A4C4F5720564F4C32
:1025E0005441474523002A4849474820564F4C54F8
:1025F00041474523002A50482056414C5545204923
:1026000053204849474823002A50482056414C55FA
:0E26100045204953204C4F5723004F4E2000C9
:107E0000112484B714BE81FFF0D085E080938100F7
:107E100082E08093C00088E18093C10086E0809377
:107E2000C20080E18093C4008EE0C9D0259A86E02C
:107E300020E33CEF91E0309385002093840096BBD3
:107E4000B09BFECF1D9AA8958150A9F7CC24DD24C4
:107E500088248394B5E0AB2EA1E19A2EF3E0BF2EE7
:107E6000A2D0813461F49FD0082FAFD0023811F036
:107E7000013811F484E001C083E08DD089C08234E0
:107E800011F484E103C0853419F485E0A6D080C0E4
:107E9000853579F488D0E82EFF2485D0082F10E0AE
:107EA000102F00270E291F29000F111F8ED06801E7
:107EB0006FC0863521F484E090D080E0DECF843638
:107EC00009F040C070D06FD0082F6DD080E0C81688
:107ED00080E7D80618F4F601B7BEE895C0E0D1E017
:107EE00062D089930C17E1F7F0E0CF16F0E7DF06D8
:107EF00018F0F601B7BEE89568D007B600FCFDCFD4
:107F0000A601A0E0B1E02C9130E011968C91119780
:107F100090E0982F8827822B932B1296FA010C0160
:107F200087BEE89511244E5F5F4FF1E0A038BF0790
:107F300051F7F601A7BEE89507B600FCFDCF97BE46
:107F4000E89526C08437B1F42ED02DD0F82E2BD052
:107F50003CD0F601EF2C8F010F5F1F4F84911BD097
:107F6000EA94F801C1F70894C11CD11CFA94CF0C13
:107F7000D11C0EC0853739F428D08EE10CD085E9AC
:107F80000AD08FE07ACF813511F488E018D01DD067
:107F900080E101D065CF982F8091C00085FFFCCF94
:107FA0009093C60008958091C00087FFFCCF809118
:107FB000C00084FD01C0A8958091C6000895E0E648
:107FC000F0E098E1908380830895EDDF803219F02E
:107FD00088E0F5DFFFCF84E1DECF1F93182FE3DFCA
:107FE0001150E9F7F2DF1F91089580E0E8DFEE27F6
:047FF000FF270994CA
:027FFE00040479
:00000001FF
