:100000000C9463000C948B000C948B000C948B006C
:100010000C948B000C948B000C948B000C948B0034
:100020000C948B000C948B000C948B000C948D061C
:100030000C948B000C948B000C948B000C948B0014
:100040000C9443060C948B000C9411060C94EB0555
:100050000C948B000C948B000C948B000C948B00F4
:100060000C948B000C948B000000000024002700EF
:100070002A0000000000250028002B0000000000DE
:1000800023002600290004040404040404040202DA
:100090000202020203030303030301020408102007
:1000A0004080010204081020010204081020000012
:1000B0000008000201000003040700000000000027
:1000C000000049079A0A11241FBECFEFD8E0DEBF17
:1000D000CDBF11E0A0E0B1E0ECEAFAE102C005908A
:1000E0000D92A838B107D9F722E0A8E8B1E001C025
:1000F0001D92A338B207E1F710E0C2E6D0E004C0D9
:100100002197FE010E94480BC136D107C9F70E9412
:10011000DF070C94490D0C940000CF92DF92EF9210
:10012000FF92DC01A03282E0B807D4F5A53BB1050F
:1001300014F0A4EBB0E04091590228E830E0241B11
:10014000310947FD3395220F331F220F331F6901F9
:10015000330FEE08FF0840915A0228E532E0241BD5
:10016000310947FD3395220F331F220F331F032E12
:10017000000C440B550B2C193D094E095F09B7FFC4
:1001800002C0B0E0A0E00E94CC0A24EB30E040E0E6
:1001900050E00E94A20AC20ED31EE41EF51ED60134
:1001A000E0915802EC3080F52091590288E890E007
:1001B000821B910927FD9395880F991F880F991F1E
:1001C000A817B90784F020915A0288E592E0821BB3
:1001D000910927FD9395880F991F880F991FA817DC
:1001E000B9070CF4CD010297880F991F4FB7F89407
:1001F0002E2F30E0F901EE0FFF1FE20FF31FED5C31
:10020000FD4F928381834FBFFF90EF90DF90CF909F
:100210000895AF92BF92CF92DF92EF92FF920F9329
:100220001F93CF93DF936C017B018B01040F151F8C
:10023000EB015E01AE18BF08C017D10759F06991F4
:10024000D601ED91FC910190F081E02DC601099558
:10025000892B79F7C501DF91CF911F910F91FF9005
:10026000EF90DF90CF90BF90AF900895FC01538D39
:10027000448D252F30E0842F90E0821B930B541780
:1002800010F0CF96089501970895FC01918D828D0D
:10029000981761F0A28DAE0FBF2FB11D5D968C91A6
:1002A000928D9F5F9F73928F90E008958FEF9FEFE5
:1002B0000895FC01918D828D981731F0828DE80FA1
:1002C000F11D858D90E008958FEF9FEF0895FC015B
:1002D000918D228D892F90E0805C9F4F821B910928
:1002E0008F739927089586E991E00E94670121E0C4
:1002F000892B09F420E0822F089580E090E0892B7B
:1003000029F00E94730181110C9400000895FC01F2
:10031000A48DA80FB92FB11DA35ABF4F2C91848D66
:1003200090E001968F739927848FA689B7892C93C3
:10033000A089B1898C91837080648C93938D848D16
:10034000981306C00288F389E02D80818F7D808319
:100350000895EF92FF920F931F93CF93DF93EC01D9
:1003600081E0888F9B8D8C8D98131AC0E889F9895C
:10037000808185FF15C09FB7F894EE89FF8960835F
:10038000E889F98980818370806480839FBF81E0E0
:1003900090E0DF91CF911F910F91FF90EF90089522
:1003A000F62E0B8D10E00F5F1F4F0F731127E02EFD
:1003B0008C8D8E110CC00FB607FCFACFE889F98935
:1003C000808185FFF5CFCE010E948701F1CFEB8DB3
:1003D000EC0FFD2FF11DE35AFF4FF0829FB7F89409
:1003E0000B8FEA89FB8980818062CFCFCF93DF9327
:1003F000EC01888D8823B9F0AA89BB89E889F9893D
:100400008C9185FD03C0808186FD0DC00FB607FC71
:10041000F7CF8C9185FFF2CF808185FFEDCFCE01A4
:100420000E948701E9CFDF91CF910895833081F059
:1004300028F4813099F08230A9F008958730A9F02E
:100440008830C9F08430B1F4809180008F7D03C082
:10045000809180008F7780938000089584B58F7796
:1004600084BD089584B58F7DFBCF8091B0008F77D8
:100470008093B00008958091B0008F7DF9CFCF9325
:10048000DF93282F30E0F901E255FF4F8491F90105
:10049000E656FF4FD491F901EA57FF4FC491CC23A0
:1004A000A1F081110E941602EC2FF0E0EE0FFF1F69
:1004B000E458FF4FA591B491EC91ED2381E090E0D9
:1004C00009F480E0DF91CF91089580E090E0FACFC9
:1004D0001F93CF93DF93282F30E0F901E255FF4FB0
:1004E0008491F901E656FF4FD491F901EA57FF4F85
:1004F000C491CC23A9F0162F81110E941602EC2F73
:10050000F0E0EE0FFF1FEE58FF4FA591B4918FB7AB
:10051000F894EC91111108C0D095DE23DC938FBFC5
:10052000DF91CF911F910895DE2BF8CFCF93DF930A
:1005300090E0FC01E656FF4F24918A579F4FFC0143
:1005400084918823D1F090E0880F991FFC01E8592D
:10055000FF4FA591B491FC01EE58FF4FC591D49186
:10056000623071F49FB7F8943C91822F8095832379
:100570008C93E8812E2B28839FBFDF91CF91089524
:100580008FB7F894EC912E2B2C938FBFF6CF3FB7FB
:10059000F89480918E0190918F01A0919001B0917B
:1005A000910126B5A89B05C02F3F19F00196A11D0A
:1005B000B11D3FBFBA2FA92F982F8827BC01CD01AD
:1005C000620F711D811D911D42E0660F771F881F0C
:1005D000991F4A95D1F708958F929F92AF92BF923B
:1005E000CF92DF92EF92FF924B015C010E94C70213
:1005F0006B017C010E94C7026C197D098E099F095D
:10060000683E734081059105A8F321E0821A9108A4
:10061000A108B10888EEC80E83E0D81EE11CF11CC9
:1006200081149104A104B10429F7FF90EF90DF90A9
:10063000CF90BF90AF909F908F900895089590E0D5
:1006400080E0089560E082E00E94680261E08BE053
:100650000E94680261E084E00E94680261E085E037
:100660000E94680286E00E943F02892B19F481E310
:100670008093000187E00E943F02892B19F482E3F6
:100680008093000188E00E943F02892B19F483E3E4
:100690008093000189E00E943F02892B19F481E4D4
:1006A0008093000161E082E00E94680260E08BE0DC
:1006B0000E94680261E084E00E94680261E085E0D7
:1006C0000E94680286E00E943F02892B19F484E3AD
:1006D0008093000187E00E943F02892B19F485E393
:1006E0008093000188E00E943F02892B19F486E381
:1006F0008093000189E00E943F02892B19F482E473
:100700008093000161E082E00E94680261E08BE07A
:100710000E94680260E084E00E94680261E085E077
:100720000E94680286E00E943F02892B19F487E349
:100730008093000187E00E943F02892B19F488E32F
:100740008093000188E00E943F02892B19F489E31D
:100750008093000189E00E943F02892B19F483E411
:100760008093000161E082E00E94680261E08BE01A
:100770000E94680261E084E00E94680260E085E017
:100780000E94680286E00E943F02892B19F48AE2E7
:100790008093000187E00E943F02892B19F480E3D7
:1007A0008093000188E00E943F02892B19F483E2C4
:1007B0008093000189E00E943F02892B19F484E4B0
:1007C00080930001809100010895CF93DF93EC01A5
:1007D00060E08E810E94680261E08E810E94680262
:1007E00060E08E810E9468028BE891E00197F1F74A
:1007F000DF91CF910895CF92DF92EF92FF920F9306
:100800001F93CF93DF936C017C0187E0E80EF11C0E
:10081000D0E0C0E0062F10E0B8010C2E02C07595A4
:1008200067950A94E2F76170F70181917F010E9458
:1008300068022196C430D10579F7C601DF91CF91C6
:100840001F910F91FF90EF90DF90CF900C94E503F4
:10085000CF92DF92EF92FF920F931F93CF93DF938C
:10086000EC01F62E642F8C810E9468028D818F3FEF
:1008700019F060E00E9468020F2D10E08F8584FF60
:1008800025C06E0187E0C80ED11CF12CE12CB80107
:100890000E2C02C0759567950A94E2F76170F60117
:1008A00081916F010E946802FFEFEF1AFF0A88E052
:1008B000E816F10461F7CE01DF91CF911F910F91FE
:1008C000FF90EF90DF90CF900C94E503B80184E0A7
:1008D000759567958A95E1F7CE010E94FB036F2D10
:1008E000CE01DF91CF911F910F91FF90EF90DF909C
:1008F000CF900C94FB0340E0682F87E692E00C94C5
:10090000280481E00E947B048BE39FE10197F1F7CB
:100910000895CF93DF93823029F490917602986006
:100920009093760280937A0210927B0280E4809307
:100930007C0280E180937D0280E580937E0261E00D
:1009400080916B020E94960280916C028F3F19F099
:1009500061E00E94960261E080916D020E94960221
:10096000C7E6D2E09E01275632408091760284FD90
:100970000BC084E090E021962817390744F461E029
:100980008E810E949602EECF88E090E0F4CF8BE358
:100990009DE00197F1F760E080916B020E94680290
:1009A00060E080916D020E94680280916C028F3F2E
:1009B00019F060E00E9468028091760284FD34C0E4
:1009C00063E087E692E00E94FB03CBE4D6E4CE012D
:1009D0000197F1F763E087E692E00E94FB0321971D
:1009E000F1F763E087E692E00E94FB0383E592E083
:1009F0000197F1F762E087E692E00E94FB038091A5
:100A0000760280620E947B0484E0809377028CE00F
:100A10000E947B040E94810482E08093780286E039
:100A2000DF91CF910C947B0480620E947B048BE465
:100A300096E40197F1F78091760280620E947B0430
:100A400083E592E00197F1F78091760280620E943F
:100A50007B04D5CF90917A02891710F08FEF890F20
:100A6000E82FF0E0E959FD4F848980680C947B04FD
:100A700041E00E94280481E090E00895FC0101908B
:100A80000020E9F73197AF01481B590BBC0187E6FD
:100A900092E00C940901CF93DF93EC018881998156
:100AA000009711F00E94EA0B198218821D821C82A5
:100AB0001B821A82DF91CF910895FC018081918180
:100AC000009711F00C94EA0B08950F931F93CF93A6
:100AD000DF93EC0188819981009759F02A813B814D
:100AE0002617370730F081E0DF91CF911F910F91EA
:100AF00008958B016F5F7F4F0E94730C009759F030
:100B0000998388831B830A832C813D81232B59F78A
:100B1000FC011082E8CF80E0E7CFEF92FF920F93C5
:100B20001F93CF93DF936115710541F480E0DF914E
:100B3000CF911F910F91FF90EF90089541155105AE
:100B4000B1F07B01EC010C811D81040F151FB80170
:100B50000E946505882351F3288139818C819D810C
:100B6000B701820F931F0E94420D1D830C8381E009
:100B7000DECFEF92FF920F931F93CF93DF93EC01A1
:100B80007B018A01BA010E94650581110BC0CE016B
:100B90000E944B05CE01DF91CF911F910F91FF90E5
:100BA000EF9008951D830C83B701888199810E947D
:100BB000420DF0CFFC011182108213821282158245
:100BC0001482FB0101900020E9F73197AF01461B29
:100BD000570B0C94B9051F920F920FB60F92112468
:100BE0002F933F934F935F936F937F938F939F9335
:100BF000AF93BF93EF93FF9386E991E00E94870143
:100C0000FF91EF91BF91AF919F918F917F916F91E4
:100C10005F914F913F912F910F900FBE0F901F90BA
:100C200018951F920F920FB60F9211242F938F9346
:100C30009F93EF93FF93E091A601F091A70180812C
:100C4000E091AC01F091AD0182FD1BC090818091DB
:100C5000AF018F5F8F732091B001821741F0E09157
:100C6000AF01F0E0EA56FE4F958F8093AF01FF9100
:100C7000EF919F918F912F910F900FBE0F901F902A
:100C800018958081F4CF1F920F920FB60F92112406
:100C90002F933F938F939F93AF93BF9380918A013C
:100CA00090918B01A0918C01B0918D0130918901BF
:100CB00023E0230F2D3758F50196A11DB11D209378
:100CC000890180938A0190938B01A0938C01B0934A
:100CD0008D0180918E0190918F01A0919001B09132
:100CE00091010196A11DB11D80938E0190938F01FA
:100CF000A0939001B0939101BF91AF919F918F917B
:100D00003F912F910F900FBE0F901F90189526E8DE
:100D1000230F0296A11DB11DD2CF1F920F920FB6C5
:100D20000F9211242F933F934F935F936F937F9371
:100D30008F939F93AF93BF93CF93DF93EF93FF93E3
:100D400080918801C0915702D0E087FF24C01092A3
:100D5000850010928400809188018F5F80938801C4
:100D600080918801082E000C990B8C179D0724F4A4
:100D7000809188018C30C4F180918400909185002D
:100D8000049680349C4908F47AC080918400909144
:100D90008500049676C080918801082E000C990B7E
:100DA0008C179D07C4F6E09188018E2FEE0F990BEA
:100DB000FC01EE0FFF1FE80FF91FED5CFD4F808176
:100DC00086FFC9CFE09188018E2FEE0F990BFC01B1
:100DD000EE0FFF1FE80FF91FED5CFD4F808160E013
:100DE0008F730E946802B7CF2091840030918500F4
:100DF000E09188018E2FEE0F990BFC01EE0FFF1F83
:100E0000E80FF91FED5CFD4F81819281820F931FE6
:100E10009093890080938800E09188018E2FEE0FD7
:100E2000990BFC01EE0FFF1FE80FF91FED5CFD4F62
:100E3000808186FF11C0E09188018E2FEE0F990B03
:100E4000FC01EE0FFF1FE80FF91FED5CFD4F8081E5
:100E500061E08F730E946802FF91EF91DF91CF9163
:100E6000BF91AF919F918F917F916F915F914F91C2
:100E70003F912F910F900FBE0F901F90189580E417
:100E80009CE990938900809388008FEF809388017C
:100E9000E3CFCF93109299011092980188EE93E0DE
:100EA000A0E0B0E080939A0190939B01A0939C01F5
:100EB000B0939D018BE091E0909397018093960110
:100EC00085EC90E09093A3018093A20184EC90E0E4
:100ED0009093A5018093A40180EC90E09093A701EA
:100EE0008093A60181EC90E09093A9018093A801E2
:100EF00082EC90E09093AB018093AA0186EC90E0A5
:100F00009093AD018093AC011092AF011092B001AB
:100F10001092B1011092B20110926A02109269020D
:100F20008DE191E090936802809367028EE0809358
:100F30006B02CFEFC0936C028FE080936D0280E173
:100F400080936E0281E180936F0282E18093700250
:100F500083E18093710210927202109273021092D8
:100F60007402109275021092760281E00E94890448
:100F700065E271E081E692E00E94DA056EE671E0DA
:100F80008BE592E00E94DA05809157028C30A0F444
:100F900091E0980F909357028093580290E0FC01E3
:100FA000EE0FFF1FE80FF91FED5CFD4F88EB9BE094
:100FB00092838183CF910895C0935802FBCFCF9342
:100FC000DF93CDB7DEB72C970FB6F894DEBF0FBE18
:100FD000CDBF789484B5826084BD84B5816084BDC2
:100FE00085B5826085BD85B5816085BD80916E00C7
:100FF000816080936E0010928100809181008260F8
:101000008093810080918100816080938100809134
:1010100080008160809380008091B1008460809323
:10102000B1008091B00081608093B00080917A001F
:10103000846080937A0080917A00826080937A0045
:1010400080917A00816080937A0080917A00806834
:1010500080937A001092C100E091A601F091A7015F
:1010600082E08083E091A201F091A3011082E091DF
:10107000A401F091A5018FEC80831092AE01E09164
:10108000AA01F091AB0186E08083E091A801F09184
:10109000A901808180618083E091A801F091A9017C
:1010A000808188608083E091A801F091A90180810E
:1010B00080688083E091A801F091A90180818F7DF3
:1010C000808382E00E94890461E082E00E949602AF
:1010D00061E08BE00E94960261E084E00E9496024B
:1010E00061E085E00E94960262E086E00E9496023E
:1010F00062E087E00E94960262E088E00E94960229
:1011000062E089E00E94960261E08AE00E94960215
:1011100060E08AE00E946802809158028C3008F0FA
:1011200051C061E083E00E94960280915802282F0E
:1011300030E0F901EE0FFF1FE20FF31FED5CFD4FF2
:101140009081907C936090831092590210925A0281
:101150002CE0622F0E943C0B829FB001112430E0F2
:1011600020E0AB01420F531FFA01EE0FFF1FE40F07
:10117000F51FED5CFD4F908196FD16C02F5F3F4F30
:101180002C30310571F781110FC01092800082E080
:10119000809381001092850010928400B19A809112
:1011A0006F00826080936F00E09158028E2F90E074
:1011B000FC01EE0FFF1FE80FF91FED5CFD4F808172
:1011C000806480830E94810480E00E942A058AE274
:1011D00091E00E943E0564EF71E080E090E00E94A3
:1011E000EC020E94810400E010E084EBE82EF12C78
:1011F00098E7B92E86E991E00E946701892B09F4EE
:1012000050C186E991E00E944501813491F0823419
:1012100009F43DC150E040E06EE671E08BE592E0FC
:101220000E94B90564E670E080E090E00E94EC0264
:10123000E1CF0E94810480E00E942A0586E391E0CC
:101240000E943E0568EE73E080E090E00E94EC02B0
:101250000E9422031092930110929201809100014A
:10126000883709F071C00E942203883709F45DC0F5
:101270000E94220389831A82C0905F02D09060028C
:101280008FEFC81AD80AB6018BE592E00E94650577
:10129000882399F020915B0230915C0280915F027B
:1012A00090916002BE016F5F7F4F820F931F0E947B
:1012B000420DD0926002C0925F02809192019091A3
:1012C00093010196909393018093920180E00E9494
:1012D0002A051A8219821C821B821E821D824AE004
:1012E00050E063E471E0CE0101960E94B90540919F
:1012F0005F025091600260915B0270915C02CE01CE
:1013000001960E948D05811104C0CE0101960E94B4
:101310004B054D815E8169817A8187E692E00E946A
:101320000901CE0101960E945D05B09200018091F5
:10133000920190919301049739F064E670E080E0A7
:1013400090E00E94EC028ACF0E94810480E00E941B
:101350002A051A8219821C821B821E821D826091BC
:101360005B0270915C026115710541F040915F0272
:1013700050916002CE0101960E94B9056EE471E0C1
:10138000CE0107960E94DA054D815E8169817A81DE
:10139000CE0107960E948D05811104C0CE010796EB
:1013A0000E944B054B855C856F81788587E692E0CE
:1013B0000E940901CE0107960E945D05CE010196AB
:1013C0000E945D05209165023091660280915F0266
:1013D0009091600228173907C1F4809161029091C1
:1013E000620260915B0270915C02009709F465C033
:1013F0006115710539F4232B09F46DC0FC0180815E
:1014000090E066C00E94390D63C061E486E991E016
:101410000E94A90161E486E991E00E94A9010E946D
:10142000810481E00E942A0582E691E00E943E0547
:1014300061E08AE00E946802F0929501E0929401D6
:10144000C0909401D0909501D7FC11C0C6010E94B4
:101450008D006FE070E080E090E00E94EC02E1E03F
:10146000CE1AD108D0929501C0929401E9CF64EFD1
:1014700071E080E090E00E94EC020E94810481E033
:101480000E942A058FE691E00E943E05C3CE61E0EE
:101490008AE00E94680281E00E942A058BE791E0C1
:1014A000F3CF0115110509F4A5CE0E94730188231D
:1014B00009F4A0CE0E9400009DCE6115710559F07F
:1014C000232B49F0FB01808190E091958195910952
:1014D000892B09F09ACF60E08AE00E94680281E0DF
:1014E0000E942A0584E591E00E943E0568EE73E0C3
:1014F00080E090E00E94EC0210929501109294011D
:10150000C0909401D0909501F5EBCF16D1040CF06A
:1015100081CEC6010E948D006FE070E080E090E017
:101520000E94EC028FEFC81AD80AD0929501C0929F
:101530009401E6CF8BE592E00E945D0581E692E0A2
:101540000C945D05052E97FB1EF400940E94B90AC9
:1015500057FD07D00E940B0B07FC03D04EF40C94F0
:10156000B90A50954095309521953F4F4F4F5F4FA9
:10157000089590958095709561957F4F8F4F9F4FFF
:1015800008950E942D0BA59F900DB49F900DA49FD0
:10159000800D911D11240895B7FF0C94C10A0E947B
:1015A000C10A821B930B08952F923F924F925F9234
:1015B0006F927F928F929F92AF92BF92CF92DF9263
:1015C000EF92FF920F931F93CF93DF93CDB7DEB7C8
:1015D000CA1BDB0B0FB6F894DEBF0FBECDBF09945C
:1015E0002A88398848885F846E847D848C849B84B3
:1015F000AA84B984C884DF80EE80FD800C811B81C1
:10160000AA81B981CE0FD11D0FB6F894DEBF0FBEEF
:10161000CDBFED010895A1E21A2EAA1BBB1BFD014F
:101620000DC0AA1FBB1FEE1FFF1FA217B307E407C1
:10163000F50720F0A21BB30BE40BF50B661F771F19
:10164000881F991F1A9469F76095709580959095F9
:101650009B01AC01BD01CF010895A29FB001B39FD2
:10166000C001A39F700D811D1124911DB29F700DAB
:10167000811D1124911D0895991B79E004C0991FC3
:10168000961708F0961B881F7A95C9F780950895DC
:10169000EE0FFF1F0590F491E02D09940F931F9317
:1016A000CF93DF938230910510F482E090E0E091D7
:1016B0008102F091820230E020E0B0E0A0E03097BB
:1016C00099F42115310509F44AC0281B390B24303F
:1016D0003105D8F58A819B816115710589F1FB017E
:1016E00093838283FE0111C0408151810281138165
:1016F00048175907E0F04817590799F4109761F017
:1017000012960C93129713961C933296CF01DF9189
:10171000CF911F910F91089500938102109382023F
:10172000F4CF2115310551F04217530738F0A901C4
:10173000DB019A01BD01DF01F801C1CFEF01F9CF53
:101740009093820280938102CDCFFE01E20FF31FBE
:10175000819391932250310939832883D7CF2091E7
:101760007F0230918002232B41F4209103013091BC
:1017700004013093800220937F0220910101309177
:1017800002012115310541F42DB73EB74091050105
:1017900050910601241B350BE0917F02F0918002ED
:1017A000E217F307A0F42E1B3F0B2817390778F038
:1017B000AC014E5F5F4F2417350748F04E0F5F1F97
:1017C0005093800240937F02819391939FCFF0E0EA
:1017D000E0E09CCFCF93DF930097E9F0FC013297D4
:1017E00013821282A0918102B0918202ED0130E059
:1017F00020E01097A1F420813181820F931F209166
:101800007F02309180022817390709F061C0F093F8
:101810008002E0937F02DF91CF910895EA01CE1715
:10182000DF07E8F54A815B819E0141155105B1F75B
:10183000E901FB83EA8349915991C40FD51FEC1745
:10184000FD0761F4808191810296840F951FE90163
:1018500099838883828193819B838A83F0E0E0E08F
:1018600012968D919C9113970097B9F52D913C910B
:101870001197CD010296820F931F20917F02309124
:1018800080022817390739F6309751F510928202F5
:1018900010928102B0938002A0937F02BCCFD383C9
:1018A000C28340815181840F951FC817D90761F405
:1018B0004E5F5F4F88819981480F591F5183408344
:1018C0008A819B81938382832115310509F0B0CFF2
:1018D000F0938202E09381029ECFFD01DC01C0CF34
:1018E00013821282D7CFB0E0A0E0E9E7FCE00C94CD
:1018F000D60A8C01009751F4CB010E944E0B8C014B
:10190000C801CDB7DEB7E0E10C94F20AFC01E60FA6
:10191000F71F9C0122503109E217F30708F49DC01C
:10192000D901CD91DC911197C617D70798F0C53032
:10193000D10530F3CE0104978617970708F3C61B2D
:10194000D70B2297C193D1936D937C93CF010E94C3
:10195000EA0BD6CF5B01AC1ABD0A4C018C0E9D1E62
:10196000A0918102B0918202512C412CF12CE12CEA
:10197000109731F580917F0290918002881599052A
:1019800009F05CC04616570608F058C08091010166
:1019900090910201009741F48DB79EB740910501E7
:1019A00050910601841B950BE817F90708F055C004
:1019B000F0938002E0937F02F90171836083A0CFEE
:1019C0008D919C91119712966C90129713967C9022
:1019D0001397A815B90559F56C0142E0C40ED11C46
:1019E000CA14DB0420F1AC014A195B09DA01129632
:1019F000159780F06282738251834083D9016D9381
:101A00007C93E114F10471F0D7011396FC93EE93EB
:101A1000129776CF22968C0F9D1FF90191838083B8
:101A2000F301EFCFF0938202E093810269CF481671
:101A3000590608F42C017D01D3019ACFCB010E94F5
:101A40004E0B7C01009749F0AE01B8010E94300DA9
:101A5000C8010E94EA0B870153CF10E000E050CF8D
:101A6000FB01DC0102C001900D9241505040D8F7BB
:101A70000895FB01DC018D91019080190110D9F3CB
:101A8000990B0895FB01DC0101900D920020E1F714
:101A9000089510E0C2E6D0E004C0FE010E94480BA9
:0C1AA0002196C336D107C9F7F894FFCF98
:101AAC007800008302800000000000A901090136C3
:101ABC0001F60167014501590100000000380509D4
:101ACC00011F031E03313233340042414E4B204C74
:101ADC004F434B45520046414345204D41544348EA
:101AEC00454400454E544552204F54503A00504105
:101AFC0053533A00554E4C4F434B454420444F4FA3
:101B0C0052002020204C4F434B45442020200053B2
:101B1C00454E44494E4720534D53004641434520C2
:081B2C0021204D415443480003
:00000001FF
