:020000040000FA
:100000000C9462000C948A000C948A000C948A0070
:100010000C948A000C948A000C948A000C948A0038
:100020000C948A000C948A000C948A000C948A0028
:100030000C948A000C948A000C948A000C948A0018
:100040000C94D5050C948A000C94A3050C947D05A2
:100050000C948A000C948A000C948A000C948A00F8
:100060000C948A000C948A000000000024002700F1
:100070002A0000000000250028002B0000000000DE
:1000800023002600290004040404040404040202DA
:100090000202020203030303030301020408102007
:1000A0004080010204081020010204081020000012
:1000B0000008000201000003040700000000000027
:1000C00000001F0611241FBECFEFD8E0DEBFCDBF5A
:1000D00022E0A6E1B2E001C01D92A83DB207E1F71F
:1000E00012E0A0E0B1E0E4E5F4E102C005900D9279
:1000F000A631B107D9F710E0C2E6D0E004C02197DD
:10010000FE010E943008C136D107C9F70E94690676
:100110000C94280A0C940000AF92BF92CF92DF9209
:10012000EF92FF920F931F93CF93DF936C017B01AC
:100130008B01040F151FEB015E01AE18BF08C0173D
:10014000D10759F06991D601ED91FC910190F081B0
:10015000E02DC6010995892B79F7C501DF91CF9173
:100160001F910F91FF90EF90DF90CF90BF90AF90D5
:100170000895FC01538D448D252F30E0842F90E0AD
:10018000821B930B541710F0CF9608950197089592
:10019000FC01918D828D981761F0A28DAE0FBF2F5B
:1001A000B11D5D968C91928D9F5F9F73928F90E0B1
:1001B00008958FEF9FEF0895FC01918D828D981720
:1001C00031F0828DE80FF11D858D90E008958FEF5D
:1001D0009FEF0895FC01918D228D892F90E0805C26
:1001E0009F4F821B91098F73992708958FE192E0A9
:1001F0000E94EA0021E0892B09F420E0822F089573
:1002000080E090E0892B29F00E94F60081110C9487
:1002100000000895FC01A48DA80FB92FB11DA35AA9
:10022000BF4F2C91848D90E001968F739927848F16
:10023000A689B7892C93A089B1898C918370806439
:100240008C93938D848D981306C00288F389E02DDA
:1002500080818F7D80830895EF92FF920F931F938B
:10026000CF93DF93EC0181E0888F9B8D8C8D981369
:100270001AC0E889F989808185FF15C09FB7F89475
:10028000EE89FF896083E889F989808183708064C1
:1002900080839FBF81E090E0DF91CF911F910F910C
:1002A000FF90EF900895F62E0B8D10E00F5F1F4F1B
:1002B0000F731127E02E8C8D8E110CC00FB607FC2A
:1002C000FACFE889F989808185FFF5CFCE010E94B8
:1002D0000A01F1CFEB8DEC0FFD2FF11DE35AFF4F1B
:1002E000F0829FB7F8940B8FEA89FB898081806246
:1002F000CFCFCF93DF93EC01888D8823B9F0AA8903
:10030000BB89E889F9898C9185FD03C0808186FDD0
:100310000DC00FB607FCF7CF8C9185FFF2CF80811F
:1003200085FFEDCFCE010E940A01E9CFDF91CF9189
:100330000895833081F028F4813099F08230A9F05B
:1003400008958730A9F08830C9F08430B1F48091E5
:1003500080008F7D03C0809180008F778093800024
:10036000089584B58F7784BD089584B58F7DFBCFC4
:100370008091B0008F778093B00008958091B00095
:100380008F7DF9CFCF93DF93282F30E0F901E2552D
:10039000FF4F8491F901E656FF4FD491F901EA57D6
:1003A000FF4FC491CC23A1F081110E949901EC2F41
:1003B000F0E0EE0FFF1FE458FF4FA591B491EC91D0
:1003C000ED2381E090E009F480E0DF91CF91089582
:1003D00080E090E0FACF1F93CF93DF93282F30E097
:1003E000F901E255FF4F8491F901E656FF4FD49190
:1003F000F901EA57FF4FC491CC23A9F0162F8111C0
:100400000E949901EC2FF0E0EE0FFF1FEE58FF4F16
:10041000A591B4918FB7F894EC91111108C0D095C3
:10042000DE23DC938FBFDF91CF911F910895DE2BE8
:10043000F8CFCF93DF9390E0FC01E656FF4F249175
:100440008A579F4FFC0184918823D1F090E0880F58
:10045000991FFC01E859FF4FA591B491FC01EE589A
:10046000FF4FC591D49161110EC09FB7F8948C9144
:10047000E22FE0958E238C932881E223E8839FBFAF
:10048000DF91CF9108958FB7F894EC91E22BEC9324
:100490008FBFF6CF3FB7F89480911B0290911C025A
:1004A000A0911D02B0911E0226B5A89B05C02F3F4A
:1004B00019F00196A11DB11D3FBFBA2FA92F982F8A
:1004C0008827BC01CD01620F711D811D911D42E085
:1004D000660F771F881F991F4A95D1F708958F924D
:1004E0009F92AF92BF92CF92DF92EF92FF924B0119
:1004F0005C010E944A026B017C010E944A026C1955
:100500007D098E099F09683E734081059105A8F316
:1005100021E0821A9108A108B10888EEC80E83E094
:10052000D81EE11CF11C81149104A104B10429F727
:10053000FF90EF90DF90CF90BF90AF909F908F9003
:100540000895089590E080E008950F931F93CF934E
:10055000DF93EC0188819981009759F02A813B81D2
:100560002617370730F081E0DF91CF911F910F916F
:1005700008958B016F5F7F4F0E945B09009759F0D0
:10058000998388831B830A832C813D81232B59F710
:10059000FC011082E8CF80E0E7CFCF93DF93EC013E
:1005A00088819981009711F00E94D20819821882DF
:1005B0001D821C821B821A82DF91CF910895FC015B
:1005C00080819181009711F00C94D2080895FB016D
:1005D00001900020E9F73197AF01461B570BDC0172
:1005E000ED91FC910280F381E02D0994CF93DF938C
:1005F000FC0144815581608171818FE192E00E940C
:100600008C00EC0164E271E08FE192E00E94E7026D
:100610008C0F9D1FDF91CF9108950C94E702EF920C
:10062000FF920F931F93CF93DF93EC017B0119820D
:1006300018821B821A821D821C82FB0101900020FD
:10064000E9F731978F01061B170BB8010E94A5022D
:10065000811109C0CE01DF91CF911F910F91FF90C1
:10066000EF900C94CD021D830C83B7018881998192
:10067000DF91CF911F910F91FF90EF900C94210A81
:10068000CF93DF93EC0160E08E810E94EB0161E08B
:100690008E810E94EB0160E08E810E94EB018BE86D
:1006A00091E00197F1F7DF91CF910895CF92DF921A
:1006B000EF92FF920F931F93CF93DF936C017C0116
:1006C00087E0E80EF11CD0E0C0E0062F10E0B80192
:1006D0000C2E02C0759567950A94E2F76170F701D8
:1006E00081917F010E94EB012196C430D10579F7F9
:1006F000C601DF91CF911F910F91FF90EF90DF9096
:10070000CF900C944003CF92DF92EF92FF920F9321
:100710001F93CF93DF93EC01F62E642F8C810E9400
:10072000EB018D818F3F19F060E00E94EB010F2DEE
:1007300010E08F8584FF25C06E0187E0C80ED11CB4
:10074000F12CE12CB8010E2C02C0759567950A9426
:10075000E2F76170F60181916F010E94EB01FFEFFA
:10076000EF1AFF0A88E0E816F10461F7CE01DF9185
:10077000CF911F910F91FF90EF90DF90CF900C944D
:100780004003B80184E0759567958A95E1F7CE013D
:100790000E9456036F2DCE01DF91CF911F910F91D3
:1007A000FF90EF90DF90CF900C94560340E0682FBD
:1007B0008CEB92E00C948303CF93DF93823029F487
:1007C0009091CB0298609093CB028093CF021092CD
:1007D000D00280E48093D10280E18093D20280E550
:1007E0008093D30261E08091C0020E94190280913F
:1007F000C1028F3F19F061E00E94190261E080910F
:10080000C2020E941902CCEBD2E09E012C5B324066
:100810008091CB0284FD0BC084E090E021962817E4
:10082000390744F461E08E810E941902EECF88E01E
:1008300090E0F4CF8BE39DE00197F1F760E08091C9
:10084000C0020E94EB0160E08091C2020E94EB01B5
:100850008091C1028F3F19F060E00E94EB0180910E
:10086000CB0284FD39C063E08CEB92E00E9456031A
:10087000CBE4D6E4CE010197F1F763E08CEB92E094
:100880000E9456032197F1F763E08CEB92E00E94FF
:10089000560383E592E00197F1F762E08CEB92E07A
:1008A0000E9456038091CB0280620E94D60384E0AE
:1008B0008093CC028CE00E94D60381E00E94D60394
:1008C0008BE39FE10197F1F782E08093CD0286E010
:1008D000DF91CF910C94D60380620E94D6038BE403
:1008E00096E40197F1F78091CB0280620E94D603D3
:1008F00083E592E00197F1F78091CB0280620E943C
:10090000D603D0CF9091CF02891710F08FEF890FC7
:10091000E82FF0E0E454FD4F848980680C94D603FE
:1009200041E00E94830381E090E00895CF92DF923E
:10093000EF92FF920F931F93CF93DF93CDB7DEB764
:100940002C970FB6F894DEBF0FBECDBF6C017B01B4
:1009500067E271E08FE192E00E94E70264E271E0F9
:100960008FE192E00E94E70268EE73E080E090E0A1
:100970000E946F026AE271E08FE192E00E94E7025A
:1009800064E271E08FE192E00E94E70268EE73E0BA
:1009900080E090E00E946F0218861F821A861986F6
:1009A0001C861B86F601008111810115110569F075
:1009B000C480D580B601CE0107960E94A5028111A0
:1009C00082C0CE0107960E94CD0264E371E0CE01A1
:1009D00001960E940F03CF80D884C114D10409F47A
:1009E0007AC00B851C8501151105B9F08D819E819A
:1009F000080F191FB801CE0101960E94A502882395
:100A000009F469C029813A818D819E81B601820FE6
:100A1000931F0E94210A1E830D830D811E810E5F8C
:100A20001F4FB801CE0101960E94A502811158C046
:100A3000CE0101960E94CD02CE0101960E94F602DF
:100A4000CE0101960E94DF02CE0107960E94DF02CE
:100A500068EE73E080E090E00E946F02C7010E94A0
:100A6000F60264E471E08FE192E00E940D0361E61A
:100A700071E08FE192E00E940D036CE671E08FE17E
:100A800092E00E940D036EE671E08FE192E00E9419
:100A90000D0364E670E080E090E00E946F026AE17E
:100AA0008FE192E00E942C012C960FB6F894DEBFE5
:100AB0000FBECDBFDF91CF911F910F91FF90EF90AF
:100AC000DF90CF900895DC86CB86B8018F81988522
:100AD0000E94210A7ACFCE0101960E94CD029DCFBD
:100AE00029813A818D819E8161E471E0820F931F9B
:100AF0000E94210A1E830D839FCF1F920F920FB673
:100B00000F9211242F933F934F935F936F937F9393
:100B10008F939F93AF93BF93EF93FF938FE192E0F7
:100B20000E940A01FF91EF91BF91AF919F918F9128
:100B30007F916F915F914F913F912F910F900FBED9
:100B40000F901F9018951F920F920FB60F921124BD
:100B50002F938F939F93EF93FF93E0912F02F09148
:100B600030028081E0913502F091360282FD1BC097
:100B70009081809138028F5F8F73209139028217A4
:100B800041F0E0913802F0E0E15EFD4F958F8093F7
:100B90003802FF91EF919F918F912F910F900FBE8F
:100BA0000F901F9018958081F4CF1F920F920FB66F
:100BB0000F9211242F933F938F939F93AF93BF93E3
:100BC0008091170290911802A0911902B0911A0217
:100BD0003091160223E0230F2D3758F50196A11D01
:100BE000B11D209316028093170290931802A093D0
:100BF0001902B0931A0280911B0290911C02A091DD
:100C00001D02B0911E020196A11DB11D80931B0211
:100C100090931C02A0931D02B0931E02BF91AF914E
:100C20009F918F913F912F910F900FBE0F901F902A
:100C3000189526E8230F0296A11DB11DD2CFEFE132
:100C4000F2E01382128288EE93E0A0E0B0E08483A9
:100C50009583A683B7838AE091E09183808385ECB6
:100C600090E09587848784EC90E09787868780EC76
:100C700090E0918B808B81EC90E0938B828B82EC67
:100C800090E0958B848B86EC90E0978B868B118E11
:100C9000128E138E148EECEBF2E0138212828CE132
:100CA00091E0918380838DE084838FEF85838CE056
:100CB00086838BE087838AE0808789E0818788E06C
:100CC00082871386148615861686178681E00C9413
:100CD000DC03CF93DF93CDB7DEB72C970FB6F89434
:100CE000DEBF0FBECDBF789484B5826084BD84B56D
:100CF000816084BD85B5826085BD85B5816085BD17
:100D000080916E00816080936E00109281008091CE
:100D10008100826080938100809181008160809356
:100D20008100809180008160809380008091B1007B
:100D300084608093B1008091B00081608093B000A6
:100D400080917A00846080937A0080917A0082603A
:100D500080937A0080917A00816080937A008091FC
:100D60007A00806880937A001092C100E0912F028F
:100D7000F091300282E08083E0912B02F0912C020E
:100D80001082E0912D02F0912E028FEC8083109260
:100D90003702E0913302F091340286E08083E091E3
:100DA0003102F0913202808180618083E0913102D2
:100DB000F0913202808188608083E0913102F0916D
:100DC0003202808180688083E0913102F0913202AA
:100DD00080818F7D808369E771E08FE192E00E94DE
:100DE0000D0382E00E94DC0380E00E9482046BE835
:100DF00071E08CEB92E00E940D0381E00E9482047E
:100E000062E971E08CEB92E00E940D0360E082E009
:100E10000E94190260E083E00E94190260E084E011
:100E20000E94190260E085E00E94190260E08EE0F5
:100E30000E94190260E08FE00E94190260E086E0E3
:100E40000E94190261E087E00E94190260E086E0DA
:100E50000E94EB0164E670E080E090E00E946F0287
:100E60008BE3282E8FE1382E90E0492E90E0592E0A
:100E700082E00E94C2016C0183E00E94C2017C01F9
:100E800084E00E94C2018C0185E00E94C2013C0105
:100E90008EE00E94C2014C018FE00E94C2015C0101
:100EA00081E00E94D603C1010197F1F781E0881625
:100EB000910421F081E0A816B10491F563EA71E094
:100EC0008FE192E00E940D0380E00E94820466EBB5
:100ED00071E08CEB92E00E940D0361E086E00E94DD
:100EE000EB0161E087E00E94EB0169EC71E0CE016B
:100EF00001960E940F0368ED71E0CE0107960E94F3
:100F00000F03BE016F5F7F4FCE0107960E949604CC
:100F1000CE0107960E94DF02CE0101960E94DF02F9
:100F2000892811F0AB2841F460E086E00E94EB01D3
:100F300060E087E00E94EB0181E0C816D10459F01F
:100F400081E0E816F10439F00130110521F081E06B
:100F50006816710491F563EE71E08FE192E00E94F2
:100F60000D0380E00E94820465EF71E08CEB92E05B
:100F70000E940D0361E086E00E94EB0161E087E0E2
:100F80000E94EB0167E072E0CE0101960E940F0320
:100F900068ED71E0CE0107960E940F03BE016F5FFE
:100FA0007F4FCE0107960E949604CE0107960E94BD
:100FB000DF02CE0101960E94DF02CD2831F0EF283A
:100FC00021F0012B11F0672841F460E086E00E94D7
:100FD000EB0160E087E00E94EB014114510409F449
:100FE00047CF0E94F600882309F442CF0E940000F8
:100FF0003FCF2F923F924F925F926F927F928F924C
:101000009F92AF92BF92CF92DF92EF92FF920F9397
:101010001F93CF93DF93CDB7DEB7CA1BDB0B0FB6A1
:10102000F894DEBF0FBECDBF09942A88398848885E
:101030005F846E847D848C849B84AA84B984C884F4
:10104000DF80EE80FD800C811B81AA81B981CE0FEB
:10105000D11D0FB6F894DEBF0FBECDBFED010895D0
:10106000EE0FFF1F0590F491E02D09940F931F934D
:10107000CF93DF938230910510F482E090E0E0910D
:10108000D602F091D70230E020E0B0E0A0E0309747
:1010900099F42115310509F44AC0281B390B243075
:1010A0003105D8F58A819B816115710589F1FB01B4
:1010B00093838283FE0111C040815181028113819B
:1010C00048175907E0F04817590799F4109761F04D
:1010D00012960C93129713961C933296CF01DF91C0
:1010E000CF911F910F9108950093D6021093D702CC
:1010F000F4CF2115310551F04217530738F0A901FB
:10110000DB019A01BD01DF01F801C1CFEF01F9CF89
:101110009093D7028093D602CDCFFE01E20FF31F4A
:10112000819391932250310939832883D7CF20911D
:10113000D4023091D502232B41F420910201309149
:1011400003013093D5022093D40220910001309105
:1011500001012115310541F42DB73EB7409104013D
:1011600050910501241B350BE091D402F091D5027A
:10117000E217F307A0F42E1B3F0B2817390778F06E
:10118000AC014E5F5F4F2417350748F04E0F5F1FCD
:101190005093D5024093D402819391939FCFF0E076
:1011A000E0E09CCFCF93DF930097E9F0FC0132970A
:1011B00013821282A091D602B091D702ED0130E0E5
:1011C00020E01097A1F420813181820F931F20919C
:1011D000D4023091D5022817390709F061C0F09385
:1011E000D502E093D402DF91CF910895EA01CE17A2
:1011F000DF07E8F54A815B819E0141155105B1F792
:10120000E901FB83EA8349915991C40FD51FEC177B
:10121000FD0761F4808191810296840F951FE90199
:1012200099838883828193819B838A83F0E0E0E0C5
:1012300012968D919C9113970097B9F52D913C9141
:101240001197CD010296820F931F2091D402309105
:10125000D5022817390739F6309751F51092D70281
:101260001092D602B093D502A093D402BCCFD38300
:10127000C28340815181840F951FC817D90761F43B
:101280004E5F5F4F88819981480F591F518340837A
:101290008A819B81938382832115310509F0B0CF28
:1012A000F093D702E093D6029ECFFD01DC01C0CFC0
:1012B00013821282D7CFB0E0A0E0E1E6F9E00C940F
:1012C000FB078C01009751F4CB010E9436088C017A
:1012D000C801CDB7DEB7E0E10C941708FC01E60FBA
:1012E000F71F9C0122503109E217F30708F49DC053
:1012F000D901CD91DC911197C617D70798F0C53069
:10130000D10530F3CE0104978617970708F3C61B63
:10131000D70B2297C193D1936D937C93CF010E94F9
:10132000D208D6CF5B01AC1ABD0A4C018C0E9D1EB3
:10133000A091D602B091D702512C412CF12CE12C76
:10134000109731F58091D4029091D50288159905B6
:1013500009F05CC04616570608F058C0809100019D
:1013600090910101009741F48DB79EB7409104011F
:1013700050910501841B950BE817F90708F055C03B
:10138000F093D502E093D402F90171836083A0CF7A
:101390008D919C91119712966C90129713967C9058
:1013A0001397A815B90559F56C0142E0C40ED11C7C
:1013B000CA14DB0420F1AC014A195B09DA01129668
:1013C000159780F06282738251834083D9016D93B7
:1013D0007C93E114F10471F0D7011396FC93EE9322
:1013E000129776CF22968C0F9D1FF90191838083EF
:1013F000F301EFCFF093D702E093D60269CF4816FE
:10140000590608F42C017D01D3019ACFCB010E942B
:1014100036087C01009749F0AE01B8010E94180A15
:10142000C8010E94D208870153CF10E000E050CFDE
:10143000FB01DC0102C001900D9241505040D8F7F1
:101440000895FB01DC0101900D920020E1F7089561
:10145000F894FFCF0000D8028000000000002C01AB
:101460008C00B9007901EA00C800DC00000000002F
:1014700090048C00A202A1020D0A004154004154C4
:101480002B434D47463D310041542B434D47533D7F
:10149000222B393100220D0068747470733A2F2F9B
:1014A0007777772E676F6F676C652E636F6D2F6D23
:1014B0006170732F0031332E3034363130303600C6
:1014C0002C0038302E32323039363634004649520C
:1014D0004520455854494E475549534845520020E8
:1014E00046495245200020202020455854494E4767
:1014F000554953484552002D2D534D4F4B452044DF
:10150000455445435445442D2D002020534D4F4B09
:1015100045204445544543544544202000534D4FF5
:101520004B452044455445435445440037333339F3
:10153000303131383039002D2D464952452044454F
:101540005445435445442D2D002020464952452002
:1015500044455445435445442020004649524520C3
:0A156000444554454354454400003F
:107E0000112484B714BE81FFF0D085E080938100F7
:107E100082E08093C00088E18093C10086E0809377
:107E2000C20080E18093C4008EE0C9D0259A86E02C
:107E300020E33CEF91E0309385002093840096BBD3
:107E4000B09BFECF1D9AA8958150A9F7CC24DD24C4
:107E500088248394B5E0AB2EA1E19A2EF3E0BF2EE7
:107E6000A2D0813461F49FD0082FAFD0023811F036
:107E7000013811F484E001C083E08DD089C08234E0
:107E800011F484E103C0853419F485E0A6D080C0E4
:107E9000853579F488D0E82EFF2485D0082F10E0AE
:107EA000102F00270E291F29000F111F8ED06801E7
:107EB0006FC0863521F484E090D080E0DECF843638
:107EC00009F040C070D06FD0082F6DD080E0C81688
:107ED00080E7D80618F4F601B7BEE895C0E0D1E017
:107EE00062D089930C17E1F7F0E0CF16F0E7DF06D8
:107EF00018F0F601B7BEE89568D007B600FCFDCFD4
:107F0000A601A0E0B1E02C9130E011968C91119780
:107F100090E0982F8827822B932B1296FA010C0160
:107F200087BEE89511244E5F5F4FF1E0A038BF0790
:107F300051F7F601A7BEE89507B600FCFDCF97BE46
:107F4000E89526C08437B1F42ED02DD0F82E2BD052
:107F50003CD0F601EF2C8F010F5F1F4F84911BD097
:107F6000EA94F801C1F70894C11CD11CFA94CF0C13
:107F7000D11C0EC0853739F428D08EE10CD085E9AC
:107F80000AD08FE07ACF813511F488E018D01DD067
:107F900080E101D065CF982F8091C00085FFFCCF94
:107FA0009093C60008958091C00087FFFCCF809118
:107FB000C00084FD01C0A8958091C6000895E0E648
:107FC000F0E098E1908380830895EDDF803219F02E
:107FD00088E0F5DFFFCF84E1DECF1F93182FE3DFCA
:107FE0001150E9F7F2DF1F91089580E0E8DFEE27F6
:047FF000FF270994CA
:027FFE00040479
:00000001FF
